{
	"BistroMap/Tokens/bistromap_ERC20.sol": {
		"BSM": {
			"abi": [
				{
					"inputs": [],
					"stateMutability": "nonpayable",
					"type": "constructor"
				},
				{
					"inputs": [
						{
							"internalType": "address",
							"name": "spender",
							"type": "address"
						},
						{
							"internalType": "uint256",
							"name": "allowance",
							"type": "uint256"
						},
						{
							"internalType": "uint256",
							"name": "needed",
							"type": "uint256"
						}
					],
					"name": "ERC20InsufficientAllowance",
					"type": "error"
				},
				{
					"inputs": [
						{
							"internalType": "address",
							"name": "sender",
							"type": "address"
						},
						{
							"internalType": "uint256",
							"name": "balance",
							"type": "uint256"
						},
						{
							"internalType": "uint256",
							"name": "needed",
							"type": "uint256"
						}
					],
					"name": "ERC20InsufficientBalance",
					"type": "error"
				},
				{
					"inputs": [
						{
							"internalType": "address",
							"name": "approver",
							"type": "address"
						}
					],
					"name": "ERC20InvalidApprover",
					"type": "error"
				},
				{
					"inputs": [
						{
							"internalType": "address",
							"name": "receiver",
							"type": "address"
						}
					],
					"name": "ERC20InvalidReceiver",
					"type": "error"
				},
				{
					"inputs": [
						{
							"internalType": "address",
							"name": "sender",
							"type": "address"
						}
					],
					"name": "ERC20InvalidSender",
					"type": "error"
				},
				{
					"inputs": [
						{
							"internalType": "address",
							"name": "spender",
							"type": "address"
						}
					],
					"name": "ERC20InvalidSpender",
					"type": "error"
				},
				{
					"inputs": [
						{
							"internalType": "address",
							"name": "owner",
							"type": "address"
						}
					],
					"name": "OwnableInvalidOwner",
					"type": "error"
				},
				{
					"inputs": [
						{
							"internalType": "address",
							"name": "account",
							"type": "address"
						}
					],
					"name": "OwnableUnauthorizedAccount",
					"type": "error"
				},
				{
					"anonymous": false,
					"inputs": [
						{
							"indexed": true,
							"internalType": "address",
							"name": "owner",
							"type": "address"
						},
						{
							"indexed": true,
							"internalType": "address",
							"name": "spender",
							"type": "address"
						},
						{
							"indexed": false,
							"internalType": "uint256",
							"name": "value",
							"type": "uint256"
						}
					],
					"name": "Approval",
					"type": "event"
				},
				{
					"anonymous": false,
					"inputs": [
						{
							"indexed": true,
							"internalType": "address",
							"name": "previousOwner",
							"type": "address"
						},
						{
							"indexed": true,
							"internalType": "address",
							"name": "newOwner",
							"type": "address"
						}
					],
					"name": "OwnershipTransferred",
					"type": "event"
				},
				{
					"anonymous": false,
					"inputs": [
						{
							"indexed": true,
							"internalType": "address",
							"name": "from",
							"type": "address"
						},
						{
							"indexed": true,
							"internalType": "address",
							"name": "to",
							"type": "address"
						},
						{
							"indexed": false,
							"internalType": "uint256",
							"name": "value",
							"type": "uint256"
						}
					],
					"name": "Transfer",
					"type": "event"
				},
				{
					"inputs": [],
					"name": "FORTY_EIGHT_WEEKS",
					"outputs": [
						{
							"internalType": "uint256",
							"name": "",
							"type": "uint256"
						}
					],
					"stateMutability": "view",
					"type": "function"
				},
				{
					"inputs": [],
					"name": "NINETY_SIX_WEEKS",
					"outputs": [
						{
							"internalType": "uint256",
							"name": "",
							"type": "uint256"
						}
					],
					"stateMutability": "view",
					"type": "function"
				},
				{
					"inputs": [],
					"name": "PRICE_PER_TOKEN_PRESALE",
					"outputs": [
						{
							"internalType": "uint256",
							"name": "",
							"type": "uint256"
						}
					],
					"stateMutability": "view",
					"type": "function"
				},
				{
					"inputs": [],
					"name": "TWENTY_FOUR_WEEKS",
					"outputs": [
						{
							"internalType": "uint256",
							"name": "",
							"type": "uint256"
						}
					],
					"stateMutability": "view",
					"type": "function"
				},
				{
					"inputs": [
						{
							"internalType": "address",
							"name": "owner",
							"type": "address"
						},
						{
							"internalType": "address",
							"name": "spender",
							"type": "address"
						}
					],
					"name": "allowance",
					"outputs": [
						{
							"internalType": "uint256",
							"name": "",
							"type": "uint256"
						}
					],
					"stateMutability": "view",
					"type": "function"
				},
				{
					"inputs": [
						{
							"internalType": "address",
							"name": "spender",
							"type": "address"
						},
						{
							"internalType": "uint256",
							"name": "value",
							"type": "uint256"
						}
					],
					"name": "approve",
					"outputs": [
						{
							"internalType": "bool",
							"name": "",
							"type": "bool"
						}
					],
					"stateMutability": "nonpayable",
					"type": "function"
				},
				{
					"inputs": [
						{
							"internalType": "address",
							"name": "account",
							"type": "address"
						}
					],
					"name": "balanceOf",
					"outputs": [
						{
							"internalType": "uint256",
							"name": "",
							"type": "uint256"
						}
					],
					"stateMutability": "view",
					"type": "function"
				},
				{
					"inputs": [
						{
							"internalType": "uint256",
							"name": "amount",
							"type": "uint256"
						}
					],
					"name": "buyPrivateSale",
					"outputs": [],
					"stateMutability": "nonpayable",
					"type": "function"
				},
				{
					"inputs": [],
					"name": "decimals",
					"outputs": [
						{
							"internalType": "uint8",
							"name": "",
							"type": "uint8"
						}
					],
					"stateMutability": "view",
					"type": "function"
				},
				{
					"inputs": [
						{
							"internalType": "address",
							"name": "_to",
							"type": "address"
						},
						{
							"internalType": "uint256",
							"name": "_amount",
							"type": "uint256"
						}
					],
					"name": "mint",
					"outputs": [],
					"stateMutability": "nonpayable",
					"type": "function"
				},
				{
					"inputs": [],
					"name": "name",
					"outputs": [
						{
							"internalType": "string",
							"name": "",
							"type": "string"
						}
					],
					"stateMutability": "view",
					"type": "function"
				},
				{
					"inputs": [],
					"name": "owner",
					"outputs": [
						{
							"internalType": "address",
							"name": "",
							"type": "address"
						}
					],
					"stateMutability": "view",
					"type": "function"
				},
				{
					"inputs": [],
					"name": "preSaleCap",
					"outputs": [
						{
							"internalType": "uint256",
							"name": "",
							"type": "uint256"
						}
					],
					"stateMutability": "view",
					"type": "function"
				},
				{
					"inputs": [],
					"name": "preSalesLimitPerBeneficiary",
					"outputs": [
						{
							"internalType": "uint256",
							"name": "",
							"type": "uint256"
						}
					],
					"stateMutability": "view",
					"type": "function"
				},
				{
					"inputs": [],
					"name": "presaleOn",
					"outputs": [
						{
							"internalType": "uint256",
							"name": "",
							"type": "uint256"
						}
					],
					"stateMutability": "view",
					"type": "function"
				},
				{
					"inputs": [],
					"name": "presalePeriod",
					"outputs": [
						{
							"internalType": "uint256",
							"name": "",
							"type": "uint256"
						}
					],
					"stateMutability": "view",
					"type": "function"
				},
				{
					"inputs": [],
					"name": "release",
					"outputs": [],
					"stateMutability": "nonpayable",
					"type": "function"
				},
				{
					"inputs": [],
					"name": "renounceOwnership",
					"outputs": [],
					"stateMutability": "nonpayable",
					"type": "function"
				},
				{
					"inputs": [],
					"name": "soldAmount",
					"outputs": [
						{
							"internalType": "uint256",
							"name": "",
							"type": "uint256"
						}
					],
					"stateMutability": "view",
					"type": "function"
				},
				{
					"inputs": [],
					"name": "symbol",
					"outputs": [
						{
							"internalType": "string",
							"name": "",
							"type": "string"
						}
					],
					"stateMutability": "view",
					"type": "function"
				},
				{
					"inputs": [],
					"name": "totalSupply",
					"outputs": [
						{
							"internalType": "uint256",
							"name": "",
							"type": "uint256"
						}
					],
					"stateMutability": "view",
					"type": "function"
				},
				{
					"inputs": [
						{
							"internalType": "address",
							"name": "to",
							"type": "address"
						},
						{
							"internalType": "uint256",
							"name": "value",
							"type": "uint256"
						}
					],
					"name": "transfer",
					"outputs": [
						{
							"internalType": "bool",
							"name": "",
							"type": "bool"
						}
					],
					"stateMutability": "nonpayable",
					"type": "function"
				},
				{
					"inputs": [
						{
							"internalType": "address",
							"name": "from",
							"type": "address"
						},
						{
							"internalType": "address",
							"name": "to",
							"type": "address"
						},
						{
							"internalType": "uint256",
							"name": "value",
							"type": "uint256"
						}
					],
					"name": "transferFrom",
					"outputs": [
						{
							"internalType": "bool",
							"name": "",
							"type": "bool"
						}
					],
					"stateMutability": "nonpayable",
					"type": "function"
				},
				{
					"inputs": [
						{
							"internalType": "address",
							"name": "newOwner",
							"type": "address"
						}
					],
					"name": "transferOwnership",
					"outputs": [],
					"stateMutability": "nonpayable",
					"type": "function"
				},
				{
					"inputs": [],
					"name": "usdtToken",
					"outputs": [
						{
							"internalType": "contract IERC20",
							"name": "",
							"type": "address"
						}
					],
					"stateMutability": "view",
					"type": "function"
				}
			],
			"devdoc": {
				"errors": {
					"ERC20InsufficientAllowance(address,uint256,uint256)": [
						{
							"details": "Indicates a failure with the `spender`’s `allowance`. Used in transfers.",
							"params": {
								"allowance": "Amount of tokens a `spender` is allowed to operate with.",
								"needed": "Minimum amount required to perform a transfer.",
								"spender": "Address that may be allowed to operate on tokens without being their owner."
							}
						}
					],
					"ERC20InsufficientBalance(address,uint256,uint256)": [
						{
							"details": "Indicates an error related to the current `balance` of a `sender`. Used in transfers.",
							"params": {
								"balance": "Current balance for the interacting account.",
								"needed": "Minimum amount required to perform a transfer.",
								"sender": "Address whose tokens are being transferred."
							}
						}
					],
					"ERC20InvalidApprover(address)": [
						{
							"details": "Indicates a failure with the `approver` of a token to be approved. Used in approvals.",
							"params": {
								"approver": "Address initiating an approval operation."
							}
						}
					],
					"ERC20InvalidReceiver(address)": [
						{
							"details": "Indicates a failure with the token `receiver`. Used in transfers.",
							"params": {
								"receiver": "Address to which tokens are being transferred."
							}
						}
					],
					"ERC20InvalidSender(address)": [
						{
							"details": "Indicates a failure with the token `sender`. Used in transfers.",
							"params": {
								"sender": "Address whose tokens are being transferred."
							}
						}
					],
					"ERC20InvalidSpender(address)": [
						{
							"details": "Indicates a failure with the `spender` to be approved. Used in approvals.",
							"params": {
								"spender": "Address that may be allowed to operate on tokens without being their owner."
							}
						}
					],
					"OwnableInvalidOwner(address)": [
						{
							"details": "The owner is not a valid owner account. (eg. `address(0)`)"
						}
					],
					"OwnableUnauthorizedAccount(address)": [
						{
							"details": "The caller account is not authorized to perform an operation."
						}
					]
				},
				"events": {
					"Approval(address,address,uint256)": {
						"details": "Emitted when the allowance of a `spender` for an `owner` is set by a call to {approve}. `value` is the new allowance."
					},
					"Transfer(address,address,uint256)": {
						"details": "Emitted when `value` tokens are moved from one account (`from`) to another (`to`). Note that `value` may be zero."
					}
				},
				"kind": "dev",
				"methods": {
					"allowance(address,address)": {
						"details": "See {IERC20-allowance}."
					},
					"approve(address,uint256)": {
						"details": "See {IERC20-approve}. NOTE: If `value` is the maximum `uint256`, the allowance is not updated on `transferFrom`. This is semantically equivalent to an infinite approval. Requirements: - `spender` cannot be the zero address."
					},
					"balanceOf(address)": {
						"details": "See {IERC20-balanceOf}."
					},
					"decimals()": {
						"details": "Returns the number of decimals used to get its user representation. For example, if `decimals` equals `2`, a balance of `505` tokens should be displayed to a user as `5.05` (`505 / 10 ** 2`). Tokens usually opt for a value of 18, imitating the relationship between Ether and Wei. This is the default value returned by this function, unless it's overridden. NOTE: This information is only used for _display_ purposes: it in no way affects any of the arithmetic of the contract, including {IERC20-balanceOf} and {IERC20-transfer}."
					},
					"name()": {
						"details": "Returns the name of the token."
					},
					"owner()": {
						"details": "Returns the address of the current owner."
					},
					"renounceOwnership()": {
						"details": "Leaves the contract without owner. It will not be possible to call `onlyOwner` functions. Can only be called by the current owner. NOTE: Renouncing ownership will leave the contract without an owner, thereby disabling any functionality that is only available to the owner."
					},
					"symbol()": {
						"details": "Returns the symbol of the token, usually a shorter version of the name."
					},
					"totalSupply()": {
						"details": "See {IERC20-totalSupply}."
					},
					"transfer(address,uint256)": {
						"details": "See {IERC20-transfer}. Requirements: - `to` cannot be the zero address. - the caller must have a balance of at least `value`."
					},
					"transferFrom(address,address,uint256)": {
						"details": "See {IERC20-transferFrom}. Emits an {Approval} event indicating the updated allowance. This is not required by the EIP. See the note at the beginning of {ERC20}. NOTE: Does not update the allowance if the current allowance is the maximum `uint256`. Requirements: - `from` and `to` cannot be the zero address. - `from` must have a balance of at least `value`. - the caller must have allowance for ``from``'s tokens of at least `value`."
					},
					"transferOwnership(address)": {
						"details": "Transfers ownership of the contract to a new account (`newOwner`). Can only be called by the current owner."
					}
				},
				"version": 1
			},
			"evm": {
				"assembly": "    /* \"BistroMap/Tokens/bistromap_ERC20.sol\":225:3721  contract BSM is ERC20(\"Bistro\", \"BSM\"), Ownable(msg.sender) {... */\n  mstore(0x40, 0x80)\n    /* \"BistroMap/Tokens/bistromap_ERC20.sol\":1034:1041  2 weeks */\n  0x127500\n    /* \"BistroMap/Tokens/bistromap_ERC20.sol\":1006:1041  uint public presalePeriod = 2 weeks */\n  0x07\n  sstore\n    /* \"BistroMap/Tokens/bistromap_ERC20.sol\":1392:1533  constructor() {... */\n  callvalue\n  dup1\n  iszero\n  tag_1\n  jumpi\n  0x00\n  dup1\n  revert\ntag_1:\n  pop\n    /* \"BistroMap/Tokens/bistromap_ERC20.sol\":273:283  msg.sender */\n  caller\n    /* \"@openzeppelin/contracts/token/ERC20/ERC20.sol\":1896:2009  constructor(string memory name_, string memory symbol_) {... */\n  mload(0x40)\n  dup1\n  0x40\n  add\n  0x40\n  mstore\n  dup1\n  0x06\n  dup2\n  mstore\n  0x20\n  add\n  0x42697374726f0000000000000000000000000000000000000000000000000000\n  dup2\n  mstore\n  pop\n  mload(0x40)\n  dup1\n  0x40\n  add\n  0x40\n  mstore\n  dup1\n  0x03\n  dup2\n  mstore\n  0x20\n  add\n  0x42534d0000000000000000000000000000000000000000000000000000000000\n  dup2\n  mstore\n  pop\n    /* \"@openzeppelin/contracts/token/ERC20/ERC20.sol\":1970:1975  name_ */\n  dup2\n    /* \"@openzeppelin/contracts/token/ERC20/ERC20.sol\":1962:1967  _name */\n  0x03\n    /* \"@openzeppelin/contracts/token/ERC20/ERC20.sol\":1962:1975  _name = name_ */\n  swap1\n  dup2\n  tag_6\n  swap2\n  swap1\n  tag_7\n  jump\t// in\ntag_6:\n  pop\n    /* \"@openzeppelin/contracts/token/ERC20/ERC20.sol\":1995:2002  symbol_ */\n  dup1\n    /* \"@openzeppelin/contracts/token/ERC20/ERC20.sol\":1985:1992  _symbol */\n  0x04\n    /* \"@openzeppelin/contracts/token/ERC20/ERC20.sol\":1985:2002  _symbol = symbol_ */\n  swap1\n  dup2\n  tag_8\n  swap2\n  swap1\n  tag_7\n  jump\t// in\ntag_8:\n  pop\n    /* \"@openzeppelin/contracts/token/ERC20/ERC20.sol\":1896:2009  constructor(string memory name_, string memory symbol_) {... */\n  pop\n  pop\n    /* \"@openzeppelin/contracts/access/Ownable.sol\":1297:1298  0 */\n  0x00\n    /* \"@openzeppelin/contracts/access/Ownable.sol\":1273:1299  initialOwner == address(0) */\n  0xffffffffffffffffffffffffffffffffffffffff\n  and\n    /* \"@openzeppelin/contracts/access/Ownable.sol\":1273:1285  initialOwner */\n  dup2\n    /* \"@openzeppelin/contracts/access/Ownable.sol\":1273:1299  initialOwner == address(0) */\n  0xffffffffffffffffffffffffffffffffffffffff\n  and\n  sub\n    /* \"@openzeppelin/contracts/access/Ownable.sol\":1269:1364  if (initialOwner == address(0)) {... */\n  tag_10\n  jumpi\n    /* \"@openzeppelin/contracts/access/Ownable.sol\":1350:1351  0 */\n  0x00\n    /* \"@openzeppelin/contracts/access/Ownable.sol\":1322:1353  OwnableInvalidOwner(address(0)) */\n  mload(0x40)\n  0x1e4fbdf700000000000000000000000000000000000000000000000000000000\n  dup2\n  mstore\n  0x04\n  add\n  tag_11\n  swap2\n  swap1\n  tag_12\n  jump\t// in\ntag_11:\n  mload(0x40)\n  dup1\n  swap2\n  sub\n  swap1\n  revert\n    /* \"@openzeppelin/contracts/access/Ownable.sol\":1269:1364  if (initialOwner == address(0)) {... */\ntag_10:\n    /* \"@openzeppelin/contracts/access/Ownable.sol\":1373:1405  _transferOwnership(initialOwner) */\n  tag_13\n    /* \"@openzeppelin/contracts/access/Ownable.sol\":1392:1404  initialOwner */\n  dup2\n    /* \"@openzeppelin/contracts/access/Ownable.sol\":1373:1391  _transferOwnership */\n  shl(0x20, tag_14)\n    /* \"@openzeppelin/contracts/access/Ownable.sol\":1373:1405  _transferOwnership(initialOwner) */\n  0x20\n  shr\n  jump\t// in\ntag_13:\n    /* \"@openzeppelin/contracts/access/Ownable.sol\":1225:1412  constructor(address initialOwner) {... */\n  pop\n    /* \"BistroMap/Tokens/bistromap_ERC20.sol\":1416:1452  _mint(address(this), _initialSupply) */\n  tag_16\n    /* \"BistroMap/Tokens/bistromap_ERC20.sol\":1430:1434  this */\n  address\n    /* \"BistroMap/Tokens/bistromap_ERC20.sol\":584:602  2100000 * 10 ** 18 */\n  0x01bcb13a657b2638800000\n    /* \"BistroMap/Tokens/bistromap_ERC20.sol\":1416:1421  _mint */\n  shl(0x20, tag_17)\n    /* \"BistroMap/Tokens/bistromap_ERC20.sol\":1416:1452  _mint(address(this), _initialSupply) */\n  0x20\n  shr\n  jump\t// in\ntag_16:\n    /* \"BistroMap/Tokens/bistromap_ERC20.sol\":584:602  2100000 * 10 ** 18 */\n  0x01bcb13a657b2638800000\n    /* \"BistroMap/Tokens/bistromap_ERC20.sol\":1462:1472  preSaleCap */\n  0x08\n    /* \"BistroMap/Tokens/bistromap_ERC20.sol\":1462:1489  preSaleCap = _initialSupply */\n  dup2\n  swap1\n  sstore\n  pop\n    /* \"BistroMap/Tokens/bistromap_ERC20.sol\":1511:1526  block.timestamp */\n  timestamp\n    /* \"BistroMap/Tokens/bistromap_ERC20.sol\":1499:1508  presaleOn */\n  0x0a\n    /* \"BistroMap/Tokens/bistromap_ERC20.sol\":1499:1526  presaleOn = block.timestamp */\n  dup2\n  swap1\n  sstore\n  pop\n    /* \"BistroMap/Tokens/bistromap_ERC20.sol\":225:3721  contract BSM is ERC20(\"Bistro\", \"BSM\"), Ownable(msg.sender) {... */\n  jump(tag_18)\n    /* \"@openzeppelin/contracts/access/Ownable.sol\":2912:3099  function _transferOwnership(address newOwner) internal virtual {... */\ntag_14:\n    /* \"@openzeppelin/contracts/access/Ownable.sol\":2985:3001  address oldOwner */\n  0x00\n    /* \"@openzeppelin/contracts/access/Ownable.sol\":3004:3010  _owner */\n  0x05\n  0x00\n  swap1\n  sload\n  swap1\n  0x0100\n  exp\n  swap1\n  div\n  0xffffffffffffffffffffffffffffffffffffffff\n  and\n    /* \"@openzeppelin/contracts/access/Ownable.sol\":2985:3010  address oldOwner = _owner */\n  swap1\n  pop\n    /* \"@openzeppelin/contracts/access/Ownable.sol\":3029:3037  newOwner */\n  dup2\n    /* \"@openzeppelin/contracts/access/Ownable.sol\":3020:3026  _owner */\n  0x05\n  0x00\n    /* \"@openzeppelin/contracts/access/Ownable.sol\":3020:3037  _owner = newOwner */\n  0x0100\n  exp\n  dup2\n  sload\n  dup2\n  0xffffffffffffffffffffffffffffffffffffffff\n  mul\n  not\n  and\n  swap1\n  dup4\n  0xffffffffffffffffffffffffffffffffffffffff\n  and\n  mul\n  or\n  swap1\n  sstore\n  pop\n    /* \"@openzeppelin/contracts/access/Ownable.sol\":3083:3091  newOwner */\n  dup2\n    /* \"@openzeppelin/contracts/access/Ownable.sol\":3052:3092  OwnershipTransferred(oldOwner, newOwner) */\n  0xffffffffffffffffffffffffffffffffffffffff\n  and\n    /* \"@openzeppelin/contracts/access/Ownable.sol\":3073:3081  oldOwner */\n  dup2\n    /* \"@openzeppelin/contracts/access/Ownable.sol\":3052:3092  OwnershipTransferred(oldOwner, newOwner) */\n  0xffffffffffffffffffffffffffffffffffffffff\n  and\n  0x8be0079c531659141344cd1fd0a4f28419497f9722a3daafe3b4186f6b6457e0\n  mload(0x40)\n  mload(0x40)\n  dup1\n  swap2\n  sub\n  swap1\n  log3\n    /* \"@openzeppelin/contracts/access/Ownable.sol\":2975:3099  {... */\n  pop\n    /* \"@openzeppelin/contracts/access/Ownable.sol\":2912:3099  function _transferOwnership(address newOwner) internal virtual {... */\n  pop\n  jump\t// out\n    /* \"@openzeppelin/contracts/token/ERC20/ERC20.sol\":7721:7929  function _mint(address account, uint256 value) internal {... */\ntag_17:\n    /* \"@openzeppelin/contracts/token/ERC20/ERC20.sol\":7810:7811  0 */\n  0x00\n    /* \"@openzeppelin/contracts/token/ERC20/ERC20.sol\":7791:7812  account == address(0) */\n  0xffffffffffffffffffffffffffffffffffffffff\n  and\n    /* \"@openzeppelin/contracts/token/ERC20/ERC20.sol\":7791:7798  account */\n  dup3\n    /* \"@openzeppelin/contracts/token/ERC20/ERC20.sol\":7791:7812  account == address(0) */\n  0xffffffffffffffffffffffffffffffffffffffff\n  and\n  sub\n    /* \"@openzeppelin/contracts/token/ERC20/ERC20.sol\":7787:7878  if (account == address(0)) {... */\n  tag_21\n  jumpi\n    /* \"@openzeppelin/contracts/token/ERC20/ERC20.sol\":7864:7865  0 */\n  0x00\n    /* \"@openzeppelin/contracts/token/ERC20/ERC20.sol\":7835:7867  ERC20InvalidReceiver(address(0)) */\n  mload(0x40)\n  0xec442f0500000000000000000000000000000000000000000000000000000000\n  dup2\n  mstore\n  0x04\n  add\n  tag_22\n  swap2\n  swap1\n  tag_12\n  jump\t// in\ntag_22:\n  mload(0x40)\n  dup1\n  swap2\n  sub\n  swap1\n  revert\n    /* \"@openzeppelin/contracts/token/ERC20/ERC20.sol\":7787:7878  if (account == address(0)) {... */\ntag_21:\n    /* \"@openzeppelin/contracts/token/ERC20/ERC20.sol\":7887:7922  _update(address(0), account, value) */\n  tag_23\n    /* \"@openzeppelin/contracts/token/ERC20/ERC20.sol\":7903:7904  0 */\n  0x00\n    /* \"@openzeppelin/contracts/token/ERC20/ERC20.sol\":7907:7914  account */\n  dup4\n    /* \"@openzeppelin/contracts/token/ERC20/ERC20.sol\":7916:7921  value */\n  dup4\n    /* \"@openzeppelin/contracts/token/ERC20/ERC20.sol\":7887:7894  _update */\n  shl(0x20, tag_24)\n    /* \"@openzeppelin/contracts/token/ERC20/ERC20.sol\":7887:7922  _update(address(0), account, value) */\n  0x20\n  shr\n  jump\t// in\ntag_23:\n    /* \"@openzeppelin/contracts/token/ERC20/ERC20.sol\":7721:7929  function _mint(address account, uint256 value) internal {... */\n  pop\n  pop\n  jump\t// out\n    /* \"@openzeppelin/contracts/token/ERC20/ERC20.sol\":6271:7378  function _update(address from, address to, uint256 value) internal virtual {... */\ntag_24:\n    /* \"@openzeppelin/contracts/token/ERC20/ERC20.sol\":6376:6377  0 */\n  0x00\n    /* \"@openzeppelin/contracts/token/ERC20/ERC20.sol\":6360:6378  from == address(0) */\n  0xffffffffffffffffffffffffffffffffffffffff\n  and\n    /* \"@openzeppelin/contracts/token/ERC20/ERC20.sol\":6360:6364  from */\n  dup4\n    /* \"@openzeppelin/contracts/token/ERC20/ERC20.sol\":6360:6378  from == address(0) */\n  0xffffffffffffffffffffffffffffffffffffffff\n  and\n  sub\n    /* \"@openzeppelin/contracts/token/ERC20/ERC20.sol\":6356:6896  if (from == address(0)) {... */\n  tag_26\n  jumpi\n    /* \"@openzeppelin/contracts/token/ERC20/ERC20.sol\":6512:6517  value */\n  dup1\n    /* \"@openzeppelin/contracts/token/ERC20/ERC20.sol\":6496:6508  _totalSupply */\n  0x02\n  0x00\n    /* \"@openzeppelin/contracts/token/ERC20/ERC20.sol\":6496:6517  _totalSupply += value */\n  dup3\n  dup3\n  sload\n  tag_27\n  swap2\n  swap1\n  tag_28\n  jump\t// in\ntag_27:\n  swap3\n  pop\n  pop\n  dup2\n  swap1\n  sstore\n  pop\n    /* \"@openzeppelin/contracts/token/ERC20/ERC20.sol\":6356:6896  if (from == address(0)) {... */\n  jump(tag_29)\ntag_26:\n    /* \"@openzeppelin/contracts/token/ERC20/ERC20.sol\":6548:6567  uint256 fromBalance */\n  0x00\n    /* \"@openzeppelin/contracts/token/ERC20/ERC20.sol\":6570:6579  _balances */\n  dup1\n    /* \"@openzeppelin/contracts/token/ERC20/ERC20.sol\":6570:6585  _balances[from] */\n  0x00\n    /* \"@openzeppelin/contracts/token/ERC20/ERC20.sol\":6580:6584  from */\n  dup6\n    /* \"@openzeppelin/contracts/token/ERC20/ERC20.sol\":6570:6585  _balances[from] */\n  0xffffffffffffffffffffffffffffffffffffffff\n  and\n  0xffffffffffffffffffffffffffffffffffffffff\n  and\n  dup2\n  mstore\n  0x20\n  add\n  swap1\n  dup2\n  mstore\n  0x20\n  add\n  0x00\n  keccak256\n  sload\n    /* \"@openzeppelin/contracts/token/ERC20/ERC20.sol\":6548:6585  uint256 fromBalance = _balances[from] */\n  swap1\n  pop\n    /* \"@openzeppelin/contracts/token/ERC20/ERC20.sol\":6617:6622  value */\n  dup2\n    /* \"@openzeppelin/contracts/token/ERC20/ERC20.sol\":6603:6614  fromBalance */\n  dup2\n    /* \"@openzeppelin/contracts/token/ERC20/ERC20.sol\":6603:6622  fromBalance < value */\n  lt\n    /* \"@openzeppelin/contracts/token/ERC20/ERC20.sol\":6599:6714  if (fromBalance < value) {... */\n  iszero\n  tag_30\n  jumpi\n    /* \"@openzeppelin/contracts/token/ERC20/ERC20.sol\":6674:6678  from */\n  dup4\n    /* \"@openzeppelin/contracts/token/ERC20/ERC20.sol\":6680:6691  fromBalance */\n  dup2\n    /* \"@openzeppelin/contracts/token/ERC20/ERC20.sol\":6693:6698  value */\n  dup4\n    /* \"@openzeppelin/contracts/token/ERC20/ERC20.sol\":6649:6699  ERC20InsufficientBalance(from, fromBalance, value) */\n  mload(0x40)\n  0xe450d38c00000000000000000000000000000000000000000000000000000000\n  dup2\n  mstore\n  0x04\n  add\n  tag_31\n  swap4\n  swap3\n  swap2\n  swap1\n  tag_32\n  jump\t// in\ntag_31:\n  mload(0x40)\n  dup1\n  swap2\n  sub\n  swap1\n  revert\n    /* \"@openzeppelin/contracts/token/ERC20/ERC20.sol\":6599:6714  if (fromBalance < value) {... */\ntag_30:\n    /* \"@openzeppelin/contracts/token/ERC20/ERC20.sol\":6866:6871  value */\n  dup2\n    /* \"@openzeppelin/contracts/token/ERC20/ERC20.sol\":6852:6863  fromBalance */\n  dup2\n    /* \"@openzeppelin/contracts/token/ERC20/ERC20.sol\":6852:6871  fromBalance - value */\n  sub\n    /* \"@openzeppelin/contracts/token/ERC20/ERC20.sol\":6834:6843  _balances */\n  0x00\n    /* \"@openzeppelin/contracts/token/ERC20/ERC20.sol\":6834:6849  _balances[from] */\n  dup1\n    /* \"@openzeppelin/contracts/token/ERC20/ERC20.sol\":6844:6848  from */\n  dup7\n    /* \"@openzeppelin/contracts/token/ERC20/ERC20.sol\":6834:6849  _balances[from] */\n  0xffffffffffffffffffffffffffffffffffffffff\n  and\n  0xffffffffffffffffffffffffffffffffffffffff\n  and\n  dup2\n  mstore\n  0x20\n  add\n  swap1\n  dup2\n  mstore\n  0x20\n  add\n  0x00\n  keccak256\n    /* \"@openzeppelin/contracts/token/ERC20/ERC20.sol\":6834:6871  _balances[from] = fromBalance - value */\n  dup2\n  swap1\n  sstore\n  pop\n    /* \"@openzeppelin/contracts/token/ERC20/ERC20.sol\":6534:6896  {... */\n  pop\n    /* \"@openzeppelin/contracts/token/ERC20/ERC20.sol\":6356:6896  if (from == address(0)) {... */\ntag_29:\n    /* \"@openzeppelin/contracts/token/ERC20/ERC20.sol\":6924:6925  0 */\n  0x00\n    /* \"@openzeppelin/contracts/token/ERC20/ERC20.sol\":6910:6926  to == address(0) */\n  0xffffffffffffffffffffffffffffffffffffffff\n  and\n    /* \"@openzeppelin/contracts/token/ERC20/ERC20.sol\":6910:6912  to */\n  dup3\n    /* \"@openzeppelin/contracts/token/ERC20/ERC20.sol\":6910:6926  to == address(0) */\n  0xffffffffffffffffffffffffffffffffffffffff\n  and\n  sub\n    /* \"@openzeppelin/contracts/token/ERC20/ERC20.sol\":6906:7331  if (to == address(0)) {... */\n  tag_33\n  jumpi\n    /* \"@openzeppelin/contracts/token/ERC20/ERC20.sol\":7089:7094  value */\n  dup1\n    /* \"@openzeppelin/contracts/token/ERC20/ERC20.sol\":7073:7085  _totalSupply */\n  0x02\n  0x00\n    /* \"@openzeppelin/contracts/token/ERC20/ERC20.sol\":7073:7094  _totalSupply -= value */\n  dup3\n  dup3\n  sload\n  sub\n  swap3\n  pop\n  pop\n  dup2\n  swap1\n  sstore\n  pop\n    /* \"@openzeppelin/contracts/token/ERC20/ERC20.sol\":6906:7331  if (to == address(0)) {... */\n  jump(tag_34)\ntag_33:\n    /* \"@openzeppelin/contracts/token/ERC20/ERC20.sol\":7301:7306  value */\n  dup1\n    /* \"@openzeppelin/contracts/token/ERC20/ERC20.sol\":7284:7293  _balances */\n  0x00\n    /* \"@openzeppelin/contracts/token/ERC20/ERC20.sol\":7284:7297  _balances[to] */\n  dup1\n    /* \"@openzeppelin/contracts/token/ERC20/ERC20.sol\":7294:7296  to */\n  dup5\n    /* \"@openzeppelin/contracts/token/ERC20/ERC20.sol\":7284:7297  _balances[to] */\n  0xffffffffffffffffffffffffffffffffffffffff\n  and\n  0xffffffffffffffffffffffffffffffffffffffff\n  and\n  dup2\n  mstore\n  0x20\n  add\n  swap1\n  dup2\n  mstore\n  0x20\n  add\n  0x00\n  keccak256\n  0x00\n    /* \"@openzeppelin/contracts/token/ERC20/ERC20.sol\":7284:7306  _balances[to] += value */\n  dup3\n  dup3\n  sload\n  add\n  swap3\n  pop\n  pop\n  dup2\n  swap1\n  sstore\n  pop\n    /* \"@openzeppelin/contracts/token/ERC20/ERC20.sol\":6906:7331  if (to == address(0)) {... */\ntag_34:\n    /* \"@openzeppelin/contracts/token/ERC20/ERC20.sol\":7361:7363  to */\n  dup2\n    /* \"@openzeppelin/contracts/token/ERC20/ERC20.sol\":7346:7371  Transfer(from, to, value) */\n  0xffffffffffffffffffffffffffffffffffffffff\n  and\n    /* \"@openzeppelin/contracts/token/ERC20/ERC20.sol\":7355:7359  from */\n  dup4\n    /* \"@openzeppelin/contracts/token/ERC20/ERC20.sol\":7346:7371  Transfer(from, to, value) */\n  0xffffffffffffffffffffffffffffffffffffffff\n  and\n  0xddf252ad1be2c89b69c2b068fc378daa952ba7f163c4a11628f55a4df523b3ef\n    /* \"@openzeppelin/contracts/token/ERC20/ERC20.sol\":7365:7370  value */\n  dup4\n    /* \"@openzeppelin/contracts/token/ERC20/ERC20.sol\":7346:7371  Transfer(from, to, value) */\n  mload(0x40)\n  tag_35\n  swap2\n  swap1\n  tag_36\n  jump\t// in\ntag_35:\n  mload(0x40)\n  dup1\n  swap2\n  sub\n  swap1\n  log3\n    /* \"@openzeppelin/contracts/token/ERC20/ERC20.sol\":6271:7378  function _update(address from, address to, uint256 value) internal virtual {... */\n  pop\n  pop\n  pop\n  jump\t// out\n    /* \"#utility.yul\":7:106   */\ntag_37:\n    /* \"#utility.yul\":59:65   */\n  0x00\n    /* \"#utility.yul\":93:98   */\n  dup2\n    /* \"#utility.yul\":87:99   */\n  mload\n    /* \"#utility.yul\":77:99   */\n  swap1\n  pop\n    /* \"#utility.yul\":7:106   */\n  swap2\n  swap1\n  pop\n  jump\t// out\n    /* \"#utility.yul\":112:292   */\ntag_38:\n    /* \"#utility.yul\":160:237   */\n  0x4e487b7100000000000000000000000000000000000000000000000000000000\n    /* \"#utility.yul\":157:158   */\n  0x00\n    /* \"#utility.yul\":150:238   */\n  mstore\n    /* \"#utility.yul\":257:261   */\n  0x41\n    /* \"#utility.yul\":254:255   */\n  0x04\n    /* \"#utility.yul\":247:262   */\n  mstore\n    /* \"#utility.yul\":281:285   */\n  0x24\n    /* \"#utility.yul\":278:279   */\n  0x00\n    /* \"#utility.yul\":271:286   */\n  revert\n    /* \"#utility.yul\":298:478   */\ntag_39:\n    /* \"#utility.yul\":346:423   */\n  0x4e487b7100000000000000000000000000000000000000000000000000000000\n    /* \"#utility.yul\":343:344   */\n  0x00\n    /* \"#utility.yul\":336:424   */\n  mstore\n    /* \"#utility.yul\":443:447   */\n  0x22\n    /* \"#utility.yul\":440:441   */\n  0x04\n    /* \"#utility.yul\":433:448   */\n  mstore\n    /* \"#utility.yul\":467:471   */\n  0x24\n    /* \"#utility.yul\":464:465   */\n  0x00\n    /* \"#utility.yul\":457:472   */\n  revert\n    /* \"#utility.yul\":484:804   */\ntag_40:\n    /* \"#utility.yul\":528:534   */\n  0x00\n    /* \"#utility.yul\":565:566   */\n  0x02\n    /* \"#utility.yul\":559:563   */\n  dup3\n    /* \"#utility.yul\":555:567   */\n  div\n    /* \"#utility.yul\":545:567   */\n  swap1\n  pop\n    /* \"#utility.yul\":612:613   */\n  0x01\n    /* \"#utility.yul\":606:610   */\n  dup3\n    /* \"#utility.yul\":602:614   */\n  and\n    /* \"#utility.yul\":633:651   */\n  dup1\n    /* \"#utility.yul\":623:704   */\n  tag_67\n  jumpi\n    /* \"#utility.yul\":689:693   */\n  0x7f\n    /* \"#utility.yul\":681:687   */\n  dup3\n    /* \"#utility.yul\":677:694   */\n  and\n    /* \"#utility.yul\":667:694   */\n  swap2\n  pop\n    /* \"#utility.yul\":623:704   */\ntag_67:\n    /* \"#utility.yul\":751:753   */\n  0x20\n    /* \"#utility.yul\":743:749   */\n  dup3\n    /* \"#utility.yul\":740:754   */\n  lt\n    /* \"#utility.yul\":720:738   */\n  dup2\n    /* \"#utility.yul\":717:755   */\n  sub\n    /* \"#utility.yul\":714:798   */\n  tag_68\n  jumpi\n    /* \"#utility.yul\":770:788   */\n  tag_69\n  tag_39\n  jump\t// in\ntag_69:\n    /* \"#utility.yul\":714:798   */\ntag_68:\n    /* \"#utility.yul\":535:804   */\n  pop\n    /* \"#utility.yul\":484:804   */\n  swap2\n  swap1\n  pop\n  jump\t// out\n    /* \"#utility.yul\":810:951   */\ntag_41:\n    /* \"#utility.yul\":859:863   */\n  0x00\n    /* \"#utility.yul\":882:885   */\n  dup2\n    /* \"#utility.yul\":874:885   */\n  swap1\n  pop\n    /* \"#utility.yul\":905:908   */\n  dup2\n    /* \"#utility.yul\":902:903   */\n  0x00\n    /* \"#utility.yul\":895:909   */\n  mstore\n    /* \"#utility.yul\":939:943   */\n  0x20\n    /* \"#utility.yul\":936:937   */\n  0x00\n    /* \"#utility.yul\":926:944   */\n  keccak256\n    /* \"#utility.yul\":918:944   */\n  swap1\n  pop\n    /* \"#utility.yul\":810:951   */\n  swap2\n  swap1\n  pop\n  jump\t// out\n    /* \"#utility.yul\":957:1050   */\ntag_42:\n    /* \"#utility.yul\":994:1000   */\n  0x00\n    /* \"#utility.yul\":1041:1043   */\n  0x20\n    /* \"#utility.yul\":1036:1038   */\n  0x1f\n    /* \"#utility.yul\":1029:1034   */\n  dup4\n    /* \"#utility.yul\":1025:1039   */\n  add\n    /* \"#utility.yul\":1021:1044   */\n  div\n    /* \"#utility.yul\":1011:1044   */\n  swap1\n  pop\n    /* \"#utility.yul\":957:1050   */\n  swap2\n  swap1\n  pop\n  jump\t// out\n    /* \"#utility.yul\":1056:1163   */\ntag_43:\n    /* \"#utility.yul\":1100:1108   */\n  0x00\n    /* \"#utility.yul\":1150:1155   */\n  dup3\n    /* \"#utility.yul\":1144:1148   */\n  dup3\n    /* \"#utility.yul\":1140:1156   */\n  shl\n    /* \"#utility.yul\":1119:1156   */\n  swap1\n  pop\n    /* \"#utility.yul\":1056:1163   */\n  swap3\n  swap2\n  pop\n  pop\n  jump\t// out\n    /* \"#utility.yul\":1169:1562   */\ntag_44:\n    /* \"#utility.yul\":1238:1244   */\n  0x00\n    /* \"#utility.yul\":1288:1289   */\n  0x08\n    /* \"#utility.yul\":1276:1286   */\n  dup4\n    /* \"#utility.yul\":1272:1290   */\n  mul\n    /* \"#utility.yul\":1311:1408   */\n  tag_74\n    /* \"#utility.yul\":1341:1407   */\n  0xffffffffffffffffffffffffffffffffffffffffffffffffffffffffffffffff\n    /* \"#utility.yul\":1330:1339   */\n  dup3\n    /* \"#utility.yul\":1311:1408   */\n  tag_43\n  jump\t// in\ntag_74:\n    /* \"#utility.yul\":1429:1468   */\n  tag_75\n    /* \"#utility.yul\":1459:1467   */\n  dup7\n    /* \"#utility.yul\":1448:1457   */\n  dup4\n    /* \"#utility.yul\":1429:1468   */\n  tag_43\n  jump\t// in\ntag_75:\n    /* \"#utility.yul\":1417:1468   */\n  swap6\n  pop\n    /* \"#utility.yul\":1501:1505   */\n  dup1\n    /* \"#utility.yul\":1497:1506   */\n  not\n    /* \"#utility.yul\":1490:1495   */\n  dup5\n    /* \"#utility.yul\":1486:1507   */\n  and\n    /* \"#utility.yul\":1477:1507   */\n  swap4\n  pop\n    /* \"#utility.yul\":1550:1554   */\n  dup1\n    /* \"#utility.yul\":1540:1548   */\n  dup7\n    /* \"#utility.yul\":1536:1555   */\n  and\n    /* \"#utility.yul\":1529:1534   */\n  dup5\n    /* \"#utility.yul\":1526:1556   */\n  or\n    /* \"#utility.yul\":1516:1556   */\n  swap3\n  pop\n    /* \"#utility.yul\":1245:1562   */\n  pop\n  pop\n    /* \"#utility.yul\":1169:1562   */\n  swap4\n  swap3\n  pop\n  pop\n  pop\n  jump\t// out\n    /* \"#utility.yul\":1568:1645   */\ntag_45:\n    /* \"#utility.yul\":1605:1612   */\n  0x00\n    /* \"#utility.yul\":1634:1639   */\n  dup2\n    /* \"#utility.yul\":1623:1639   */\n  swap1\n  pop\n    /* \"#utility.yul\":1568:1645   */\n  swap2\n  swap1\n  pop\n  jump\t// out\n    /* \"#utility.yul\":1651:1711   */\ntag_46:\n    /* \"#utility.yul\":1679:1682   */\n  0x00\n    /* \"#utility.yul\":1700:1705   */\n  dup2\n    /* \"#utility.yul\":1693:1705   */\n  swap1\n  pop\n    /* \"#utility.yul\":1651:1711   */\n  swap2\n  swap1\n  pop\n  jump\t// out\n    /* \"#utility.yul\":1717:1859   */\ntag_47:\n    /* \"#utility.yul\":1767:1776   */\n  0x00\n    /* \"#utility.yul\":1800:1853   */\n  tag_79\n    /* \"#utility.yul\":1818:1852   */\n  tag_80\n    /* \"#utility.yul\":1827:1851   */\n  tag_81\n    /* \"#utility.yul\":1845:1850   */\n  dup5\n    /* \"#utility.yul\":1827:1851   */\n  tag_45\n  jump\t// in\ntag_81:\n    /* \"#utility.yul\":1818:1852   */\n  tag_46\n  jump\t// in\ntag_80:\n    /* \"#utility.yul\":1800:1853   */\n  tag_45\n  jump\t// in\ntag_79:\n    /* \"#utility.yul\":1787:1853   */\n  swap1\n  pop\n    /* \"#utility.yul\":1717:1859   */\n  swap2\n  swap1\n  pop\n  jump\t// out\n    /* \"#utility.yul\":1865:1940   */\ntag_48:\n    /* \"#utility.yul\":1908:1911   */\n  0x00\n    /* \"#utility.yul\":1929:1934   */\n  dup2\n    /* \"#utility.yul\":1922:1934   */\n  swap1\n  pop\n    /* \"#utility.yul\":1865:1940   */\n  swap2\n  swap1\n  pop\n  jump\t// out\n    /* \"#utility.yul\":1946:2215   */\ntag_49:\n    /* \"#utility.yul\":2056:2095   */\n  tag_84\n    /* \"#utility.yul\":2087:2094   */\n  dup4\n    /* \"#utility.yul\":2056:2095   */\n  tag_47\n  jump\t// in\ntag_84:\n    /* \"#utility.yul\":2117:2208   */\n  tag_85\n    /* \"#utility.yul\":2166:2207   */\n  tag_86\n    /* \"#utility.yul\":2190:2206   */\n  dup3\n    /* \"#utility.yul\":2166:2207   */\n  tag_48\n  jump\t// in\ntag_86:\n    /* \"#utility.yul\":2158:2164   */\n  dup5\n    /* \"#utility.yul\":2151:2155   */\n  dup5\n    /* \"#utility.yul\":2145:2156   */\n  sload\n    /* \"#utility.yul\":2117:2208   */\n  tag_44\n  jump\t// in\ntag_85:\n    /* \"#utility.yul\":2111:2115   */\n  dup3\n    /* \"#utility.yul\":2104:2209   */\n  sstore\n    /* \"#utility.yul\":2022:2215   */\n  pop\n    /* \"#utility.yul\":1946:2215   */\n  pop\n  pop\n  pop\n  jump\t// out\n    /* \"#utility.yul\":2221:2294   */\ntag_50:\n    /* \"#utility.yul\":2266:2269   */\n  0x00\n    /* \"#utility.yul\":2221:2294   */\n  swap1\n  jump\t// out\n    /* \"#utility.yul\":2300:2489   */\ntag_51:\n    /* \"#utility.yul\":2377:2409   */\n  tag_89\n  tag_50\n  jump\t// in\ntag_89:\n    /* \"#utility.yul\":2418:2483   */\n  tag_90\n    /* \"#utility.yul\":2476:2482   */\n  dup2\n    /* \"#utility.yul\":2468:2474   */\n  dup5\n    /* \"#utility.yul\":2462:2466   */\n  dup5\n    /* \"#utility.yul\":2418:2483   */\n  tag_49\n  jump\t// in\ntag_90:\n    /* \"#utility.yul\":2353:2489   */\n  pop\n    /* \"#utility.yul\":2300:2489   */\n  pop\n  pop\n  jump\t// out\n    /* \"#utility.yul\":2495:2681   */\ntag_52:\n    /* \"#utility.yul\":2555:2675   */\ntag_92:\n    /* \"#utility.yul\":2572:2575   */\n  dup2\n    /* \"#utility.yul\":2565:2570   */\n  dup2\n    /* \"#utility.yul\":2562:2576   */\n  lt\n    /* \"#utility.yul\":2555:2675   */\n  iszero\n  tag_94\n  jumpi\n    /* \"#utility.yul\":2626:2665   */\n  tag_95\n    /* \"#utility.yul\":2663:2664   */\n  0x00\n    /* \"#utility.yul\":2656:2661   */\n  dup3\n    /* \"#utility.yul\":2626:2665   */\n  tag_51\n  jump\t// in\ntag_95:\n    /* \"#utility.yul\":2599:2600   */\n  0x01\n    /* \"#utility.yul\":2592:2597   */\n  dup2\n    /* \"#utility.yul\":2588:2601   */\n  add\n    /* \"#utility.yul\":2579:2601   */\n  swap1\n  pop\n    /* \"#utility.yul\":2555:2675   */\n  jump(tag_92)\ntag_94:\n    /* \"#utility.yul\":2495:2681   */\n  pop\n  pop\n  jump\t// out\n    /* \"#utility.yul\":2687:3230   */\ntag_53:\n    /* \"#utility.yul\":2788:2790   */\n  0x1f\n    /* \"#utility.yul\":2783:2786   */\n  dup3\n    /* \"#utility.yul\":2780:2791   */\n  gt\n    /* \"#utility.yul\":2777:3223   */\n  iszero\n  tag_97\n  jumpi\n    /* \"#utility.yul\":2822:2860   */\n  tag_98\n    /* \"#utility.yul\":2854:2859   */\n  dup2\n    /* \"#utility.yul\":2822:2860   */\n  tag_41\n  jump\t// in\ntag_98:\n    /* \"#utility.yul\":2906:2935   */\n  tag_99\n    /* \"#utility.yul\":2924:2934   */\n  dup5\n    /* \"#utility.yul\":2906:2935   */\n  tag_42\n  jump\t// in\ntag_99:\n    /* \"#utility.yul\":2896:2904   */\n  dup2\n    /* \"#utility.yul\":2892:2936   */\n  add\n    /* \"#utility.yul\":3089:3091   */\n  0x20\n    /* \"#utility.yul\":3077:3087   */\n  dup6\n    /* \"#utility.yul\":3074:3092   */\n  lt\n    /* \"#utility.yul\":3071:3120   */\n  iszero\n  tag_100\n  jumpi\n    /* \"#utility.yul\":3110:3118   */\n  dup2\n    /* \"#utility.yul\":3095:3118   */\n  swap1\n  pop\n    /* \"#utility.yul\":3071:3120   */\ntag_100:\n    /* \"#utility.yul\":3133:3213   */\n  tag_101\n    /* \"#utility.yul\":3189:3211   */\n  tag_102\n    /* \"#utility.yul\":3207:3210   */\n  dup6\n    /* \"#utility.yul\":3189:3211   */\n  tag_42\n  jump\t// in\ntag_102:\n    /* \"#utility.yul\":3179:3187   */\n  dup4\n    /* \"#utility.yul\":3175:3212   */\n  add\n    /* \"#utility.yul\":3162:3173   */\n  dup3\n    /* \"#utility.yul\":3133:3213   */\n  tag_52\n  jump\t// in\ntag_101:\n    /* \"#utility.yul\":2792:3223   */\n  pop\n  pop\n    /* \"#utility.yul\":2777:3223   */\ntag_97:\n    /* \"#utility.yul\":2687:3230   */\n  pop\n  pop\n  pop\n  jump\t// out\n    /* \"#utility.yul\":3236:3353   */\ntag_54:\n    /* \"#utility.yul\":3290:3298   */\n  0x00\n    /* \"#utility.yul\":3340:3345   */\n  dup3\n    /* \"#utility.yul\":3334:3338   */\n  dup3\n    /* \"#utility.yul\":3330:3346   */\n  shr\n    /* \"#utility.yul\":3309:3346   */\n  swap1\n  pop\n    /* \"#utility.yul\":3236:3353   */\n  swap3\n  swap2\n  pop\n  pop\n  jump\t// out\n    /* \"#utility.yul\":3359:3528   */\ntag_55:\n    /* \"#utility.yul\":3403:3409   */\n  0x00\n    /* \"#utility.yul\":3436:3487   */\n  tag_105\n    /* \"#utility.yul\":3484:3485   */\n  0x00\n    /* \"#utility.yul\":3480:3486   */\n  not\n    /* \"#utility.yul\":3472:3477   */\n  dup5\n    /* \"#utility.yul\":3469:3470   */\n  0x08\n    /* \"#utility.yul\":3465:3478   */\n  mul\n    /* \"#utility.yul\":3436:3487   */\n  tag_54\n  jump\t// in\ntag_105:\n    /* \"#utility.yul\":3432:3488   */\n  not\n    /* \"#utility.yul\":3517:3521   */\n  dup1\n    /* \"#utility.yul\":3511:3515   */\n  dup4\n    /* \"#utility.yul\":3507:3522   */\n  and\n    /* \"#utility.yul\":3497:3522   */\n  swap2\n  pop\n    /* \"#utility.yul\":3410:3528   */\n  pop\n    /* \"#utility.yul\":3359:3528   */\n  swap3\n  swap2\n  pop\n  pop\n  jump\t// out\n    /* \"#utility.yul\":3533:3828   */\ntag_56:\n    /* \"#utility.yul\":3609:3613   */\n  0x00\n    /* \"#utility.yul\":3755:3784   */\n  tag_107\n    /* \"#utility.yul\":3780:3783   */\n  dup4\n    /* \"#utility.yul\":3774:3778   */\n  dup4\n    /* \"#utility.yul\":3755:3784   */\n  tag_55\n  jump\t// in\ntag_107:\n    /* \"#utility.yul\":3747:3784   */\n  swap2\n  pop\n    /* \"#utility.yul\":3817:3820   */\n  dup3\n    /* \"#utility.yul\":3814:3815   */\n  0x02\n    /* \"#utility.yul\":3810:3821   */\n  mul\n    /* \"#utility.yul\":3804:3808   */\n  dup3\n    /* \"#utility.yul\":3801:3822   */\n  or\n    /* \"#utility.yul\":3793:3822   */\n  swap1\n  pop\n    /* \"#utility.yul\":3533:3828   */\n  swap3\n  swap2\n  pop\n  pop\n  jump\t// out\n    /* \"#utility.yul\":3833:5228   */\ntag_7:\n    /* \"#utility.yul\":3950:3987   */\n  tag_109\n    /* \"#utility.yul\":3983:3986   */\n  dup3\n    /* \"#utility.yul\":3950:3987   */\n  tag_37\n  jump\t// in\ntag_109:\n    /* \"#utility.yul\":4052:4070   */\n  0xffffffffffffffff\n    /* \"#utility.yul\":4044:4050   */\n  dup2\n    /* \"#utility.yul\":4041:4071   */\n  gt\n    /* \"#utility.yul\":4038:4094   */\n  iszero\n  tag_110\n  jumpi\n    /* \"#utility.yul\":4074:4092   */\n  tag_111\n  tag_38\n  jump\t// in\ntag_111:\n    /* \"#utility.yul\":4038:4094   */\ntag_110:\n    /* \"#utility.yul\":4118:4156   */\n  tag_112\n    /* \"#utility.yul\":4150:4154   */\n  dup3\n    /* \"#utility.yul\":4144:4155   */\n  sload\n    /* \"#utility.yul\":4118:4156   */\n  tag_40\n  jump\t// in\ntag_112:\n    /* \"#utility.yul\":4203:4270   */\n  tag_113\n    /* \"#utility.yul\":4263:4269   */\n  dup3\n    /* \"#utility.yul\":4255:4261   */\n  dup3\n    /* \"#utility.yul\":4249:4253   */\n  dup6\n    /* \"#utility.yul\":4203:4270   */\n  tag_53\n  jump\t// in\ntag_113:\n    /* \"#utility.yul\":4297:4298   */\n  0x00\n    /* \"#utility.yul\":4321:4325   */\n  0x20\n    /* \"#utility.yul\":4308:4325   */\n  swap1\n  pop\n    /* \"#utility.yul\":4353:4355   */\n  0x1f\n    /* \"#utility.yul\":4345:4351   */\n  dup4\n    /* \"#utility.yul\":4342:4356   */\n  gt\n    /* \"#utility.yul\":4370:4371   */\n  0x01\n    /* \"#utility.yul\":4365:4983   */\n  dup2\n  eq\n  tag_115\n  jumpi\n    /* \"#utility.yul\":5027:5028   */\n  0x00\n    /* \"#utility.yul\":5044:5050   */\n  dup5\n    /* \"#utility.yul\":5041:5118   */\n  iszero\n  tag_116\n  jumpi\n    /* \"#utility.yul\":5093:5102   */\n  dup3\n    /* \"#utility.yul\":5088:5091   */\n  dup8\n    /* \"#utility.yul\":5084:5103   */\n  add\n    /* \"#utility.yul\":5078:5104   */\n  mload\n    /* \"#utility.yul\":5069:5104   */\n  swap1\n  pop\n    /* \"#utility.yul\":5041:5118   */\ntag_116:\n    /* \"#utility.yul\":5144:5211   */\n  tag_117\n    /* \"#utility.yul\":5204:5210   */\n  dup6\n    /* \"#utility.yul\":5197:5202   */\n  dup3\n    /* \"#utility.yul\":5144:5211   */\n  tag_56\n  jump\t// in\ntag_117:\n    /* \"#utility.yul\":5138:5142   */\n  dup7\n    /* \"#utility.yul\":5131:5212   */\n  sstore\n    /* \"#utility.yul\":5000:5222   */\n  pop\n    /* \"#utility.yul\":4335:5222   */\n  jump(tag_114)\n    /* \"#utility.yul\":4365:4983   */\ntag_115:\n    /* \"#utility.yul\":4417:4421   */\n  0x1f\n    /* \"#utility.yul\":4413:4422   */\n  not\n    /* \"#utility.yul\":4405:4411   */\n  dup5\n    /* \"#utility.yul\":4401:4423   */\n  and\n    /* \"#utility.yul\":4451:4488   */\n  tag_118\n    /* \"#utility.yul\":4483:4487   */\n  dup7\n    /* \"#utility.yul\":4451:4488   */\n  tag_41\n  jump\t// in\ntag_118:\n    /* \"#utility.yul\":4510:4511   */\n  0x00\n    /* \"#utility.yul\":4524:4732   */\ntag_119:\n    /* \"#utility.yul\":4538:4545   */\n  dup3\n    /* \"#utility.yul\":4535:4536   */\n  dup2\n    /* \"#utility.yul\":4532:4546   */\n  lt\n    /* \"#utility.yul\":4524:4732   */\n  iszero\n  tag_121\n  jumpi\n    /* \"#utility.yul\":4617:4626   */\n  dup5\n    /* \"#utility.yul\":4612:4615   */\n  dup10\n    /* \"#utility.yul\":4608:4627   */\n  add\n    /* \"#utility.yul\":4602:4628   */\n  mload\n    /* \"#utility.yul\":4594:4600   */\n  dup3\n    /* \"#utility.yul\":4587:4629   */\n  sstore\n    /* \"#utility.yul\":4668:4669   */\n  0x01\n    /* \"#utility.yul\":4660:4666   */\n  dup3\n    /* \"#utility.yul\":4656:4670   */\n  add\n    /* \"#utility.yul\":4646:4670   */\n  swap2\n  pop\n    /* \"#utility.yul\":4715:4717   */\n  0x20\n    /* \"#utility.yul\":4704:4713   */\n  dup6\n    /* \"#utility.yul\":4700:4718   */\n  add\n    /* \"#utility.yul\":4687:4718   */\n  swap5\n  pop\n    /* \"#utility.yul\":4561:4565   */\n  0x20\n    /* \"#utility.yul\":4558:4559   */\n  dup2\n    /* \"#utility.yul\":4554:4566   */\n  add\n    /* \"#utility.yul\":4549:4566   */\n  swap1\n  pop\n    /* \"#utility.yul\":4524:4732   */\n  jump(tag_119)\ntag_121:\n    /* \"#utility.yul\":4760:4766   */\n  dup7\n    /* \"#utility.yul\":4751:4758   */\n  dup4\n    /* \"#utility.yul\":4748:4767   */\n  lt\n    /* \"#utility.yul\":4745:4924   */\n  iszero\n  tag_122\n  jumpi\n    /* \"#utility.yul\":4818:4827   */\n  dup5\n    /* \"#utility.yul\":4813:4816   */\n  dup10\n    /* \"#utility.yul\":4809:4828   */\n  add\n    /* \"#utility.yul\":4803:4829   */\n  mload\n    /* \"#utility.yul\":4861:4909   */\n  tag_123\n    /* \"#utility.yul\":4903:4907   */\n  0x1f\n    /* \"#utility.yul\":4895:4901   */\n  dup10\n    /* \"#utility.yul\":4891:4908   */\n  and\n    /* \"#utility.yul\":4880:4889   */\n  dup3\n    /* \"#utility.yul\":4861:4909   */\n  tag_55\n  jump\t// in\ntag_123:\n    /* \"#utility.yul\":4853:4859   */\n  dup4\n    /* \"#utility.yul\":4846:4910   */\n  sstore\n    /* \"#utility.yul\":4768:4924   */\n  pop\n    /* \"#utility.yul\":4745:4924   */\ntag_122:\n    /* \"#utility.yul\":4970:4971   */\n  0x01\n    /* \"#utility.yul\":4966:4967   */\n  0x02\n    /* \"#utility.yul\":4958:4964   */\n  dup9\n    /* \"#utility.yul\":4954:4968   */\n  mul\n    /* \"#utility.yul\":4950:4972   */\n  add\n    /* \"#utility.yul\":4944:4948   */\n  dup9\n    /* \"#utility.yul\":4937:4973   */\n  sstore\n    /* \"#utility.yul\":4372:4983   */\n  pop\n  pop\n  pop\n    /* \"#utility.yul\":4335:5222   */\ntag_114:\n  pop\n    /* \"#utility.yul\":3925:5228   */\n  pop\n  pop\n  pop\n    /* \"#utility.yul\":3833:5228   */\n  pop\n  pop\n  jump\t// out\n    /* \"#utility.yul\":5234:5360   */\ntag_57:\n    /* \"#utility.yul\":5271:5278   */\n  0x00\n    /* \"#utility.yul\":5311:5353   */\n  0xffffffffffffffffffffffffffffffffffffffff\n    /* \"#utility.yul\":5304:5309   */\n  dup3\n    /* \"#utility.yul\":5300:5354   */\n  and\n    /* \"#utility.yul\":5289:5354   */\n  swap1\n  pop\n    /* \"#utility.yul\":5234:5360   */\n  swap2\n  swap1\n  pop\n  jump\t// out\n    /* \"#utility.yul\":5366:5462   */\ntag_58:\n    /* \"#utility.yul\":5403:5410   */\n  0x00\n    /* \"#utility.yul\":5432:5456   */\n  tag_126\n    /* \"#utility.yul\":5450:5455   */\n  dup3\n    /* \"#utility.yul\":5432:5456   */\n  tag_57\n  jump\t// in\ntag_126:\n    /* \"#utility.yul\":5421:5456   */\n  swap1\n  pop\n    /* \"#utility.yul\":5366:5462   */\n  swap2\n  swap1\n  pop\n  jump\t// out\n    /* \"#utility.yul\":5468:5586   */\ntag_59:\n    /* \"#utility.yul\":5555:5579   */\n  tag_128\n    /* \"#utility.yul\":5573:5578   */\n  dup2\n    /* \"#utility.yul\":5555:5579   */\n  tag_58\n  jump\t// in\ntag_128:\n    /* \"#utility.yul\":5550:5553   */\n  dup3\n    /* \"#utility.yul\":5543:5580   */\n  mstore\n    /* \"#utility.yul\":5468:5586   */\n  pop\n  pop\n  jump\t// out\n    /* \"#utility.yul\":5592:5814   */\ntag_12:\n    /* \"#utility.yul\":5685:5689   */\n  0x00\n    /* \"#utility.yul\":5723:5725   */\n  0x20\n    /* \"#utility.yul\":5712:5721   */\n  dup3\n    /* \"#utility.yul\":5708:5726   */\n  add\n    /* \"#utility.yul\":5700:5726   */\n  swap1\n  pop\n    /* \"#utility.yul\":5736:5807   */\n  tag_130\n    /* \"#utility.yul\":5804:5805   */\n  0x00\n    /* \"#utility.yul\":5793:5802   */\n  dup4\n    /* \"#utility.yul\":5789:5806   */\n  add\n    /* \"#utility.yul\":5780:5786   */\n  dup5\n    /* \"#utility.yul\":5736:5807   */\n  tag_59\n  jump\t// in\ntag_130:\n    /* \"#utility.yul\":5592:5814   */\n  swap3\n  swap2\n  pop\n  pop\n  jump\t// out\n    /* \"#utility.yul\":5820:6000   */\ntag_60:\n    /* \"#utility.yul\":5868:5945   */\n  0x4e487b7100000000000000000000000000000000000000000000000000000000\n    /* \"#utility.yul\":5865:5866   */\n  0x00\n    /* \"#utility.yul\":5858:5946   */\n  mstore\n    /* \"#utility.yul\":5965:5969   */\n  0x11\n    /* \"#utility.yul\":5962:5963   */\n  0x04\n    /* \"#utility.yul\":5955:5970   */\n  mstore\n    /* \"#utility.yul\":5989:5993   */\n  0x24\n    /* \"#utility.yul\":5986:5987   */\n  0x00\n    /* \"#utility.yul\":5979:5994   */\n  revert\n    /* \"#utility.yul\":6006:6197   */\ntag_28:\n    /* \"#utility.yul\":6046:6049   */\n  0x00\n    /* \"#utility.yul\":6065:6085   */\n  tag_133\n    /* \"#utility.yul\":6083:6084   */\n  dup3\n    /* \"#utility.yul\":6065:6085   */\n  tag_45\n  jump\t// in\ntag_133:\n    /* \"#utility.yul\":6060:6085   */\n  swap2\n  pop\n    /* \"#utility.yul\":6099:6119   */\n  tag_134\n    /* \"#utility.yul\":6117:6118   */\n  dup4\n    /* \"#utility.yul\":6099:6119   */\n  tag_45\n  jump\t// in\ntag_134:\n    /* \"#utility.yul\":6094:6119   */\n  swap3\n  pop\n    /* \"#utility.yul\":6142:6143   */\n  dup3\n    /* \"#utility.yul\":6139:6140   */\n  dup3\n    /* \"#utility.yul\":6135:6144   */\n  add\n    /* \"#utility.yul\":6128:6144   */\n  swap1\n  pop\n    /* \"#utility.yul\":6163:6166   */\n  dup1\n    /* \"#utility.yul\":6160:6161   */\n  dup3\n    /* \"#utility.yul\":6157:6167   */\n  gt\n    /* \"#utility.yul\":6154:6190   */\n  iszero\n  tag_135\n  jumpi\n    /* \"#utility.yul\":6170:6188   */\n  tag_136\n  tag_60\n  jump\t// in\ntag_136:\n    /* \"#utility.yul\":6154:6190   */\ntag_135:\n    /* \"#utility.yul\":6006:6197   */\n  swap3\n  swap2\n  pop\n  pop\n  jump\t// out\n    /* \"#utility.yul\":6203:6321   */\ntag_61:\n    /* \"#utility.yul\":6290:6314   */\n  tag_138\n    /* \"#utility.yul\":6308:6313   */\n  dup2\n    /* \"#utility.yul\":6290:6314   */\n  tag_45\n  jump\t// in\ntag_138:\n    /* \"#utility.yul\":6285:6288   */\n  dup3\n    /* \"#utility.yul\":6278:6315   */\n  mstore\n    /* \"#utility.yul\":6203:6321   */\n  pop\n  pop\n  jump\t// out\n    /* \"#utility.yul\":6327:6769   */\ntag_32:\n    /* \"#utility.yul\":6476:6480   */\n  0x00\n    /* \"#utility.yul\":6514:6516   */\n  0x60\n    /* \"#utility.yul\":6503:6512   */\n  dup3\n    /* \"#utility.yul\":6499:6517   */\n  add\n    /* \"#utility.yul\":6491:6517   */\n  swap1\n  pop\n    /* \"#utility.yul\":6527:6598   */\n  tag_140\n    /* \"#utility.yul\":6595:6596   */\n  0x00\n    /* \"#utility.yul\":6584:6593   */\n  dup4\n    /* \"#utility.yul\":6580:6597   */\n  add\n    /* \"#utility.yul\":6571:6577   */\n  dup7\n    /* \"#utility.yul\":6527:6598   */\n  tag_59\n  jump\t// in\ntag_140:\n    /* \"#utility.yul\":6608:6680   */\n  tag_141\n    /* \"#utility.yul\":6676:6678   */\n  0x20\n    /* \"#utility.yul\":6665:6674   */\n  dup4\n    /* \"#utility.yul\":6661:6679   */\n  add\n    /* \"#utility.yul\":6652:6658   */\n  dup6\n    /* \"#utility.yul\":6608:6680   */\n  tag_61\n  jump\t// in\ntag_141:\n    /* \"#utility.yul\":6690:6762   */\n  tag_142\n    /* \"#utility.yul\":6758:6760   */\n  0x40\n    /* \"#utility.yul\":6747:6756   */\n  dup4\n    /* \"#utility.yul\":6743:6761   */\n  add\n    /* \"#utility.yul\":6734:6740   */\n  dup5\n    /* \"#utility.yul\":6690:6762   */\n  tag_61\n  jump\t// in\ntag_142:\n    /* \"#utility.yul\":6327:6769   */\n  swap5\n  swap4\n  pop\n  pop\n  pop\n  pop\n  jump\t// out\n    /* \"#utility.yul\":6775:6997   */\ntag_36:\n    /* \"#utility.yul\":6868:6872   */\n  0x00\n    /* \"#utility.yul\":6906:6908   */\n  0x20\n    /* \"#utility.yul\":6895:6904   */\n  dup3\n    /* \"#utility.yul\":6891:6909   */\n  add\n    /* \"#utility.yul\":6883:6909   */\n  swap1\n  pop\n    /* \"#utility.yul\":6919:6990   */\n  tag_144\n    /* \"#utility.yul\":6987:6988   */\n  0x00\n    /* \"#utility.yul\":6976:6985   */\n  dup4\n    /* \"#utility.yul\":6972:6989   */\n  add\n    /* \"#utility.yul\":6963:6969   */\n  dup5\n    /* \"#utility.yul\":6919:6990   */\n  tag_61\n  jump\t// in\ntag_144:\n    /* \"#utility.yul\":6775:6997   */\n  swap3\n  swap2\n  pop\n  pop\n  jump\t// out\n    /* \"BistroMap/Tokens/bistromap_ERC20.sol\":225:3721  contract BSM is ERC20(\"Bistro\", \"BSM\"), Ownable(msg.sender) {... */\ntag_18:\n  dataSize(sub_0)\n  dup1\n  dataOffset(sub_0)\n  0x00\n  codecopy\n  0x00\n  return\nstop\n\nsub_0: assembly {\n        /* \"BistroMap/Tokens/bistromap_ERC20.sol\":225:3721  contract BSM is ERC20(\"Bistro\", \"BSM\"), Ownable(msg.sender) {... */\n      mstore(0x40, 0x80)\n      callvalue\n      dup1\n      iszero\n      tag_1\n      jumpi\n      0x00\n      dup1\n      revert\n    tag_1:\n      pop\n      jumpi(tag_2, lt(calldatasize, 0x04))\n      shr(0xe0, calldataload(0x00))\n      dup1\n      0x86d1a69f\n      gt\n      tag_28\n      jumpi\n      dup1\n      0xbe9aed0e\n      gt\n      tag_29\n      jumpi\n      dup1\n      0xdd62ed3e\n      gt\n      tag_30\n      jumpi\n      dup1\n      0xdd62ed3e\n      eq\n      tag_24\n      jumpi\n      dup1\n      0xe10cc836\n      eq\n      tag_25\n      jumpi\n      dup1\n      0xf2fde38b\n      eq\n      tag_26\n      jumpi\n      dup1\n      0xfa1a5f59\n      eq\n      tag_27\n      jumpi\n      jump(tag_2)\n    tag_30:\n      dup1\n      0xbe9aed0e\n      eq\n      tag_21\n      jumpi\n      dup1\n      0xc4fe8758\n      eq\n      tag_22\n      jumpi\n      dup1\n      0xcc043928\n      eq\n      tag_23\n      jumpi\n      jump(tag_2)\n    tag_29:\n      dup1\n      0x86d1a69f\n      eq\n      tag_15\n      jumpi\n      dup1\n      0x8da5cb5b\n      eq\n      tag_16\n      jumpi\n      dup1\n      0x956711e9\n      eq\n      tag_17\n      jumpi\n      dup1\n      0x95d89b41\n      eq\n      tag_18\n      jumpi\n      dup1\n      0xa9059cbb\n      eq\n      tag_19\n      jumpi\n      dup1\n      0xa98ad46c\n      eq\n      tag_20\n      jumpi\n      jump(tag_2)\n    tag_28:\n      dup1\n      0x33e41e33\n      gt\n      tag_31\n      jumpi\n      dup1\n      0x33e41e33\n      eq\n      tag_9\n      jumpi\n      dup1\n      0x40c10f19\n      eq\n      tag_10\n      jumpi\n      dup1\n      0x446303f3\n      eq\n      tag_11\n      jumpi\n      dup1\n      0x70a08231\n      eq\n      tag_12\n      jumpi\n      dup1\n      0x715018a6\n      eq\n      tag_13\n      jumpi\n      dup1\n      0x8603dab3\n      eq\n      tag_14\n      jumpi\n      jump(tag_2)\n    tag_31:\n      dup1\n      0x06fdde03\n      eq\n      tag_3\n      jumpi\n      dup1\n      0x095ea7b3\n      eq\n      tag_4\n      jumpi\n      dup1\n      0x18160ddd\n      eq\n      tag_5\n      jumpi\n      dup1\n      0x1ad874b4\n      eq\n      tag_6\n      jumpi\n      dup1\n      0x23b872dd\n      eq\n      tag_7\n      jumpi\n      dup1\n      0x313ce567\n      eq\n      tag_8\n      jumpi\n    tag_2:\n      0x00\n      dup1\n      revert\n        /* \"@openzeppelin/contracts/token/ERC20/ERC20.sol\":2074:2163  function name() public view virtual returns (string memory) {... */\n    tag_3:\n      tag_32\n      tag_33\n      jump\t// in\n    tag_32:\n      mload(0x40)\n      tag_34\n      swap2\n      swap1\n      tag_35\n      jump\t// in\n    tag_34:\n      mload(0x40)\n      dup1\n      swap2\n      sub\n      swap1\n      return\n        /* \"@openzeppelin/contracts/token/ERC20/ERC20.sol\":4293:4479  function approve(address spender, uint256 value) public virtual returns (bool) {... */\n    tag_4:\n      tag_36\n      0x04\n      dup1\n      calldatasize\n      sub\n      dup2\n      add\n      swap1\n      tag_37\n      swap2\n      swap1\n      tag_38\n      jump\t// in\n    tag_37:\n      tag_39\n      jump\t// in\n    tag_36:\n      mload(0x40)\n      tag_40\n      swap2\n      swap1\n      tag_41\n      jump\t// in\n    tag_40:\n      mload(0x40)\n      dup1\n      swap2\n      sub\n      swap1\n      return\n        /* \"@openzeppelin/contracts/token/ERC20/ERC20.sol\":3144:3241  function totalSupply() public view virtual returns (uint256) {... */\n    tag_5:\n      tag_42\n      tag_43\n      jump\t// in\n    tag_42:\n      mload(0x40)\n      tag_44\n      swap2\n      swap1\n      tag_45\n      jump\t// in\n    tag_44:\n      mload(0x40)\n      dup1\n      swap2\n      sub\n      swap1\n      return\n        /* \"BistroMap/Tokens/bistromap_ERC20.sol\":1147:1168  uint public presaleOn */\n    tag_6:\n      tag_46\n      tag_47\n      jump\t// in\n    tag_46:\n      mload(0x40)\n      tag_48\n      swap2\n      swap1\n      tag_45\n      jump\t// in\n    tag_48:\n      mload(0x40)\n      dup1\n      swap2\n      sub\n      swap1\n      return\n        /* \"@openzeppelin/contracts/token/ERC20/ERC20.sol\":5039:5283  function transferFrom(address from, address to, uint256 value) public virtual returns (bool) {... */\n    tag_7:\n      tag_49\n      0x04\n      dup1\n      calldatasize\n      sub\n      dup2\n      add\n      swap1\n      tag_50\n      swap2\n      swap1\n      tag_51\n      jump\t// in\n    tag_50:\n      tag_52\n      jump\t// in\n    tag_49:\n      mload(0x40)\n      tag_53\n      swap2\n      swap1\n      tag_41\n      jump\t// in\n    tag_53:\n      mload(0x40)\n      dup1\n      swap2\n      sub\n      swap1\n      return\n        /* \"@openzeppelin/contracts/token/ERC20/ERC20.sol\":3002:3084  function decimals() public view virtual returns (uint8) {... */\n    tag_8:\n      tag_54\n      tag_55\n      jump\t// in\n    tag_54:\n      mload(0x40)\n      tag_56\n      swap2\n      swap1\n      tag_57\n      jump\t// in\n    tag_56:\n      mload(0x40)\n      dup1\n      swap2\n      sub\n      swap1\n      return\n        /* \"BistroMap/Tokens/bistromap_ERC20.sol\":833:882  uint public constant FORTY_EIGHT_WEEKS = 48 weeks */\n    tag_9:\n      tag_58\n      tag_59\n      jump\t// in\n    tag_58:\n      mload(0x40)\n      tag_60\n      swap2\n      swap1\n      tag_45\n      jump\t// in\n    tag_60:\n      mload(0x40)\n      dup1\n      swap2\n      sub\n      swap1\n      return\n        /* \"BistroMap/Tokens/bistromap_ERC20.sol\":389:486  function mint(address _to, uint256 _amount) public onlyOwner {... */\n    tag_10:\n      tag_61\n      0x04\n      dup1\n      calldatasize\n      sub\n      dup2\n      add\n      swap1\n      tag_62\n      swap2\n      swap1\n      tag_38\n      jump\t// in\n    tag_62:\n      tag_63\n      jump\t// in\n    tag_61:\n      stop\n        /* \"BistroMap/Tokens/bistromap_ERC20.sol\":1047:1069  uint public preSaleCap */\n    tag_11:\n      tag_64\n      tag_65\n      jump\t// in\n    tag_64:\n      mload(0x40)\n      tag_66\n      swap2\n      swap1\n      tag_45\n      jump\t// in\n    tag_66:\n      mload(0x40)\n      dup1\n      swap2\n      sub\n      swap1\n      return\n        /* \"@openzeppelin/contracts/token/ERC20/ERC20.sol\":3299:3415  function balanceOf(address account) public view virtual returns (uint256) {... */\n    tag_12:\n      tag_67\n      0x04\n      dup1\n      calldatasize\n      sub\n      dup2\n      add\n      swap1\n      tag_68\n      swap2\n      swap1\n      tag_69\n      jump\t// in\n    tag_68:\n      tag_70\n      jump\t// in\n    tag_67:\n      mload(0x40)\n      tag_71\n      swap2\n      swap1\n      tag_45\n      jump\t// in\n    tag_71:\n      mload(0x40)\n      dup1\n      swap2\n      sub\n      swap1\n      return\n        /* \"@openzeppelin/contracts/access/Ownable.sol\":2293:2394  function renounceOwnership() public virtual onlyOwner {... */\n    tag_13:\n      tag_72\n      tag_73\n      jump\t// in\n    tag_72:\n      stop\n        /* \"BistroMap/Tokens/bistromap_ERC20.sol\":1574:2383  function buyPrivateSale(uint amount) external {... */\n    tag_14:\n      tag_74\n      0x04\n      dup1\n      calldatasize\n      sub\n      dup2\n      add\n      swap1\n      tag_75\n      swap2\n      swap1\n      tag_76\n      jump\t// in\n    tag_75:\n      tag_77\n      jump\t// in\n    tag_74:\n      stop\n        /* \"BistroMap/Tokens/bistromap_ERC20.sol\":2466:3719  function release() external onlyOwner{... */\n    tag_15:\n      tag_78\n      tag_79\n      jump\t// in\n    tag_78:\n      stop\n        /* \"@openzeppelin/contracts/access/Ownable.sol\":1638:1723  function owner() public view virtual returns (address) {... */\n    tag_16:\n      tag_80\n      tag_81\n      jump\t// in\n    tag_80:\n      mload(0x40)\n      tag_82\n      swap2\n      swap1\n      tag_83\n      jump\t// in\n    tag_82:\n      mload(0x40)\n      dup1\n      swap2\n      sub\n      swap1\n      return\n        /* \"BistroMap/Tokens/bistromap_ERC20.sol\":943:1000  uint public constant preSalesLimitPerBeneficiary = 100000 */\n    tag_17:\n      tag_84\n      tag_85\n      jump\t// in\n    tag_84:\n      mload(0x40)\n      tag_86\n      swap2\n      swap1\n      tag_45\n      jump\t// in\n    tag_86:\n      mload(0x40)\n      dup1\n      swap2\n      sub\n      swap1\n      return\n        /* \"@openzeppelin/contracts/token/ERC20/ERC20.sol\":2276:2369  function symbol() public view virtual returns (string memory) {... */\n    tag_18:\n      tag_87\n      tag_88\n      jump\t// in\n    tag_87:\n      mload(0x40)\n      tag_89\n      swap2\n      swap1\n      tag_35\n      jump\t// in\n    tag_89:\n      mload(0x40)\n      dup1\n      swap2\n      sub\n      swap1\n      return\n        /* \"@openzeppelin/contracts/token/ERC20/ERC20.sol\":3610:3788  function transfer(address to, uint256 value) public virtual returns (bool) {... */\n    tag_19:\n      tag_90\n      0x04\n      dup1\n      calldatasize\n      sub\n      dup2\n      add\n      swap1\n      tag_91\n      swap2\n      swap1\n      tag_38\n      jump\t// in\n    tag_91:\n      tag_92\n      jump\t// in\n    tag_90:\n      mload(0x40)\n      tag_93\n      swap2\n      swap1\n      tag_41\n      jump\t// in\n    tag_93:\n      mload(0x40)\n      dup1\n      swap2\n      sub\n      swap1\n      return\n        /* \"BistroMap/Tokens/bistromap_ERC20.sol\":492:515  IERC20 public usdtToken */\n    tag_20:\n      tag_94\n      tag_95\n      jump\t// in\n    tag_94:\n      mload(0x40)\n      tag_96\n      swap2\n      swap1\n      tag_97\n      jump\t// in\n    tag_96:\n      mload(0x40)\n      dup1\n      swap2\n      sub\n      swap1\n      return\n        /* \"BistroMap/Tokens/bistromap_ERC20.sol\":778:827  uint public constant TWENTY_FOUR_WEEKS = 24 weeks */\n    tag_21:\n      tag_98\n      tag_99\n      jump\t// in\n    tag_98:\n      mload(0x40)\n      tag_100\n      swap2\n      swap1\n      tag_45\n      jump\t// in\n    tag_100:\n      mload(0x40)\n      dup1\n      swap2\n      sub\n      swap1\n      return\n        /* \"BistroMap/Tokens/bistromap_ERC20.sol\":664:722  uint public constant PRICE_PER_TOKEN_PRESALE = 5 * 10 ** 4 */\n    tag_22:\n      tag_101\n      tag_102\n      jump\t// in\n    tag_101:\n      mload(0x40)\n      tag_103\n      swap2\n      swap1\n      tag_45\n      jump\t// in\n    tag_103:\n      mload(0x40)\n      dup1\n      swap2\n      sub\n      swap1\n      return\n        /* \"BistroMap/Tokens/bistromap_ERC20.sol\":888:936  uint public constant NINETY_SIX_WEEKS = 96 weeks */\n    tag_23:\n      tag_104\n      tag_105\n      jump\t// in\n    tag_104:\n      mload(0x40)\n      tag_106\n      swap2\n      swap1\n      tag_45\n      jump\t// in\n    tag_106:\n      mload(0x40)\n      dup1\n      swap2\n      sub\n      swap1\n      return\n        /* \"@openzeppelin/contracts/token/ERC20/ERC20.sol\":3846:3986  function allowance(address owner, address spender) public view virtual returns (uint256) {... */\n    tag_24:\n      tag_107\n      0x04\n      dup1\n      calldatasize\n      sub\n      dup2\n      add\n      swap1\n      tag_108\n      swap2\n      swap1\n      tag_109\n      jump\t// in\n    tag_108:\n      tag_110\n      jump\t// in\n    tag_107:\n      mload(0x40)\n      tag_111\n      swap2\n      swap1\n      tag_45\n      jump\t// in\n    tag_111:\n      mload(0x40)\n      dup1\n      swap2\n      sub\n      swap1\n      return\n        /* \"BistroMap/Tokens/bistromap_ERC20.sol\":1006:1041  uint public presalePeriod = 2 weeks */\n    tag_25:\n      tag_112\n      tag_113\n      jump\t// in\n    tag_112:\n      mload(0x40)\n      tag_114\n      swap2\n      swap1\n      tag_45\n      jump\t// in\n    tag_114:\n      mload(0x40)\n      dup1\n      swap2\n      sub\n      swap1\n      return\n        /* \"@openzeppelin/contracts/access/Ownable.sol\":2543:2758  function transferOwnership(address newOwner) public virtual onlyOwner {... */\n    tag_26:\n      tag_115\n      0x04\n      dup1\n      calldatasize\n      sub\n      dup2\n      add\n      swap1\n      tag_116\n      swap2\n      swap1\n      tag_69\n      jump\t// in\n    tag_116:\n      tag_117\n      jump\t// in\n    tag_115:\n      stop\n        /* \"BistroMap/Tokens/bistromap_ERC20.sol\":1119:1141  uint public soldAmount */\n    tag_27:\n      tag_118\n      tag_119\n      jump\t// in\n    tag_118:\n      mload(0x40)\n      tag_120\n      swap2\n      swap1\n      tag_45\n      jump\t// in\n    tag_120:\n      mload(0x40)\n      dup1\n      swap2\n      sub\n      swap1\n      return\n        /* \"@openzeppelin/contracts/token/ERC20/ERC20.sol\":2074:2163  function name() public view virtual returns (string memory) {... */\n    tag_33:\n        /* \"@openzeppelin/contracts/token/ERC20/ERC20.sol\":2119:2132  string memory */\n      0x60\n        /* \"@openzeppelin/contracts/token/ERC20/ERC20.sol\":2151:2156  _name */\n      0x03\n        /* \"@openzeppelin/contracts/token/ERC20/ERC20.sol\":2144:2156  return _name */\n      dup1\n      sload\n      tag_122\n      swap1\n      tag_123\n      jump\t// in\n    tag_122:\n      dup1\n      0x1f\n      add\n      0x20\n      dup1\n      swap2\n      div\n      mul\n      0x20\n      add\n      mload(0x40)\n      swap1\n      dup2\n      add\n      0x40\n      mstore\n      dup1\n      swap3\n      swap2\n      swap1\n      dup2\n      dup2\n      mstore\n      0x20\n      add\n      dup3\n      dup1\n      sload\n      tag_124\n      swap1\n      tag_123\n      jump\t// in\n    tag_124:\n      dup1\n      iszero\n      tag_125\n      jumpi\n      dup1\n      0x1f\n      lt\n      tag_126\n      jumpi\n      0x0100\n      dup1\n      dup4\n      sload\n      div\n      mul\n      dup4\n      mstore\n      swap2\n      0x20\n      add\n      swap2\n      jump(tag_125)\n    tag_126:\n      dup3\n      add\n      swap2\n      swap1\n      0x00\n      mstore\n      keccak256(0x00, 0x20)\n      swap1\n    tag_127:\n      dup2\n      sload\n      dup2\n      mstore\n      swap1\n      0x01\n      add\n      swap1\n      0x20\n      add\n      dup1\n      dup4\n      gt\n      tag_127\n      jumpi\n      dup3\n      swap1\n      sub\n      0x1f\n      and\n      dup3\n      add\n      swap2\n    tag_125:\n      pop\n      pop\n      pop\n      pop\n      pop\n      swap1\n      pop\n        /* \"@openzeppelin/contracts/token/ERC20/ERC20.sol\":2074:2163  function name() public view virtual returns (string memory) {... */\n      swap1\n      jump\t// out\n        /* \"@openzeppelin/contracts/token/ERC20/ERC20.sol\":4293:4479  function approve(address spender, uint256 value) public virtual returns (bool) {... */\n    tag_39:\n        /* \"@openzeppelin/contracts/token/ERC20/ERC20.sol\":4366:4370  bool */\n      0x00\n        /* \"@openzeppelin/contracts/token/ERC20/ERC20.sol\":4382:4395  address owner */\n      dup1\n        /* \"@openzeppelin/contracts/token/ERC20/ERC20.sol\":4398:4410  _msgSender() */\n      tag_129\n        /* \"@openzeppelin/contracts/token/ERC20/ERC20.sol\":4398:4408  _msgSender */\n      tag_130\n        /* \"@openzeppelin/contracts/token/ERC20/ERC20.sol\":4398:4410  _msgSender() */\n      jump\t// in\n    tag_129:\n        /* \"@openzeppelin/contracts/token/ERC20/ERC20.sol\":4382:4410  address owner = _msgSender() */\n      swap1\n      pop\n        /* \"@openzeppelin/contracts/token/ERC20/ERC20.sol\":4420:4451  _approve(owner, spender, value) */\n      tag_131\n        /* \"@openzeppelin/contracts/token/ERC20/ERC20.sol\":4429:4434  owner */\n      dup2\n        /* \"@openzeppelin/contracts/token/ERC20/ERC20.sol\":4436:4443  spender */\n      dup6\n        /* \"@openzeppelin/contracts/token/ERC20/ERC20.sol\":4445:4450  value */\n      dup6\n        /* \"@openzeppelin/contracts/token/ERC20/ERC20.sol\":4420:4428  _approve */\n      tag_132\n        /* \"@openzeppelin/contracts/token/ERC20/ERC20.sol\":4420:4451  _approve(owner, spender, value) */\n      jump\t// in\n    tag_131:\n        /* \"@openzeppelin/contracts/token/ERC20/ERC20.sol\":4468:4472  true */\n      0x01\n        /* \"@openzeppelin/contracts/token/ERC20/ERC20.sol\":4461:4472  return true */\n      swap2\n      pop\n      pop\n        /* \"@openzeppelin/contracts/token/ERC20/ERC20.sol\":4293:4479  function approve(address spender, uint256 value) public virtual returns (bool) {... */\n      swap3\n      swap2\n      pop\n      pop\n      jump\t// out\n        /* \"@openzeppelin/contracts/token/ERC20/ERC20.sol\":3144:3241  function totalSupply() public view virtual returns (uint256) {... */\n    tag_43:\n        /* \"@openzeppelin/contracts/token/ERC20/ERC20.sol\":3196:3203  uint256 */\n      0x00\n        /* \"@openzeppelin/contracts/token/ERC20/ERC20.sol\":3222:3234  _totalSupply */\n      sload(0x02)\n        /* \"@openzeppelin/contracts/token/ERC20/ERC20.sol\":3215:3234  return _totalSupply */\n      swap1\n      pop\n        /* \"@openzeppelin/contracts/token/ERC20/ERC20.sol\":3144:3241  function totalSupply() public view virtual returns (uint256) {... */\n      swap1\n      jump\t// out\n        /* \"BistroMap/Tokens/bistromap_ERC20.sol\":1147:1168  uint public presaleOn */\n    tag_47:\n      sload(0x0a)\n      dup2\n      jump\t// out\n        /* \"@openzeppelin/contracts/token/ERC20/ERC20.sol\":5039:5283  function transferFrom(address from, address to, uint256 value) public virtual returns (bool) {... */\n    tag_52:\n        /* \"@openzeppelin/contracts/token/ERC20/ERC20.sol\":5126:5130  bool */\n      0x00\n        /* \"@openzeppelin/contracts/token/ERC20/ERC20.sol\":5142:5157  address spender */\n      dup1\n        /* \"@openzeppelin/contracts/token/ERC20/ERC20.sol\":5160:5172  _msgSender() */\n      tag_135\n        /* \"@openzeppelin/contracts/token/ERC20/ERC20.sol\":5160:5170  _msgSender */\n      tag_130\n        /* \"@openzeppelin/contracts/token/ERC20/ERC20.sol\":5160:5172  _msgSender() */\n      jump\t// in\n    tag_135:\n        /* \"@openzeppelin/contracts/token/ERC20/ERC20.sol\":5142:5172  address spender = _msgSender() */\n      swap1\n      pop\n        /* \"@openzeppelin/contracts/token/ERC20/ERC20.sol\":5182:5219  _spendAllowance(from, spender, value) */\n      tag_136\n        /* \"@openzeppelin/contracts/token/ERC20/ERC20.sol\":5198:5202  from */\n      dup6\n        /* \"@openzeppelin/contracts/token/ERC20/ERC20.sol\":5204:5211  spender */\n      dup3\n        /* \"@openzeppelin/contracts/token/ERC20/ERC20.sol\":5213:5218  value */\n      dup6\n        /* \"@openzeppelin/contracts/token/ERC20/ERC20.sol\":5182:5197  _spendAllowance */\n      tag_137\n        /* \"@openzeppelin/contracts/token/ERC20/ERC20.sol\":5182:5219  _spendAllowance(from, spender, value) */\n      jump\t// in\n    tag_136:\n        /* \"@openzeppelin/contracts/token/ERC20/ERC20.sol\":5229:5255  _transfer(from, to, value) */\n      tag_138\n        /* \"@openzeppelin/contracts/token/ERC20/ERC20.sol\":5239:5243  from */\n      dup6\n        /* \"@openzeppelin/contracts/token/ERC20/ERC20.sol\":5245:5247  to */\n      dup6\n        /* \"@openzeppelin/contracts/token/ERC20/ERC20.sol\":5249:5254  value */\n      dup6\n        /* \"@openzeppelin/contracts/token/ERC20/ERC20.sol\":5229:5238  _transfer */\n      tag_139\n        /* \"@openzeppelin/contracts/token/ERC20/ERC20.sol\":5229:5255  _transfer(from, to, value) */\n      jump\t// in\n    tag_138:\n        /* \"@openzeppelin/contracts/token/ERC20/ERC20.sol\":5272:5276  true */\n      0x01\n        /* \"@openzeppelin/contracts/token/ERC20/ERC20.sol\":5265:5276  return true */\n      swap2\n      pop\n      pop\n        /* \"@openzeppelin/contracts/token/ERC20/ERC20.sol\":5039:5283  function transferFrom(address from, address to, uint256 value) public virtual returns (bool) {... */\n      swap4\n      swap3\n      pop\n      pop\n      pop\n      jump\t// out\n        /* \"@openzeppelin/contracts/token/ERC20/ERC20.sol\":3002:3084  function decimals() public view virtual returns (uint8) {... */\n    tag_55:\n        /* \"@openzeppelin/contracts/token/ERC20/ERC20.sol\":3051:3056  uint8 */\n      0x00\n        /* \"@openzeppelin/contracts/token/ERC20/ERC20.sol\":3075:3077  18 */\n      0x12\n        /* \"@openzeppelin/contracts/token/ERC20/ERC20.sol\":3068:3077  return 18 */\n      swap1\n      pop\n        /* \"@openzeppelin/contracts/token/ERC20/ERC20.sol\":3002:3084  function decimals() public view virtual returns (uint8) {... */\n      swap1\n      jump\t// out\n        /* \"BistroMap/Tokens/bistromap_ERC20.sol\":833:882  uint public constant FORTY_EIGHT_WEEKS = 48 weeks */\n    tag_59:\n        /* \"BistroMap/Tokens/bistromap_ERC20.sol\":874:882  48 weeks */\n      0x01baf800\n        /* \"BistroMap/Tokens/bistromap_ERC20.sol\":833:882  uint public constant FORTY_EIGHT_WEEKS = 48 weeks */\n      dup2\n      jump\t// out\n        /* \"BistroMap/Tokens/bistromap_ERC20.sol\":389:486  function mint(address _to, uint256 _amount) public onlyOwner {... */\n    tag_63:\n        /* \"@openzeppelin/contracts/access/Ownable.sol\":1531:1544  _checkOwner() */\n      tag_142\n        /* \"@openzeppelin/contracts/access/Ownable.sol\":1531:1542  _checkOwner */\n      tag_143\n        /* \"@openzeppelin/contracts/access/Ownable.sol\":1531:1544  _checkOwner() */\n      jump\t// in\n    tag_142:\n        /* \"BistroMap/Tokens/bistromap_ERC20.sol\":460:479  _mint(_to, _amount) */\n      tag_145\n        /* \"BistroMap/Tokens/bistromap_ERC20.sol\":466:469  _to */\n      dup3\n        /* \"BistroMap/Tokens/bistromap_ERC20.sol\":471:478  _amount */\n      dup3\n        /* \"BistroMap/Tokens/bistromap_ERC20.sol\":460:465  _mint */\n      tag_146\n        /* \"BistroMap/Tokens/bistromap_ERC20.sol\":460:479  _mint(_to, _amount) */\n      jump\t// in\n    tag_145:\n        /* \"BistroMap/Tokens/bistromap_ERC20.sol\":389:486  function mint(address _to, uint256 _amount) public onlyOwner {... */\n      pop\n      pop\n      jump\t// out\n        /* \"BistroMap/Tokens/bistromap_ERC20.sol\":1047:1069  uint public preSaleCap */\n    tag_65:\n      sload(0x08)\n      dup2\n      jump\t// out\n        /* \"@openzeppelin/contracts/token/ERC20/ERC20.sol\":3299:3415  function balanceOf(address account) public view virtual returns (uint256) {... */\n    tag_70:\n        /* \"@openzeppelin/contracts/token/ERC20/ERC20.sol\":3364:3371  uint256 */\n      0x00\n        /* \"@openzeppelin/contracts/token/ERC20/ERC20.sol\":3390:3399  _balances */\n      dup1\n        /* \"@openzeppelin/contracts/token/ERC20/ERC20.sol\":3390:3408  _balances[account] */\n      0x00\n        /* \"@openzeppelin/contracts/token/ERC20/ERC20.sol\":3400:3407  account */\n      dup4\n        /* \"@openzeppelin/contracts/token/ERC20/ERC20.sol\":3390:3408  _balances[account] */\n      0xffffffffffffffffffffffffffffffffffffffff\n      and\n      0xffffffffffffffffffffffffffffffffffffffff\n      and\n      dup2\n      mstore\n      0x20\n      add\n      swap1\n      dup2\n      mstore\n      0x20\n      add\n      0x00\n      keccak256\n      sload\n        /* \"@openzeppelin/contracts/token/ERC20/ERC20.sol\":3383:3408  return _balances[account] */\n      swap1\n      pop\n        /* \"@openzeppelin/contracts/token/ERC20/ERC20.sol\":3299:3415  function balanceOf(address account) public view virtual returns (uint256) {... */\n      swap2\n      swap1\n      pop\n      jump\t// out\n        /* \"@openzeppelin/contracts/access/Ownable.sol\":2293:2394  function renounceOwnership() public virtual onlyOwner {... */\n    tag_73:\n        /* \"@openzeppelin/contracts/access/Ownable.sol\":1531:1544  _checkOwner() */\n      tag_149\n        /* \"@openzeppelin/contracts/access/Ownable.sol\":1531:1542  _checkOwner */\n      tag_143\n        /* \"@openzeppelin/contracts/access/Ownable.sol\":1531:1544  _checkOwner() */\n      jump\t// in\n    tag_149:\n        /* \"@openzeppelin/contracts/access/Ownable.sol\":2357:2387  _transferOwnership(address(0)) */\n      tag_151\n        /* \"@openzeppelin/contracts/access/Ownable.sol\":2384:2385  0 */\n      0x00\n        /* \"@openzeppelin/contracts/access/Ownable.sol\":2357:2375  _transferOwnership */\n      tag_152\n        /* \"@openzeppelin/contracts/access/Ownable.sol\":2357:2387  _transferOwnership(address(0)) */\n      jump\t// in\n    tag_151:\n        /* \"@openzeppelin/contracts/access/Ownable.sol\":2293:2394  function renounceOwnership() public virtual onlyOwner {... */\n      jump\t// out\n        /* \"BistroMap/Tokens/bistromap_ERC20.sol\":1574:2383  function buyPrivateSale(uint amount) external {... */\n    tag_77:\n        /* \"BistroMap/Tokens/bistromap_ERC20.sol\":1669:1676  2 weeks */\n      0x127500\n        /* \"BistroMap/Tokens/bistromap_ERC20.sol\":1657:1666  presaleOn */\n      sload(0x0a)\n        /* \"BistroMap/Tokens/bistromap_ERC20.sol\":1657:1676  presaleOn + 2 weeks */\n      tag_154\n      swap2\n      swap1\n      tag_155\n      jump\t// in\n    tag_154:\n        /* \"BistroMap/Tokens/bistromap_ERC20.sol\":1638:1653  block.timestamp */\n      timestamp\n        /* \"BistroMap/Tokens/bistromap_ERC20.sol\":1638:1676  block.timestamp <= presaleOn + 2 weeks */\n      gt\n      iszero\n        /* \"BistroMap/Tokens/bistromap_ERC20.sol\":1630:1696  require(block.timestamp <= presaleOn + 2 weeks, \"presale is over\") */\n      tag_156\n      jumpi\n      mload(0x40)\n      0x08c379a000000000000000000000000000000000000000000000000000000000\n      dup2\n      mstore\n      0x04\n      add\n      tag_157\n      swap1\n      tag_158\n      jump\t// in\n    tag_157:\n      mload(0x40)\n      dup1\n      swap2\n      sub\n      swap1\n      revert\n    tag_156:\n        /* \"BistroMap/Tokens/bistromap_ERC20.sol\":1742:1748  amount */\n      dup1\n        /* \"BistroMap/Tokens/bistromap_ERC20.sol\":1729:1739  soldAmount */\n      sload(0x09)\n        /* \"BistroMap/Tokens/bistromap_ERC20.sol\":1729:1748  soldAmount + amount */\n      tag_159\n      swap2\n      swap1\n      tag_155\n      jump\t// in\n    tag_159:\n        /* \"BistroMap/Tokens/bistromap_ERC20.sol\":1714:1724  preSaleCap */\n      sload(0x08)\n        /* \"BistroMap/Tokens/bistromap_ERC20.sol\":1714:1749  preSaleCap >= (soldAmount + amount) */\n      lt\n      iszero\n        /* \"BistroMap/Tokens/bistromap_ERC20.sol\":1784:1825  Strings.toString(preSaleCap - soldAmount) */\n      tag_160\n        /* \"BistroMap/Tokens/bistromap_ERC20.sol\":1814:1824  soldAmount */\n      sload(0x09)\n        /* \"BistroMap/Tokens/bistromap_ERC20.sol\":1801:1811  preSaleCap */\n      sload(0x08)\n        /* \"BistroMap/Tokens/bistromap_ERC20.sol\":1801:1824  preSaleCap - soldAmount */\n      tag_161\n      swap2\n      swap1\n      tag_162\n      jump\t// in\n    tag_161:\n        /* \"BistroMap/Tokens/bistromap_ERC20.sol\":1784:1800  Strings.toString */\n      tag_163\n        /* \"BistroMap/Tokens/bistromap_ERC20.sol\":1784:1825  Strings.toString(preSaleCap - soldAmount) */\n      jump\t// in\n    tag_160:\n        /* \"BistroMap/Tokens/bistromap_ERC20.sol\":1758:1844  abi.encodePacked(\"Only \", Strings.toString(preSaleCap - soldAmount), \" BSM Available\") */\n      add(0x20, mload(0x40))\n      tag_164\n      swap2\n      swap1\n      tag_165\n      jump\t// in\n    tag_164:\n      mload(0x40)\n      0x20\n      dup2\n      dup4\n      sub\n      sub\n      dup2\n      mstore\n      swap1\n      0x40\n      mstore\n        /* \"BistroMap/Tokens/bistromap_ERC20.sol\":1706:1846  require(preSaleCap >= (soldAmount + amount), string(abi.encodePacked(\"Only \", Strings.toString(preSaleCap - soldAmount), \" BSM Available\"))) */\n      swap1\n      tag_166\n      jumpi\n      mload(0x40)\n      0x08c379a000000000000000000000000000000000000000000000000000000000\n      dup2\n      mstore\n      0x04\n      add\n      tag_167\n      swap2\n      swap1\n      tag_35\n      jump\t// in\n    tag_167:\n      mload(0x40)\n      dup1\n      swap2\n      sub\n      swap1\n      revert\n    tag_166:\n      pop\n        /* \"BistroMap/Tokens/bistromap_ERC20.sol\":994:1000  100000 */\n      0x0186a0\n        /* \"BistroMap/Tokens/bistromap_ERC20.sol\":1887:1893  amount */\n      dup2\n        /* \"BistroMap/Tokens/bistromap_ERC20.sol\":1864:1872  balances */\n      0x0c\n        /* \"BistroMap/Tokens/bistromap_ERC20.sol\":1864:1884  balances[msg.sender] */\n      0x00\n        /* \"BistroMap/Tokens/bistromap_ERC20.sol\":1873:1883  msg.sender */\n      caller\n        /* \"BistroMap/Tokens/bistromap_ERC20.sol\":1864:1884  balances[msg.sender] */\n      0xffffffffffffffffffffffffffffffffffffffff\n      and\n      0xffffffffffffffffffffffffffffffffffffffff\n      and\n      dup2\n      mstore\n      0x20\n      add\n      swap1\n      dup2\n      mstore\n      0x20\n      add\n      0x00\n      keccak256\n      sload\n        /* \"BistroMap/Tokens/bistromap_ERC20.sol\":1864:1893  balances[msg.sender] + amount */\n      tag_168\n      swap2\n      swap1\n      tag_155\n      jump\t// in\n    tag_168:\n        /* \"BistroMap/Tokens/bistromap_ERC20.sol\":1864:1924  balances[msg.sender] + amount <= preSalesLimitPerBeneficiary */\n      gt\n      iszero\n        /* \"BistroMap/Tokens/bistromap_ERC20.sol\":1856:1972  require(balances[msg.sender] + amount <= preSalesLimitPerBeneficiary, \"Pre-Sales Token amount cannot exceed 100000\") */\n      tag_169\n      jumpi\n      mload(0x40)\n      0x08c379a000000000000000000000000000000000000000000000000000000000\n      dup2\n      mstore\n      0x04\n      add\n      tag_170\n      swap1\n      tag_171\n      jump\t// in\n    tag_170:\n      mload(0x40)\n      dup1\n      swap2\n      sub\n      swap1\n      revert\n    tag_169:\n        /* \"BistroMap/Tokens/bistromap_ERC20.sol\":1983:1992  uint cost */\n      0x00\n        /* \"BistroMap/Tokens/bistromap_ERC20.sol\":2032:2039  10 ** 6 */\n      0x0f4240\n        /* \"BistroMap/Tokens/bistromap_ERC20.sol\":711:722  5 * 10 ** 4 */\n      0xc350\n        /* \"BistroMap/Tokens/bistromap_ERC20.sol\":1996:2002  amount */\n      dup4\n        /* \"BistroMap/Tokens/bistromap_ERC20.sol\":1996:2028  amount * PRICE_PER_TOKEN_PRESALE */\n      tag_172\n      swap2\n      swap1\n      tag_173\n      jump\t// in\n    tag_172:\n        /* \"BistroMap/Tokens/bistromap_ERC20.sol\":1995:2039  (amount * PRICE_PER_TOKEN_PRESALE) / 10 ** 6 */\n      tag_174\n      swap2\n      swap1\n      tag_175\n      jump\t// in\n    tag_174:\n        /* \"BistroMap/Tokens/bistromap_ERC20.sol\":1983:2039  uint cost = (amount * PRICE_PER_TOKEN_PRESALE) / 10 ** 6 */\n      swap1\n      pop\n        /* \"BistroMap/Tokens/bistromap_ERC20.sol\":2122:2126  cost */\n      dup1\n        /* \"BistroMap/Tokens/bistromap_ERC20.sol\":2087:2096  usdtToken */\n      0x06\n      0x00\n      swap1\n      sload\n      swap1\n      0x0100\n      exp\n      swap1\n      div\n      0xffffffffffffffffffffffffffffffffffffffff\n      and\n        /* \"BistroMap/Tokens/bistromap_ERC20.sol\":2087:2106  usdtToken.balanceOf */\n      0xffffffffffffffffffffffffffffffffffffffff\n      and\n      0x70a08231\n        /* \"BistroMap/Tokens/bistromap_ERC20.sol\":2107:2117  msg.sender */\n      caller\n        /* \"BistroMap/Tokens/bistromap_ERC20.sol\":2087:2118  usdtToken.balanceOf(msg.sender) */\n      mload(0x40)\n      dup3\n      0xffffffff\n      and\n      0xe0\n      shl\n      dup2\n      mstore\n      0x04\n      add\n      tag_176\n      swap2\n      swap1\n      tag_83\n      jump\t// in\n    tag_176:\n      0x20\n      mload(0x40)\n      dup1\n      dup4\n      sub\n      dup2\n      dup7\n      gas\n      staticcall\n      iszero\n      dup1\n      iszero\n      tag_178\n      jumpi\n      returndatasize\n      0x00\n      dup1\n      returndatacopy\n      revert(0x00, returndatasize)\n    tag_178:\n      pop\n      pop\n      pop\n      pop\n      mload(0x40)\n      returndatasize\n      not(0x1f)\n      0x1f\n      dup3\n      add\n      and\n      dup3\n      add\n      dup1\n      0x40\n      mstore\n      pop\n      dup2\n      add\n      swap1\n      tag_179\n      swap2\n      swap1\n      tag_180\n      jump\t// in\n    tag_179:\n        /* \"BistroMap/Tokens/bistromap_ERC20.sol\":2087:2126  usdtToken.balanceOf(msg.sender) >= cost */\n      lt\n      iszero\n        /* \"BistroMap/Tokens/bistromap_ERC20.sol\":2079:2145  require(usdtToken.balanceOf(msg.sender) >= cost, \"need more USDT\") */\n      tag_181\n      jumpi\n      mload(0x40)\n      0x08c379a000000000000000000000000000000000000000000000000000000000\n      dup2\n      mstore\n      0x04\n      add\n      tag_182\n      swap1\n      tag_183\n      jump\t// in\n    tag_182:\n      mload(0x40)\n      dup1\n      swap2\n      sub\n      swap1\n      revert\n    tag_181:\n        /* \"BistroMap/Tokens/bistromap_ERC20.sol\":2156:2165  usdtToken */\n      0x06\n      0x00\n      swap1\n      sload\n      swap1\n      0x0100\n      exp\n      swap1\n      div\n      0xffffffffffffffffffffffffffffffffffffffff\n      and\n        /* \"BistroMap/Tokens/bistromap_ERC20.sol\":2156:2178  usdtToken.transferFrom */\n      0xffffffffffffffffffffffffffffffffffffffff\n      and\n      0x23b872dd\n        /* \"BistroMap/Tokens/bistromap_ERC20.sol\":2179:2189  msg.sender */\n      caller\n        /* \"BistroMap/Tokens/bistromap_ERC20.sol\":2199:2203  this */\n      address\n        /* \"BistroMap/Tokens/bistromap_ERC20.sol\":2206:2210  cost */\n      dup5\n        /* \"BistroMap/Tokens/bistromap_ERC20.sol\":2156:2211  usdtToken.transferFrom(msg.sender, address(this), cost) */\n      mload(0x40)\n      dup5\n      0xffffffff\n      and\n      0xe0\n      shl\n      dup2\n      mstore\n      0x04\n      add\n      tag_184\n      swap4\n      swap3\n      swap2\n      swap1\n      tag_185\n      jump\t// in\n    tag_184:\n      0x20\n      mload(0x40)\n      dup1\n      dup4\n      sub\n      dup2\n      0x00\n      dup8\n      gas\n      call\n      iszero\n      dup1\n      iszero\n      tag_187\n      jumpi\n      returndatasize\n      0x00\n      dup1\n      returndatacopy\n      revert(0x00, returndatasize)\n    tag_187:\n      pop\n      pop\n      pop\n      pop\n      mload(0x40)\n      returndatasize\n      not(0x1f)\n      0x1f\n      dup3\n      add\n      and\n      dup3\n      add\n      dup1\n      0x40\n      mstore\n      pop\n      dup2\n      add\n      swap1\n      tag_188\n      swap2\n      swap1\n      tag_189\n      jump\t// in\n    tag_188:\n      pop\n        /* \"BistroMap/Tokens/bistromap_ERC20.sol\":2248:2249  0 */\n      0x00\n        /* \"BistroMap/Tokens/bistromap_ERC20.sol\":2224:2232  balances */\n      0x0c\n        /* \"BistroMap/Tokens/bistromap_ERC20.sol\":2224:2244  balances[msg.sender] */\n      0x00\n        /* \"BistroMap/Tokens/bistromap_ERC20.sol\":2233:2243  msg.sender */\n      caller\n        /* \"BistroMap/Tokens/bistromap_ERC20.sol\":2224:2244  balances[msg.sender] */\n      0xffffffffffffffffffffffffffffffffffffffff\n      and\n      0xffffffffffffffffffffffffffffffffffffffff\n      and\n      dup2\n      mstore\n      0x20\n      add\n      swap1\n      dup2\n      mstore\n      0x20\n      add\n      0x00\n      keccak256\n      sload\n        /* \"BistroMap/Tokens/bistromap_ERC20.sol\":2224:2249  balances[msg.sender] == 0 */\n      sub\n        /* \"BistroMap/Tokens/bistromap_ERC20.sol\":2221:2306  if(balances[msg.sender] == 0) {... */\n      tag_190\n      jumpi\n        /* \"BistroMap/Tokens/bistromap_ERC20.sol\":2265:2278  beneficiaries */\n      0x0b\n        /* \"BistroMap/Tokens/bistromap_ERC20.sol\":2284:2294  msg.sender */\n      caller\n        /* \"BistroMap/Tokens/bistromap_ERC20.sol\":2265:2295  beneficiaries.push(msg.sender) */\n      swap1\n      dup1\n      0x01\n      dup2\n      sload\n      add\n      dup1\n      dup3\n      sstore\n      dup1\n      swap2\n      pop\n      pop\n      0x01\n      swap1\n      sub\n      swap1\n      0x00\n      mstore\n      keccak256(0x00, 0x20)\n      add\n      0x00\n      swap1\n      swap2\n      swap1\n      swap2\n      swap1\n      swap2\n      0x0100\n      exp\n      dup2\n      sload\n      dup2\n      0xffffffffffffffffffffffffffffffffffffffff\n      mul\n      not\n      and\n      swap1\n      dup4\n      0xffffffffffffffffffffffffffffffffffffffff\n      and\n      mul\n      or\n      swap1\n      sstore\n      pop\n        /* \"BistroMap/Tokens/bistromap_ERC20.sol\":2221:2306  if(balances[msg.sender] == 0) {... */\n    tag_190:\n        /* \"BistroMap/Tokens/bistromap_ERC20.sol\":2340:2346  amount */\n      dup2\n        /* \"BistroMap/Tokens/bistromap_ERC20.sol\":2316:2324  balances */\n      0x0c\n        /* \"BistroMap/Tokens/bistromap_ERC20.sol\":2316:2336  balances[msg.sender] */\n      0x00\n        /* \"BistroMap/Tokens/bistromap_ERC20.sol\":2325:2335  msg.sender */\n      caller\n        /* \"BistroMap/Tokens/bistromap_ERC20.sol\":2316:2336  balances[msg.sender] */\n      0xffffffffffffffffffffffffffffffffffffffff\n      and\n      0xffffffffffffffffffffffffffffffffffffffff\n      and\n      dup2\n      mstore\n      0x20\n      add\n      swap1\n      dup2\n      mstore\n      0x20\n      add\n      0x00\n      keccak256\n      0x00\n        /* \"BistroMap/Tokens/bistromap_ERC20.sol\":2316:2346  balances[msg.sender] += amount */\n      dup3\n      dup3\n      sload\n      tag_192\n      swap2\n      swap1\n      tag_155\n      jump\t// in\n    tag_192:\n      swap3\n      pop\n      pop\n      dup2\n      swap1\n      sstore\n      pop\n        /* \"BistroMap/Tokens/bistromap_ERC20.sol\":2370:2376  amount */\n      dup2\n        /* \"BistroMap/Tokens/bistromap_ERC20.sol\":2356:2366  soldAmount */\n      0x09\n      0x00\n        /* \"BistroMap/Tokens/bistromap_ERC20.sol\":2356:2376  soldAmount += amount */\n      dup3\n      dup3\n      sload\n      tag_193\n      swap2\n      swap1\n      tag_155\n      jump\t// in\n    tag_193:\n      swap3\n      pop\n      pop\n      dup2\n      swap1\n      sstore\n      pop\n        /* \"BistroMap/Tokens/bistromap_ERC20.sol\":1620:2383  {... */\n      pop\n        /* \"BistroMap/Tokens/bistromap_ERC20.sol\":1574:2383  function buyPrivateSale(uint amount) external {... */\n      pop\n      jump\t// out\n        /* \"BistroMap/Tokens/bistromap_ERC20.sol\":2466:3719  function release() external onlyOwner{... */\n    tag_79:\n        /* \"@openzeppelin/contracts/access/Ownable.sol\":1531:1544  _checkOwner() */\n      tag_195\n        /* \"@openzeppelin/contracts/access/Ownable.sol\":1531:1542  _checkOwner */\n      tag_143\n        /* \"@openzeppelin/contracts/access/Ownable.sol\":1531:1544  _checkOwner() */\n      jump\t// in\n    tag_195:\n        /* \"BistroMap/Tokens/bistromap_ERC20.sol\":2586:2602  uint elapsedTime */\n      0x00\n        /* \"BistroMap/Tokens/bistromap_ERC20.sol\":2636:2643  2 weeks */\n      0x127500\n        /* \"BistroMap/Tokens/bistromap_ERC20.sol\":2624:2633  presaleOn */\n      sload(0x0a)\n        /* \"BistroMap/Tokens/bistromap_ERC20.sol\":2624:2643  presaleOn + 2 weeks */\n      tag_197\n      swap2\n      swap1\n      tag_155\n      jump\t// in\n    tag_197:\n        /* \"BistroMap/Tokens/bistromap_ERC20.sol\":2605:2620  block.timestamp */\n      timestamp\n        /* \"BistroMap/Tokens/bistromap_ERC20.sol\":2605:2644  block.timestamp - (presaleOn + 2 weeks) */\n      tag_198\n      swap2\n      swap1\n      tag_162\n      jump\t// in\n    tag_198:\n        /* \"BistroMap/Tokens/bistromap_ERC20.sol\":2586:2644  uint elapsedTime = block.timestamp - (presaleOn + 2 weeks) */\n      swap1\n      pop\n        /* \"BistroMap/Tokens/bistromap_ERC20.sol\":2681:2689  24 weeks */\n      0xdd7c00\n        /* \"BistroMap/Tokens/bistromap_ERC20.sol\":2666:2677  elapsedTime */\n      dup2\n        /* \"BistroMap/Tokens/bistromap_ERC20.sol\":2666:2689  elapsedTime >= 24 weeks */\n      lt\n      iszero\n        /* \"BistroMap/Tokens/bistromap_ERC20.sol\":2658:2734  require(elapsedTime >= 24 weeks, \"Released after 6 months of private sales\") */\n      tag_199\n      jumpi\n      mload(0x40)\n      0x08c379a000000000000000000000000000000000000000000000000000000000\n      dup2\n      mstore\n      0x04\n      add\n      tag_200\n      swap1\n      tag_201\n      jump\t// in\n    tag_200:\n      mload(0x40)\n      dup1\n      swap2\n      sub\n      swap1\n      revert\n    tag_199:\n        /* \"BistroMap/Tokens/bistromap_ERC20.sol\":2753:2759  uint i */\n      0x00\n        /* \"BistroMap/Tokens/bistromap_ERC20.sol\":2748:3713  for (uint i = 0; i < beneficiaries.length; i++) {... */\n    tag_202:\n        /* \"BistroMap/Tokens/bistromap_ERC20.sol\":2769:2782  beneficiaries */\n      0x0b\n        /* \"BistroMap/Tokens/bistromap_ERC20.sol\":2769:2789  beneficiaries.length */\n      dup1\n      sload\n      swap1\n      pop\n        /* \"BistroMap/Tokens/bistromap_ERC20.sol\":2765:2766  i */\n      dup2\n        /* \"BistroMap/Tokens/bistromap_ERC20.sol\":2765:2789  i < beneficiaries.length */\n      lt\n        /* \"BistroMap/Tokens/bistromap_ERC20.sol\":2748:3713  for (uint i = 0; i < beneficiaries.length; i++) {... */\n      iszero\n      tag_203\n      jumpi\n        /* \"BistroMap/Tokens/bistromap_ERC20.sol\":2814:2833  address beneficiary */\n      0x00\n        /* \"BistroMap/Tokens/bistromap_ERC20.sol\":2836:2849  beneficiaries */\n      0x0b\n        /* \"BistroMap/Tokens/bistromap_ERC20.sol\":2850:2851  i */\n      dup3\n        /* \"BistroMap/Tokens/bistromap_ERC20.sol\":2836:2852  beneficiaries[i] */\n      dup2\n      sload\n      dup2\n      lt\n      tag_205\n      jumpi\n      tag_206\n      tag_207\n      jump\t// in\n    tag_206:\n    tag_205:\n      swap1\n      0x00\n      mstore\n      keccak256(0x00, 0x20)\n      add\n      0x00\n      swap1\n      sload\n      swap1\n      0x0100\n      exp\n      swap1\n      div\n      0xffffffffffffffffffffffffffffffffffffffff\n      and\n        /* \"BistroMap/Tokens/bistromap_ERC20.sol\":2814:2852  address beneficiary = beneficiaries[i] */\n      swap1\n      pop\n        /* \"BistroMap/Tokens/bistromap_ERC20.sol\":874:882  48 weeks */\n      0x01baf800\n        /* \"BistroMap/Tokens/bistromap_ERC20.sol\":2874:2885  elapsedTime */\n      dup4\n        /* \"BistroMap/Tokens/bistromap_ERC20.sol\":2874:2905  elapsedTime < FORTY_EIGHT_WEEKS */\n      lt\n        /* \"BistroMap/Tokens/bistromap_ERC20.sol\":2874:2930  elapsedTime < FORTY_EIGHT_WEEKS && tokenReleased[0] == 0 */\n      dup1\n      iszero\n      tag_209\n      jumpi\n      pop\n        /* \"BistroMap/Tokens/bistromap_ERC20.sol\":2929:2930  0 */\n      0x00\n        /* \"BistroMap/Tokens/bistromap_ERC20.sol\":2909:2922  tokenReleased */\n      0x0d\n        /* \"BistroMap/Tokens/bistromap_ERC20.sol\":2923:2924  0 */\n      0x00\n        /* \"BistroMap/Tokens/bistromap_ERC20.sol\":2909:2925  tokenReleased[0] */\n      0x03\n      dup2\n      lt\n      tag_210\n      jumpi\n      tag_211\n      tag_207\n      jump\t// in\n    tag_211:\n    tag_210:\n      add\n      sload\n        /* \"BistroMap/Tokens/bistromap_ERC20.sol\":2909:2930  tokenReleased[0] == 0 */\n      eq\n        /* \"BistroMap/Tokens/bistromap_ERC20.sol\":2874:2930  elapsedTime < FORTY_EIGHT_WEEKS && tokenReleased[0] == 0 */\n    tag_209:\n        /* \"BistroMap/Tokens/bistromap_ERC20.sol\":2870:3699  if (elapsedTime < FORTY_EIGHT_WEEKS && tokenReleased[0] == 0) {... */\n      iszero\n      tag_213\n      jumpi\n        /* \"BistroMap/Tokens/bistromap_ERC20.sol\":2954:3007  transfer(beneficiary, balances[beneficiary] * 2 / 10) */\n      tag_214\n        /* \"BistroMap/Tokens/bistromap_ERC20.sol\":2963:2974  beneficiary */\n      dup2\n        /* \"BistroMap/Tokens/bistromap_ERC20.sol\":3004:3006  10 */\n      0x0a\n        /* \"BistroMap/Tokens/bistromap_ERC20.sol\":3000:3001  2 */\n      0x02\n        /* \"BistroMap/Tokens/bistromap_ERC20.sol\":2976:2984  balances */\n      0x0c\n        /* \"BistroMap/Tokens/bistromap_ERC20.sol\":2976:2997  balances[beneficiary] */\n      0x00\n        /* \"BistroMap/Tokens/bistromap_ERC20.sol\":2985:2996  beneficiary */\n      dup7\n        /* \"BistroMap/Tokens/bistromap_ERC20.sol\":2976:2997  balances[beneficiary] */\n      0xffffffffffffffffffffffffffffffffffffffff\n      and\n      0xffffffffffffffffffffffffffffffffffffffff\n      and\n      dup2\n      mstore\n      0x20\n      add\n      swap1\n      dup2\n      mstore\n      0x20\n      add\n      0x00\n      keccak256\n      sload\n        /* \"BistroMap/Tokens/bistromap_ERC20.sol\":2976:3001  balances[beneficiary] * 2 */\n      tag_215\n      swap2\n      swap1\n      tag_173\n      jump\t// in\n    tag_215:\n        /* \"BistroMap/Tokens/bistromap_ERC20.sol\":2976:3006  balances[beneficiary] * 2 / 10 */\n      tag_216\n      swap2\n      swap1\n      tag_175\n      jump\t// in\n    tag_216:\n        /* \"BistroMap/Tokens/bistromap_ERC20.sol\":2954:2962  transfer */\n      tag_92\n        /* \"BistroMap/Tokens/bistromap_ERC20.sol\":2954:3007  transfer(beneficiary, balances[beneficiary] * 2 / 10) */\n      jump\t// in\n    tag_214:\n      pop\n        /* \"BistroMap/Tokens/bistromap_ERC20.sol\":3082:3084  10 */\n      0x0a\n        /* \"BistroMap/Tokens/bistromap_ERC20.sol\":3078:3079  2 */\n      0x02\n        /* \"BistroMap/Tokens/bistromap_ERC20.sol\":3054:3062  balances */\n      0x0c\n        /* \"BistroMap/Tokens/bistromap_ERC20.sol\":3054:3075  balances[beneficiary] */\n      0x00\n        /* \"BistroMap/Tokens/bistromap_ERC20.sol\":3063:3074  beneficiary */\n      dup5\n        /* \"BistroMap/Tokens/bistromap_ERC20.sol\":3054:3075  balances[beneficiary] */\n      0xffffffffffffffffffffffffffffffffffffffff\n      and\n      0xffffffffffffffffffffffffffffffffffffffff\n      and\n      dup2\n      mstore\n      0x20\n      add\n      swap1\n      dup2\n      mstore\n      0x20\n      add\n      0x00\n      keccak256\n      sload\n        /* \"BistroMap/Tokens/bistromap_ERC20.sol\":3054:3079  balances[beneficiary] * 2 */\n      tag_217\n      swap2\n      swap1\n      tag_173\n      jump\t// in\n    tag_217:\n        /* \"BistroMap/Tokens/bistromap_ERC20.sol\":3054:3084  balances[beneficiary] * 2 / 10 */\n      tag_218\n      swap2\n      swap1\n      tag_175\n      jump\t// in\n    tag_218:\n        /* \"BistroMap/Tokens/bistromap_ERC20.sol\":3029:3037  balances */\n      0x0c\n        /* \"BistroMap/Tokens/bistromap_ERC20.sol\":3029:3050  balances[beneficiary] */\n      0x00\n        /* \"BistroMap/Tokens/bistromap_ERC20.sol\":3038:3049  beneficiary */\n      dup4\n        /* \"BistroMap/Tokens/bistromap_ERC20.sol\":3029:3050  balances[beneficiary] */\n      0xffffffffffffffffffffffffffffffffffffffff\n      and\n      0xffffffffffffffffffffffffffffffffffffffff\n      and\n      dup2\n      mstore\n      0x20\n      add\n      swap1\n      dup2\n      mstore\n      0x20\n      add\n      0x00\n      keccak256\n      0x00\n        /* \"BistroMap/Tokens/bistromap_ERC20.sol\":3029:3084  balances[beneficiary] -= balances[beneficiary] * 2 / 10 */\n      dup3\n      dup3\n      sload\n      tag_219\n      swap2\n      swap1\n      tag_162\n      jump\t// in\n    tag_219:\n      swap3\n      pop\n      pop\n      dup2\n      swap1\n      sstore\n      pop\n        /* \"BistroMap/Tokens/bistromap_ERC20.sol\":3126:3127  1 */\n      0x01\n        /* \"BistroMap/Tokens/bistromap_ERC20.sol\":3106:3119  tokenReleased */\n      0x0d\n        /* \"BistroMap/Tokens/bistromap_ERC20.sol\":3120:3121  0 */\n      0x00\n        /* \"BistroMap/Tokens/bistromap_ERC20.sol\":3106:3122  tokenReleased[0] */\n      0x03\n      dup2\n      lt\n      tag_220\n      jumpi\n      tag_221\n      tag_207\n      jump\t// in\n    tag_221:\n    tag_220:\n      pop\n      pop\n        /* \"BistroMap/Tokens/bistromap_ERC20.sol\":3106:3127  tokenReleased[0] == 1 */\n      pop\n        /* \"BistroMap/Tokens/bistromap_ERC20.sol\":2870:3699  if (elapsedTime < FORTY_EIGHT_WEEKS && tokenReleased[0] == 0) {... */\n      jump(tag_223)\n    tag_213:\n        /* \"BistroMap/Tokens/bistromap_ERC20.sol\":928:936  96 weeks */\n      0x0375f000\n        /* \"BistroMap/Tokens/bistromap_ERC20.sol\":3156:3167  elapsedTime */\n      dup4\n        /* \"BistroMap/Tokens/bistromap_ERC20.sol\":3156:3186  elapsedTime < NINETY_SIX_WEEKS */\n      lt\n        /* \"BistroMap/Tokens/bistromap_ERC20.sol\":3156:3211  elapsedTime < NINETY_SIX_WEEKS && tokenReleased[1] == 0 */\n      dup1\n      iszero\n      tag_224\n      jumpi\n      pop\n        /* \"BistroMap/Tokens/bistromap_ERC20.sol\":3210:3211  0 */\n      0x00\n        /* \"BistroMap/Tokens/bistromap_ERC20.sol\":3190:3203  tokenReleased */\n      0x0d\n        /* \"BistroMap/Tokens/bistromap_ERC20.sol\":3204:3205  1 */\n      0x01\n        /* \"BistroMap/Tokens/bistromap_ERC20.sol\":3190:3206  tokenReleased[1] */\n      0x03\n      dup2\n      lt\n      tag_225\n      jumpi\n      tag_226\n      tag_207\n      jump\t// in\n    tag_226:\n    tag_225:\n      add\n      sload\n        /* \"BistroMap/Tokens/bistromap_ERC20.sol\":3190:3211  tokenReleased[1] == 0 */\n      eq\n        /* \"BistroMap/Tokens/bistromap_ERC20.sol\":3156:3211  elapsedTime < NINETY_SIX_WEEKS && tokenReleased[1] == 0 */\n    tag_224:\n        /* \"BistroMap/Tokens/bistromap_ERC20.sol\":3152:3699  if (elapsedTime < NINETY_SIX_WEEKS && tokenReleased[1] == 0) {... */\n      iszero\n      tag_228\n      jumpi\n        /* \"BistroMap/Tokens/bistromap_ERC20.sol\":3235:3288  transfer(beneficiary, balances[beneficiary] * 3 / 10) */\n      tag_229\n        /* \"BistroMap/Tokens/bistromap_ERC20.sol\":3244:3255  beneficiary */\n      dup2\n        /* \"BistroMap/Tokens/bistromap_ERC20.sol\":3285:3287  10 */\n      0x0a\n        /* \"BistroMap/Tokens/bistromap_ERC20.sol\":3281:3282  3 */\n      0x03\n        /* \"BistroMap/Tokens/bistromap_ERC20.sol\":3257:3265  balances */\n      0x0c\n        /* \"BistroMap/Tokens/bistromap_ERC20.sol\":3257:3278  balances[beneficiary] */\n      0x00\n        /* \"BistroMap/Tokens/bistromap_ERC20.sol\":3266:3277  beneficiary */\n      dup7\n        /* \"BistroMap/Tokens/bistromap_ERC20.sol\":3257:3278  balances[beneficiary] */\n      0xffffffffffffffffffffffffffffffffffffffff\n      and\n      0xffffffffffffffffffffffffffffffffffffffff\n      and\n      dup2\n      mstore\n      0x20\n      add\n      swap1\n      dup2\n      mstore\n      0x20\n      add\n      0x00\n      keccak256\n      sload\n        /* \"BistroMap/Tokens/bistromap_ERC20.sol\":3257:3282  balances[beneficiary] * 3 */\n      tag_230\n      swap2\n      swap1\n      tag_173\n      jump\t// in\n    tag_230:\n        /* \"BistroMap/Tokens/bistromap_ERC20.sol\":3257:3287  balances[beneficiary] * 3 / 10 */\n      tag_231\n      swap2\n      swap1\n      tag_175\n      jump\t// in\n    tag_231:\n        /* \"BistroMap/Tokens/bistromap_ERC20.sol\":3235:3243  transfer */\n      tag_92\n        /* \"BistroMap/Tokens/bistromap_ERC20.sol\":3235:3288  transfer(beneficiary, balances[beneficiary] * 3 / 10) */\n      jump\t// in\n    tag_229:\n      pop\n        /* \"BistroMap/Tokens/bistromap_ERC20.sol\":3363:3365  10 */\n      0x0a\n        /* \"BistroMap/Tokens/bistromap_ERC20.sol\":3359:3360  3 */\n      0x03\n        /* \"BistroMap/Tokens/bistromap_ERC20.sol\":3335:3343  balances */\n      0x0c\n        /* \"BistroMap/Tokens/bistromap_ERC20.sol\":3335:3356  balances[beneficiary] */\n      0x00\n        /* \"BistroMap/Tokens/bistromap_ERC20.sol\":3344:3355  beneficiary */\n      dup5\n        /* \"BistroMap/Tokens/bistromap_ERC20.sol\":3335:3356  balances[beneficiary] */\n      0xffffffffffffffffffffffffffffffffffffffff\n      and\n      0xffffffffffffffffffffffffffffffffffffffff\n      and\n      dup2\n      mstore\n      0x20\n      add\n      swap1\n      dup2\n      mstore\n      0x20\n      add\n      0x00\n      keccak256\n      sload\n        /* \"BistroMap/Tokens/bistromap_ERC20.sol\":3335:3360  balances[beneficiary] * 3 */\n      tag_232\n      swap2\n      swap1\n      tag_173\n      jump\t// in\n    tag_232:\n        /* \"BistroMap/Tokens/bistromap_ERC20.sol\":3335:3365  balances[beneficiary] * 3 / 10 */\n      tag_233\n      swap2\n      swap1\n      tag_175\n      jump\t// in\n    tag_233:\n        /* \"BistroMap/Tokens/bistromap_ERC20.sol\":3310:3318  balances */\n      0x0c\n        /* \"BistroMap/Tokens/bistromap_ERC20.sol\":3310:3331  balances[beneficiary] */\n      0x00\n        /* \"BistroMap/Tokens/bistromap_ERC20.sol\":3319:3330  beneficiary */\n      dup4\n        /* \"BistroMap/Tokens/bistromap_ERC20.sol\":3310:3331  balances[beneficiary] */\n      0xffffffffffffffffffffffffffffffffffffffff\n      and\n      0xffffffffffffffffffffffffffffffffffffffff\n      and\n      dup2\n      mstore\n      0x20\n      add\n      swap1\n      dup2\n      mstore\n      0x20\n      add\n      0x00\n      keccak256\n      0x00\n        /* \"BistroMap/Tokens/bistromap_ERC20.sol\":3310:3365  balances[beneficiary] -= balances[beneficiary] * 3 / 10 */\n      dup3\n      dup3\n      sload\n      tag_234\n      swap2\n      swap1\n      tag_162\n      jump\t// in\n    tag_234:\n      swap3\n      pop\n      pop\n      dup2\n      swap1\n      sstore\n      pop\n        /* \"BistroMap/Tokens/bistromap_ERC20.sol\":3407:3408  1 */\n      0x01\n        /* \"BistroMap/Tokens/bistromap_ERC20.sol\":3387:3400  tokenReleased */\n      0x0d\n        /* \"BistroMap/Tokens/bistromap_ERC20.sol\":3401:3402  1 */\n      0x01\n        /* \"BistroMap/Tokens/bistromap_ERC20.sol\":3387:3403  tokenReleased[1] */\n      0x03\n      dup2\n      lt\n      tag_235\n      jumpi\n      tag_236\n      tag_207\n      jump\t// in\n    tag_236:\n    tag_235:\n      pop\n      pop\n        /* \"BistroMap/Tokens/bistromap_ERC20.sol\":3387:3408  tokenReleased[1] == 1 */\n      pop\n        /* \"BistroMap/Tokens/bistromap_ERC20.sol\":3152:3699  if (elapsedTime < NINETY_SIX_WEEKS && tokenReleased[1] == 0) {... */\n      jump(tag_238)\n    tag_228:\n        /* \"BistroMap/Tokens/bistromap_ERC20.sol\":928:936  96 weeks */\n      0x0375f000\n        /* \"BistroMap/Tokens/bistromap_ERC20.sol\":3437:3448  elapsedTime */\n      dup4\n        /* \"BistroMap/Tokens/bistromap_ERC20.sol\":3437:3468  elapsedTime >= NINETY_SIX_WEEKS */\n      lt\n      iszero\n        /* \"BistroMap/Tokens/bistromap_ERC20.sol\":3437:3493  elapsedTime >= NINETY_SIX_WEEKS && tokenReleased[2] == 0 */\n      dup1\n      iszero\n      tag_239\n      jumpi\n      pop\n        /* \"BistroMap/Tokens/bistromap_ERC20.sol\":3492:3493  0 */\n      0x00\n        /* \"BistroMap/Tokens/bistromap_ERC20.sol\":3472:3485  tokenReleased */\n      0x0d\n        /* \"BistroMap/Tokens/bistromap_ERC20.sol\":3486:3487  2 */\n      0x02\n        /* \"BistroMap/Tokens/bistromap_ERC20.sol\":3472:3488  tokenReleased[2] */\n      0x03\n      dup2\n      lt\n      tag_240\n      jumpi\n      tag_241\n      tag_207\n      jump\t// in\n    tag_241:\n    tag_240:\n      add\n      sload\n        /* \"BistroMap/Tokens/bistromap_ERC20.sol\":3472:3493  tokenReleased[2] == 0 */\n      eq\n        /* \"BistroMap/Tokens/bistromap_ERC20.sol\":3437:3493  elapsedTime >= NINETY_SIX_WEEKS && tokenReleased[2] == 0 */\n    tag_239:\n        /* \"BistroMap/Tokens/bistromap_ERC20.sol\":3433:3699  if (elapsedTime >= NINETY_SIX_WEEKS && tokenReleased[2] == 0) {... */\n      iszero\n      tag_243\n      jumpi\n        /* \"BistroMap/Tokens/bistromap_ERC20.sol\":3517:3565  transfer(beneficiary, balances[beneficiary] / 2) */\n      tag_244\n        /* \"BistroMap/Tokens/bistromap_ERC20.sol\":3526:3537  beneficiary */\n      dup2\n        /* \"BistroMap/Tokens/bistromap_ERC20.sol\":3563:3564  2 */\n      0x02\n        /* \"BistroMap/Tokens/bistromap_ERC20.sol\":3539:3547  balances */\n      0x0c\n        /* \"BistroMap/Tokens/bistromap_ERC20.sol\":3539:3560  balances[beneficiary] */\n      0x00\n        /* \"BistroMap/Tokens/bistromap_ERC20.sol\":3548:3559  beneficiary */\n      dup6\n        /* \"BistroMap/Tokens/bistromap_ERC20.sol\":3539:3560  balances[beneficiary] */\n      0xffffffffffffffffffffffffffffffffffffffff\n      and\n      0xffffffffffffffffffffffffffffffffffffffff\n      and\n      dup2\n      mstore\n      0x20\n      add\n      swap1\n      dup2\n      mstore\n      0x20\n      add\n      0x00\n      keccak256\n      sload\n        /* \"BistroMap/Tokens/bistromap_ERC20.sol\":3539:3564  balances[beneficiary] / 2 */\n      tag_245\n      swap2\n      swap1\n      tag_175\n      jump\t// in\n    tag_245:\n        /* \"BistroMap/Tokens/bistromap_ERC20.sol\":3517:3525  transfer */\n      tag_92\n        /* \"BistroMap/Tokens/bistromap_ERC20.sol\":3517:3565  transfer(beneficiary, balances[beneficiary] / 2) */\n      jump\t// in\n    tag_244:\n      pop\n        /* \"BistroMap/Tokens/bistromap_ERC20.sol\":3636:3637  2 */\n      0x02\n        /* \"BistroMap/Tokens/bistromap_ERC20.sol\":3612:3620  balances */\n      0x0c\n        /* \"BistroMap/Tokens/bistromap_ERC20.sol\":3612:3633  balances[beneficiary] */\n      0x00\n        /* \"BistroMap/Tokens/bistromap_ERC20.sol\":3621:3632  beneficiary */\n      dup4\n        /* \"BistroMap/Tokens/bistromap_ERC20.sol\":3612:3633  balances[beneficiary] */\n      0xffffffffffffffffffffffffffffffffffffffff\n      and\n      0xffffffffffffffffffffffffffffffffffffffff\n      and\n      dup2\n      mstore\n      0x20\n      add\n      swap1\n      dup2\n      mstore\n      0x20\n      add\n      0x00\n      keccak256\n      sload\n        /* \"BistroMap/Tokens/bistromap_ERC20.sol\":3612:3637  balances[beneficiary] / 2 */\n      tag_246\n      swap2\n      swap1\n      tag_175\n      jump\t// in\n    tag_246:\n        /* \"BistroMap/Tokens/bistromap_ERC20.sol\":3587:3595  balances */\n      0x0c\n        /* \"BistroMap/Tokens/bistromap_ERC20.sol\":3587:3608  balances[beneficiary] */\n      0x00\n        /* \"BistroMap/Tokens/bistromap_ERC20.sol\":3596:3607  beneficiary */\n      dup4\n        /* \"BistroMap/Tokens/bistromap_ERC20.sol\":3587:3608  balances[beneficiary] */\n      0xffffffffffffffffffffffffffffffffffffffff\n      and\n      0xffffffffffffffffffffffffffffffffffffffff\n      and\n      dup2\n      mstore\n      0x20\n      add\n      swap1\n      dup2\n      mstore\n      0x20\n      add\n      0x00\n      keccak256\n      0x00\n        /* \"BistroMap/Tokens/bistromap_ERC20.sol\":3587:3637  balances[beneficiary] -= balances[beneficiary] / 2 */\n      dup3\n      dup3\n      sload\n      tag_247\n      swap2\n      swap1\n      tag_162\n      jump\t// in\n    tag_247:\n      swap3\n      pop\n      pop\n      dup2\n      swap1\n      sstore\n      pop\n        /* \"BistroMap/Tokens/bistromap_ERC20.sol\":3679:3680  1 */\n      0x01\n        /* \"BistroMap/Tokens/bistromap_ERC20.sol\":3659:3672  tokenReleased */\n      0x0d\n        /* \"BistroMap/Tokens/bistromap_ERC20.sol\":3673:3674  2 */\n      0x02\n        /* \"BistroMap/Tokens/bistromap_ERC20.sol\":3659:3675  tokenReleased[2] */\n      0x03\n      dup2\n      lt\n      tag_248\n      jumpi\n      tag_249\n      tag_207\n      jump\t// in\n    tag_249:\n    tag_248:\n      pop\n      pop\n        /* \"BistroMap/Tokens/bistromap_ERC20.sol\":3659:3680  tokenReleased[2] == 1 */\n      pop\n        /* \"BistroMap/Tokens/bistromap_ERC20.sol\":3433:3699  if (elapsedTime >= NINETY_SIX_WEEKS && tokenReleased[2] == 0) {... */\n    tag_243:\n        /* \"BistroMap/Tokens/bistromap_ERC20.sol\":3152:3699  if (elapsedTime < NINETY_SIX_WEEKS && tokenReleased[1] == 0) {... */\n    tag_238:\n        /* \"BistroMap/Tokens/bistromap_ERC20.sol\":2870:3699  if (elapsedTime < FORTY_EIGHT_WEEKS && tokenReleased[0] == 0) {... */\n    tag_223:\n        /* \"BistroMap/Tokens/bistromap_ERC20.sol\":2796:3713  {... */\n      pop\n        /* \"BistroMap/Tokens/bistromap_ERC20.sol\":2791:2794  i++ */\n      dup1\n      dup1\n      0x01\n      add\n      swap2\n      pop\n      pop\n        /* \"BistroMap/Tokens/bistromap_ERC20.sol\":2748:3713  for (uint i = 0; i < beneficiaries.length; i++) {... */\n      jump(tag_202)\n    tag_203:\n      pop\n        /* \"BistroMap/Tokens/bistromap_ERC20.sol\":2503:3719  {... */\n      pop\n        /* \"BistroMap/Tokens/bistromap_ERC20.sol\":2466:3719  function release() external onlyOwner{... */\n      jump\t// out\n        /* \"@openzeppelin/contracts/access/Ownable.sol\":1638:1723  function owner() public view virtual returns (address) {... */\n    tag_81:\n        /* \"@openzeppelin/contracts/access/Ownable.sol\":1684:1691  address */\n      0x00\n        /* \"@openzeppelin/contracts/access/Ownable.sol\":1710:1716  _owner */\n      0x05\n      0x00\n      swap1\n      sload\n      swap1\n      0x0100\n      exp\n      swap1\n      div\n      0xffffffffffffffffffffffffffffffffffffffff\n      and\n        /* \"@openzeppelin/contracts/access/Ownable.sol\":1703:1716  return _owner */\n      swap1\n      pop\n        /* \"@openzeppelin/contracts/access/Ownable.sol\":1638:1723  function owner() public view virtual returns (address) {... */\n      swap1\n      jump\t// out\n        /* \"BistroMap/Tokens/bistromap_ERC20.sol\":943:1000  uint public constant preSalesLimitPerBeneficiary = 100000 */\n    tag_85:\n        /* \"BistroMap/Tokens/bistromap_ERC20.sol\":994:1000  100000 */\n      0x0186a0\n        /* \"BistroMap/Tokens/bistromap_ERC20.sol\":943:1000  uint public constant preSalesLimitPerBeneficiary = 100000 */\n      dup2\n      jump\t// out\n        /* \"@openzeppelin/contracts/token/ERC20/ERC20.sol\":2276:2369  function symbol() public view virtual returns (string memory) {... */\n    tag_88:\n        /* \"@openzeppelin/contracts/token/ERC20/ERC20.sol\":2323:2336  string memory */\n      0x60\n        /* \"@openzeppelin/contracts/token/ERC20/ERC20.sol\":2355:2362  _symbol */\n      0x04\n        /* \"@openzeppelin/contracts/token/ERC20/ERC20.sol\":2348:2362  return _symbol */\n      dup1\n      sload\n      tag_253\n      swap1\n      tag_123\n      jump\t// in\n    tag_253:\n      dup1\n      0x1f\n      add\n      0x20\n      dup1\n      swap2\n      div\n      mul\n      0x20\n      add\n      mload(0x40)\n      swap1\n      dup2\n      add\n      0x40\n      mstore\n      dup1\n      swap3\n      swap2\n      swap1\n      dup2\n      dup2\n      mstore\n      0x20\n      add\n      dup3\n      dup1\n      sload\n      tag_254\n      swap1\n      tag_123\n      jump\t// in\n    tag_254:\n      dup1\n      iszero\n      tag_255\n      jumpi\n      dup1\n      0x1f\n      lt\n      tag_256\n      jumpi\n      0x0100\n      dup1\n      dup4\n      sload\n      div\n      mul\n      dup4\n      mstore\n      swap2\n      0x20\n      add\n      swap2\n      jump(tag_255)\n    tag_256:\n      dup3\n      add\n      swap2\n      swap1\n      0x00\n      mstore\n      keccak256(0x00, 0x20)\n      swap1\n    tag_257:\n      dup2\n      sload\n      dup2\n      mstore\n      swap1\n      0x01\n      add\n      swap1\n      0x20\n      add\n      dup1\n      dup4\n      gt\n      tag_257\n      jumpi\n      dup3\n      swap1\n      sub\n      0x1f\n      and\n      dup3\n      add\n      swap2\n    tag_255:\n      pop\n      pop\n      pop\n      pop\n      pop\n      swap1\n      pop\n        /* \"@openzeppelin/contracts/token/ERC20/ERC20.sol\":2276:2369  function symbol() public view virtual returns (string memory) {... */\n      swap1\n      jump\t// out\n        /* \"@openzeppelin/contracts/token/ERC20/ERC20.sol\":3610:3788  function transfer(address to, uint256 value) public virtual returns (bool) {... */\n    tag_92:\n        /* \"@openzeppelin/contracts/token/ERC20/ERC20.sol\":3679:3683  bool */\n      0x00\n        /* \"@openzeppelin/contracts/token/ERC20/ERC20.sol\":3695:3708  address owner */\n      dup1\n        /* \"@openzeppelin/contracts/token/ERC20/ERC20.sol\":3711:3723  _msgSender() */\n      tag_259\n        /* \"@openzeppelin/contracts/token/ERC20/ERC20.sol\":3711:3721  _msgSender */\n      tag_130\n        /* \"@openzeppelin/contracts/token/ERC20/ERC20.sol\":3711:3723  _msgSender() */\n      jump\t// in\n    tag_259:\n        /* \"@openzeppelin/contracts/token/ERC20/ERC20.sol\":3695:3723  address owner = _msgSender() */\n      swap1\n      pop\n        /* \"@openzeppelin/contracts/token/ERC20/ERC20.sol\":3733:3760  _transfer(owner, to, value) */\n      tag_260\n        /* \"@openzeppelin/contracts/token/ERC20/ERC20.sol\":3743:3748  owner */\n      dup2\n        /* \"@openzeppelin/contracts/token/ERC20/ERC20.sol\":3750:3752  to */\n      dup6\n        /* \"@openzeppelin/contracts/token/ERC20/ERC20.sol\":3754:3759  value */\n      dup6\n        /* \"@openzeppelin/contracts/token/ERC20/ERC20.sol\":3733:3742  _transfer */\n      tag_139\n        /* \"@openzeppelin/contracts/token/ERC20/ERC20.sol\":3733:3760  _transfer(owner, to, value) */\n      jump\t// in\n    tag_260:\n        /* \"@openzeppelin/contracts/token/ERC20/ERC20.sol\":3777:3781  true */\n      0x01\n        /* \"@openzeppelin/contracts/token/ERC20/ERC20.sol\":3770:3781  return true */\n      swap2\n      pop\n      pop\n        /* \"@openzeppelin/contracts/token/ERC20/ERC20.sol\":3610:3788  function transfer(address to, uint256 value) public virtual returns (bool) {... */\n      swap3\n      swap2\n      pop\n      pop\n      jump\t// out\n        /* \"BistroMap/Tokens/bistromap_ERC20.sol\":492:515  IERC20 public usdtToken */\n    tag_95:\n      0x06\n      0x00\n      swap1\n      sload\n      swap1\n      0x0100\n      exp\n      swap1\n      div\n      0xffffffffffffffffffffffffffffffffffffffff\n      and\n      dup2\n      jump\t// out\n        /* \"BistroMap/Tokens/bistromap_ERC20.sol\":778:827  uint public constant TWENTY_FOUR_WEEKS = 24 weeks */\n    tag_99:\n        /* \"BistroMap/Tokens/bistromap_ERC20.sol\":819:827  24 weeks */\n      0xdd7c00\n        /* \"BistroMap/Tokens/bistromap_ERC20.sol\":778:827  uint public constant TWENTY_FOUR_WEEKS = 24 weeks */\n      dup2\n      jump\t// out\n        /* \"BistroMap/Tokens/bistromap_ERC20.sol\":664:722  uint public constant PRICE_PER_TOKEN_PRESALE = 5 * 10 ** 4 */\n    tag_102:\n        /* \"BistroMap/Tokens/bistromap_ERC20.sol\":711:722  5 * 10 ** 4 */\n      0xc350\n        /* \"BistroMap/Tokens/bistromap_ERC20.sol\":664:722  uint public constant PRICE_PER_TOKEN_PRESALE = 5 * 10 ** 4 */\n      dup2\n      jump\t// out\n        /* \"BistroMap/Tokens/bistromap_ERC20.sol\":888:936  uint public constant NINETY_SIX_WEEKS = 96 weeks */\n    tag_105:\n        /* \"BistroMap/Tokens/bistromap_ERC20.sol\":928:936  96 weeks */\n      0x0375f000\n        /* \"BistroMap/Tokens/bistromap_ERC20.sol\":888:936  uint public constant NINETY_SIX_WEEKS = 96 weeks */\n      dup2\n      jump\t// out\n        /* \"@openzeppelin/contracts/token/ERC20/ERC20.sol\":3846:3986  function allowance(address owner, address spender) public view virtual returns (uint256) {... */\n    tag_110:\n        /* \"@openzeppelin/contracts/token/ERC20/ERC20.sol\":3926:3933  uint256 */\n      0x00\n        /* \"@openzeppelin/contracts/token/ERC20/ERC20.sol\":3952:3963  _allowances */\n      0x01\n        /* \"@openzeppelin/contracts/token/ERC20/ERC20.sol\":3952:3970  _allowances[owner] */\n      0x00\n        /* \"@openzeppelin/contracts/token/ERC20/ERC20.sol\":3964:3969  owner */\n      dup5\n        /* \"@openzeppelin/contracts/token/ERC20/ERC20.sol\":3952:3970  _allowances[owner] */\n      0xffffffffffffffffffffffffffffffffffffffff\n      and\n      0xffffffffffffffffffffffffffffffffffffffff\n      and\n      dup2\n      mstore\n      0x20\n      add\n      swap1\n      dup2\n      mstore\n      0x20\n      add\n      0x00\n      keccak256\n        /* \"@openzeppelin/contracts/token/ERC20/ERC20.sol\":3952:3979  _allowances[owner][spender] */\n      0x00\n        /* \"@openzeppelin/contracts/token/ERC20/ERC20.sol\":3971:3978  spender */\n      dup4\n        /* \"@openzeppelin/contracts/token/ERC20/ERC20.sol\":3952:3979  _allowances[owner][spender] */\n      0xffffffffffffffffffffffffffffffffffffffff\n      and\n      0xffffffffffffffffffffffffffffffffffffffff\n      and\n      dup2\n      mstore\n      0x20\n      add\n      swap1\n      dup2\n      mstore\n      0x20\n      add\n      0x00\n      keccak256\n      sload\n        /* \"@openzeppelin/contracts/token/ERC20/ERC20.sol\":3945:3979  return _allowances[owner][spender] */\n      swap1\n      pop\n        /* \"@openzeppelin/contracts/token/ERC20/ERC20.sol\":3846:3986  function allowance(address owner, address spender) public view virtual returns (uint256) {... */\n      swap3\n      swap2\n      pop\n      pop\n      jump\t// out\n        /* \"BistroMap/Tokens/bistromap_ERC20.sol\":1006:1041  uint public presalePeriod = 2 weeks */\n    tag_113:\n      sload(0x07)\n      dup2\n      jump\t// out\n        /* \"@openzeppelin/contracts/access/Ownable.sol\":2543:2758  function transferOwnership(address newOwner) public virtual onlyOwner {... */\n    tag_117:\n        /* \"@openzeppelin/contracts/access/Ownable.sol\":1531:1544  _checkOwner() */\n      tag_263\n        /* \"@openzeppelin/contracts/access/Ownable.sol\":1531:1542  _checkOwner */\n      tag_143\n        /* \"@openzeppelin/contracts/access/Ownable.sol\":1531:1544  _checkOwner() */\n      jump\t// in\n    tag_263:\n        /* \"@openzeppelin/contracts/access/Ownable.sol\":2647:2648  0 */\n      0x00\n        /* \"@openzeppelin/contracts/access/Ownable.sol\":2627:2649  newOwner == address(0) */\n      0xffffffffffffffffffffffffffffffffffffffff\n      and\n        /* \"@openzeppelin/contracts/access/Ownable.sol\":2627:2635  newOwner */\n      dup2\n        /* \"@openzeppelin/contracts/access/Ownable.sol\":2627:2649  newOwner == address(0) */\n      0xffffffffffffffffffffffffffffffffffffffff\n      and\n      sub\n        /* \"@openzeppelin/contracts/access/Ownable.sol\":2623:2714  if (newOwner == address(0)) {... */\n      tag_265\n      jumpi\n        /* \"@openzeppelin/contracts/access/Ownable.sol\":2700:2701  0 */\n      0x00\n        /* \"@openzeppelin/contracts/access/Ownable.sol\":2672:2703  OwnableInvalidOwner(address(0)) */\n      mload(0x40)\n      0x1e4fbdf700000000000000000000000000000000000000000000000000000000\n      dup2\n      mstore\n      0x04\n      add\n      tag_266\n      swap2\n      swap1\n      tag_83\n      jump\t// in\n    tag_266:\n      mload(0x40)\n      dup1\n      swap2\n      sub\n      swap1\n      revert\n        /* \"@openzeppelin/contracts/access/Ownable.sol\":2623:2714  if (newOwner == address(0)) {... */\n    tag_265:\n        /* \"@openzeppelin/contracts/access/Ownable.sol\":2723:2751  _transferOwnership(newOwner) */\n      tag_267\n        /* \"@openzeppelin/contracts/access/Ownable.sol\":2742:2750  newOwner */\n      dup2\n        /* \"@openzeppelin/contracts/access/Ownable.sol\":2723:2741  _transferOwnership */\n      tag_152\n        /* \"@openzeppelin/contracts/access/Ownable.sol\":2723:2751  _transferOwnership(newOwner) */\n      jump\t// in\n    tag_267:\n        /* \"@openzeppelin/contracts/access/Ownable.sol\":2543:2758  function transferOwnership(address newOwner) public virtual onlyOwner {... */\n      pop\n      jump\t// out\n        /* \"BistroMap/Tokens/bistromap_ERC20.sol\":1119:1141  uint public soldAmount */\n    tag_119:\n      sload(0x09)\n      dup2\n      jump\t// out\n        /* \"@openzeppelin/contracts/utils/Context.sol\":656:752  function _msgSender() internal view virtual returns (address) {... */\n    tag_130:\n        /* \"@openzeppelin/contracts/utils/Context.sol\":709:716  address */\n      0x00\n        /* \"@openzeppelin/contracts/utils/Context.sol\":735:745  msg.sender */\n      caller\n        /* \"@openzeppelin/contracts/utils/Context.sol\":728:745  return msg.sender */\n      swap1\n      pop\n        /* \"@openzeppelin/contracts/utils/Context.sol\":656:752  function _msgSender() internal view virtual returns (address) {... */\n      swap1\n      jump\t// out\n        /* \"@openzeppelin/contracts/token/ERC20/ERC20.sol\":8989:9117  function _approve(address owner, address spender, uint256 value) internal {... */\n    tag_132:\n        /* \"@openzeppelin/contracts/token/ERC20/ERC20.sol\":9073:9110  _approve(owner, spender, value, true) */\n      tag_270\n        /* \"@openzeppelin/contracts/token/ERC20/ERC20.sol\":9082:9087  owner */\n      dup4\n        /* \"@openzeppelin/contracts/token/ERC20/ERC20.sol\":9089:9096  spender */\n      dup4\n        /* \"@openzeppelin/contracts/token/ERC20/ERC20.sol\":9098:9103  value */\n      dup4\n        /* \"@openzeppelin/contracts/token/ERC20/ERC20.sol\":9105:9109  true */\n      0x01\n        /* \"@openzeppelin/contracts/token/ERC20/ERC20.sol\":9073:9081  _approve */\n      tag_271\n        /* \"@openzeppelin/contracts/token/ERC20/ERC20.sol\":9073:9110  _approve(owner, spender, value, true) */\n      jump\t// in\n    tag_270:\n        /* \"@openzeppelin/contracts/token/ERC20/ERC20.sol\":8989:9117  function _approve(address owner, address spender, uint256 value) internal {... */\n      pop\n      pop\n      pop\n      jump\t// out\n        /* \"@openzeppelin/contracts/token/ERC20/ERC20.sol\":10663:11140  function _spendAllowance(address owner, address spender, uint256 value) internal virtual {... */\n    tag_137:\n        /* \"@openzeppelin/contracts/token/ERC20/ERC20.sol\":10762:10786  uint256 currentAllowance */\n      0x00\n        /* \"@openzeppelin/contracts/token/ERC20/ERC20.sol\":10789:10814  allowance(owner, spender) */\n      tag_273\n        /* \"@openzeppelin/contracts/token/ERC20/ERC20.sol\":10799:10804  owner */\n      dup5\n        /* \"@openzeppelin/contracts/token/ERC20/ERC20.sol\":10806:10813  spender */\n      dup5\n        /* \"@openzeppelin/contracts/token/ERC20/ERC20.sol\":10789:10798  allowance */\n      tag_110\n        /* \"@openzeppelin/contracts/token/ERC20/ERC20.sol\":10789:10814  allowance(owner, spender) */\n      jump\t// in\n    tag_273:\n        /* \"@openzeppelin/contracts/token/ERC20/ERC20.sol\":10762:10814  uint256 currentAllowance = allowance(owner, spender) */\n      swap1\n      pop\n        /* \"@openzeppelin/contracts/token/ERC20/ERC20.sol\":10848:10865  type(uint256).max */\n      0xffffffffffffffffffffffffffffffffffffffffffffffffffffffffffffffff\n        /* \"@openzeppelin/contracts/token/ERC20/ERC20.sol\":10828:10844  currentAllowance */\n      dup2\n        /* \"@openzeppelin/contracts/token/ERC20/ERC20.sol\":10828:10865  currentAllowance != type(uint256).max */\n      eq\n        /* \"@openzeppelin/contracts/token/ERC20/ERC20.sol\":10824:11134  if (currentAllowance != type(uint256).max) {... */\n      tag_274\n      jumpi\n        /* \"@openzeppelin/contracts/token/ERC20/ERC20.sol\":10904:10909  value */\n      dup2\n        /* \"@openzeppelin/contracts/token/ERC20/ERC20.sol\":10885:10901  currentAllowance */\n      dup2\n        /* \"@openzeppelin/contracts/token/ERC20/ERC20.sol\":10885:10909  currentAllowance < value */\n      lt\n        /* \"@openzeppelin/contracts/token/ERC20/ERC20.sol\":10881:11011  if (currentAllowance < value) {... */\n      iszero\n      tag_275\n      jumpi\n        /* \"@openzeppelin/contracts/token/ERC20/ERC20.sol\":10963:10970  spender */\n      dup3\n        /* \"@openzeppelin/contracts/token/ERC20/ERC20.sol\":10972:10988  currentAllowance */\n      dup2\n        /* \"@openzeppelin/contracts/token/ERC20/ERC20.sol\":10990:10995  value */\n      dup4\n        /* \"@openzeppelin/contracts/token/ERC20/ERC20.sol\":10936:10996  ERC20InsufficientAllowance(spender, currentAllowance, value) */\n      mload(0x40)\n      0xfb8f41b200000000000000000000000000000000000000000000000000000000\n      dup2\n      mstore\n      0x04\n      add\n      tag_276\n      swap4\n      swap3\n      swap2\n      swap1\n      tag_277\n      jump\t// in\n    tag_276:\n      mload(0x40)\n      dup1\n      swap2\n      sub\n      swap1\n      revert\n        /* \"@openzeppelin/contracts/token/ERC20/ERC20.sol\":10881:11011  if (currentAllowance < value) {... */\n    tag_275:\n        /* \"@openzeppelin/contracts/token/ERC20/ERC20.sol\":11052:11109  _approve(owner, spender, currentAllowance - value, false) */\n      tag_278\n        /* \"@openzeppelin/contracts/token/ERC20/ERC20.sol\":11061:11066  owner */\n      dup5\n        /* \"@openzeppelin/contracts/token/ERC20/ERC20.sol\":11068:11075  spender */\n      dup5\n        /* \"@openzeppelin/contracts/token/ERC20/ERC20.sol\":11096:11101  value */\n      dup5\n        /* \"@openzeppelin/contracts/token/ERC20/ERC20.sol\":11077:11093  currentAllowance */\n      dup5\n        /* \"@openzeppelin/contracts/token/ERC20/ERC20.sol\":11077:11101  currentAllowance - value */\n      sub\n        /* \"@openzeppelin/contracts/token/ERC20/ERC20.sol\":11103:11108  false */\n      0x00\n        /* \"@openzeppelin/contracts/token/ERC20/ERC20.sol\":11052:11060  _approve */\n      tag_271\n        /* \"@openzeppelin/contracts/token/ERC20/ERC20.sol\":11052:11109  _approve(owner, spender, currentAllowance - value, false) */\n      jump\t// in\n    tag_278:\n        /* \"@openzeppelin/contracts/token/ERC20/ERC20.sol\":10824:11134  if (currentAllowance != type(uint256).max) {... */\n    tag_274:\n        /* \"@openzeppelin/contracts/token/ERC20/ERC20.sol\":10752:11140  {... */\n      pop\n        /* \"@openzeppelin/contracts/token/ERC20/ERC20.sol\":10663:11140  function _spendAllowance(address owner, address spender, uint256 value) internal virtual {... */\n      pop\n      pop\n      pop\n      jump\t// out\n        /* \"@openzeppelin/contracts/token/ERC20/ERC20.sol\":5656:5956  function _transfer(address from, address to, uint256 value) internal {... */\n    tag_139:\n        /* \"@openzeppelin/contracts/token/ERC20/ERC20.sol\":5755:5756  0 */\n      0x00\n        /* \"@openzeppelin/contracts/token/ERC20/ERC20.sol\":5739:5757  from == address(0) */\n      0xffffffffffffffffffffffffffffffffffffffff\n      and\n        /* \"@openzeppelin/contracts/token/ERC20/ERC20.sol\":5739:5743  from */\n      dup4\n        /* \"@openzeppelin/contracts/token/ERC20/ERC20.sol\":5739:5757  from == address(0) */\n      0xffffffffffffffffffffffffffffffffffffffff\n      and\n      sub\n        /* \"@openzeppelin/contracts/token/ERC20/ERC20.sol\":5735:5821  if (from == address(0)) {... */\n      tag_280\n      jumpi\n        /* \"@openzeppelin/contracts/token/ERC20/ERC20.sol\":5807:5808  0 */\n      0x00\n        /* \"@openzeppelin/contracts/token/ERC20/ERC20.sol\":5780:5810  ERC20InvalidSender(address(0)) */\n      mload(0x40)\n      0x96c6fd1e00000000000000000000000000000000000000000000000000000000\n      dup2\n      mstore\n      0x04\n      add\n      tag_281\n      swap2\n      swap1\n      tag_83\n      jump\t// in\n    tag_281:\n      mload(0x40)\n      dup1\n      swap2\n      sub\n      swap1\n      revert\n        /* \"@openzeppelin/contracts/token/ERC20/ERC20.sol\":5735:5821  if (from == address(0)) {... */\n    tag_280:\n        /* \"@openzeppelin/contracts/token/ERC20/ERC20.sol\":5848:5849  0 */\n      0x00\n        /* \"@openzeppelin/contracts/token/ERC20/ERC20.sol\":5834:5850  to == address(0) */\n      0xffffffffffffffffffffffffffffffffffffffff\n      and\n        /* \"@openzeppelin/contracts/token/ERC20/ERC20.sol\":5834:5836  to */\n      dup3\n        /* \"@openzeppelin/contracts/token/ERC20/ERC20.sol\":5834:5850  to == address(0) */\n      0xffffffffffffffffffffffffffffffffffffffff\n      and\n      sub\n        /* \"@openzeppelin/contracts/token/ERC20/ERC20.sol\":5830:5916  if (to == address(0)) {... */\n      tag_282\n      jumpi\n        /* \"@openzeppelin/contracts/token/ERC20/ERC20.sol\":5902:5903  0 */\n      0x00\n        /* \"@openzeppelin/contracts/token/ERC20/ERC20.sol\":5873:5905  ERC20InvalidReceiver(address(0)) */\n      mload(0x40)\n      0xec442f0500000000000000000000000000000000000000000000000000000000\n      dup2\n      mstore\n      0x04\n      add\n      tag_283\n      swap2\n      swap1\n      tag_83\n      jump\t// in\n    tag_283:\n      mload(0x40)\n      dup1\n      swap2\n      sub\n      swap1\n      revert\n        /* \"@openzeppelin/contracts/token/ERC20/ERC20.sol\":5830:5916  if (to == address(0)) {... */\n    tag_282:\n        /* \"@openzeppelin/contracts/token/ERC20/ERC20.sol\":5925:5949  _update(from, to, value) */\n      tag_284\n        /* \"@openzeppelin/contracts/token/ERC20/ERC20.sol\":5933:5937  from */\n      dup4\n        /* \"@openzeppelin/contracts/token/ERC20/ERC20.sol\":5939:5941  to */\n      dup4\n        /* \"@openzeppelin/contracts/token/ERC20/ERC20.sol\":5943:5948  value */\n      dup4\n        /* \"@openzeppelin/contracts/token/ERC20/ERC20.sol\":5925:5932  _update */\n      tag_285\n        /* \"@openzeppelin/contracts/token/ERC20/ERC20.sol\":5925:5949  _update(from, to, value) */\n      jump\t// in\n    tag_284:\n        /* \"@openzeppelin/contracts/token/ERC20/ERC20.sol\":5656:5956  function _transfer(address from, address to, uint256 value) internal {... */\n      pop\n      pop\n      pop\n      jump\t// out\n        /* \"@openzeppelin/contracts/access/Ownable.sol\":1796:1958  function _checkOwner() internal view virtual {... */\n    tag_143:\n        /* \"@openzeppelin/contracts/access/Ownable.sol\":1866:1878  _msgSender() */\n      tag_287\n        /* \"@openzeppelin/contracts/access/Ownable.sol\":1866:1876  _msgSender */\n      tag_130\n        /* \"@openzeppelin/contracts/access/Ownable.sol\":1866:1878  _msgSender() */\n      jump\t// in\n    tag_287:\n        /* \"@openzeppelin/contracts/access/Ownable.sol\":1855:1878  owner() != _msgSender() */\n      0xffffffffffffffffffffffffffffffffffffffff\n      and\n        /* \"@openzeppelin/contracts/access/Ownable.sol\":1855:1862  owner() */\n      tag_288\n        /* \"@openzeppelin/contracts/access/Ownable.sol\":1855:1860  owner */\n      tag_81\n        /* \"@openzeppelin/contracts/access/Ownable.sol\":1855:1862  owner() */\n      jump\t// in\n    tag_288:\n        /* \"@openzeppelin/contracts/access/Ownable.sol\":1855:1878  owner() != _msgSender() */\n      0xffffffffffffffffffffffffffffffffffffffff\n      and\n      eq\n        /* \"@openzeppelin/contracts/access/Ownable.sol\":1851:1952  if (owner() != _msgSender()) {... */\n      tag_289\n      jumpi\n        /* \"@openzeppelin/contracts/access/Ownable.sol\":1928:1940  _msgSender() */\n      tag_290\n        /* \"@openzeppelin/contracts/access/Ownable.sol\":1928:1938  _msgSender */\n      tag_130\n        /* \"@openzeppelin/contracts/access/Ownable.sol\":1928:1940  _msgSender() */\n      jump\t// in\n    tag_290:\n        /* \"@openzeppelin/contracts/access/Ownable.sol\":1901:1941  OwnableUnauthorizedAccount(_msgSender()) */\n      mload(0x40)\n      0x118cdaa700000000000000000000000000000000000000000000000000000000\n      dup2\n      mstore\n      0x04\n      add\n      tag_291\n      swap2\n      swap1\n      tag_83\n      jump\t// in\n    tag_291:\n      mload(0x40)\n      dup1\n      swap2\n      sub\n      swap1\n      revert\n        /* \"@openzeppelin/contracts/access/Ownable.sol\":1851:1952  if (owner() != _msgSender()) {... */\n    tag_289:\n        /* \"@openzeppelin/contracts/access/Ownable.sol\":1796:1958  function _checkOwner() internal view virtual {... */\n      jump\t// out\n        /* \"@openzeppelin/contracts/token/ERC20/ERC20.sol\":7721:7929  function _mint(address account, uint256 value) internal {... */\n    tag_146:\n        /* \"@openzeppelin/contracts/token/ERC20/ERC20.sol\":7810:7811  0 */\n      0x00\n        /* \"@openzeppelin/contracts/token/ERC20/ERC20.sol\":7791:7812  account == address(0) */\n      0xffffffffffffffffffffffffffffffffffffffff\n      and\n        /* \"@openzeppelin/contracts/token/ERC20/ERC20.sol\":7791:7798  account */\n      dup3\n        /* \"@openzeppelin/contracts/token/ERC20/ERC20.sol\":7791:7812  account == address(0) */\n      0xffffffffffffffffffffffffffffffffffffffff\n      and\n      sub\n        /* \"@openzeppelin/contracts/token/ERC20/ERC20.sol\":7787:7878  if (account == address(0)) {... */\n      tag_293\n      jumpi\n        /* \"@openzeppelin/contracts/token/ERC20/ERC20.sol\":7864:7865  0 */\n      0x00\n        /* \"@openzeppelin/contracts/token/ERC20/ERC20.sol\":7835:7867  ERC20InvalidReceiver(address(0)) */\n      mload(0x40)\n      0xec442f0500000000000000000000000000000000000000000000000000000000\n      dup2\n      mstore\n      0x04\n      add\n      tag_294\n      swap2\n      swap1\n      tag_83\n      jump\t// in\n    tag_294:\n      mload(0x40)\n      dup1\n      swap2\n      sub\n      swap1\n      revert\n        /* \"@openzeppelin/contracts/token/ERC20/ERC20.sol\":7787:7878  if (account == address(0)) {... */\n    tag_293:\n        /* \"@openzeppelin/contracts/token/ERC20/ERC20.sol\":7887:7922  _update(address(0), account, value) */\n      tag_295\n        /* \"@openzeppelin/contracts/token/ERC20/ERC20.sol\":7903:7904  0 */\n      0x00\n        /* \"@openzeppelin/contracts/token/ERC20/ERC20.sol\":7907:7914  account */\n      dup4\n        /* \"@openzeppelin/contracts/token/ERC20/ERC20.sol\":7916:7921  value */\n      dup4\n        /* \"@openzeppelin/contracts/token/ERC20/ERC20.sol\":7887:7894  _update */\n      tag_285\n        /* \"@openzeppelin/contracts/token/ERC20/ERC20.sol\":7887:7922  _update(address(0), account, value) */\n      jump\t// in\n    tag_295:\n        /* \"@openzeppelin/contracts/token/ERC20/ERC20.sol\":7721:7929  function _mint(address account, uint256 value) internal {... */\n      pop\n      pop\n      jump\t// out\n        /* \"@openzeppelin/contracts/access/Ownable.sol\":2912:3099  function _transferOwnership(address newOwner) internal virtual {... */\n    tag_152:\n        /* \"@openzeppelin/contracts/access/Ownable.sol\":2985:3001  address oldOwner */\n      0x00\n        /* \"@openzeppelin/contracts/access/Ownable.sol\":3004:3010  _owner */\n      0x05\n      0x00\n      swap1\n      sload\n      swap1\n      0x0100\n      exp\n      swap1\n      div\n      0xffffffffffffffffffffffffffffffffffffffff\n      and\n        /* \"@openzeppelin/contracts/access/Ownable.sol\":2985:3010  address oldOwner = _owner */\n      swap1\n      pop\n        /* \"@openzeppelin/contracts/access/Ownable.sol\":3029:3037  newOwner */\n      dup2\n        /* \"@openzeppelin/contracts/access/Ownable.sol\":3020:3026  _owner */\n      0x05\n      0x00\n        /* \"@openzeppelin/contracts/access/Ownable.sol\":3020:3037  _owner = newOwner */\n      0x0100\n      exp\n      dup2\n      sload\n      dup2\n      0xffffffffffffffffffffffffffffffffffffffff\n      mul\n      not\n      and\n      swap1\n      dup4\n      0xffffffffffffffffffffffffffffffffffffffff\n      and\n      mul\n      or\n      swap1\n      sstore\n      pop\n        /* \"@openzeppelin/contracts/access/Ownable.sol\":3083:3091  newOwner */\n      dup2\n        /* \"@openzeppelin/contracts/access/Ownable.sol\":3052:3092  OwnershipTransferred(oldOwner, newOwner) */\n      0xffffffffffffffffffffffffffffffffffffffff\n      and\n        /* \"@openzeppelin/contracts/access/Ownable.sol\":3073:3081  oldOwner */\n      dup2\n        /* \"@openzeppelin/contracts/access/Ownable.sol\":3052:3092  OwnershipTransferred(oldOwner, newOwner) */\n      0xffffffffffffffffffffffffffffffffffffffff\n      and\n      0x8be0079c531659141344cd1fd0a4f28419497f9722a3daafe3b4186f6b6457e0\n      mload(0x40)\n      mload(0x40)\n      dup1\n      swap2\n      sub\n      swap1\n      log3\n        /* \"@openzeppelin/contracts/access/Ownable.sol\":2975:3099  {... */\n      pop\n        /* \"@openzeppelin/contracts/access/Ownable.sol\":2912:3099  function _transferOwnership(address newOwner) internal virtual {... */\n      pop\n      jump\t// out\n        /* \"@openzeppelin/contracts/utils/Strings.sol\":637:1335  function toString(uint256 value) internal pure returns (string memory) {... */\n    tag_163:\n        /* \"@openzeppelin/contracts/utils/Strings.sol\":693:706  string memory */\n      0x60\n        /* \"@openzeppelin/contracts/utils/Strings.sol\":742:756  uint256 length */\n      0x00\n        /* \"@openzeppelin/contracts/utils/Strings.sol\":779:780  1 */\n      0x01\n        /* \"@openzeppelin/contracts/utils/Strings.sol\":759:776  Math.log10(value) */\n      tag_298\n        /* \"@openzeppelin/contracts/utils/Strings.sol\":770:775  value */\n      dup5\n        /* \"@openzeppelin/contracts/utils/Strings.sol\":759:769  Math.log10 */\n      tag_299\n        /* \"@openzeppelin/contracts/utils/Strings.sol\":759:776  Math.log10(value) */\n      jump\t// in\n    tag_298:\n        /* \"@openzeppelin/contracts/utils/Strings.sol\":759:780  Math.log10(value) + 1 */\n      add\n        /* \"@openzeppelin/contracts/utils/Strings.sol\":742:780  uint256 length = Math.log10(value) + 1 */\n      swap1\n      pop\n        /* \"@openzeppelin/contracts/utils/Strings.sol\":794:814  string memory buffer */\n      0x00\n        /* \"@openzeppelin/contracts/utils/Strings.sol\":828:834  length */\n      dup2\n        /* \"@openzeppelin/contracts/utils/Strings.sol\":817:835  new string(length) */\n      0xffffffffffffffff\n      dup2\n      gt\n      iszero\n      tag_300\n      jumpi\n      tag_301\n      tag_302\n      jump\t// in\n    tag_301:\n    tag_300:\n      mload(0x40)\n      swap1\n      dup1\n      dup3\n      mstore\n      dup1\n      0x1f\n      add\n      not(0x1f)\n      and\n      0x20\n      add\n      dup3\n      add\n      0x40\n      mstore\n      dup1\n      iszero\n      tag_303\n      jumpi\n      dup2\n      0x20\n      add\n      0x01\n      dup3\n      mul\n      dup1\n      calldatasize\n      dup4\n      calldatacopy\n      dup1\n      dup3\n      add\n      swap2\n      pop\n      pop\n      swap1\n      pop\n    tag_303:\n      pop\n        /* \"@openzeppelin/contracts/utils/Strings.sol\":794:835  string memory buffer = new string(length) */\n      swap1\n      pop\n        /* \"@openzeppelin/contracts/utils/Strings.sol\":849:860  uint256 ptr */\n      0x00\n        /* \"@openzeppelin/contracts/utils/Strings.sol\":975:981  length */\n      dup3\n        /* \"@openzeppelin/contracts/utils/Strings.sol\":971:973  32 */\n      0x20\n        /* \"@openzeppelin/contracts/utils/Strings.sol\":967:982  add(32, length) */\n      add\n        /* \"@openzeppelin/contracts/utils/Strings.sol\":959:965  buffer */\n      dup3\n        /* \"@openzeppelin/contracts/utils/Strings.sol\":955:983  add(buffer, add(32, length)) */\n      add\n        /* \"@openzeppelin/contracts/utils/Strings.sol\":948:983  ptr := add(buffer, add(32, length)) */\n      swap1\n      pop\n        /* \"@openzeppelin/contracts/utils/Strings.sol\":1010:1292  while (true) {... */\n    tag_304:\n        /* \"@openzeppelin/contracts/utils/Strings.sol\":1017:1021  true */\n      0x01\n        /* \"@openzeppelin/contracts/utils/Strings.sol\":1010:1292  while (true) {... */\n      iszero\n      tag_305\n      jumpi\n        /* \"@openzeppelin/contracts/utils/Strings.sol\":1041:1046  ptr-- */\n      dup1\n      dup1\n      0x01\n      swap1\n      sub\n      swap2\n      pop\n      pop\n        /* \"@openzeppelin/contracts/utils/Strings.sol\":1180:1190  HEX_DIGITS */\n      0x3031323334353637383961626364656600000000000000000000000000000000\n        /* \"@openzeppelin/contracts/utils/Strings.sol\":1175:1177  10 */\n      0x0a\n        /* \"@openzeppelin/contracts/utils/Strings.sol\":1168:1173  value */\n      dup7\n        /* \"@openzeppelin/contracts/utils/Strings.sol\":1164:1178  mod(value, 10) */\n      mod\n        /* \"@openzeppelin/contracts/utils/Strings.sol\":1159:1191  byte(mod(value, 10), HEX_DIGITS) */\n      byte\n        /* \"@openzeppelin/contracts/utils/Strings.sol\":1154:1157  ptr */\n      dup2\n        /* \"@openzeppelin/contracts/utils/Strings.sol\":1146:1192  mstore8(ptr, byte(mod(value, 10), HEX_DIGITS)) */\n      mstore8\n        /* \"@openzeppelin/contracts/utils/Strings.sol\":1236:1238  10 */\n      0x0a\n        /* \"@openzeppelin/contracts/utils/Strings.sol\":1227:1238  value /= 10 */\n      dup6\n      dup2\n      tag_306\n      jumpi\n      tag_307\n      tag_308\n      jump\t// in\n    tag_307:\n    tag_306:\n      div\n      swap5\n      pop\n        /* \"@openzeppelin/contracts/utils/Strings.sol\":1269:1270  0 */\n      0x00\n        /* \"@openzeppelin/contracts/utils/Strings.sol\":1260:1265  value */\n      dup6\n        /* \"@openzeppelin/contracts/utils/Strings.sol\":1260:1270  value == 0 */\n      sub\n        /* \"@openzeppelin/contracts/utils/Strings.sol\":1010:1292  while (true) {... */\n      tag_304\n        /* \"@openzeppelin/contracts/utils/Strings.sol\":1256:1277  if (value == 0) break */\n      jumpi\n        /* \"@openzeppelin/contracts/utils/Strings.sol\":1010:1292  while (true) {... */\n    tag_305:\n        /* \"@openzeppelin/contracts/utils/Strings.sol\":1312:1318  buffer */\n      dup2\n        /* \"@openzeppelin/contracts/utils/Strings.sol\":1305:1318  return buffer */\n      swap4\n      pop\n      pop\n      pop\n      pop\n        /* \"@openzeppelin/contracts/utils/Strings.sol\":637:1335  function toString(uint256 value) internal pure returns (string memory) {... */\n      swap2\n      swap1\n      pop\n      jump\t// out\n        /* \"@openzeppelin/contracts/token/ERC20/ERC20.sol\":9949:10381  function _approve(address owner, address spender, uint256 value, bool emitEvent) internal virtual {... */\n    tag_271:\n        /* \"@openzeppelin/contracts/token/ERC20/ERC20.sol\":10078:10079  0 */\n      0x00\n        /* \"@openzeppelin/contracts/token/ERC20/ERC20.sol\":10061:10080  owner == address(0) */\n      0xffffffffffffffffffffffffffffffffffffffff\n      and\n        /* \"@openzeppelin/contracts/token/ERC20/ERC20.sol\":10061:10066  owner */\n      dup5\n        /* \"@openzeppelin/contracts/token/ERC20/ERC20.sol\":10061:10080  owner == address(0) */\n      0xffffffffffffffffffffffffffffffffffffffff\n      and\n      sub\n        /* \"@openzeppelin/contracts/token/ERC20/ERC20.sol\":10057:10146  if (owner == address(0)) {... */\n      tag_311\n      jumpi\n        /* \"@openzeppelin/contracts/token/ERC20/ERC20.sol\":10132:10133  0 */\n      0x00\n        /* \"@openzeppelin/contracts/token/ERC20/ERC20.sol\":10103:10135  ERC20InvalidApprover(address(0)) */\n      mload(0x40)\n      0xe602df0500000000000000000000000000000000000000000000000000000000\n      dup2\n      mstore\n      0x04\n      add\n      tag_312\n      swap2\n      swap1\n      tag_83\n      jump\t// in\n    tag_312:\n      mload(0x40)\n      dup1\n      swap2\n      sub\n      swap1\n      revert\n        /* \"@openzeppelin/contracts/token/ERC20/ERC20.sol\":10057:10146  if (owner == address(0)) {... */\n    tag_311:\n        /* \"@openzeppelin/contracts/token/ERC20/ERC20.sol\":10178:10179  0 */\n      0x00\n        /* \"@openzeppelin/contracts/token/ERC20/ERC20.sol\":10159:10180  spender == address(0) */\n      0xffffffffffffffffffffffffffffffffffffffff\n      and\n        /* \"@openzeppelin/contracts/token/ERC20/ERC20.sol\":10159:10166  spender */\n      dup4\n        /* \"@openzeppelin/contracts/token/ERC20/ERC20.sol\":10159:10180  spender == address(0) */\n      0xffffffffffffffffffffffffffffffffffffffff\n      and\n      sub\n        /* \"@openzeppelin/contracts/token/ERC20/ERC20.sol\":10155:10245  if (spender == address(0)) {... */\n      tag_313\n      jumpi\n        /* \"@openzeppelin/contracts/token/ERC20/ERC20.sol\":10231:10232  0 */\n      0x00\n        /* \"@openzeppelin/contracts/token/ERC20/ERC20.sol\":10203:10234  ERC20InvalidSpender(address(0)) */\n      mload(0x40)\n      0x94280d6200000000000000000000000000000000000000000000000000000000\n      dup2\n      mstore\n      0x04\n      add\n      tag_314\n      swap2\n      swap1\n      tag_83\n      jump\t// in\n    tag_314:\n      mload(0x40)\n      dup1\n      swap2\n      sub\n      swap1\n      revert\n        /* \"@openzeppelin/contracts/token/ERC20/ERC20.sol\":10155:10245  if (spender == address(0)) {... */\n    tag_313:\n        /* \"@openzeppelin/contracts/token/ERC20/ERC20.sol\":10284:10289  value */\n      dup2\n        /* \"@openzeppelin/contracts/token/ERC20/ERC20.sol\":10254:10265  _allowances */\n      0x01\n        /* \"@openzeppelin/contracts/token/ERC20/ERC20.sol\":10254:10272  _allowances[owner] */\n      0x00\n        /* \"@openzeppelin/contracts/token/ERC20/ERC20.sol\":10266:10271  owner */\n      dup7\n        /* \"@openzeppelin/contracts/token/ERC20/ERC20.sol\":10254:10272  _allowances[owner] */\n      0xffffffffffffffffffffffffffffffffffffffff\n      and\n      0xffffffffffffffffffffffffffffffffffffffff\n      and\n      dup2\n      mstore\n      0x20\n      add\n      swap1\n      dup2\n      mstore\n      0x20\n      add\n      0x00\n      keccak256\n        /* \"@openzeppelin/contracts/token/ERC20/ERC20.sol\":10254:10281  _allowances[owner][spender] */\n      0x00\n        /* \"@openzeppelin/contracts/token/ERC20/ERC20.sol\":10273:10280  spender */\n      dup6\n        /* \"@openzeppelin/contracts/token/ERC20/ERC20.sol\":10254:10281  _allowances[owner][spender] */\n      0xffffffffffffffffffffffffffffffffffffffff\n      and\n      0xffffffffffffffffffffffffffffffffffffffff\n      and\n      dup2\n      mstore\n      0x20\n      add\n      swap1\n      dup2\n      mstore\n      0x20\n      add\n      0x00\n      keccak256\n        /* \"@openzeppelin/contracts/token/ERC20/ERC20.sol\":10254:10289  _allowances[owner][spender] = value */\n      dup2\n      swap1\n      sstore\n      pop\n        /* \"@openzeppelin/contracts/token/ERC20/ERC20.sol\":10303:10312  emitEvent */\n      dup1\n        /* \"@openzeppelin/contracts/token/ERC20/ERC20.sol\":10299:10375  if (emitEvent) {... */\n      iszero\n      tag_315\n      jumpi\n        /* \"@openzeppelin/contracts/token/ERC20/ERC20.sol\":10349:10356  spender */\n      dup3\n        /* \"@openzeppelin/contracts/token/ERC20/ERC20.sol\":10333:10364  Approval(owner, spender, value) */\n      0xffffffffffffffffffffffffffffffffffffffff\n      and\n        /* \"@openzeppelin/contracts/token/ERC20/ERC20.sol\":10342:10347  owner */\n      dup5\n        /* \"@openzeppelin/contracts/token/ERC20/ERC20.sol\":10333:10364  Approval(owner, spender, value) */\n      0xffffffffffffffffffffffffffffffffffffffff\n      and\n      0x8c5be1e5ebec7d5bd14f71427d1e84f3dd0314c0f7b2291e5b200ac8c7c3b925\n        /* \"@openzeppelin/contracts/token/ERC20/ERC20.sol\":10358:10363  value */\n      dup5\n        /* \"@openzeppelin/contracts/token/ERC20/ERC20.sol\":10333:10364  Approval(owner, spender, value) */\n      mload(0x40)\n      tag_316\n      swap2\n      swap1\n      tag_45\n      jump\t// in\n    tag_316:\n      mload(0x40)\n      dup1\n      swap2\n      sub\n      swap1\n      log3\n        /* \"@openzeppelin/contracts/token/ERC20/ERC20.sol\":10299:10375  if (emitEvent) {... */\n    tag_315:\n        /* \"@openzeppelin/contracts/token/ERC20/ERC20.sol\":9949:10381  function _approve(address owner, address spender, uint256 value, bool emitEvent) internal virtual {... */\n      pop\n      pop\n      pop\n      pop\n      jump\t// out\n        /* \"@openzeppelin/contracts/token/ERC20/ERC20.sol\":6271:7378  function _update(address from, address to, uint256 value) internal virtual {... */\n    tag_285:\n        /* \"@openzeppelin/contracts/token/ERC20/ERC20.sol\":6376:6377  0 */\n      0x00\n        /* \"@openzeppelin/contracts/token/ERC20/ERC20.sol\":6360:6378  from == address(0) */\n      0xffffffffffffffffffffffffffffffffffffffff\n      and\n        /* \"@openzeppelin/contracts/token/ERC20/ERC20.sol\":6360:6364  from */\n      dup4\n        /* \"@openzeppelin/contracts/token/ERC20/ERC20.sol\":6360:6378  from == address(0) */\n      0xffffffffffffffffffffffffffffffffffffffff\n      and\n      sub\n        /* \"@openzeppelin/contracts/token/ERC20/ERC20.sol\":6356:6896  if (from == address(0)) {... */\n      tag_318\n      jumpi\n        /* \"@openzeppelin/contracts/token/ERC20/ERC20.sol\":6512:6517  value */\n      dup1\n        /* \"@openzeppelin/contracts/token/ERC20/ERC20.sol\":6496:6508  _totalSupply */\n      0x02\n      0x00\n        /* \"@openzeppelin/contracts/token/ERC20/ERC20.sol\":6496:6517  _totalSupply += value */\n      dup3\n      dup3\n      sload\n      tag_319\n      swap2\n      swap1\n      tag_155\n      jump\t// in\n    tag_319:\n      swap3\n      pop\n      pop\n      dup2\n      swap1\n      sstore\n      pop\n        /* \"@openzeppelin/contracts/token/ERC20/ERC20.sol\":6356:6896  if (from == address(0)) {... */\n      jump(tag_320)\n    tag_318:\n        /* \"@openzeppelin/contracts/token/ERC20/ERC20.sol\":6548:6567  uint256 fromBalance */\n      0x00\n        /* \"@openzeppelin/contracts/token/ERC20/ERC20.sol\":6570:6579  _balances */\n      dup1\n        /* \"@openzeppelin/contracts/token/ERC20/ERC20.sol\":6570:6585  _balances[from] */\n      0x00\n        /* \"@openzeppelin/contracts/token/ERC20/ERC20.sol\":6580:6584  from */\n      dup6\n        /* \"@openzeppelin/contracts/token/ERC20/ERC20.sol\":6570:6585  _balances[from] */\n      0xffffffffffffffffffffffffffffffffffffffff\n      and\n      0xffffffffffffffffffffffffffffffffffffffff\n      and\n      dup2\n      mstore\n      0x20\n      add\n      swap1\n      dup2\n      mstore\n      0x20\n      add\n      0x00\n      keccak256\n      sload\n        /* \"@openzeppelin/contracts/token/ERC20/ERC20.sol\":6548:6585  uint256 fromBalance = _balances[from] */\n      swap1\n      pop\n        /* \"@openzeppelin/contracts/token/ERC20/ERC20.sol\":6617:6622  value */\n      dup2\n        /* \"@openzeppelin/contracts/token/ERC20/ERC20.sol\":6603:6614  fromBalance */\n      dup2\n        /* \"@openzeppelin/contracts/token/ERC20/ERC20.sol\":6603:6622  fromBalance < value */\n      lt\n        /* \"@openzeppelin/contracts/token/ERC20/ERC20.sol\":6599:6714  if (fromBalance < value) {... */\n      iszero\n      tag_321\n      jumpi\n        /* \"@openzeppelin/contracts/token/ERC20/ERC20.sol\":6674:6678  from */\n      dup4\n        /* \"@openzeppelin/contracts/token/ERC20/ERC20.sol\":6680:6691  fromBalance */\n      dup2\n        /* \"@openzeppelin/contracts/token/ERC20/ERC20.sol\":6693:6698  value */\n      dup4\n        /* \"@openzeppelin/contracts/token/ERC20/ERC20.sol\":6649:6699  ERC20InsufficientBalance(from, fromBalance, value) */\n      mload(0x40)\n      0xe450d38c00000000000000000000000000000000000000000000000000000000\n      dup2\n      mstore\n      0x04\n      add\n      tag_322\n      swap4\n      swap3\n      swap2\n      swap1\n      tag_277\n      jump\t// in\n    tag_322:\n      mload(0x40)\n      dup1\n      swap2\n      sub\n      swap1\n      revert\n        /* \"@openzeppelin/contracts/token/ERC20/ERC20.sol\":6599:6714  if (fromBalance < value) {... */\n    tag_321:\n        /* \"@openzeppelin/contracts/token/ERC20/ERC20.sol\":6866:6871  value */\n      dup2\n        /* \"@openzeppelin/contracts/token/ERC20/ERC20.sol\":6852:6863  fromBalance */\n      dup2\n        /* \"@openzeppelin/contracts/token/ERC20/ERC20.sol\":6852:6871  fromBalance - value */\n      sub\n        /* \"@openzeppelin/contracts/token/ERC20/ERC20.sol\":6834:6843  _balances */\n      0x00\n        /* \"@openzeppelin/contracts/token/ERC20/ERC20.sol\":6834:6849  _balances[from] */\n      dup1\n        /* \"@openzeppelin/contracts/token/ERC20/ERC20.sol\":6844:6848  from */\n      dup7\n        /* \"@openzeppelin/contracts/token/ERC20/ERC20.sol\":6834:6849  _balances[from] */\n      0xffffffffffffffffffffffffffffffffffffffff\n      and\n      0xffffffffffffffffffffffffffffffffffffffff\n      and\n      dup2\n      mstore\n      0x20\n      add\n      swap1\n      dup2\n      mstore\n      0x20\n      add\n      0x00\n      keccak256\n        /* \"@openzeppelin/contracts/token/ERC20/ERC20.sol\":6834:6871  _balances[from] = fromBalance - value */\n      dup2\n      swap1\n      sstore\n      pop\n        /* \"@openzeppelin/contracts/token/ERC20/ERC20.sol\":6534:6896  {... */\n      pop\n        /* \"@openzeppelin/contracts/token/ERC20/ERC20.sol\":6356:6896  if (from == address(0)) {... */\n    tag_320:\n        /* \"@openzeppelin/contracts/token/ERC20/ERC20.sol\":6924:6925  0 */\n      0x00\n        /* \"@openzeppelin/contracts/token/ERC20/ERC20.sol\":6910:6926  to == address(0) */\n      0xffffffffffffffffffffffffffffffffffffffff\n      and\n        /* \"@openzeppelin/contracts/token/ERC20/ERC20.sol\":6910:6912  to */\n      dup3\n        /* \"@openzeppelin/contracts/token/ERC20/ERC20.sol\":6910:6926  to == address(0) */\n      0xffffffffffffffffffffffffffffffffffffffff\n      and\n      sub\n        /* \"@openzeppelin/contracts/token/ERC20/ERC20.sol\":6906:7331  if (to == address(0)) {... */\n      tag_323\n      jumpi\n        /* \"@openzeppelin/contracts/token/ERC20/ERC20.sol\":7089:7094  value */\n      dup1\n        /* \"@openzeppelin/contracts/token/ERC20/ERC20.sol\":7073:7085  _totalSupply */\n      0x02\n      0x00\n        /* \"@openzeppelin/contracts/token/ERC20/ERC20.sol\":7073:7094  _totalSupply -= value */\n      dup3\n      dup3\n      sload\n      sub\n      swap3\n      pop\n      pop\n      dup2\n      swap1\n      sstore\n      pop\n        /* \"@openzeppelin/contracts/token/ERC20/ERC20.sol\":6906:7331  if (to == address(0)) {... */\n      jump(tag_324)\n    tag_323:\n        /* \"@openzeppelin/contracts/token/ERC20/ERC20.sol\":7301:7306  value */\n      dup1\n        /* \"@openzeppelin/contracts/token/ERC20/ERC20.sol\":7284:7293  _balances */\n      0x00\n        /* \"@openzeppelin/contracts/token/ERC20/ERC20.sol\":7284:7297  _balances[to] */\n      dup1\n        /* \"@openzeppelin/contracts/token/ERC20/ERC20.sol\":7294:7296  to */\n      dup5\n        /* \"@openzeppelin/contracts/token/ERC20/ERC20.sol\":7284:7297  _balances[to] */\n      0xffffffffffffffffffffffffffffffffffffffff\n      and\n      0xffffffffffffffffffffffffffffffffffffffff\n      and\n      dup2\n      mstore\n      0x20\n      add\n      swap1\n      dup2\n      mstore\n      0x20\n      add\n      0x00\n      keccak256\n      0x00\n        /* \"@openzeppelin/contracts/token/ERC20/ERC20.sol\":7284:7306  _balances[to] += value */\n      dup3\n      dup3\n      sload\n      add\n      swap3\n      pop\n      pop\n      dup2\n      swap1\n      sstore\n      pop\n        /* \"@openzeppelin/contracts/token/ERC20/ERC20.sol\":6906:7331  if (to == address(0)) {... */\n    tag_324:\n        /* \"@openzeppelin/contracts/token/ERC20/ERC20.sol\":7361:7363  to */\n      dup2\n        /* \"@openzeppelin/contracts/token/ERC20/ERC20.sol\":7346:7371  Transfer(from, to, value) */\n      0xffffffffffffffffffffffffffffffffffffffff\n      and\n        /* \"@openzeppelin/contracts/token/ERC20/ERC20.sol\":7355:7359  from */\n      dup4\n        /* \"@openzeppelin/contracts/token/ERC20/ERC20.sol\":7346:7371  Transfer(from, to, value) */\n      0xffffffffffffffffffffffffffffffffffffffff\n      and\n      0xddf252ad1be2c89b69c2b068fc378daa952ba7f163c4a11628f55a4df523b3ef\n        /* \"@openzeppelin/contracts/token/ERC20/ERC20.sol\":7365:7370  value */\n      dup4\n        /* \"@openzeppelin/contracts/token/ERC20/ERC20.sol\":7346:7371  Transfer(from, to, value) */\n      mload(0x40)\n      tag_325\n      swap2\n      swap1\n      tag_45\n      jump\t// in\n    tag_325:\n      mload(0x40)\n      dup1\n      swap2\n      sub\n      swap1\n      log3\n        /* \"@openzeppelin/contracts/token/ERC20/ERC20.sol\":6271:7378  function _update(address from, address to, uint256 value) internal virtual {... */\n      pop\n      pop\n      pop\n      jump\t// out\n        /* \"@openzeppelin/contracts/utils/math/Math.sol\":12214:13130  function log10(uint256 value) internal pure returns (uint256) {... */\n    tag_299:\n        /* \"@openzeppelin/contracts/utils/math/Math.sol\":12267:12274  uint256 */\n      0x00\n        /* \"@openzeppelin/contracts/utils/math/Math.sol\":12286:12300  uint256 result */\n      dup1\n        /* \"@openzeppelin/contracts/utils/math/Math.sol\":12303:12304  0 */\n      0x00\n        /* \"@openzeppelin/contracts/utils/math/Math.sol\":12286:12304  uint256 result = 0 */\n      swap1\n      pop\n        /* \"@openzeppelin/contracts/utils/math/Math.sol\":12351:12359  10 ** 64 */\n      0x184f03e93ff9f4daa797ed6e38ed64bf6a1f010000000000000000\n        /* \"@openzeppelin/contracts/utils/math/Math.sol\":12342:12347  value */\n      dup4\n        /* \"@openzeppelin/contracts/utils/math/Math.sol\":12342:12359  value >= 10 ** 64 */\n      lt\n        /* \"@openzeppelin/contracts/utils/math/Math.sol\":12338:12441  if (value >= 10 ** 64) {... */\n      tag_327\n      jumpi\n        /* \"@openzeppelin/contracts/utils/math/Math.sol\":12388:12396  10 ** 64 */\n      0x184f03e93ff9f4daa797ed6e38ed64bf6a1f010000000000000000\n        /* \"@openzeppelin/contracts/utils/math/Math.sol\":12379:12396  value /= 10 ** 64 */\n      dup4\n      dup2\n      tag_328\n      jumpi\n      tag_329\n      tag_308\n      jump\t// in\n    tag_329:\n    tag_328:\n      div\n      swap3\n      pop\n        /* \"@openzeppelin/contracts/utils/math/Math.sol\":12424:12426  64 */\n      0x40\n        /* \"@openzeppelin/contracts/utils/math/Math.sol\":12414:12426  result += 64 */\n      dup2\n      add\n      swap1\n      pop\n        /* \"@openzeppelin/contracts/utils/math/Math.sol\":12338:12441  if (value >= 10 ** 64) {... */\n    tag_327:\n        /* \"@openzeppelin/contracts/utils/math/Math.sol\":12467:12475  10 ** 32 */\n      0x04ee2d6d415b85acef8100000000\n        /* \"@openzeppelin/contracts/utils/math/Math.sol\":12458:12463  value */\n      dup4\n        /* \"@openzeppelin/contracts/utils/math/Math.sol\":12458:12475  value >= 10 ** 32 */\n      lt\n        /* \"@openzeppelin/contracts/utils/math/Math.sol\":12454:12557  if (value >= 10 ** 32) {... */\n      tag_330\n      jumpi\n        /* \"@openzeppelin/contracts/utils/math/Math.sol\":12504:12512  10 ** 32 */\n      0x04ee2d6d415b85acef8100000000\n        /* \"@openzeppelin/contracts/utils/math/Math.sol\":12495:12512  value /= 10 ** 32 */\n      dup4\n      dup2\n      tag_331\n      jumpi\n      tag_332\n      tag_308\n      jump\t// in\n    tag_332:\n    tag_331:\n      div\n      swap3\n      pop\n        /* \"@openzeppelin/contracts/utils/math/Math.sol\":12540:12542  32 */\n      0x20\n        /* \"@openzeppelin/contracts/utils/math/Math.sol\":12530:12542  result += 32 */\n      dup2\n      add\n      swap1\n      pop\n        /* \"@openzeppelin/contracts/utils/math/Math.sol\":12454:12557  if (value >= 10 ** 32) {... */\n    tag_330:\n        /* \"@openzeppelin/contracts/utils/math/Math.sol\":12583:12591  10 ** 16 */\n      0x2386f26fc10000\n        /* \"@openzeppelin/contracts/utils/math/Math.sol\":12574:12579  value */\n      dup4\n        /* \"@openzeppelin/contracts/utils/math/Math.sol\":12574:12591  value >= 10 ** 16 */\n      lt\n        /* \"@openzeppelin/contracts/utils/math/Math.sol\":12570:12673  if (value >= 10 ** 16) {... */\n      tag_333\n      jumpi\n        /* \"@openzeppelin/contracts/utils/math/Math.sol\":12620:12628  10 ** 16 */\n      0x2386f26fc10000\n        /* \"@openzeppelin/contracts/utils/math/Math.sol\":12611:12628  value /= 10 ** 16 */\n      dup4\n      dup2\n      tag_334\n      jumpi\n      tag_335\n      tag_308\n      jump\t// in\n    tag_335:\n    tag_334:\n      div\n      swap3\n      pop\n        /* \"@openzeppelin/contracts/utils/math/Math.sol\":12656:12658  16 */\n      0x10\n        /* \"@openzeppelin/contracts/utils/math/Math.sol\":12646:12658  result += 16 */\n      dup2\n      add\n      swap1\n      pop\n        /* \"@openzeppelin/contracts/utils/math/Math.sol\":12570:12673  if (value >= 10 ** 16) {... */\n    tag_333:\n        /* \"@openzeppelin/contracts/utils/math/Math.sol\":12699:12706  10 ** 8 */\n      0x05f5e100\n        /* \"@openzeppelin/contracts/utils/math/Math.sol\":12690:12695  value */\n      dup4\n        /* \"@openzeppelin/contracts/utils/math/Math.sol\":12690:12706  value >= 10 ** 8 */\n      lt\n        /* \"@openzeppelin/contracts/utils/math/Math.sol\":12686:12786  if (value >= 10 ** 8) {... */\n      tag_336\n      jumpi\n        /* \"@openzeppelin/contracts/utils/math/Math.sol\":12735:12742  10 ** 8 */\n      0x05f5e100\n        /* \"@openzeppelin/contracts/utils/math/Math.sol\":12726:12742  value /= 10 ** 8 */\n      dup4\n      dup2\n      tag_337\n      jumpi\n      tag_338\n      tag_308\n      jump\t// in\n    tag_338:\n    tag_337:\n      div\n      swap3\n      pop\n        /* \"@openzeppelin/contracts/utils/math/Math.sol\":12770:12771  8 */\n      0x08\n        /* \"@openzeppelin/contracts/utils/math/Math.sol\":12760:12771  result += 8 */\n      dup2\n      add\n      swap1\n      pop\n        /* \"@openzeppelin/contracts/utils/math/Math.sol\":12686:12786  if (value >= 10 ** 8) {... */\n    tag_336:\n        /* \"@openzeppelin/contracts/utils/math/Math.sol\":12812:12819  10 ** 4 */\n      0x2710\n        /* \"@openzeppelin/contracts/utils/math/Math.sol\":12803:12808  value */\n      dup4\n        /* \"@openzeppelin/contracts/utils/math/Math.sol\":12803:12819  value >= 10 ** 4 */\n      lt\n        /* \"@openzeppelin/contracts/utils/math/Math.sol\":12799:12899  if (value >= 10 ** 4) {... */\n      tag_339\n      jumpi\n        /* \"@openzeppelin/contracts/utils/math/Math.sol\":12848:12855  10 ** 4 */\n      0x2710\n        /* \"@openzeppelin/contracts/utils/math/Math.sol\":12839:12855  value /= 10 ** 4 */\n      dup4\n      dup2\n      tag_340\n      jumpi\n      tag_341\n      tag_308\n      jump\t// in\n    tag_341:\n    tag_340:\n      div\n      swap3\n      pop\n        /* \"@openzeppelin/contracts/utils/math/Math.sol\":12883:12884  4 */\n      0x04\n        /* \"@openzeppelin/contracts/utils/math/Math.sol\":12873:12884  result += 4 */\n      dup2\n      add\n      swap1\n      pop\n        /* \"@openzeppelin/contracts/utils/math/Math.sol\":12799:12899  if (value >= 10 ** 4) {... */\n    tag_339:\n        /* \"@openzeppelin/contracts/utils/math/Math.sol\":12925:12932  10 ** 2 */\n      0x64\n        /* \"@openzeppelin/contracts/utils/math/Math.sol\":12916:12921  value */\n      dup4\n        /* \"@openzeppelin/contracts/utils/math/Math.sol\":12916:12932  value >= 10 ** 2 */\n      lt\n        /* \"@openzeppelin/contracts/utils/math/Math.sol\":12912:13012  if (value >= 10 ** 2) {... */\n      tag_342\n      jumpi\n        /* \"@openzeppelin/contracts/utils/math/Math.sol\":12961:12968  10 ** 2 */\n      0x64\n        /* \"@openzeppelin/contracts/utils/math/Math.sol\":12952:12968  value /= 10 ** 2 */\n      dup4\n      dup2\n      tag_343\n      jumpi\n      tag_344\n      tag_308\n      jump\t// in\n    tag_344:\n    tag_343:\n      div\n      swap3\n      pop\n        /* \"@openzeppelin/contracts/utils/math/Math.sol\":12996:12997  2 */\n      0x02\n        /* \"@openzeppelin/contracts/utils/math/Math.sol\":12986:12997  result += 2 */\n      dup2\n      add\n      swap1\n      pop\n        /* \"@openzeppelin/contracts/utils/math/Math.sol\":12912:13012  if (value >= 10 ** 2) {... */\n    tag_342:\n        /* \"@openzeppelin/contracts/utils/math/Math.sol\":13038:13045  10 ** 1 */\n      0x0a\n        /* \"@openzeppelin/contracts/utils/math/Math.sol\":13029:13034  value */\n      dup4\n        /* \"@openzeppelin/contracts/utils/math/Math.sol\":13029:13045  value >= 10 ** 1 */\n      lt\n        /* \"@openzeppelin/contracts/utils/math/Math.sol\":13025:13091  if (value >= 10 ** 1) {... */\n      tag_345\n      jumpi\n        /* \"@openzeppelin/contracts/utils/math/Math.sol\":13075:13076  1 */\n      0x01\n        /* \"@openzeppelin/contracts/utils/math/Math.sol\":13065:13076  result += 1 */\n      dup2\n      add\n      swap1\n      pop\n        /* \"@openzeppelin/contracts/utils/math/Math.sol\":13025:13091  if (value >= 10 ** 1) {... */\n    tag_345:\n        /* \"@openzeppelin/contracts/utils/math/Math.sol\":13117:13123  result */\n      dup1\n        /* \"@openzeppelin/contracts/utils/math/Math.sol\":13110:13123  return result */\n      swap2\n      pop\n      pop\n        /* \"@openzeppelin/contracts/utils/math/Math.sol\":12214:13130  function log10(uint256 value) internal pure returns (uint256) {... */\n      swap2\n      swap1\n      pop\n      jump\t// out\n        /* \"#utility.yul\":7:106   */\n    tag_346:\n        /* \"#utility.yul\":59:65   */\n      0x00\n        /* \"#utility.yul\":93:98   */\n      dup2\n        /* \"#utility.yul\":87:99   */\n      mload\n        /* \"#utility.yul\":77:99   */\n      swap1\n      pop\n        /* \"#utility.yul\":7:106   */\n      swap2\n      swap1\n      pop\n      jump\t// out\n        /* \"#utility.yul\":112:281   */\n    tag_347:\n        /* \"#utility.yul\":196:207   */\n      0x00\n        /* \"#utility.yul\":230:236   */\n      dup3\n        /* \"#utility.yul\":225:228   */\n      dup3\n        /* \"#utility.yul\":218:237   */\n      mstore\n        /* \"#utility.yul\":270:274   */\n      0x20\n        /* \"#utility.yul\":265:268   */\n      dup3\n        /* \"#utility.yul\":261:275   */\n      add\n        /* \"#utility.yul\":246:275   */\n      swap1\n      pop\n        /* \"#utility.yul\":112:281   */\n      swap3\n      swap2\n      pop\n      pop\n      jump\t// out\n        /* \"#utility.yul\":287:426   */\n    tag_348:\n        /* \"#utility.yul\":376:382   */\n      dup3\n        /* \"#utility.yul\":371:374   */\n      dup2\n        /* \"#utility.yul\":366:369   */\n      dup4\n        /* \"#utility.yul\":360:383   */\n      mcopy\n        /* \"#utility.yul\":417:418   */\n      0x00\n        /* \"#utility.yul\":408:414   */\n      dup4\n        /* \"#utility.yul\":403:406   */\n      dup4\n        /* \"#utility.yul\":399:415   */\n      add\n        /* \"#utility.yul\":392:419   */\n      mstore\n        /* \"#utility.yul\":287:426   */\n      pop\n      pop\n      pop\n      jump\t// out\n        /* \"#utility.yul\":432:534   */\n    tag_349:\n        /* \"#utility.yul\":473:479   */\n      0x00\n        /* \"#utility.yul\":524:526   */\n      0x1f\n        /* \"#utility.yul\":520:527   */\n      not\n        /* \"#utility.yul\":515:517   */\n      0x1f\n        /* \"#utility.yul\":508:513   */\n      dup4\n        /* \"#utility.yul\":504:518   */\n      add\n        /* \"#utility.yul\":500:528   */\n      and\n        /* \"#utility.yul\":490:528   */\n      swap1\n      pop\n        /* \"#utility.yul\":432:534   */\n      swap2\n      swap1\n      pop\n      jump\t// out\n        /* \"#utility.yul\":540:917   */\n    tag_350:\n        /* \"#utility.yul\":628:631   */\n      0x00\n        /* \"#utility.yul\":656:695   */\n      tag_397\n        /* \"#utility.yul\":689:694   */\n      dup3\n        /* \"#utility.yul\":656:695   */\n      tag_346\n      jump\t// in\n    tag_397:\n        /* \"#utility.yul\":711:782   */\n      tag_398\n        /* \"#utility.yul\":775:781   */\n      dup2\n        /* \"#utility.yul\":770:773   */\n      dup6\n        /* \"#utility.yul\":711:782   */\n      tag_347\n      jump\t// in\n    tag_398:\n        /* \"#utility.yul\":704:782   */\n      swap4\n      pop\n        /* \"#utility.yul\":791:856   */\n      tag_399\n        /* \"#utility.yul\":849:855   */\n      dup2\n        /* \"#utility.yul\":844:847   */\n      dup6\n        /* \"#utility.yul\":837:841   */\n      0x20\n        /* \"#utility.yul\":830:835   */\n      dup7\n        /* \"#utility.yul\":826:842   */\n      add\n        /* \"#utility.yul\":791:856   */\n      tag_348\n      jump\t// in\n    tag_399:\n        /* \"#utility.yul\":881:910   */\n      tag_400\n        /* \"#utility.yul\":903:909   */\n      dup2\n        /* \"#utility.yul\":881:910   */\n      tag_349\n      jump\t// in\n    tag_400:\n        /* \"#utility.yul\":876:879   */\n      dup5\n        /* \"#utility.yul\":872:911   */\n      add\n        /* \"#utility.yul\":865:911   */\n      swap2\n      pop\n        /* \"#utility.yul\":632:917   */\n      pop\n        /* \"#utility.yul\":540:917   */\n      swap3\n      swap2\n      pop\n      pop\n      jump\t// out\n        /* \"#utility.yul\":923:1236   */\n    tag_35:\n        /* \"#utility.yul\":1036:1040   */\n      0x00\n        /* \"#utility.yul\":1074:1076   */\n      0x20\n        /* \"#utility.yul\":1063:1072   */\n      dup3\n        /* \"#utility.yul\":1059:1077   */\n      add\n        /* \"#utility.yul\":1051:1077   */\n      swap1\n      pop\n        /* \"#utility.yul\":1123:1132   */\n      dup2\n        /* \"#utility.yul\":1117:1121   */\n      dup2\n        /* \"#utility.yul\":1113:1133   */\n      sub\n        /* \"#utility.yul\":1109:1110   */\n      0x00\n        /* \"#utility.yul\":1098:1107   */\n      dup4\n        /* \"#utility.yul\":1094:1111   */\n      add\n        /* \"#utility.yul\":1087:1134   */\n      mstore\n        /* \"#utility.yul\":1151:1229   */\n      tag_402\n        /* \"#utility.yul\":1224:1228   */\n      dup2\n        /* \"#utility.yul\":1215:1221   */\n      dup5\n        /* \"#utility.yul\":1151:1229   */\n      tag_350\n      jump\t// in\n    tag_402:\n        /* \"#utility.yul\":1143:1229   */\n      swap1\n      pop\n        /* \"#utility.yul\":923:1236   */\n      swap3\n      swap2\n      pop\n      pop\n      jump\t// out\n        /* \"#utility.yul\":1323:1440   */\n    tag_352:\n        /* \"#utility.yul\":1432:1433   */\n      0x00\n        /* \"#utility.yul\":1429:1430   */\n      dup1\n        /* \"#utility.yul\":1422:1434   */\n      revert\n        /* \"#utility.yul\":1569:1695   */\n    tag_354:\n        /* \"#utility.yul\":1606:1613   */\n      0x00\n        /* \"#utility.yul\":1646:1688   */\n      0xffffffffffffffffffffffffffffffffffffffff\n        /* \"#utility.yul\":1639:1644   */\n      dup3\n        /* \"#utility.yul\":1635:1689   */\n      and\n        /* \"#utility.yul\":1624:1689   */\n      swap1\n      pop\n        /* \"#utility.yul\":1569:1695   */\n      swap2\n      swap1\n      pop\n      jump\t// out\n        /* \"#utility.yul\":1701:1797   */\n    tag_355:\n        /* \"#utility.yul\":1738:1745   */\n      0x00\n        /* \"#utility.yul\":1767:1791   */\n      tag_408\n        /* \"#utility.yul\":1785:1790   */\n      dup3\n        /* \"#utility.yul\":1767:1791   */\n      tag_354\n      jump\t// in\n    tag_408:\n        /* \"#utility.yul\":1756:1791   */\n      swap1\n      pop\n        /* \"#utility.yul\":1701:1797   */\n      swap2\n      swap1\n      pop\n      jump\t// out\n        /* \"#utility.yul\":1803:1925   */\n    tag_356:\n        /* \"#utility.yul\":1876:1900   */\n      tag_410\n        /* \"#utility.yul\":1894:1899   */\n      dup2\n        /* \"#utility.yul\":1876:1900   */\n      tag_355\n      jump\t// in\n    tag_410:\n        /* \"#utility.yul\":1869:1874   */\n      dup2\n        /* \"#utility.yul\":1866:1901   */\n      eq\n        /* \"#utility.yul\":1856:1919   */\n      tag_411\n      jumpi\n        /* \"#utility.yul\":1915:1916   */\n      0x00\n        /* \"#utility.yul\":1912:1913   */\n      dup1\n        /* \"#utility.yul\":1905:1917   */\n      revert\n        /* \"#utility.yul\":1856:1919   */\n    tag_411:\n        /* \"#utility.yul\":1803:1925   */\n      pop\n      jump\t// out\n        /* \"#utility.yul\":1931:2070   */\n    tag_357:\n        /* \"#utility.yul\":1977:1982   */\n      0x00\n        /* \"#utility.yul\":2015:2021   */\n      dup2\n        /* \"#utility.yul\":2002:2022   */\n      calldataload\n        /* \"#utility.yul\":1993:2022   */\n      swap1\n      pop\n        /* \"#utility.yul\":2031:2064   */\n      tag_413\n        /* \"#utility.yul\":2058:2063   */\n      dup2\n        /* \"#utility.yul\":2031:2064   */\n      tag_356\n      jump\t// in\n    tag_413:\n        /* \"#utility.yul\":1931:2070   */\n      swap3\n      swap2\n      pop\n      pop\n      jump\t// out\n        /* \"#utility.yul\":2076:2153   */\n    tag_358:\n        /* \"#utility.yul\":2113:2120   */\n      0x00\n        /* \"#utility.yul\":2142:2147   */\n      dup2\n        /* \"#utility.yul\":2131:2147   */\n      swap1\n      pop\n        /* \"#utility.yul\":2076:2153   */\n      swap2\n      swap1\n      pop\n      jump\t// out\n        /* \"#utility.yul\":2159:2281   */\n    tag_359:\n        /* \"#utility.yul\":2232:2256   */\n      tag_416\n        /* \"#utility.yul\":2250:2255   */\n      dup2\n        /* \"#utility.yul\":2232:2256   */\n      tag_358\n      jump\t// in\n    tag_416:\n        /* \"#utility.yul\":2225:2230   */\n      dup2\n        /* \"#utility.yul\":2222:2257   */\n      eq\n        /* \"#utility.yul\":2212:2275   */\n      tag_417\n      jumpi\n        /* \"#utility.yul\":2271:2272   */\n      0x00\n        /* \"#utility.yul\":2268:2269   */\n      dup1\n        /* \"#utility.yul\":2261:2273   */\n      revert\n        /* \"#utility.yul\":2212:2275   */\n    tag_417:\n        /* \"#utility.yul\":2159:2281   */\n      pop\n      jump\t// out\n        /* \"#utility.yul\":2287:2426   */\n    tag_360:\n        /* \"#utility.yul\":2333:2338   */\n      0x00\n        /* \"#utility.yul\":2371:2377   */\n      dup2\n        /* \"#utility.yul\":2358:2378   */\n      calldataload\n        /* \"#utility.yul\":2349:2378   */\n      swap1\n      pop\n        /* \"#utility.yul\":2387:2420   */\n      tag_419\n        /* \"#utility.yul\":2414:2419   */\n      dup2\n        /* \"#utility.yul\":2387:2420   */\n      tag_359\n      jump\t// in\n    tag_419:\n        /* \"#utility.yul\":2287:2426   */\n      swap3\n      swap2\n      pop\n      pop\n      jump\t// out\n        /* \"#utility.yul\":2432:2906   */\n    tag_38:\n        /* \"#utility.yul\":2500:2506   */\n      0x00\n        /* \"#utility.yul\":2508:2514   */\n      dup1\n        /* \"#utility.yul\":2557:2559   */\n      0x40\n        /* \"#utility.yul\":2545:2554   */\n      dup4\n        /* \"#utility.yul\":2536:2543   */\n      dup6\n        /* \"#utility.yul\":2532:2555   */\n      sub\n        /* \"#utility.yul\":2528:2560   */\n      slt\n        /* \"#utility.yul\":2525:2644   */\n      iszero\n      tag_421\n      jumpi\n        /* \"#utility.yul\":2563:2642   */\n      tag_422\n      tag_352\n      jump\t// in\n    tag_422:\n        /* \"#utility.yul\":2525:2644   */\n    tag_421:\n        /* \"#utility.yul\":2683:2684   */\n      0x00\n        /* \"#utility.yul\":2708:2761   */\n      tag_423\n        /* \"#utility.yul\":2753:2760   */\n      dup6\n        /* \"#utility.yul\":2744:2750   */\n      dup3\n        /* \"#utility.yul\":2733:2742   */\n      dup7\n        /* \"#utility.yul\":2729:2751   */\n      add\n        /* \"#utility.yul\":2708:2761   */\n      tag_357\n      jump\t// in\n    tag_423:\n        /* \"#utility.yul\":2698:2761   */\n      swap3\n      pop\n        /* \"#utility.yul\":2654:2771   */\n      pop\n        /* \"#utility.yul\":2810:2812   */\n      0x20\n        /* \"#utility.yul\":2836:2889   */\n      tag_424\n        /* \"#utility.yul\":2881:2888   */\n      dup6\n        /* \"#utility.yul\":2872:2878   */\n      dup3\n        /* \"#utility.yul\":2861:2870   */\n      dup7\n        /* \"#utility.yul\":2857:2879   */\n      add\n        /* \"#utility.yul\":2836:2889   */\n      tag_360\n      jump\t// in\n    tag_424:\n        /* \"#utility.yul\":2826:2889   */\n      swap2\n      pop\n        /* \"#utility.yul\":2781:2899   */\n      pop\n        /* \"#utility.yul\":2432:2906   */\n      swap3\n      pop\n      swap3\n      swap1\n      pop\n      jump\t// out\n        /* \"#utility.yul\":2912:3002   */\n    tag_361:\n        /* \"#utility.yul\":2946:2953   */\n      0x00\n        /* \"#utility.yul\":2989:2994   */\n      dup2\n        /* \"#utility.yul\":2982:2995   */\n      iszero\n        /* \"#utility.yul\":2975:2996   */\n      iszero\n        /* \"#utility.yul\":2964:2996   */\n      swap1\n      pop\n        /* \"#utility.yul\":2912:3002   */\n      swap2\n      swap1\n      pop\n      jump\t// out\n        /* \"#utility.yul\":3008:3117   */\n    tag_362:\n        /* \"#utility.yul\":3089:3110   */\n      tag_427\n        /* \"#utility.yul\":3104:3109   */\n      dup2\n        /* \"#utility.yul\":3089:3110   */\n      tag_361\n      jump\t// in\n    tag_427:\n        /* \"#utility.yul\":3084:3087   */\n      dup3\n        /* \"#utility.yul\":3077:3111   */\n      mstore\n        /* \"#utility.yul\":3008:3117   */\n      pop\n      pop\n      jump\t// out\n        /* \"#utility.yul\":3123:3333   */\n    tag_41:\n        /* \"#utility.yul\":3210:3214   */\n      0x00\n        /* \"#utility.yul\":3248:3250   */\n      0x20\n        /* \"#utility.yul\":3237:3246   */\n      dup3\n        /* \"#utility.yul\":3233:3251   */\n      add\n        /* \"#utility.yul\":3225:3251   */\n      swap1\n      pop\n        /* \"#utility.yul\":3261:3326   */\n      tag_429\n        /* \"#utility.yul\":3323:3324   */\n      0x00\n        /* \"#utility.yul\":3312:3321   */\n      dup4\n        /* \"#utility.yul\":3308:3325   */\n      add\n        /* \"#utility.yul\":3299:3305   */\n      dup5\n        /* \"#utility.yul\":3261:3326   */\n      tag_362\n      jump\t// in\n    tag_429:\n        /* \"#utility.yul\":3123:3333   */\n      swap3\n      swap2\n      pop\n      pop\n      jump\t// out\n        /* \"#utility.yul\":3339:3457   */\n    tag_363:\n        /* \"#utility.yul\":3426:3450   */\n      tag_431\n        /* \"#utility.yul\":3444:3449   */\n      dup2\n        /* \"#utility.yul\":3426:3450   */\n      tag_358\n      jump\t// in\n    tag_431:\n        /* \"#utility.yul\":3421:3424   */\n      dup3\n        /* \"#utility.yul\":3414:3451   */\n      mstore\n        /* \"#utility.yul\":3339:3457   */\n      pop\n      pop\n      jump\t// out\n        /* \"#utility.yul\":3463:3685   */\n    tag_45:\n        /* \"#utility.yul\":3556:3560   */\n      0x00\n        /* \"#utility.yul\":3594:3596   */\n      0x20\n        /* \"#utility.yul\":3583:3592   */\n      dup3\n        /* \"#utility.yul\":3579:3597   */\n      add\n        /* \"#utility.yul\":3571:3597   */\n      swap1\n      pop\n        /* \"#utility.yul\":3607:3678   */\n      tag_433\n        /* \"#utility.yul\":3675:3676   */\n      0x00\n        /* \"#utility.yul\":3664:3673   */\n      dup4\n        /* \"#utility.yul\":3660:3677   */\n      add\n        /* \"#utility.yul\":3651:3657   */\n      dup5\n        /* \"#utility.yul\":3607:3678   */\n      tag_363\n      jump\t// in\n    tag_433:\n        /* \"#utility.yul\":3463:3685   */\n      swap3\n      swap2\n      pop\n      pop\n      jump\t// out\n        /* \"#utility.yul\":3691:4310   */\n    tag_51:\n        /* \"#utility.yul\":3768:3774   */\n      0x00\n        /* \"#utility.yul\":3776:3782   */\n      dup1\n        /* \"#utility.yul\":3784:3790   */\n      0x00\n        /* \"#utility.yul\":3833:3835   */\n      0x60\n        /* \"#utility.yul\":3821:3830   */\n      dup5\n        /* \"#utility.yul\":3812:3819   */\n      dup7\n        /* \"#utility.yul\":3808:3831   */\n      sub\n        /* \"#utility.yul\":3804:3836   */\n      slt\n        /* \"#utility.yul\":3801:3920   */\n      iszero\n      tag_435\n      jumpi\n        /* \"#utility.yul\":3839:3918   */\n      tag_436\n      tag_352\n      jump\t// in\n    tag_436:\n        /* \"#utility.yul\":3801:3920   */\n    tag_435:\n        /* \"#utility.yul\":3959:3960   */\n      0x00\n        /* \"#utility.yul\":3984:4037   */\n      tag_437\n        /* \"#utility.yul\":4029:4036   */\n      dup7\n        /* \"#utility.yul\":4020:4026   */\n      dup3\n        /* \"#utility.yul\":4009:4018   */\n      dup8\n        /* \"#utility.yul\":4005:4027   */\n      add\n        /* \"#utility.yul\":3984:4037   */\n      tag_357\n      jump\t// in\n    tag_437:\n        /* \"#utility.yul\":3974:4037   */\n      swap4\n      pop\n        /* \"#utility.yul\":3930:4047   */\n      pop\n        /* \"#utility.yul\":4086:4088   */\n      0x20\n        /* \"#utility.yul\":4112:4165   */\n      tag_438\n        /* \"#utility.yul\":4157:4164   */\n      dup7\n        /* \"#utility.yul\":4148:4154   */\n      dup3\n        /* \"#utility.yul\":4137:4146   */\n      dup8\n        /* \"#utility.yul\":4133:4155   */\n      add\n        /* \"#utility.yul\":4112:4165   */\n      tag_357\n      jump\t// in\n    tag_438:\n        /* \"#utility.yul\":4102:4165   */\n      swap3\n      pop\n        /* \"#utility.yul\":4057:4175   */\n      pop\n        /* \"#utility.yul\":4214:4216   */\n      0x40\n        /* \"#utility.yul\":4240:4293   */\n      tag_439\n        /* \"#utility.yul\":4285:4292   */\n      dup7\n        /* \"#utility.yul\":4276:4282   */\n      dup3\n        /* \"#utility.yul\":4265:4274   */\n      dup8\n        /* \"#utility.yul\":4261:4283   */\n      add\n        /* \"#utility.yul\":4240:4293   */\n      tag_360\n      jump\t// in\n    tag_439:\n        /* \"#utility.yul\":4230:4293   */\n      swap2\n      pop\n        /* \"#utility.yul\":4185:4303   */\n      pop\n        /* \"#utility.yul\":3691:4310   */\n      swap3\n      pop\n      swap3\n      pop\n      swap3\n      jump\t// out\n        /* \"#utility.yul\":4316:4402   */\n    tag_364:\n        /* \"#utility.yul\":4351:4358   */\n      0x00\n        /* \"#utility.yul\":4391:4395   */\n      0xff\n        /* \"#utility.yul\":4384:4389   */\n      dup3\n        /* \"#utility.yul\":4380:4396   */\n      and\n        /* \"#utility.yul\":4369:4396   */\n      swap1\n      pop\n        /* \"#utility.yul\":4316:4402   */\n      swap2\n      swap1\n      pop\n      jump\t// out\n        /* \"#utility.yul\":4408:4520   */\n    tag_365:\n        /* \"#utility.yul\":4491:4513   */\n      tag_442\n        /* \"#utility.yul\":4507:4512   */\n      dup2\n        /* \"#utility.yul\":4491:4513   */\n      tag_364\n      jump\t// in\n    tag_442:\n        /* \"#utility.yul\":4486:4489   */\n      dup3\n        /* \"#utility.yul\":4479:4514   */\n      mstore\n        /* \"#utility.yul\":4408:4520   */\n      pop\n      pop\n      jump\t// out\n        /* \"#utility.yul\":4526:4740   */\n    tag_57:\n        /* \"#utility.yul\":4615:4619   */\n      0x00\n        /* \"#utility.yul\":4653:4655   */\n      0x20\n        /* \"#utility.yul\":4642:4651   */\n      dup3\n        /* \"#utility.yul\":4638:4656   */\n      add\n        /* \"#utility.yul\":4630:4656   */\n      swap1\n      pop\n        /* \"#utility.yul\":4666:4733   */\n      tag_444\n        /* \"#utility.yul\":4730:4731   */\n      0x00\n        /* \"#utility.yul\":4719:4728   */\n      dup4\n        /* \"#utility.yul\":4715:4732   */\n      add\n        /* \"#utility.yul\":4706:4712   */\n      dup5\n        /* \"#utility.yul\":4666:4733   */\n      tag_365\n      jump\t// in\n    tag_444:\n        /* \"#utility.yul\":4526:4740   */\n      swap3\n      swap2\n      pop\n      pop\n      jump\t// out\n        /* \"#utility.yul\":4746:5075   */\n    tag_69:\n        /* \"#utility.yul\":4805:4811   */\n      0x00\n        /* \"#utility.yul\":4854:4856   */\n      0x20\n        /* \"#utility.yul\":4842:4851   */\n      dup3\n        /* \"#utility.yul\":4833:4840   */\n      dup5\n        /* \"#utility.yul\":4829:4852   */\n      sub\n        /* \"#utility.yul\":4825:4857   */\n      slt\n        /* \"#utility.yul\":4822:4941   */\n      iszero\n      tag_446\n      jumpi\n        /* \"#utility.yul\":4860:4939   */\n      tag_447\n      tag_352\n      jump\t// in\n    tag_447:\n        /* \"#utility.yul\":4822:4941   */\n    tag_446:\n        /* \"#utility.yul\":4980:4981   */\n      0x00\n        /* \"#utility.yul\":5005:5058   */\n      tag_448\n        /* \"#utility.yul\":5050:5057   */\n      dup5\n        /* \"#utility.yul\":5041:5047   */\n      dup3\n        /* \"#utility.yul\":5030:5039   */\n      dup6\n        /* \"#utility.yul\":5026:5048   */\n      add\n        /* \"#utility.yul\":5005:5058   */\n      tag_357\n      jump\t// in\n    tag_448:\n        /* \"#utility.yul\":4995:5058   */\n      swap2\n      pop\n        /* \"#utility.yul\":4951:5068   */\n      pop\n        /* \"#utility.yul\":4746:5075   */\n      swap3\n      swap2\n      pop\n      pop\n      jump\t// out\n        /* \"#utility.yul\":5081:5410   */\n    tag_76:\n        /* \"#utility.yul\":5140:5146   */\n      0x00\n        /* \"#utility.yul\":5189:5191   */\n      0x20\n        /* \"#utility.yul\":5177:5186   */\n      dup3\n        /* \"#utility.yul\":5168:5175   */\n      dup5\n        /* \"#utility.yul\":5164:5187   */\n      sub\n        /* \"#utility.yul\":5160:5192   */\n      slt\n        /* \"#utility.yul\":5157:5276   */\n      iszero\n      tag_450\n      jumpi\n        /* \"#utility.yul\":5195:5274   */\n      tag_451\n      tag_352\n      jump\t// in\n    tag_451:\n        /* \"#utility.yul\":5157:5276   */\n    tag_450:\n        /* \"#utility.yul\":5315:5316   */\n      0x00\n        /* \"#utility.yul\":5340:5393   */\n      tag_452\n        /* \"#utility.yul\":5385:5392   */\n      dup5\n        /* \"#utility.yul\":5376:5382   */\n      dup3\n        /* \"#utility.yul\":5365:5374   */\n      dup6\n        /* \"#utility.yul\":5361:5383   */\n      add\n        /* \"#utility.yul\":5340:5393   */\n      tag_360\n      jump\t// in\n    tag_452:\n        /* \"#utility.yul\":5330:5393   */\n      swap2\n      pop\n        /* \"#utility.yul\":5286:5403   */\n      pop\n        /* \"#utility.yul\":5081:5410   */\n      swap3\n      swap2\n      pop\n      pop\n      jump\t// out\n        /* \"#utility.yul\":5416:5534   */\n    tag_366:\n        /* \"#utility.yul\":5503:5527   */\n      tag_454\n        /* \"#utility.yul\":5521:5526   */\n      dup2\n        /* \"#utility.yul\":5503:5527   */\n      tag_355\n      jump\t// in\n    tag_454:\n        /* \"#utility.yul\":5498:5501   */\n      dup3\n        /* \"#utility.yul\":5491:5528   */\n      mstore\n        /* \"#utility.yul\":5416:5534   */\n      pop\n      pop\n      jump\t// out\n        /* \"#utility.yul\":5540:5762   */\n    tag_83:\n        /* \"#utility.yul\":5633:5637   */\n      0x00\n        /* \"#utility.yul\":5671:5673   */\n      0x20\n        /* \"#utility.yul\":5660:5669   */\n      dup3\n        /* \"#utility.yul\":5656:5674   */\n      add\n        /* \"#utility.yul\":5648:5674   */\n      swap1\n      pop\n        /* \"#utility.yul\":5684:5755   */\n      tag_456\n        /* \"#utility.yul\":5752:5753   */\n      0x00\n        /* \"#utility.yul\":5741:5750   */\n      dup4\n        /* \"#utility.yul\":5737:5754   */\n      add\n        /* \"#utility.yul\":5728:5734   */\n      dup5\n        /* \"#utility.yul\":5684:5755   */\n      tag_366\n      jump\t// in\n    tag_456:\n        /* \"#utility.yul\":5540:5762   */\n      swap3\n      swap2\n      pop\n      pop\n      jump\t// out\n        /* \"#utility.yul\":5768:5828   */\n    tag_367:\n        /* \"#utility.yul\":5796:5799   */\n      0x00\n        /* \"#utility.yul\":5817:5822   */\n      dup2\n        /* \"#utility.yul\":5810:5822   */\n      swap1\n      pop\n        /* \"#utility.yul\":5768:5828   */\n      swap2\n      swap1\n      pop\n      jump\t// out\n        /* \"#utility.yul\":5834:5976   */\n    tag_368:\n        /* \"#utility.yul\":5884:5893   */\n      0x00\n        /* \"#utility.yul\":5917:5970   */\n      tag_459\n        /* \"#utility.yul\":5935:5969   */\n      tag_460\n        /* \"#utility.yul\":5944:5968   */\n      tag_461\n        /* \"#utility.yul\":5962:5967   */\n      dup5\n        /* \"#utility.yul\":5944:5968   */\n      tag_354\n      jump\t// in\n    tag_461:\n        /* \"#utility.yul\":5935:5969   */\n      tag_367\n      jump\t// in\n    tag_460:\n        /* \"#utility.yul\":5917:5970   */\n      tag_354\n      jump\t// in\n    tag_459:\n        /* \"#utility.yul\":5904:5970   */\n      swap1\n      pop\n        /* \"#utility.yul\":5834:5976   */\n      swap2\n      swap1\n      pop\n      jump\t// out\n        /* \"#utility.yul\":5982:6108   */\n    tag_369:\n        /* \"#utility.yul\":6032:6041   */\n      0x00\n        /* \"#utility.yul\":6065:6102   */\n      tag_463\n        /* \"#utility.yul\":6096:6101   */\n      dup3\n        /* \"#utility.yul\":6065:6102   */\n      tag_368\n      jump\t// in\n    tag_463:\n        /* \"#utility.yul\":6052:6102   */\n      swap1\n      pop\n        /* \"#utility.yul\":5982:6108   */\n      swap2\n      swap1\n      pop\n      jump\t// out\n        /* \"#utility.yul\":6114:6254   */\n    tag_370:\n        /* \"#utility.yul\":6178:6187   */\n      0x00\n        /* \"#utility.yul\":6211:6248   */\n      tag_465\n        /* \"#utility.yul\":6242:6247   */\n      dup3\n        /* \"#utility.yul\":6211:6248   */\n      tag_369\n      jump\t// in\n    tag_465:\n        /* \"#utility.yul\":6198:6248   */\n      swap1\n      pop\n        /* \"#utility.yul\":6114:6254   */\n      swap2\n      swap1\n      pop\n      jump\t// out\n        /* \"#utility.yul\":6260:6419   */\n    tag_371:\n        /* \"#utility.yul\":6361:6412   */\n      tag_467\n        /* \"#utility.yul\":6406:6411   */\n      dup2\n        /* \"#utility.yul\":6361:6412   */\n      tag_370\n      jump\t// in\n    tag_467:\n        /* \"#utility.yul\":6356:6359   */\n      dup3\n        /* \"#utility.yul\":6349:6413   */\n      mstore\n        /* \"#utility.yul\":6260:6419   */\n      pop\n      pop\n      jump\t// out\n        /* \"#utility.yul\":6425:6675   */\n    tag_97:\n        /* \"#utility.yul\":6532:6536   */\n      0x00\n        /* \"#utility.yul\":6570:6572   */\n      0x20\n        /* \"#utility.yul\":6559:6568   */\n      dup3\n        /* \"#utility.yul\":6555:6573   */\n      add\n        /* \"#utility.yul\":6547:6573   */\n      swap1\n      pop\n        /* \"#utility.yul\":6583:6668   */\n      tag_469\n        /* \"#utility.yul\":6665:6666   */\n      0x00\n        /* \"#utility.yul\":6654:6663   */\n      dup4\n        /* \"#utility.yul\":6650:6667   */\n      add\n        /* \"#utility.yul\":6641:6647   */\n      dup5\n        /* \"#utility.yul\":6583:6668   */\n      tag_371\n      jump\t// in\n    tag_469:\n        /* \"#utility.yul\":6425:6675   */\n      swap3\n      swap2\n      pop\n      pop\n      jump\t// out\n        /* \"#utility.yul\":6681:7155   */\n    tag_109:\n        /* \"#utility.yul\":6749:6755   */\n      0x00\n        /* \"#utility.yul\":6757:6763   */\n      dup1\n        /* \"#utility.yul\":6806:6808   */\n      0x40\n        /* \"#utility.yul\":6794:6803   */\n      dup4\n        /* \"#utility.yul\":6785:6792   */\n      dup6\n        /* \"#utility.yul\":6781:6804   */\n      sub\n        /* \"#utility.yul\":6777:6809   */\n      slt\n        /* \"#utility.yul\":6774:6893   */\n      iszero\n      tag_471\n      jumpi\n        /* \"#utility.yul\":6812:6891   */\n      tag_472\n      tag_352\n      jump\t// in\n    tag_472:\n        /* \"#utility.yul\":6774:6893   */\n    tag_471:\n        /* \"#utility.yul\":6932:6933   */\n      0x00\n        /* \"#utility.yul\":6957:7010   */\n      tag_473\n        /* \"#utility.yul\":7002:7009   */\n      dup6\n        /* \"#utility.yul\":6993:6999   */\n      dup3\n        /* \"#utility.yul\":6982:6991   */\n      dup7\n        /* \"#utility.yul\":6978:7000   */\n      add\n        /* \"#utility.yul\":6957:7010   */\n      tag_357\n      jump\t// in\n    tag_473:\n        /* \"#utility.yul\":6947:7010   */\n      swap3\n      pop\n        /* \"#utility.yul\":6903:7020   */\n      pop\n        /* \"#utility.yul\":7059:7061   */\n      0x20\n        /* \"#utility.yul\":7085:7138   */\n      tag_474\n        /* \"#utility.yul\":7130:7137   */\n      dup6\n        /* \"#utility.yul\":7121:7127   */\n      dup3\n        /* \"#utility.yul\":7110:7119   */\n      dup7\n        /* \"#utility.yul\":7106:7128   */\n      add\n        /* \"#utility.yul\":7085:7138   */\n      tag_357\n      jump\t// in\n    tag_474:\n        /* \"#utility.yul\":7075:7138   */\n      swap2\n      pop\n        /* \"#utility.yul\":7030:7148   */\n      pop\n        /* \"#utility.yul\":6681:7155   */\n      swap3\n      pop\n      swap3\n      swap1\n      pop\n      jump\t// out\n        /* \"#utility.yul\":7161:7341   */\n    tag_372:\n        /* \"#utility.yul\":7209:7286   */\n      0x4e487b7100000000000000000000000000000000000000000000000000000000\n        /* \"#utility.yul\":7206:7207   */\n      0x00\n        /* \"#utility.yul\":7199:7287   */\n      mstore\n        /* \"#utility.yul\":7306:7310   */\n      0x22\n        /* \"#utility.yul\":7303:7304   */\n      0x04\n        /* \"#utility.yul\":7296:7311   */\n      mstore\n        /* \"#utility.yul\":7330:7334   */\n      0x24\n        /* \"#utility.yul\":7327:7328   */\n      0x00\n        /* \"#utility.yul\":7320:7335   */\n      revert\n        /* \"#utility.yul\":7347:7667   */\n    tag_123:\n        /* \"#utility.yul\":7391:7397   */\n      0x00\n        /* \"#utility.yul\":7428:7429   */\n      0x02\n        /* \"#utility.yul\":7422:7426   */\n      dup3\n        /* \"#utility.yul\":7418:7430   */\n      div\n        /* \"#utility.yul\":7408:7430   */\n      swap1\n      pop\n        /* \"#utility.yul\":7475:7476   */\n      0x01\n        /* \"#utility.yul\":7469:7473   */\n      dup3\n        /* \"#utility.yul\":7465:7477   */\n      and\n        /* \"#utility.yul\":7496:7514   */\n      dup1\n        /* \"#utility.yul\":7486:7567   */\n      tag_477\n      jumpi\n        /* \"#utility.yul\":7552:7556   */\n      0x7f\n        /* \"#utility.yul\":7544:7550   */\n      dup3\n        /* \"#utility.yul\":7540:7557   */\n      and\n        /* \"#utility.yul\":7530:7557   */\n      swap2\n      pop\n        /* \"#utility.yul\":7486:7567   */\n    tag_477:\n        /* \"#utility.yul\":7614:7616   */\n      0x20\n        /* \"#utility.yul\":7606:7612   */\n      dup3\n        /* \"#utility.yul\":7603:7617   */\n      lt\n        /* \"#utility.yul\":7583:7601   */\n      dup2\n        /* \"#utility.yul\":7580:7618   */\n      sub\n        /* \"#utility.yul\":7577:7661   */\n      tag_478\n      jumpi\n        /* \"#utility.yul\":7633:7651   */\n      tag_479\n      tag_372\n      jump\t// in\n    tag_479:\n        /* \"#utility.yul\":7577:7661   */\n    tag_478:\n        /* \"#utility.yul\":7398:7667   */\n      pop\n        /* \"#utility.yul\":7347:7667   */\n      swap2\n      swap1\n      pop\n      jump\t// out\n        /* \"#utility.yul\":7673:7853   */\n    tag_373:\n        /* \"#utility.yul\":7721:7798   */\n      0x4e487b7100000000000000000000000000000000000000000000000000000000\n        /* \"#utility.yul\":7718:7719   */\n      0x00\n        /* \"#utility.yul\":7711:7799   */\n      mstore\n        /* \"#utility.yul\":7818:7822   */\n      0x11\n        /* \"#utility.yul\":7815:7816   */\n      0x04\n        /* \"#utility.yul\":7808:7823   */\n      mstore\n        /* \"#utility.yul\":7842:7846   */\n      0x24\n        /* \"#utility.yul\":7839:7840   */\n      0x00\n        /* \"#utility.yul\":7832:7847   */\n      revert\n        /* \"#utility.yul\":7859:8050   */\n    tag_155:\n        /* \"#utility.yul\":7899:7902   */\n      0x00\n        /* \"#utility.yul\":7918:7938   */\n      tag_482\n        /* \"#utility.yul\":7936:7937   */\n      dup3\n        /* \"#utility.yul\":7918:7938   */\n      tag_358\n      jump\t// in\n    tag_482:\n        /* \"#utility.yul\":7913:7938   */\n      swap2\n      pop\n        /* \"#utility.yul\":7952:7972   */\n      tag_483\n        /* \"#utility.yul\":7970:7971   */\n      dup4\n        /* \"#utility.yul\":7952:7972   */\n      tag_358\n      jump\t// in\n    tag_483:\n        /* \"#utility.yul\":7947:7972   */\n      swap3\n      pop\n        /* \"#utility.yul\":7995:7996   */\n      dup3\n        /* \"#utility.yul\":7992:7993   */\n      dup3\n        /* \"#utility.yul\":7988:7997   */\n      add\n        /* \"#utility.yul\":7981:7997   */\n      swap1\n      pop\n        /* \"#utility.yul\":8016:8019   */\n      dup1\n        /* \"#utility.yul\":8013:8014   */\n      dup3\n        /* \"#utility.yul\":8010:8020   */\n      gt\n        /* \"#utility.yul\":8007:8043   */\n      iszero\n      tag_484\n      jumpi\n        /* \"#utility.yul\":8023:8041   */\n      tag_485\n      tag_373\n      jump\t// in\n    tag_485:\n        /* \"#utility.yul\":8007:8043   */\n    tag_484:\n        /* \"#utility.yul\":7859:8050   */\n      swap3\n      swap2\n      pop\n      pop\n      jump\t// out\n        /* \"#utility.yul\":8056:8221   */\n    tag_374:\n        /* \"#utility.yul\":8196:8213   */\n      0x70726573616c65206973206f7665720000000000000000000000000000000000\n        /* \"#utility.yul\":8192:8193   */\n      0x00\n        /* \"#utility.yul\":8184:8190   */\n      dup3\n        /* \"#utility.yul\":8180:8194   */\n      add\n        /* \"#utility.yul\":8173:8214   */\n      mstore\n        /* \"#utility.yul\":8056:8221   */\n      pop\n      jump\t// out\n        /* \"#utility.yul\":8227:8593   */\n    tag_375:\n        /* \"#utility.yul\":8369:8372   */\n      0x00\n        /* \"#utility.yul\":8390:8457   */\n      tag_488\n        /* \"#utility.yul\":8454:8456   */\n      0x0f\n        /* \"#utility.yul\":8449:8452   */\n      dup4\n        /* \"#utility.yul\":8390:8457   */\n      tag_347\n      jump\t// in\n    tag_488:\n        /* \"#utility.yul\":8383:8457   */\n      swap2\n      pop\n        /* \"#utility.yul\":8466:8559   */\n      tag_489\n        /* \"#utility.yul\":8555:8558   */\n      dup3\n        /* \"#utility.yul\":8466:8559   */\n      tag_374\n      jump\t// in\n    tag_489:\n        /* \"#utility.yul\":8584:8586   */\n      0x20\n        /* \"#utility.yul\":8579:8582   */\n      dup3\n        /* \"#utility.yul\":8575:8587   */\n      add\n        /* \"#utility.yul\":8568:8587   */\n      swap1\n      pop\n        /* \"#utility.yul\":8227:8593   */\n      swap2\n      swap1\n      pop\n      jump\t// out\n        /* \"#utility.yul\":8599:9018   */\n    tag_158:\n        /* \"#utility.yul\":8765:8769   */\n      0x00\n        /* \"#utility.yul\":8803:8805   */\n      0x20\n        /* \"#utility.yul\":8792:8801   */\n      dup3\n        /* \"#utility.yul\":8788:8806   */\n      add\n        /* \"#utility.yul\":8780:8806   */\n      swap1\n      pop\n        /* \"#utility.yul\":8852:8861   */\n      dup2\n        /* \"#utility.yul\":8846:8850   */\n      dup2\n        /* \"#utility.yul\":8842:8862   */\n      sub\n        /* \"#utility.yul\":8838:8839   */\n      0x00\n        /* \"#utility.yul\":8827:8836   */\n      dup4\n        /* \"#utility.yul\":8823:8840   */\n      add\n        /* \"#utility.yul\":8816:8863   */\n      mstore\n        /* \"#utility.yul\":8880:9011   */\n      tag_491\n        /* \"#utility.yul\":9006:9010   */\n      dup2\n        /* \"#utility.yul\":8880:9011   */\n      tag_375\n      jump\t// in\n    tag_491:\n        /* \"#utility.yul\":8872:9011   */\n      swap1\n      pop\n        /* \"#utility.yul\":8599:9018   */\n      swap2\n      swap1\n      pop\n      jump\t// out\n        /* \"#utility.yul\":9024:9218   */\n    tag_162:\n        /* \"#utility.yul\":9064:9068   */\n      0x00\n        /* \"#utility.yul\":9084:9104   */\n      tag_493\n        /* \"#utility.yul\":9102:9103   */\n      dup3\n        /* \"#utility.yul\":9084:9104   */\n      tag_358\n      jump\t// in\n    tag_493:\n        /* \"#utility.yul\":9079:9104   */\n      swap2\n      pop\n        /* \"#utility.yul\":9118:9138   */\n      tag_494\n        /* \"#utility.yul\":9136:9137   */\n      dup4\n        /* \"#utility.yul\":9118:9138   */\n      tag_358\n      jump\t// in\n    tag_494:\n        /* \"#utility.yul\":9113:9138   */\n      swap3\n      pop\n        /* \"#utility.yul\":9162:9163   */\n      dup3\n        /* \"#utility.yul\":9159:9160   */\n      dup3\n        /* \"#utility.yul\":9155:9164   */\n      sub\n        /* \"#utility.yul\":9147:9164   */\n      swap1\n      pop\n        /* \"#utility.yul\":9186:9187   */\n      dup2\n        /* \"#utility.yul\":9180:9184   */\n      dup2\n        /* \"#utility.yul\":9177:9188   */\n      gt\n        /* \"#utility.yul\":9174:9211   */\n      iszero\n      tag_495\n      jumpi\n        /* \"#utility.yul\":9191:9209   */\n      tag_496\n      tag_373\n      jump\t// in\n    tag_496:\n        /* \"#utility.yul\":9174:9211   */\n    tag_495:\n        /* \"#utility.yul\":9024:9218   */\n      swap3\n      swap2\n      pop\n      pop\n      jump\t// out\n        /* \"#utility.yul\":9224:9372   */\n    tag_376:\n        /* \"#utility.yul\":9326:9337   */\n      0x00\n        /* \"#utility.yul\":9363:9366   */\n      dup2\n        /* \"#utility.yul\":9348:9366   */\n      swap1\n      pop\n        /* \"#utility.yul\":9224:9372   */\n      swap3\n      swap2\n      pop\n      pop\n      jump\t// out\n        /* \"#utility.yul\":9378:9533   */\n    tag_377:\n        /* \"#utility.yul\":9518:9525   */\n      0x4f6e6c7920000000000000000000000000000000000000000000000000000000\n        /* \"#utility.yul\":9514:9515   */\n      0x00\n        /* \"#utility.yul\":9506:9512   */\n      dup3\n        /* \"#utility.yul\":9502:9516   */\n      add\n        /* \"#utility.yul\":9495:9526   */\n      mstore\n        /* \"#utility.yul\":9378:9533   */\n      pop\n      jump\t// out\n        /* \"#utility.yul\":9539:9939   */\n    tag_378:\n        /* \"#utility.yul\":9699:9702   */\n      0x00\n        /* \"#utility.yul\":9720:9804   */\n      tag_500\n        /* \"#utility.yul\":9802:9803   */\n      0x05\n        /* \"#utility.yul\":9797:9800   */\n      dup4\n        /* \"#utility.yul\":9720:9804   */\n      tag_376\n      jump\t// in\n    tag_500:\n        /* \"#utility.yul\":9713:9804   */\n      swap2\n      pop\n        /* \"#utility.yul\":9813:9906   */\n      tag_501\n        /* \"#utility.yul\":9902:9905   */\n      dup3\n        /* \"#utility.yul\":9813:9906   */\n      tag_377\n      jump\t// in\n    tag_501:\n        /* \"#utility.yul\":9931:9932   */\n      0x05\n        /* \"#utility.yul\":9926:9929   */\n      dup3\n        /* \"#utility.yul\":9922:9933   */\n      add\n        /* \"#utility.yul\":9915:9933   */\n      swap1\n      pop\n        /* \"#utility.yul\":9539:9939   */\n      swap2\n      swap1\n      pop\n      jump\t// out\n        /* \"#utility.yul\":9945:10335   */\n    tag_379:\n        /* \"#utility.yul\":10051:10054   */\n      0x00\n        /* \"#utility.yul\":10079:10118   */\n      tag_503\n        /* \"#utility.yul\":10112:10117   */\n      dup3\n        /* \"#utility.yul\":10079:10118   */\n      tag_346\n      jump\t// in\n    tag_503:\n        /* \"#utility.yul\":10134:10223   */\n      tag_504\n        /* \"#utility.yul\":10216:10222   */\n      dup2\n        /* \"#utility.yul\":10211:10214   */\n      dup6\n        /* \"#utility.yul\":10134:10223   */\n      tag_376\n      jump\t// in\n    tag_504:\n        /* \"#utility.yul\":10127:10223   */\n      swap4\n      pop\n        /* \"#utility.yul\":10232:10297   */\n      tag_505\n        /* \"#utility.yul\":10290:10296   */\n      dup2\n        /* \"#utility.yul\":10285:10288   */\n      dup6\n        /* \"#utility.yul\":10278:10282   */\n      0x20\n        /* \"#utility.yul\":10271:10276   */\n      dup7\n        /* \"#utility.yul\":10267:10283   */\n      add\n        /* \"#utility.yul\":10232:10297   */\n      tag_348\n      jump\t// in\n    tag_505:\n        /* \"#utility.yul\":10322:10328   */\n      dup1\n        /* \"#utility.yul\":10317:10320   */\n      dup5\n        /* \"#utility.yul\":10313:10329   */\n      add\n        /* \"#utility.yul\":10306:10329   */\n      swap2\n      pop\n        /* \"#utility.yul\":10055:10335   */\n      pop\n        /* \"#utility.yul\":9945:10335   */\n      swap3\n      swap2\n      pop\n      pop\n      jump\t// out\n        /* \"#utility.yul\":10341:10505   */\n    tag_380:\n        /* \"#utility.yul\":10481:10497   */\n      0x2042534d20417661696c61626c65000000000000000000000000000000000000\n        /* \"#utility.yul\":10477:10478   */\n      0x00\n        /* \"#utility.yul\":10469:10475   */\n      dup3\n        /* \"#utility.yul\":10465:10479   */\n      add\n        /* \"#utility.yul\":10458:10498   */\n      mstore\n        /* \"#utility.yul\":10341:10505   */\n      pop\n      jump\t// out\n        /* \"#utility.yul\":10511:10913   */\n    tag_381:\n        /* \"#utility.yul\":10671:10674   */\n      0x00\n        /* \"#utility.yul\":10692:10777   */\n      tag_508\n        /* \"#utility.yul\":10774:10776   */\n      0x0e\n        /* \"#utility.yul\":10769:10772   */\n      dup4\n        /* \"#utility.yul\":10692:10777   */\n      tag_376\n      jump\t// in\n    tag_508:\n        /* \"#utility.yul\":10685:10777   */\n      swap2\n      pop\n        /* \"#utility.yul\":10786:10879   */\n      tag_509\n        /* \"#utility.yul\":10875:10878   */\n      dup3\n        /* \"#utility.yul\":10786:10879   */\n      tag_380\n      jump\t// in\n    tag_509:\n        /* \"#utility.yul\":10904:10906   */\n      0x0e\n        /* \"#utility.yul\":10899:10902   */\n      dup3\n        /* \"#utility.yul\":10895:10907   */\n      add\n        /* \"#utility.yul\":10888:10907   */\n      swap1\n      pop\n        /* \"#utility.yul\":10511:10913   */\n      swap2\n      swap1\n      pop\n      jump\t// out\n        /* \"#utility.yul\":10919:11726   */\n    tag_165:\n        /* \"#utility.yul\":11253:11256   */\n      0x00\n        /* \"#utility.yul\":11275:11423   */\n      tag_511\n        /* \"#utility.yul\":11419:11422   */\n      dup3\n        /* \"#utility.yul\":11275:11423   */\n      tag_378\n      jump\t// in\n    tag_511:\n        /* \"#utility.yul\":11268:11423   */\n      swap2\n      pop\n        /* \"#utility.yul\":11440:11535   */\n      tag_512\n        /* \"#utility.yul\":11531:11534   */\n      dup3\n        /* \"#utility.yul\":11522:11528   */\n      dup5\n        /* \"#utility.yul\":11440:11535   */\n      tag_379\n      jump\t// in\n    tag_512:\n        /* \"#utility.yul\":11433:11535   */\n      swap2\n      pop\n        /* \"#utility.yul\":11552:11700   */\n      tag_513\n        /* \"#utility.yul\":11696:11699   */\n      dup3\n        /* \"#utility.yul\":11552:11700   */\n      tag_381\n      jump\t// in\n    tag_513:\n        /* \"#utility.yul\":11545:11700   */\n      swap2\n      pop\n        /* \"#utility.yul\":11717:11720   */\n      dup2\n        /* \"#utility.yul\":11710:11720   */\n      swap1\n      pop\n        /* \"#utility.yul\":10919:11726   */\n      swap3\n      swap2\n      pop\n      pop\n      jump\t// out\n        /* \"#utility.yul\":11732:11962   */\n    tag_382:\n        /* \"#utility.yul\":11872:11906   */\n      0x5072652d53616c657320546f6b656e20616d6f756e742063616e6e6f74206578\n        /* \"#utility.yul\":11868:11869   */\n      0x00\n        /* \"#utility.yul\":11860:11866   */\n      dup3\n        /* \"#utility.yul\":11856:11870   */\n      add\n        /* \"#utility.yul\":11849:11907   */\n      mstore\n        /* \"#utility.yul\":11941:11954   */\n      0x6365656420313030303030000000000000000000000000000000000000000000\n        /* \"#utility.yul\":11936:11938   */\n      0x20\n        /* \"#utility.yul\":11928:11934   */\n      dup3\n        /* \"#utility.yul\":11924:11939   */\n      add\n        /* \"#utility.yul\":11917:11955   */\n      mstore\n        /* \"#utility.yul\":11732:11962   */\n      pop\n      jump\t// out\n        /* \"#utility.yul\":11968:12334   */\n    tag_383:\n        /* \"#utility.yul\":12110:12113   */\n      0x00\n        /* \"#utility.yul\":12131:12198   */\n      tag_516\n        /* \"#utility.yul\":12195:12197   */\n      0x2b\n        /* \"#utility.yul\":12190:12193   */\n      dup4\n        /* \"#utility.yul\":12131:12198   */\n      tag_347\n      jump\t// in\n    tag_516:\n        /* \"#utility.yul\":12124:12198   */\n      swap2\n      pop\n        /* \"#utility.yul\":12207:12300   */\n      tag_517\n        /* \"#utility.yul\":12296:12299   */\n      dup3\n        /* \"#utility.yul\":12207:12300   */\n      tag_382\n      jump\t// in\n    tag_517:\n        /* \"#utility.yul\":12325:12327   */\n      0x40\n        /* \"#utility.yul\":12320:12323   */\n      dup3\n        /* \"#utility.yul\":12316:12328   */\n      add\n        /* \"#utility.yul\":12309:12328   */\n      swap1\n      pop\n        /* \"#utility.yul\":11968:12334   */\n      swap2\n      swap1\n      pop\n      jump\t// out\n        /* \"#utility.yul\":12340:12759   */\n    tag_171:\n        /* \"#utility.yul\":12506:12510   */\n      0x00\n        /* \"#utility.yul\":12544:12546   */\n      0x20\n        /* \"#utility.yul\":12533:12542   */\n      dup3\n        /* \"#utility.yul\":12529:12547   */\n      add\n        /* \"#utility.yul\":12521:12547   */\n      swap1\n      pop\n        /* \"#utility.yul\":12593:12602   */\n      dup2\n        /* \"#utility.yul\":12587:12591   */\n      dup2\n        /* \"#utility.yul\":12583:12603   */\n      sub\n        /* \"#utility.yul\":12579:12580   */\n      0x00\n        /* \"#utility.yul\":12568:12577   */\n      dup4\n        /* \"#utility.yul\":12564:12581   */\n      add\n        /* \"#utility.yul\":12557:12604   */\n      mstore\n        /* \"#utility.yul\":12621:12752   */\n      tag_519\n        /* \"#utility.yul\":12747:12751   */\n      dup2\n        /* \"#utility.yul\":12621:12752   */\n      tag_383\n      jump\t// in\n    tag_519:\n        /* \"#utility.yul\":12613:12752   */\n      swap1\n      pop\n        /* \"#utility.yul\":12340:12759   */\n      swap2\n      swap1\n      pop\n      jump\t// out\n        /* \"#utility.yul\":12765:13175   */\n    tag_173:\n        /* \"#utility.yul\":12805:12812   */\n      0x00\n        /* \"#utility.yul\":12828:12848   */\n      tag_521\n        /* \"#utility.yul\":12846:12847   */\n      dup3\n        /* \"#utility.yul\":12828:12848   */\n      tag_358\n      jump\t// in\n    tag_521:\n        /* \"#utility.yul\":12823:12848   */\n      swap2\n      pop\n        /* \"#utility.yul\":12862:12882   */\n      tag_522\n        /* \"#utility.yul\":12880:12881   */\n      dup4\n        /* \"#utility.yul\":12862:12882   */\n      tag_358\n      jump\t// in\n    tag_522:\n        /* \"#utility.yul\":12857:12882   */\n      swap3\n      pop\n        /* \"#utility.yul\":12917:12918   */\n      dup3\n        /* \"#utility.yul\":12914:12915   */\n      dup3\n        /* \"#utility.yul\":12910:12919   */\n      mul\n        /* \"#utility.yul\":12939:12969   */\n      tag_523\n        /* \"#utility.yul\":12957:12968   */\n      dup2\n        /* \"#utility.yul\":12939:12969   */\n      tag_358\n      jump\t// in\n    tag_523:\n        /* \"#utility.yul\":12928:12969   */\n      swap2\n      pop\n        /* \"#utility.yul\":13118:13119   */\n      dup3\n        /* \"#utility.yul\":13109:13116   */\n      dup3\n        /* \"#utility.yul\":13105:13120   */\n      div\n        /* \"#utility.yul\":13102:13103   */\n      dup5\n        /* \"#utility.yul\":13099:13121   */\n      eq\n        /* \"#utility.yul\":13079:13080   */\n      dup4\n        /* \"#utility.yul\":13072:13081   */\n      iszero\n        /* \"#utility.yul\":13052:13135   */\n      or\n        /* \"#utility.yul\":13029:13168   */\n      tag_524\n      jumpi\n        /* \"#utility.yul\":13148:13166   */\n      tag_525\n      tag_373\n      jump\t// in\n    tag_525:\n        /* \"#utility.yul\":13029:13168   */\n    tag_524:\n        /* \"#utility.yul\":12813:13175   */\n      pop\n        /* \"#utility.yul\":12765:13175   */\n      swap3\n      swap2\n      pop\n      pop\n      jump\t// out\n        /* \"#utility.yul\":13181:13361   */\n    tag_308:\n        /* \"#utility.yul\":13229:13306   */\n      0x4e487b7100000000000000000000000000000000000000000000000000000000\n        /* \"#utility.yul\":13226:13227   */\n      0x00\n        /* \"#utility.yul\":13219:13307   */\n      mstore\n        /* \"#utility.yul\":13326:13330   */\n      0x12\n        /* \"#utility.yul\":13323:13324   */\n      0x04\n        /* \"#utility.yul\":13316:13331   */\n      mstore\n        /* \"#utility.yul\":13350:13354   */\n      0x24\n        /* \"#utility.yul\":13347:13348   */\n      0x00\n        /* \"#utility.yul\":13340:13355   */\n      revert\n        /* \"#utility.yul\":13367:13552   */\n    tag_175:\n        /* \"#utility.yul\":13407:13408   */\n      0x00\n        /* \"#utility.yul\":13424:13444   */\n      tag_528\n        /* \"#utility.yul\":13442:13443   */\n      dup3\n        /* \"#utility.yul\":13424:13444   */\n      tag_358\n      jump\t// in\n    tag_528:\n        /* \"#utility.yul\":13419:13444   */\n      swap2\n      pop\n        /* \"#utility.yul\":13458:13478   */\n      tag_529\n        /* \"#utility.yul\":13476:13477   */\n      dup4\n        /* \"#utility.yul\":13458:13478   */\n      tag_358\n      jump\t// in\n    tag_529:\n        /* \"#utility.yul\":13453:13478   */\n      swap3\n      pop\n        /* \"#utility.yul\":13497:13498   */\n      dup3\n        /* \"#utility.yul\":13487:13522   */\n      tag_530\n      jumpi\n        /* \"#utility.yul\":13502:13520   */\n      tag_531\n      tag_308\n      jump\t// in\n    tag_531:\n        /* \"#utility.yul\":13487:13522   */\n    tag_530:\n        /* \"#utility.yul\":13544:13545   */\n      dup3\n        /* \"#utility.yul\":13541:13542   */\n      dup3\n        /* \"#utility.yul\":13537:13546   */\n      div\n        /* \"#utility.yul\":13532:13546   */\n      swap1\n      pop\n        /* \"#utility.yul\":13367:13552   */\n      swap3\n      swap2\n      pop\n      pop\n      jump\t// out\n        /* \"#utility.yul\":13558:13701   */\n    tag_384:\n        /* \"#utility.yul\":13615:13620   */\n      0x00\n        /* \"#utility.yul\":13646:13652   */\n      dup2\n        /* \"#utility.yul\":13640:13653   */\n      mload\n        /* \"#utility.yul\":13631:13653   */\n      swap1\n      pop\n        /* \"#utility.yul\":13662:13695   */\n      tag_533\n        /* \"#utility.yul\":13689:13694   */\n      dup2\n        /* \"#utility.yul\":13662:13695   */\n      tag_359\n      jump\t// in\n    tag_533:\n        /* \"#utility.yul\":13558:13701   */\n      swap3\n      swap2\n      pop\n      pop\n      jump\t// out\n        /* \"#utility.yul\":13707:14058   */\n    tag_180:\n        /* \"#utility.yul\":13777:13783   */\n      0x00\n        /* \"#utility.yul\":13826:13828   */\n      0x20\n        /* \"#utility.yul\":13814:13823   */\n      dup3\n        /* \"#utility.yul\":13805:13812   */\n      dup5\n        /* \"#utility.yul\":13801:13824   */\n      sub\n        /* \"#utility.yul\":13797:13829   */\n      slt\n        /* \"#utility.yul\":13794:13913   */\n      iszero\n      tag_535\n      jumpi\n        /* \"#utility.yul\":13832:13911   */\n      tag_536\n      tag_352\n      jump\t// in\n    tag_536:\n        /* \"#utility.yul\":13794:13913   */\n    tag_535:\n        /* \"#utility.yul\":13952:13953   */\n      0x00\n        /* \"#utility.yul\":13977:14041   */\n      tag_537\n        /* \"#utility.yul\":14033:14040   */\n      dup5\n        /* \"#utility.yul\":14024:14030   */\n      dup3\n        /* \"#utility.yul\":14013:14022   */\n      dup6\n        /* \"#utility.yul\":14009:14031   */\n      add\n        /* \"#utility.yul\":13977:14041   */\n      tag_384\n      jump\t// in\n    tag_537:\n        /* \"#utility.yul\":13967:14041   */\n      swap2\n      pop\n        /* \"#utility.yul\":13923:14051   */\n      pop\n        /* \"#utility.yul\":13707:14058   */\n      swap3\n      swap2\n      pop\n      pop\n      jump\t// out\n        /* \"#utility.yul\":14064:14228   */\n    tag_385:\n        /* \"#utility.yul\":14204:14220   */\n      0x6e656564206d6f72652055534454000000000000000000000000000000000000\n        /* \"#utility.yul\":14200:14201   */\n      0x00\n        /* \"#utility.yul\":14192:14198   */\n      dup3\n        /* \"#utility.yul\":14188:14202   */\n      add\n        /* \"#utility.yul\":14181:14221   */\n      mstore\n        /* \"#utility.yul\":14064:14228   */\n      pop\n      jump\t// out\n        /* \"#utility.yul\":14234:14600   */\n    tag_386:\n        /* \"#utility.yul\":14376:14379   */\n      0x00\n        /* \"#utility.yul\":14397:14464   */\n      tag_540\n        /* \"#utility.yul\":14461:14463   */\n      0x0e\n        /* \"#utility.yul\":14456:14459   */\n      dup4\n        /* \"#utility.yul\":14397:14464   */\n      tag_347\n      jump\t// in\n    tag_540:\n        /* \"#utility.yul\":14390:14464   */\n      swap2\n      pop\n        /* \"#utility.yul\":14473:14566   */\n      tag_541\n        /* \"#utility.yul\":14562:14565   */\n      dup3\n        /* \"#utility.yul\":14473:14566   */\n      tag_385\n      jump\t// in\n    tag_541:\n        /* \"#utility.yul\":14591:14593   */\n      0x20\n        /* \"#utility.yul\":14586:14589   */\n      dup3\n        /* \"#utility.yul\":14582:14594   */\n      add\n        /* \"#utility.yul\":14575:14594   */\n      swap1\n      pop\n        /* \"#utility.yul\":14234:14600   */\n      swap2\n      swap1\n      pop\n      jump\t// out\n        /* \"#utility.yul\":14606:15025   */\n    tag_183:\n        /* \"#utility.yul\":14772:14776   */\n      0x00\n        /* \"#utility.yul\":14810:14812   */\n      0x20\n        /* \"#utility.yul\":14799:14808   */\n      dup3\n        /* \"#utility.yul\":14795:14813   */\n      add\n        /* \"#utility.yul\":14787:14813   */\n      swap1\n      pop\n        /* \"#utility.yul\":14859:14868   */\n      dup2\n        /* \"#utility.yul\":14853:14857   */\n      dup2\n        /* \"#utility.yul\":14849:14869   */\n      sub\n        /* \"#utility.yul\":14845:14846   */\n      0x00\n        /* \"#utility.yul\":14834:14843   */\n      dup4\n        /* \"#utility.yul\":14830:14847   */\n      add\n        /* \"#utility.yul\":14823:14870   */\n      mstore\n        /* \"#utility.yul\":14887:15018   */\n      tag_543\n        /* \"#utility.yul\":15013:15017   */\n      dup2\n        /* \"#utility.yul\":14887:15018   */\n      tag_386\n      jump\t// in\n    tag_543:\n        /* \"#utility.yul\":14879:15018   */\n      swap1\n      pop\n        /* \"#utility.yul\":14606:15025   */\n      swap2\n      swap1\n      pop\n      jump\t// out\n        /* \"#utility.yul\":15031:15473   */\n    tag_185:\n        /* \"#utility.yul\":15180:15184   */\n      0x00\n        /* \"#utility.yul\":15218:15220   */\n      0x60\n        /* \"#utility.yul\":15207:15216   */\n      dup3\n        /* \"#utility.yul\":15203:15221   */\n      add\n        /* \"#utility.yul\":15195:15221   */\n      swap1\n      pop\n        /* \"#utility.yul\":15231:15302   */\n      tag_545\n        /* \"#utility.yul\":15299:15300   */\n      0x00\n        /* \"#utility.yul\":15288:15297   */\n      dup4\n        /* \"#utility.yul\":15284:15301   */\n      add\n        /* \"#utility.yul\":15275:15281   */\n      dup7\n        /* \"#utility.yul\":15231:15302   */\n      tag_366\n      jump\t// in\n    tag_545:\n        /* \"#utility.yul\":15312:15384   */\n      tag_546\n        /* \"#utility.yul\":15380:15382   */\n      0x20\n        /* \"#utility.yul\":15369:15378   */\n      dup4\n        /* \"#utility.yul\":15365:15383   */\n      add\n        /* \"#utility.yul\":15356:15362   */\n      dup6\n        /* \"#utility.yul\":15312:15384   */\n      tag_366\n      jump\t// in\n    tag_546:\n        /* \"#utility.yul\":15394:15466   */\n      tag_547\n        /* \"#utility.yul\":15462:15464   */\n      0x40\n        /* \"#utility.yul\":15451:15460   */\n      dup4\n        /* \"#utility.yul\":15447:15465   */\n      add\n        /* \"#utility.yul\":15438:15444   */\n      dup5\n        /* \"#utility.yul\":15394:15466   */\n      tag_363\n      jump\t// in\n    tag_547:\n        /* \"#utility.yul\":15031:15473   */\n      swap5\n      swap4\n      pop\n      pop\n      pop\n      pop\n      jump\t// out\n        /* \"#utility.yul\":15479:15595   */\n    tag_387:\n        /* \"#utility.yul\":15549:15570   */\n      tag_549\n        /* \"#utility.yul\":15564:15569   */\n      dup2\n        /* \"#utility.yul\":15549:15570   */\n      tag_361\n      jump\t// in\n    tag_549:\n        /* \"#utility.yul\":15542:15547   */\n      dup2\n        /* \"#utility.yul\":15539:15571   */\n      eq\n        /* \"#utility.yul\":15529:15589   */\n      tag_550\n      jumpi\n        /* \"#utility.yul\":15585:15586   */\n      0x00\n        /* \"#utility.yul\":15582:15583   */\n      dup1\n        /* \"#utility.yul\":15575:15587   */\n      revert\n        /* \"#utility.yul\":15529:15589   */\n    tag_550:\n        /* \"#utility.yul\":15479:15595   */\n      pop\n      jump\t// out\n        /* \"#utility.yul\":15601:15738   */\n    tag_388:\n        /* \"#utility.yul\":15655:15660   */\n      0x00\n        /* \"#utility.yul\":15686:15692   */\n      dup2\n        /* \"#utility.yul\":15680:15693   */\n      mload\n        /* \"#utility.yul\":15671:15693   */\n      swap1\n      pop\n        /* \"#utility.yul\":15702:15732   */\n      tag_552\n        /* \"#utility.yul\":15726:15731   */\n      dup2\n        /* \"#utility.yul\":15702:15732   */\n      tag_387\n      jump\t// in\n    tag_552:\n        /* \"#utility.yul\":15601:15738   */\n      swap3\n      swap2\n      pop\n      pop\n      jump\t// out\n        /* \"#utility.yul\":15744:16089   */\n    tag_189:\n        /* \"#utility.yul\":15811:15817   */\n      0x00\n        /* \"#utility.yul\":15860:15862   */\n      0x20\n        /* \"#utility.yul\":15848:15857   */\n      dup3\n        /* \"#utility.yul\":15839:15846   */\n      dup5\n        /* \"#utility.yul\":15835:15858   */\n      sub\n        /* \"#utility.yul\":15831:15863   */\n      slt\n        /* \"#utility.yul\":15828:15947   */\n      iszero\n      tag_554\n      jumpi\n        /* \"#utility.yul\":15866:15945   */\n      tag_555\n      tag_352\n      jump\t// in\n    tag_555:\n        /* \"#utility.yul\":15828:15947   */\n    tag_554:\n        /* \"#utility.yul\":15986:15987   */\n      0x00\n        /* \"#utility.yul\":16011:16072   */\n      tag_556\n        /* \"#utility.yul\":16064:16071   */\n      dup5\n        /* \"#utility.yul\":16055:16061   */\n      dup3\n        /* \"#utility.yul\":16044:16053   */\n      dup6\n        /* \"#utility.yul\":16040:16062   */\n      add\n        /* \"#utility.yul\":16011:16072   */\n      tag_388\n      jump\t// in\n    tag_556:\n        /* \"#utility.yul\":16001:16072   */\n      swap2\n      pop\n        /* \"#utility.yul\":15957:16082   */\n      pop\n        /* \"#utility.yul\":15744:16089   */\n      swap3\n      swap2\n      pop\n      pop\n      jump\t// out\n        /* \"#utility.yul\":16095:16322   */\n    tag_389:\n        /* \"#utility.yul\":16235:16269   */\n      0x52656c65617365642061667465722036206d6f6e746873206f66207072697661\n        /* \"#utility.yul\":16231:16232   */\n      0x00\n        /* \"#utility.yul\":16223:16229   */\n      dup3\n        /* \"#utility.yul\":16219:16233   */\n      add\n        /* \"#utility.yul\":16212:16270   */\n      mstore\n        /* \"#utility.yul\":16304:16314   */\n      0x74652073616c6573000000000000000000000000000000000000000000000000\n        /* \"#utility.yul\":16299:16301   */\n      0x20\n        /* \"#utility.yul\":16291:16297   */\n      dup3\n        /* \"#utility.yul\":16287:16302   */\n      add\n        /* \"#utility.yul\":16280:16315   */\n      mstore\n        /* \"#utility.yul\":16095:16322   */\n      pop\n      jump\t// out\n        /* \"#utility.yul\":16328:16694   */\n    tag_390:\n        /* \"#utility.yul\":16470:16473   */\n      0x00\n        /* \"#utility.yul\":16491:16558   */\n      tag_559\n        /* \"#utility.yul\":16555:16557   */\n      0x28\n        /* \"#utility.yul\":16550:16553   */\n      dup4\n        /* \"#utility.yul\":16491:16558   */\n      tag_347\n      jump\t// in\n    tag_559:\n        /* \"#utility.yul\":16484:16558   */\n      swap2\n      pop\n        /* \"#utility.yul\":16567:16660   */\n      tag_560\n        /* \"#utility.yul\":16656:16659   */\n      dup3\n        /* \"#utility.yul\":16567:16660   */\n      tag_389\n      jump\t// in\n    tag_560:\n        /* \"#utility.yul\":16685:16687   */\n      0x40\n        /* \"#utility.yul\":16680:16683   */\n      dup3\n        /* \"#utility.yul\":16676:16688   */\n      add\n        /* \"#utility.yul\":16669:16688   */\n      swap1\n      pop\n        /* \"#utility.yul\":16328:16694   */\n      swap2\n      swap1\n      pop\n      jump\t// out\n        /* \"#utility.yul\":16700:17119   */\n    tag_201:\n        /* \"#utility.yul\":16866:16870   */\n      0x00\n        /* \"#utility.yul\":16904:16906   */\n      0x20\n        /* \"#utility.yul\":16893:16902   */\n      dup3\n        /* \"#utility.yul\":16889:16907   */\n      add\n        /* \"#utility.yul\":16881:16907   */\n      swap1\n      pop\n        /* \"#utility.yul\":16953:16962   */\n      dup2\n        /* \"#utility.yul\":16947:16951   */\n      dup2\n        /* \"#utility.yul\":16943:16963   */\n      sub\n        /* \"#utility.yul\":16939:16940   */\n      0x00\n        /* \"#utility.yul\":16928:16937   */\n      dup4\n        /* \"#utility.yul\":16924:16941   */\n      add\n        /* \"#utility.yul\":16917:16964   */\n      mstore\n        /* \"#utility.yul\":16981:17112   */\n      tag_562\n        /* \"#utility.yul\":17107:17111   */\n      dup2\n        /* \"#utility.yul\":16981:17112   */\n      tag_390\n      jump\t// in\n    tag_562:\n        /* \"#utility.yul\":16973:17112   */\n      swap1\n      pop\n        /* \"#utility.yul\":16700:17119   */\n      swap2\n      swap1\n      pop\n      jump\t// out\n        /* \"#utility.yul\":17125:17305   */\n    tag_207:\n        /* \"#utility.yul\":17173:17250   */\n      0x4e487b7100000000000000000000000000000000000000000000000000000000\n        /* \"#utility.yul\":17170:17171   */\n      0x00\n        /* \"#utility.yul\":17163:17251   */\n      mstore\n        /* \"#utility.yul\":17270:17274   */\n      0x32\n        /* \"#utility.yul\":17267:17268   */\n      0x04\n        /* \"#utility.yul\":17260:17275   */\n      mstore\n        /* \"#utility.yul\":17294:17298   */\n      0x24\n        /* \"#utility.yul\":17291:17292   */\n      0x00\n        /* \"#utility.yul\":17284:17299   */\n      revert\n        /* \"#utility.yul\":17311:17753   */\n    tag_277:\n        /* \"#utility.yul\":17460:17464   */\n      0x00\n        /* \"#utility.yul\":17498:17500   */\n      0x60\n        /* \"#utility.yul\":17487:17496   */\n      dup3\n        /* \"#utility.yul\":17483:17501   */\n      add\n        /* \"#utility.yul\":17475:17501   */\n      swap1\n      pop\n        /* \"#utility.yul\":17511:17582   */\n      tag_565\n        /* \"#utility.yul\":17579:17580   */\n      0x00\n        /* \"#utility.yul\":17568:17577   */\n      dup4\n        /* \"#utility.yul\":17564:17581   */\n      add\n        /* \"#utility.yul\":17555:17561   */\n      dup7\n        /* \"#utility.yul\":17511:17582   */\n      tag_366\n      jump\t// in\n    tag_565:\n        /* \"#utility.yul\":17592:17664   */\n      tag_566\n        /* \"#utility.yul\":17660:17662   */\n      0x20\n        /* \"#utility.yul\":17649:17658   */\n      dup4\n        /* \"#utility.yul\":17645:17663   */\n      add\n        /* \"#utility.yul\":17636:17642   */\n      dup6\n        /* \"#utility.yul\":17592:17664   */\n      tag_363\n      jump\t// in\n    tag_566:\n        /* \"#utility.yul\":17674:17746   */\n      tag_567\n        /* \"#utility.yul\":17742:17744   */\n      0x40\n        /* \"#utility.yul\":17731:17740   */\n      dup4\n        /* \"#utility.yul\":17727:17745   */\n      add\n        /* \"#utility.yul\":17718:17724   */\n      dup5\n        /* \"#utility.yul\":17674:17746   */\n      tag_363\n      jump\t// in\n    tag_567:\n        /* \"#utility.yul\":17311:17753   */\n      swap5\n      swap4\n      pop\n      pop\n      pop\n      pop\n      jump\t// out\n        /* \"#utility.yul\":17759:17939   */\n    tag_302:\n        /* \"#utility.yul\":17807:17884   */\n      0x4e487b7100000000000000000000000000000000000000000000000000000000\n        /* \"#utility.yul\":17804:17805   */\n      0x00\n        /* \"#utility.yul\":17797:17885   */\n      mstore\n        /* \"#utility.yul\":17904:17908   */\n      0x41\n        /* \"#utility.yul\":17901:17902   */\n      0x04\n        /* \"#utility.yul\":17894:17909   */\n      mstore\n        /* \"#utility.yul\":17928:17932   */\n      0x24\n        /* \"#utility.yul\":17925:17926   */\n      0x00\n        /* \"#utility.yul\":17918:17933   */\n      revert\n\n    auxdata: 0xa26469706673582212202c6ce93e3dae82879718df4172423c3f8c42dbf9b5a32d81a0eff14f459d5d4264736f6c634300081a0033\n}\n",
				"bytecode": {
					"linkReferences": {},
					"object": "608060405262127500600755348015610016575f80fd5b50336040518060400160405280600681526020017f42697374726f00000000000000000000000000000000000000000000000000008152506040518060400160405280600381526020017f42534d0000000000000000000000000000000000000000000000000000000000815250816003908161009391906106fa565b5080600490816100a391906106fa565b5050505f73ffffffffffffffffffffffffffffffffffffffff168173ffffffffffffffffffffffffffffffffffffffff1603610116575f6040517f1e4fbdf700000000000000000000000000000000000000000000000000000000815260040161010d9190610808565b60405180910390fd5b6101258161015f60201b60201c565b50610141306a01bcb13a657b263880000061022260201b60201c565b6a01bcb13a657b263880000060088190555042600a819055506108de565b5f60055f9054906101000a900473ffffffffffffffffffffffffffffffffffffffff1690508160055f6101000a81548173ffffffffffffffffffffffffffffffffffffffff021916908373ffffffffffffffffffffffffffffffffffffffff1602179055508173ffffffffffffffffffffffffffffffffffffffff168173ffffffffffffffffffffffffffffffffffffffff167f8be0079c531659141344cd1fd0a4f28419497f9722a3daafe3b4186f6b6457e060405160405180910390a35050565b5f73ffffffffffffffffffffffffffffffffffffffff168273ffffffffffffffffffffffffffffffffffffffff1603610292575f6040517fec442f050000000000000000000000000000000000000000000000000000000081526004016102899190610808565b60405180910390fd5b6102a35f83836102a760201b60201c565b5050565b5f73ffffffffffffffffffffffffffffffffffffffff168373ffffffffffffffffffffffffffffffffffffffff16036102f7578060025f8282546102eb919061084e565b925050819055506103c5565b5f805f8573ffffffffffffffffffffffffffffffffffffffff1673ffffffffffffffffffffffffffffffffffffffff1681526020019081526020015f2054905081811015610380578381836040517fe450d38c00000000000000000000000000000000000000000000000000000000815260040161037793929190610890565b60405180910390fd5b8181035f808673ffffffffffffffffffffffffffffffffffffffff1673ffffffffffffffffffffffffffffffffffffffff1681526020019081526020015f2081905550505b5f73ffffffffffffffffffffffffffffffffffffffff168273ffffffffffffffffffffffffffffffffffffffff160361040c578060025f8282540392505081905550610456565b805f808473ffffffffffffffffffffffffffffffffffffffff1673ffffffffffffffffffffffffffffffffffffffff1681526020019081526020015f205f82825401925050819055505b8173ffffffffffffffffffffffffffffffffffffffff168373ffffffffffffffffffffffffffffffffffffffff167fddf252ad1be2c89b69c2b068fc378daa952ba7f163c4a11628f55a4df523b3ef836040516104b391906108c5565b60405180910390a3505050565b5f81519050919050565b7f4e487b71000000000000000000000000000000000000000000000000000000005f52604160045260245ffd5b7f4e487b71000000000000000000000000000000000000000000000000000000005f52602260045260245ffd5b5f600282049050600182168061053b57607f821691505b60208210810361054e5761054d6104f7565b5b50919050565b5f819050815f5260205f209050919050565b5f6020601f8301049050919050565b5f82821b905092915050565b5f600883026105b07fffffffffffffffffffffffffffffffffffffffffffffffffffffffffffffffff82610575565b6105ba8683610575565b95508019841693508086168417925050509392505050565b5f819050919050565b5f819050919050565b5f6105fe6105f96105f4846105d2565b6105db565b6105d2565b9050919050565b5f819050919050565b610617836105e4565b61062b61062382610605565b848454610581565b825550505050565b5f90565b61063f610633565b61064a81848461060e565b505050565b5b8181101561066d576106625f82610637565b600181019050610650565b5050565b601f8211156106b25761068381610554565b61068c84610566565b8101602085101561069b578190505b6106af6106a785610566565b83018261064f565b50505b505050565b5f82821c905092915050565b5f6106d25f19846008026106b7565b1980831691505092915050565b5f6106ea83836106c3565b9150826002028217905092915050565b610703826104c0565b67ffffffffffffffff81111561071c5761071b6104ca565b5b6107268254610524565b610731828285610671565b5f60209050601f831160018114610762575f8415610750578287015190505b61075a85826106df565b8655506107c1565b601f19841661077086610554565b5f5b8281101561079757848901518255600182019150602085019450602081019050610772565b868310156107b457848901516107b0601f8916826106c3565b8355505b6001600288020188555050505b505050505050565b5f73ffffffffffffffffffffffffffffffffffffffff82169050919050565b5f6107f2826107c9565b9050919050565b610802816107e8565b82525050565b5f60208201905061081b5f8301846107f9565b92915050565b7f4e487b71000000000000000000000000000000000000000000000000000000005f52601160045260245ffd5b5f610858826105d2565b9150610863836105d2565b925082820190508082111561087b5761087a610821565b5b92915050565b61088a816105d2565b82525050565b5f6060820190506108a35f8301866107f9565b6108b06020830185610881565b6108bd6040830184610881565b949350505050565b5f6020820190506108d85f830184610881565b92915050565b6123ce806108eb5f395ff3fe608060405234801561000f575f80fd5b5060043610610171575f3560e01c806386d1a69f116100dc578063be9aed0e11610095578063dd62ed3e1161006f578063dd62ed3e14610407578063e10cc83614610437578063f2fde38b14610455578063fa1a5f591461047157610171565b8063be9aed0e146103ad578063c4fe8758146103cb578063cc043928146103e957610171565b806386d1a69f146102fb5780638da5cb5b14610305578063956711e91461032357806395d89b4114610341578063a9059cbb1461035f578063a98ad46c1461038f57610171565b806333e41e331161012e57806333e41e331461024d57806340c10f191461026b578063446303f31461028757806370a08231146102a5578063715018a6146102d55780638603dab3146102df57610171565b806306fdde0314610175578063095ea7b31461019357806318160ddd146101c35780631ad874b4146101e157806323b872dd146101ff578063313ce5671461022f575b5f80fd5b61017d61048f565b60405161018a9190611ace565b60405180910390f35b6101ad60048036038101906101a89190611b7f565b61051f565b6040516101ba9190611bd7565b60405180910390f35b6101cb610541565b6040516101d89190611bff565b60405180910390f35b6101e961054a565b6040516101f69190611bff565b60405180910390f35b61021960048036038101906102149190611c18565b610550565b6040516102269190611bd7565b60405180910390f35b61023761057e565b6040516102449190611c83565b60405180910390f35b610255610586565b6040516102629190611bff565b60405180910390f35b61028560048036038101906102809190611b7f565b61058e565b005b61028f6105a4565b60405161029c9190611bff565b60405180910390f35b6102bf60048036038101906102ba9190611c9c565b6105aa565b6040516102cc9190611bff565b60405180910390f35b6102dd6105ef565b005b6102f960048036038101906102f49190611cc7565b610602565b005b610303610a1c565b005b61030d610eca565b60405161031a9190611d01565b60405180910390f35b61032b610ef2565b6040516103389190611bff565b60405180910390f35b610349610ef9565b6040516103569190611ace565b60405180910390f35b61037960048036038101906103749190611b7f565b610f89565b6040516103869190611bd7565b60405180910390f35b610397610fab565b6040516103a49190611d75565b60405180910390f35b6103b5610fd0565b6040516103c29190611bff565b60405180910390f35b6103d3610fd7565b6040516103e09190611bff565b60405180910390f35b6103f1610fdd565b6040516103fe9190611bff565b60405180910390f35b610421600480360381019061041c9190611d8e565b610fe5565b60405161042e9190611bff565b60405180910390f35b61043f611067565b60405161044c9190611bff565b60405180910390f35b61046f600480360381019061046a9190611c9c565b61106d565b005b6104796110f1565b6040516104869190611bff565b60405180910390f35b60606003805461049e90611df9565b80601f01602080910402602001604051908101604052809291908181526020018280546104ca90611df9565b80156105155780601f106104ec57610100808354040283529160200191610515565b820191905f5260205f20905b8154815290600101906020018083116104f857829003601f168201915b5050505050905090565b5f806105296110f7565b90506105368185856110fe565b600191505092915050565b5f600254905090565b600a5481565b5f8061055a6110f7565b9050610567858285611110565b6105728585856111a2565b60019150509392505050565b5f6012905090565b6301baf80081565b610596611292565b6105a08282611319565b5050565b60085481565b5f805f8373ffffffffffffffffffffffffffffffffffffffff1673ffffffffffffffffffffffffffffffffffffffff1681526020019081526020015f20549050919050565b6105f7611292565b6106005f611398565b565b62127500600a546106139190611e56565b421115610655576040517f08c379a000000000000000000000000000000000000000000000000000000000815260040161064c90611ed3565b60405180910390fd5b806009546106639190611e56565b600854101561068060095460085461067b9190611ef1565b61145b565b6040516020016106909190611ff2565b604051602081830303815290604052906106e0576040517f08c379a00000000000000000000000000000000000000000000000000000000081526004016106d79190611ace565b60405180910390fd5b50620186a081600c5f3373ffffffffffffffffffffffffffffffffffffffff1673ffffffffffffffffffffffffffffffffffffffff1681526020019081526020015f205461072e9190611e56565b111561076f576040517f08c379a00000000000000000000000000000000000000000000000000000000081526004016107669061208e565b60405180910390fd5b5f620f424061c3508361078291906120ac565b61078c919061211a565b90508060065f9054906101000a900473ffffffffffffffffffffffffffffffffffffffff1673ffffffffffffffffffffffffffffffffffffffff166370a08231336040518263ffffffff1660e01b81526004016107e99190611d01565b602060405180830381865afa158015610804573d5f803e3d5ffd5b505050506040513d601f19601f82011682018060405250810190610828919061215e565b1015610869576040517f08c379a0000000000000000000000000000000000000000000000000000000008152600401610860906121d3565b60405180910390fd5b60065f9054906101000a900473ffffffffffffffffffffffffffffffffffffffff1673ffffffffffffffffffffffffffffffffffffffff166323b872dd3330846040518463ffffffff1660e01b81526004016108c7939291906121f1565b6020604051808303815f875af11580156108e3573d5f803e3d5ffd5b505050506040513d601f19601f820116820180604052508101906109079190612250565b505f600c5f3373ffffffffffffffffffffffffffffffffffffffff1673ffffffffffffffffffffffffffffffffffffffff1681526020019081526020015f2054036109ad57600b33908060018154018082558091505060019003905f5260205f20015f9091909190916101000a81548173ffffffffffffffffffffffffffffffffffffffff021916908373ffffffffffffffffffffffffffffffffffffffff1602179055505b81600c5f3373ffffffffffffffffffffffffffffffffffffffff1673ffffffffffffffffffffffffffffffffffffffff1681526020019081526020015f205f8282546109f99190611e56565b925050819055508160095f828254610a119190611e56565b925050819055505050565b610a24611292565b5f62127500600a54610a369190611e56565b42610a419190611ef1565b905062dd7c00811015610a89576040517f08c379a0000000000000000000000000000000000000000000000000000000008152600401610a80906122eb565b60405180910390fd5b5f5b600b80549050811015610ec6575f600b8281548110610aad57610aac612309565b5b905f5260205f20015f9054906101000a900473ffffffffffffffffffffffffffffffffffffffff1690506301baf80083108015610afe57505f600d5f60038110610afa57610af9612309565b5b0154145b15610c2957610b6281600a6002600c5f8673ffffffffffffffffffffffffffffffffffffffff1673ffffffffffffffffffffffffffffffffffffffff1681526020019081526020015f2054610b5391906120ac565b610b5d919061211a565b610f89565b50600a6002600c5f8473ffffffffffffffffffffffffffffffffffffffff1673ffffffffffffffffffffffffffffffffffffffff1681526020019081526020015f2054610baf91906120ac565b610bb9919061211a565b600c5f8373ffffffffffffffffffffffffffffffffffffffff1673ffffffffffffffffffffffffffffffffffffffff1681526020019081526020015f205f828254610c049190611ef1565b925050819055506001600d5f60038110610c2157610c20612309565b5b505050610eb8565b630375f00083108015610c5157505f600d600160038110610c4d57610c4c612309565b5b0154145b15610d7d57610cb581600a6003600c5f8673ffffffffffffffffffffffffffffffffffffffff1673ffffffffffffffffffffffffffffffffffffffff1681526020019081526020015f2054610ca691906120ac565b610cb0919061211a565b610f89565b50600a6003600c5f8473ffffffffffffffffffffffffffffffffffffffff1673ffffffffffffffffffffffffffffffffffffffff1681526020019081526020015f2054610d0291906120ac565b610d0c919061211a565b600c5f8373ffffffffffffffffffffffffffffffffffffffff1673ffffffffffffffffffffffffffffffffffffffff1681526020019081526020015f205f828254610d579190611ef1565b925050819055506001600d600160038110610d7557610d74612309565b5b505050610eb7565b630375f0008310158015610da657505f600d600260038110610da257610da1612309565b5b0154145b15610eb657610dfe816002600c5f8573ffffffffffffffffffffffffffffffffffffffff1673ffffffffffffffffffffffffffffffffffffffff1681526020019081526020015f2054610df9919061211a565b610f89565b506002600c5f8373ffffffffffffffffffffffffffffffffffffffff1673ffffffffffffffffffffffffffffffffffffffff1681526020019081526020015f2054610e49919061211a565b600c5f8373ffffffffffffffffffffffffffffffffffffffff1673ffffffffffffffffffffffffffffffffffffffff1681526020019081526020015f205f828254610e949190611ef1565b925050819055506001600d600260038110610eb257610eb1612309565b5b5050505b5b5b508080600101915050610a8b565b5050565b5f60055f9054906101000a900473ffffffffffffffffffffffffffffffffffffffff16905090565b620186a081565b606060048054610f0890611df9565b80601f0160208091040260200160405190810160405280929190818152602001828054610f3490611df9565b8015610f7f5780601f10610f5657610100808354040283529160200191610f7f565b820191905f5260205f20905b815481529060010190602001808311610f6257829003601f168201915b5050505050905090565b5f80610f936110f7565b9050610fa08185856111a2565b600191505092915050565b60065f9054906101000a900473ffffffffffffffffffffffffffffffffffffffff1681565b62dd7c0081565b61c35081565b630375f00081565b5f60015f8473ffffffffffffffffffffffffffffffffffffffff1673ffffffffffffffffffffffffffffffffffffffff1681526020019081526020015f205f8373ffffffffffffffffffffffffffffffffffffffff1673ffffffffffffffffffffffffffffffffffffffff1681526020019081526020015f2054905092915050565b60075481565b611075611292565b5f73ffffffffffffffffffffffffffffffffffffffff168173ffffffffffffffffffffffffffffffffffffffff16036110e5575f6040517f1e4fbdf70000000000000000000000000000000000000000000000000000000081526004016110dc9190611d01565b60405180910390fd5b6110ee81611398565b50565b60095481565b5f33905090565b61110b8383836001611525565b505050565b5f61111b8484610fe5565b90507fffffffffffffffffffffffffffffffffffffffffffffffffffffffffffffffff811461119c578181101561118d578281836040517ffb8f41b200000000000000000000000000000000000000000000000000000000815260040161118493929190612336565b60405180910390fd5b61119b84848484035f611525565b5b50505050565b5f73ffffffffffffffffffffffffffffffffffffffff168373ffffffffffffffffffffffffffffffffffffffff1603611212575f6040517f96c6fd1e0000000000000000000000000000000000000000000000000000000081526004016112099190611d01565b60405180910390fd5b5f73ffffffffffffffffffffffffffffffffffffffff168273ffffffffffffffffffffffffffffffffffffffff1603611282575f6040517fec442f050000000000000000000000000000000000000000000000000000000081526004016112799190611d01565b60405180910390fd5b61128d8383836116f4565b505050565b61129a6110f7565b73ffffffffffffffffffffffffffffffffffffffff166112b8610eca565b73ffffffffffffffffffffffffffffffffffffffff1614611317576112db6110f7565b6040517f118cdaa700000000000000000000000000000000000000000000000000000000815260040161130e9190611d01565b60405180910390fd5b565b5f73ffffffffffffffffffffffffffffffffffffffff168273ffffffffffffffffffffffffffffffffffffffff1603611389575f6040517fec442f050000000000000000000000000000000000000000000000000000000081526004016113809190611d01565b60405180910390fd5b6113945f83836116f4565b5050565b5f60055f9054906101000a900473ffffffffffffffffffffffffffffffffffffffff1690508160055f6101000a81548173ffffffffffffffffffffffffffffffffffffffff021916908373ffffffffffffffffffffffffffffffffffffffff1602179055508173ffffffffffffffffffffffffffffffffffffffff168173ffffffffffffffffffffffffffffffffffffffff167f8be0079c531659141344cd1fd0a4f28419497f9722a3daafe3b4186f6b6457e060405160405180910390a35050565b60605f60016114698461190d565b0190505f8167ffffffffffffffff8111156114875761148661236b565b5b6040519080825280601f01601f1916602001820160405280156114b95781602001600182028036833780820191505090505b5090505f82602001820190505b60011561151a578080600190039150507f3031323334353637383961626364656600000000000000000000000000000000600a86061a8153600a858161150f5761150e6120ed565b5b0494505f85036114c6575b819350505050919050565b5f73ffffffffffffffffffffffffffffffffffffffff168473ffffffffffffffffffffffffffffffffffffffff1603611595575f6040517fe602df0500000000000000000000000000000000000000000000000000000000815260040161158c9190611d01565b60405180910390fd5b5f73ffffffffffffffffffffffffffffffffffffffff168373ffffffffffffffffffffffffffffffffffffffff1603611605575f6040517f94280d620000000000000000000000000000000000000000000000000000000081526004016115fc9190611d01565b60405180910390fd5b8160015f8673ffffffffffffffffffffffffffffffffffffffff1673ffffffffffffffffffffffffffffffffffffffff1681526020019081526020015f205f8573ffffffffffffffffffffffffffffffffffffffff1673ffffffffffffffffffffffffffffffffffffffff1681526020019081526020015f208190555080156116ee578273ffffffffffffffffffffffffffffffffffffffff168473ffffffffffffffffffffffffffffffffffffffff167f8c5be1e5ebec7d5bd14f71427d1e84f3dd0314c0f7b2291e5b200ac8c7c3b925846040516116e59190611bff565b60405180910390a35b50505050565b5f73ffffffffffffffffffffffffffffffffffffffff168373ffffffffffffffffffffffffffffffffffffffff1603611744578060025f8282546117389190611e56565b92505081905550611812565b5f805f8573ffffffffffffffffffffffffffffffffffffffff1673ffffffffffffffffffffffffffffffffffffffff1681526020019081526020015f20549050818110156117cd578381836040517fe450d38c0000000000000000000000000000000000000000000000000000000081526004016117c493929190612336565b60405180910390fd5b8181035f808673ffffffffffffffffffffffffffffffffffffffff1673ffffffffffffffffffffffffffffffffffffffff1681526020019081526020015f2081905550505b5f73ffffffffffffffffffffffffffffffffffffffff168273ffffffffffffffffffffffffffffffffffffffff1603611859578060025f82825403925050819055506118a3565b805f808473ffffffffffffffffffffffffffffffffffffffff1673ffffffffffffffffffffffffffffffffffffffff1681526020019081526020015f205f82825401925050819055505b8173ffffffffffffffffffffffffffffffffffffffff168373ffffffffffffffffffffffffffffffffffffffff167fddf252ad1be2c89b69c2b068fc378daa952ba7f163c4a11628f55a4df523b3ef836040516119009190611bff565b60405180910390a3505050565b5f805f90507a184f03e93ff9f4daa797ed6e38ed64bf6a1f0100000000000000008310611969577a184f03e93ff9f4daa797ed6e38ed64bf6a1f010000000000000000838161195f5761195e6120ed565b5b0492506040810190505b6d04ee2d6d415b85acef810000000083106119a6576d04ee2d6d415b85acef8100000000838161199c5761199b6120ed565b5b0492506020810190505b662386f26fc1000083106119d557662386f26fc1000083816119cb576119ca6120ed565b5b0492506010810190505b6305f5e10083106119fe576305f5e10083816119f4576119f36120ed565b5b0492506008810190505b6127108310611a23576127108381611a1957611a186120ed565b5b0492506004810190505b60648310611a465760648381611a3c57611a3b6120ed565b5b0492506002810190505b600a8310611a55576001810190505b80915050919050565b5f81519050919050565b5f82825260208201905092915050565b8281835e5f83830152505050565b5f601f19601f8301169050919050565b5f611aa082611a5e565b611aaa8185611a68565b9350611aba818560208601611a78565b611ac381611a86565b840191505092915050565b5f6020820190508181035f830152611ae68184611a96565b905092915050565b5f80fd5b5f73ffffffffffffffffffffffffffffffffffffffff82169050919050565b5f611b1b82611af2565b9050919050565b611b2b81611b11565b8114611b35575f80fd5b50565b5f81359050611b4681611b22565b92915050565b5f819050919050565b611b5e81611b4c565b8114611b68575f80fd5b50565b5f81359050611b7981611b55565b92915050565b5f8060408385031215611b9557611b94611aee565b5b5f611ba285828601611b38565b9250506020611bb385828601611b6b565b9150509250929050565b5f8115159050919050565b611bd181611bbd565b82525050565b5f602082019050611bea5f830184611bc8565b92915050565b611bf981611b4c565b82525050565b5f602082019050611c125f830184611bf0565b92915050565b5f805f60608486031215611c2f57611c2e611aee565b5b5f611c3c86828701611b38565b9350506020611c4d86828701611b38565b9250506040611c5e86828701611b6b565b9150509250925092565b5f60ff82169050919050565b611c7d81611c68565b82525050565b5f602082019050611c965f830184611c74565b92915050565b5f60208284031215611cb157611cb0611aee565b5b5f611cbe84828501611b38565b91505092915050565b5f60208284031215611cdc57611cdb611aee565b5b5f611ce984828501611b6b565b91505092915050565b611cfb81611b11565b82525050565b5f602082019050611d145f830184611cf2565b92915050565b5f819050919050565b5f611d3d611d38611d3384611af2565b611d1a565b611af2565b9050919050565b5f611d4e82611d23565b9050919050565b5f611d5f82611d44565b9050919050565b611d6f81611d55565b82525050565b5f602082019050611d885f830184611d66565b92915050565b5f8060408385031215611da457611da3611aee565b5b5f611db185828601611b38565b9250506020611dc285828601611b38565b9150509250929050565b7f4e487b71000000000000000000000000000000000000000000000000000000005f52602260045260245ffd5b5f6002820490506001821680611e1057607f821691505b602082108103611e2357611e22611dcc565b5b50919050565b7f4e487b71000000000000000000000000000000000000000000000000000000005f52601160045260245ffd5b5f611e6082611b4c565b9150611e6b83611b4c565b9250828201905080821115611e8357611e82611e29565b5b92915050565b7f70726573616c65206973206f76657200000000000000000000000000000000005f82015250565b5f611ebd600f83611a68565b9150611ec882611e89565b602082019050919050565b5f6020820190508181035f830152611eea81611eb1565b9050919050565b5f611efb82611b4c565b9150611f0683611b4c565b9250828203905081811115611f1e57611f1d611e29565b5b92915050565b5f81905092915050565b7f4f6e6c79200000000000000000000000000000000000000000000000000000005f82015250565b5f611f62600583611f24565b9150611f6d82611f2e565b600582019050919050565b5f611f8282611a5e565b611f8c8185611f24565b9350611f9c818560208601611a78565b80840191505092915050565b7f2042534d20417661696c61626c650000000000000000000000000000000000005f82015250565b5f611fdc600e83611f24565b9150611fe782611fa8565b600e82019050919050565b5f611ffc82611f56565b91506120088284611f78565b915061201382611fd0565b915081905092915050565b7f5072652d53616c657320546f6b656e20616d6f756e742063616e6e6f742065785f8201527f6365656420313030303030000000000000000000000000000000000000000000602082015250565b5f612078602b83611a68565b91506120838261201e565b604082019050919050565b5f6020820190508181035f8301526120a58161206c565b9050919050565b5f6120b682611b4c565b91506120c183611b4c565b92508282026120cf81611b4c565b915082820484148315176120e6576120e5611e29565b5b5092915050565b7f4e487b71000000000000000000000000000000000000000000000000000000005f52601260045260245ffd5b5f61212482611b4c565b915061212f83611b4c565b92508261213f5761213e6120ed565b5b828204905092915050565b5f8151905061215881611b55565b92915050565b5f6020828403121561217357612172611aee565b5b5f6121808482850161214a565b91505092915050565b7f6e656564206d6f726520555344540000000000000000000000000000000000005f82015250565b5f6121bd600e83611a68565b91506121c882612189565b602082019050919050565b5f6020820190508181035f8301526121ea816121b1565b9050919050565b5f6060820190506122045f830186611cf2565b6122116020830185611cf2565b61221e6040830184611bf0565b949350505050565b61222f81611bbd565b8114612239575f80fd5b50565b5f8151905061224a81612226565b92915050565b5f6020828403121561226557612264611aee565b5b5f6122728482850161223c565b91505092915050565b7f52656c65617365642061667465722036206d6f6e746873206f662070726976615f8201527f74652073616c6573000000000000000000000000000000000000000000000000602082015250565b5f6122d5602883611a68565b91506122e08261227b565b604082019050919050565b5f6020820190508181035f830152612302816122c9565b9050919050565b7f4e487b71000000000000000000000000000000000000000000000000000000005f52603260045260245ffd5b5f6060820190506123495f830186611cf2565b6123566020830185611bf0565b6123636040830184611bf0565b949350505050565b7f4e487b71000000000000000000000000000000000000000000000000000000005f52604160045260245ffdfea26469706673582212202c6ce93e3dae82879718df4172423c3f8c42dbf9b5a32d81a0eff14f459d5d4264736f6c634300081a0033",
					"opcodes": "PUSH1 0x80 PUSH1 0x40 MSTORE PUSH3 0x127500 PUSH1 0x7 SSTORE CALLVALUE DUP1 ISZERO PUSH2 0x16 JUMPI PUSH0 DUP1 REVERT JUMPDEST POP CALLER PUSH1 0x40 MLOAD DUP1 PUSH1 0x40 ADD PUSH1 0x40 MSTORE DUP1 PUSH1 0x6 DUP2 MSTORE PUSH1 0x20 ADD PUSH32 0x42697374726F0000000000000000000000000000000000000000000000000000 DUP2 MSTORE POP PUSH1 0x40 MLOAD DUP1 PUSH1 0x40 ADD PUSH1 0x40 MSTORE DUP1 PUSH1 0x3 DUP2 MSTORE PUSH1 0x20 ADD PUSH32 0x42534D0000000000000000000000000000000000000000000000000000000000 DUP2 MSTORE POP DUP2 PUSH1 0x3 SWAP1 DUP2 PUSH2 0x93 SWAP2 SWAP1 PUSH2 0x6FA JUMP JUMPDEST POP DUP1 PUSH1 0x4 SWAP1 DUP2 PUSH2 0xA3 SWAP2 SWAP1 PUSH2 0x6FA JUMP JUMPDEST POP POP POP PUSH0 PUSH20 0xFFFFFFFFFFFFFFFFFFFFFFFFFFFFFFFFFFFFFFFF AND DUP2 PUSH20 0xFFFFFFFFFFFFFFFFFFFFFFFFFFFFFFFFFFFFFFFF AND SUB PUSH2 0x116 JUMPI PUSH0 PUSH1 0x40 MLOAD PUSH32 0x1E4FBDF700000000000000000000000000000000000000000000000000000000 DUP2 MSTORE PUSH1 0x4 ADD PUSH2 0x10D SWAP2 SWAP1 PUSH2 0x808 JUMP JUMPDEST PUSH1 0x40 MLOAD DUP1 SWAP2 SUB SWAP1 REVERT JUMPDEST PUSH2 0x125 DUP2 PUSH2 0x15F PUSH1 0x20 SHL PUSH1 0x20 SHR JUMP JUMPDEST POP PUSH2 0x141 ADDRESS PUSH11 0x1BCB13A657B2638800000 PUSH2 0x222 PUSH1 0x20 SHL PUSH1 0x20 SHR JUMP JUMPDEST PUSH11 0x1BCB13A657B2638800000 PUSH1 0x8 DUP2 SWAP1 SSTORE POP TIMESTAMP PUSH1 0xA DUP2 SWAP1 SSTORE POP PUSH2 0x8DE JUMP JUMPDEST PUSH0 PUSH1 0x5 PUSH0 SWAP1 SLOAD SWAP1 PUSH2 0x100 EXP SWAP1 DIV PUSH20 0xFFFFFFFFFFFFFFFFFFFFFFFFFFFFFFFFFFFFFFFF AND SWAP1 POP DUP2 PUSH1 0x5 PUSH0 PUSH2 0x100 EXP DUP2 SLOAD DUP2 PUSH20 0xFFFFFFFFFFFFFFFFFFFFFFFFFFFFFFFFFFFFFFFF MUL NOT AND SWAP1 DUP4 PUSH20 0xFFFFFFFFFFFFFFFFFFFFFFFFFFFFFFFFFFFFFFFF AND MUL OR SWAP1 SSTORE POP DUP2 PUSH20 0xFFFFFFFFFFFFFFFFFFFFFFFFFFFFFFFFFFFFFFFF AND DUP2 PUSH20 0xFFFFFFFFFFFFFFFFFFFFFFFFFFFFFFFFFFFFFFFF AND PUSH32 0x8BE0079C531659141344CD1FD0A4F28419497F9722A3DAAFE3B4186F6B6457E0 PUSH1 0x40 MLOAD PUSH1 0x40 MLOAD DUP1 SWAP2 SUB SWAP1 LOG3 POP POP JUMP JUMPDEST PUSH0 PUSH20 0xFFFFFFFFFFFFFFFFFFFFFFFFFFFFFFFFFFFFFFFF AND DUP3 PUSH20 0xFFFFFFFFFFFFFFFFFFFFFFFFFFFFFFFFFFFFFFFF AND SUB PUSH2 0x292 JUMPI PUSH0 PUSH1 0x40 MLOAD PUSH32 0xEC442F0500000000000000000000000000000000000000000000000000000000 DUP2 MSTORE PUSH1 0x4 ADD PUSH2 0x289 SWAP2 SWAP1 PUSH2 0x808 JUMP JUMPDEST PUSH1 0x40 MLOAD DUP1 SWAP2 SUB SWAP1 REVERT JUMPDEST PUSH2 0x2A3 PUSH0 DUP4 DUP4 PUSH2 0x2A7 PUSH1 0x20 SHL PUSH1 0x20 SHR JUMP JUMPDEST POP POP JUMP JUMPDEST PUSH0 PUSH20 0xFFFFFFFFFFFFFFFFFFFFFFFFFFFFFFFFFFFFFFFF AND DUP4 PUSH20 0xFFFFFFFFFFFFFFFFFFFFFFFFFFFFFFFFFFFFFFFF AND SUB PUSH2 0x2F7 JUMPI DUP1 PUSH1 0x2 PUSH0 DUP3 DUP3 SLOAD PUSH2 0x2EB SWAP2 SWAP1 PUSH2 0x84E JUMP JUMPDEST SWAP3 POP POP DUP2 SWAP1 SSTORE POP PUSH2 0x3C5 JUMP JUMPDEST PUSH0 DUP1 PUSH0 DUP6 PUSH20 0xFFFFFFFFFFFFFFFFFFFFFFFFFFFFFFFFFFFFFFFF AND PUSH20 0xFFFFFFFFFFFFFFFFFFFFFFFFFFFFFFFFFFFFFFFF AND DUP2 MSTORE PUSH1 0x20 ADD SWAP1 DUP2 MSTORE PUSH1 0x20 ADD PUSH0 KECCAK256 SLOAD SWAP1 POP DUP2 DUP2 LT ISZERO PUSH2 0x380 JUMPI DUP4 DUP2 DUP4 PUSH1 0x40 MLOAD PUSH32 0xE450D38C00000000000000000000000000000000000000000000000000000000 DUP2 MSTORE PUSH1 0x4 ADD PUSH2 0x377 SWAP4 SWAP3 SWAP2 SWAP1 PUSH2 0x890 JUMP JUMPDEST PUSH1 0x40 MLOAD DUP1 SWAP2 SUB SWAP1 REVERT JUMPDEST DUP2 DUP2 SUB PUSH0 DUP1 DUP7 PUSH20 0xFFFFFFFFFFFFFFFFFFFFFFFFFFFFFFFFFFFFFFFF AND PUSH20 0xFFFFFFFFFFFFFFFFFFFFFFFFFFFFFFFFFFFFFFFF AND DUP2 MSTORE PUSH1 0x20 ADD SWAP1 DUP2 MSTORE PUSH1 0x20 ADD PUSH0 KECCAK256 DUP2 SWAP1 SSTORE POP POP JUMPDEST PUSH0 PUSH20 0xFFFFFFFFFFFFFFFFFFFFFFFFFFFFFFFFFFFFFFFF AND DUP3 PUSH20 0xFFFFFFFFFFFFFFFFFFFFFFFFFFFFFFFFFFFFFFFF AND SUB PUSH2 0x40C JUMPI DUP1 PUSH1 0x2 PUSH0 DUP3 DUP3 SLOAD SUB SWAP3 POP POP DUP2 SWAP1 SSTORE POP PUSH2 0x456 JUMP JUMPDEST DUP1 PUSH0 DUP1 DUP5 PUSH20 0xFFFFFFFFFFFFFFFFFFFFFFFFFFFFFFFFFFFFFFFF AND PUSH20 0xFFFFFFFFFFFFFFFFFFFFFFFFFFFFFFFFFFFFFFFF AND DUP2 MSTORE PUSH1 0x20 ADD SWAP1 DUP2 MSTORE PUSH1 0x20 ADD PUSH0 KECCAK256 PUSH0 DUP3 DUP3 SLOAD ADD SWAP3 POP POP DUP2 SWAP1 SSTORE POP JUMPDEST DUP2 PUSH20 0xFFFFFFFFFFFFFFFFFFFFFFFFFFFFFFFFFFFFFFFF AND DUP4 PUSH20 0xFFFFFFFFFFFFFFFFFFFFFFFFFFFFFFFFFFFFFFFF AND PUSH32 0xDDF252AD1BE2C89B69C2B068FC378DAA952BA7F163C4A11628F55A4DF523B3EF DUP4 PUSH1 0x40 MLOAD PUSH2 0x4B3 SWAP2 SWAP1 PUSH2 0x8C5 JUMP JUMPDEST PUSH1 0x40 MLOAD DUP1 SWAP2 SUB SWAP1 LOG3 POP POP POP JUMP JUMPDEST PUSH0 DUP2 MLOAD SWAP1 POP SWAP2 SWAP1 POP JUMP JUMPDEST PUSH32 0x4E487B7100000000000000000000000000000000000000000000000000000000 PUSH0 MSTORE PUSH1 0x41 PUSH1 0x4 MSTORE PUSH1 0x24 PUSH0 REVERT JUMPDEST PUSH32 0x4E487B7100000000000000000000000000000000000000000000000000000000 PUSH0 MSTORE PUSH1 0x22 PUSH1 0x4 MSTORE PUSH1 0x24 PUSH0 REVERT JUMPDEST PUSH0 PUSH1 0x2 DUP3 DIV SWAP1 POP PUSH1 0x1 DUP3 AND DUP1 PUSH2 0x53B JUMPI PUSH1 0x7F DUP3 AND SWAP2 POP JUMPDEST PUSH1 0x20 DUP3 LT DUP2 SUB PUSH2 0x54E JUMPI PUSH2 0x54D PUSH2 0x4F7 JUMP JUMPDEST JUMPDEST POP SWAP2 SWAP1 POP JUMP JUMPDEST PUSH0 DUP2 SWAP1 POP DUP2 PUSH0 MSTORE PUSH1 0x20 PUSH0 KECCAK256 SWAP1 POP SWAP2 SWAP1 POP JUMP JUMPDEST PUSH0 PUSH1 0x20 PUSH1 0x1F DUP4 ADD DIV SWAP1 POP SWAP2 SWAP1 POP JUMP JUMPDEST PUSH0 DUP3 DUP3 SHL SWAP1 POP SWAP3 SWAP2 POP POP JUMP JUMPDEST PUSH0 PUSH1 0x8 DUP4 MUL PUSH2 0x5B0 PUSH32 0xFFFFFFFFFFFFFFFFFFFFFFFFFFFFFFFFFFFFFFFFFFFFFFFFFFFFFFFFFFFFFFFF DUP3 PUSH2 0x575 JUMP JUMPDEST PUSH2 0x5BA DUP7 DUP4 PUSH2 0x575 JUMP JUMPDEST SWAP6 POP DUP1 NOT DUP5 AND SWAP4 POP DUP1 DUP7 AND DUP5 OR SWAP3 POP POP POP SWAP4 SWAP3 POP POP POP JUMP JUMPDEST PUSH0 DUP2 SWAP1 POP SWAP2 SWAP1 POP JUMP JUMPDEST PUSH0 DUP2 SWAP1 POP SWAP2 SWAP1 POP JUMP JUMPDEST PUSH0 PUSH2 0x5FE PUSH2 0x5F9 PUSH2 0x5F4 DUP5 PUSH2 0x5D2 JUMP JUMPDEST PUSH2 0x5DB JUMP JUMPDEST PUSH2 0x5D2 JUMP JUMPDEST SWAP1 POP SWAP2 SWAP1 POP JUMP JUMPDEST PUSH0 DUP2 SWAP1 POP SWAP2 SWAP1 POP JUMP JUMPDEST PUSH2 0x617 DUP4 PUSH2 0x5E4 JUMP JUMPDEST PUSH2 0x62B PUSH2 0x623 DUP3 PUSH2 0x605 JUMP JUMPDEST DUP5 DUP5 SLOAD PUSH2 0x581 JUMP JUMPDEST DUP3 SSTORE POP POP POP POP JUMP JUMPDEST PUSH0 SWAP1 JUMP JUMPDEST PUSH2 0x63F PUSH2 0x633 JUMP JUMPDEST PUSH2 0x64A DUP2 DUP5 DUP5 PUSH2 0x60E JUMP JUMPDEST POP POP POP JUMP JUMPDEST JUMPDEST DUP2 DUP2 LT ISZERO PUSH2 0x66D JUMPI PUSH2 0x662 PUSH0 DUP3 PUSH2 0x637 JUMP JUMPDEST PUSH1 0x1 DUP2 ADD SWAP1 POP PUSH2 0x650 JUMP JUMPDEST POP POP JUMP JUMPDEST PUSH1 0x1F DUP3 GT ISZERO PUSH2 0x6B2 JUMPI PUSH2 0x683 DUP2 PUSH2 0x554 JUMP JUMPDEST PUSH2 0x68C DUP5 PUSH2 0x566 JUMP JUMPDEST DUP2 ADD PUSH1 0x20 DUP6 LT ISZERO PUSH2 0x69B JUMPI DUP2 SWAP1 POP JUMPDEST PUSH2 0x6AF PUSH2 0x6A7 DUP6 PUSH2 0x566 JUMP JUMPDEST DUP4 ADD DUP3 PUSH2 0x64F JUMP JUMPDEST POP POP JUMPDEST POP POP POP JUMP JUMPDEST PUSH0 DUP3 DUP3 SHR SWAP1 POP SWAP3 SWAP2 POP POP JUMP JUMPDEST PUSH0 PUSH2 0x6D2 PUSH0 NOT DUP5 PUSH1 0x8 MUL PUSH2 0x6B7 JUMP JUMPDEST NOT DUP1 DUP4 AND SWAP2 POP POP SWAP3 SWAP2 POP POP JUMP JUMPDEST PUSH0 PUSH2 0x6EA DUP4 DUP4 PUSH2 0x6C3 JUMP JUMPDEST SWAP2 POP DUP3 PUSH1 0x2 MUL DUP3 OR SWAP1 POP SWAP3 SWAP2 POP POP JUMP JUMPDEST PUSH2 0x703 DUP3 PUSH2 0x4C0 JUMP JUMPDEST PUSH8 0xFFFFFFFFFFFFFFFF DUP2 GT ISZERO PUSH2 0x71C JUMPI PUSH2 0x71B PUSH2 0x4CA JUMP JUMPDEST JUMPDEST PUSH2 0x726 DUP3 SLOAD PUSH2 0x524 JUMP JUMPDEST PUSH2 0x731 DUP3 DUP3 DUP6 PUSH2 0x671 JUMP JUMPDEST PUSH0 PUSH1 0x20 SWAP1 POP PUSH1 0x1F DUP4 GT PUSH1 0x1 DUP2 EQ PUSH2 0x762 JUMPI PUSH0 DUP5 ISZERO PUSH2 0x750 JUMPI DUP3 DUP8 ADD MLOAD SWAP1 POP JUMPDEST PUSH2 0x75A DUP6 DUP3 PUSH2 0x6DF JUMP JUMPDEST DUP7 SSTORE POP PUSH2 0x7C1 JUMP JUMPDEST PUSH1 0x1F NOT DUP5 AND PUSH2 0x770 DUP7 PUSH2 0x554 JUMP JUMPDEST PUSH0 JUMPDEST DUP3 DUP2 LT ISZERO PUSH2 0x797 JUMPI DUP5 DUP10 ADD MLOAD DUP3 SSTORE PUSH1 0x1 DUP3 ADD SWAP2 POP PUSH1 0x20 DUP6 ADD SWAP5 POP PUSH1 0x20 DUP2 ADD SWAP1 POP PUSH2 0x772 JUMP JUMPDEST DUP7 DUP4 LT ISZERO PUSH2 0x7B4 JUMPI DUP5 DUP10 ADD MLOAD PUSH2 0x7B0 PUSH1 0x1F DUP10 AND DUP3 PUSH2 0x6C3 JUMP JUMPDEST DUP4 SSTORE POP JUMPDEST PUSH1 0x1 PUSH1 0x2 DUP9 MUL ADD DUP9 SSTORE POP POP POP JUMPDEST POP POP POP POP POP POP JUMP JUMPDEST PUSH0 PUSH20 0xFFFFFFFFFFFFFFFFFFFFFFFFFFFFFFFFFFFFFFFF DUP3 AND SWAP1 POP SWAP2 SWAP1 POP JUMP JUMPDEST PUSH0 PUSH2 0x7F2 DUP3 PUSH2 0x7C9 JUMP JUMPDEST SWAP1 POP SWAP2 SWAP1 POP JUMP JUMPDEST PUSH2 0x802 DUP2 PUSH2 0x7E8 JUMP JUMPDEST DUP3 MSTORE POP POP JUMP JUMPDEST PUSH0 PUSH1 0x20 DUP3 ADD SWAP1 POP PUSH2 0x81B PUSH0 DUP4 ADD DUP5 PUSH2 0x7F9 JUMP JUMPDEST SWAP3 SWAP2 POP POP JUMP JUMPDEST PUSH32 0x4E487B7100000000000000000000000000000000000000000000000000000000 PUSH0 MSTORE PUSH1 0x11 PUSH1 0x4 MSTORE PUSH1 0x24 PUSH0 REVERT JUMPDEST PUSH0 PUSH2 0x858 DUP3 PUSH2 0x5D2 JUMP JUMPDEST SWAP2 POP PUSH2 0x863 DUP4 PUSH2 0x5D2 JUMP JUMPDEST SWAP3 POP DUP3 DUP3 ADD SWAP1 POP DUP1 DUP3 GT ISZERO PUSH2 0x87B JUMPI PUSH2 0x87A PUSH2 0x821 JUMP JUMPDEST JUMPDEST SWAP3 SWAP2 POP POP JUMP JUMPDEST PUSH2 0x88A DUP2 PUSH2 0x5D2 JUMP JUMPDEST DUP3 MSTORE POP POP JUMP JUMPDEST PUSH0 PUSH1 0x60 DUP3 ADD SWAP1 POP PUSH2 0x8A3 PUSH0 DUP4 ADD DUP7 PUSH2 0x7F9 JUMP JUMPDEST PUSH2 0x8B0 PUSH1 0x20 DUP4 ADD DUP6 PUSH2 0x881 JUMP JUMPDEST PUSH2 0x8BD PUSH1 0x40 DUP4 ADD DUP5 PUSH2 0x881 JUMP JUMPDEST SWAP5 SWAP4 POP POP POP POP JUMP JUMPDEST PUSH0 PUSH1 0x20 DUP3 ADD SWAP1 POP PUSH2 0x8D8 PUSH0 DUP4 ADD DUP5 PUSH2 0x881 JUMP JUMPDEST SWAP3 SWAP2 POP POP JUMP JUMPDEST PUSH2 0x23CE DUP1 PUSH2 0x8EB PUSH0 CODECOPY PUSH0 RETURN INVALID PUSH1 0x80 PUSH1 0x40 MSTORE CALLVALUE DUP1 ISZERO PUSH2 0xF JUMPI PUSH0 DUP1 REVERT JUMPDEST POP PUSH1 0x4 CALLDATASIZE LT PUSH2 0x171 JUMPI PUSH0 CALLDATALOAD PUSH1 0xE0 SHR DUP1 PUSH4 0x86D1A69F GT PUSH2 0xDC JUMPI DUP1 PUSH4 0xBE9AED0E GT PUSH2 0x95 JUMPI DUP1 PUSH4 0xDD62ED3E GT PUSH2 0x6F JUMPI DUP1 PUSH4 0xDD62ED3E EQ PUSH2 0x407 JUMPI DUP1 PUSH4 0xE10CC836 EQ PUSH2 0x437 JUMPI DUP1 PUSH4 0xF2FDE38B EQ PUSH2 0x455 JUMPI DUP1 PUSH4 0xFA1A5F59 EQ PUSH2 0x471 JUMPI PUSH2 0x171 JUMP JUMPDEST DUP1 PUSH4 0xBE9AED0E EQ PUSH2 0x3AD JUMPI DUP1 PUSH4 0xC4FE8758 EQ PUSH2 0x3CB JUMPI DUP1 PUSH4 0xCC043928 EQ PUSH2 0x3E9 JUMPI PUSH2 0x171 JUMP JUMPDEST DUP1 PUSH4 0x86D1A69F EQ PUSH2 0x2FB JUMPI DUP1 PUSH4 0x8DA5CB5B EQ PUSH2 0x305 JUMPI DUP1 PUSH4 0x956711E9 EQ PUSH2 0x323 JUMPI DUP1 PUSH4 0x95D89B41 EQ PUSH2 0x341 JUMPI DUP1 PUSH4 0xA9059CBB EQ PUSH2 0x35F JUMPI DUP1 PUSH4 0xA98AD46C EQ PUSH2 0x38F JUMPI PUSH2 0x171 JUMP JUMPDEST DUP1 PUSH4 0x33E41E33 GT PUSH2 0x12E JUMPI DUP1 PUSH4 0x33E41E33 EQ PUSH2 0x24D JUMPI DUP1 PUSH4 0x40C10F19 EQ PUSH2 0x26B JUMPI DUP1 PUSH4 0x446303F3 EQ PUSH2 0x287 JUMPI DUP1 PUSH4 0x70A08231 EQ PUSH2 0x2A5 JUMPI DUP1 PUSH4 0x715018A6 EQ PUSH2 0x2D5 JUMPI DUP1 PUSH4 0x8603DAB3 EQ PUSH2 0x2DF JUMPI PUSH2 0x171 JUMP JUMPDEST DUP1 PUSH4 0x6FDDE03 EQ PUSH2 0x175 JUMPI DUP1 PUSH4 0x95EA7B3 EQ PUSH2 0x193 JUMPI DUP1 PUSH4 0x18160DDD EQ PUSH2 0x1C3 JUMPI DUP1 PUSH4 0x1AD874B4 EQ PUSH2 0x1E1 JUMPI DUP1 PUSH4 0x23B872DD EQ PUSH2 0x1FF JUMPI DUP1 PUSH4 0x313CE567 EQ PUSH2 0x22F JUMPI JUMPDEST PUSH0 DUP1 REVERT JUMPDEST PUSH2 0x17D PUSH2 0x48F JUMP JUMPDEST PUSH1 0x40 MLOAD PUSH2 0x18A SWAP2 SWAP1 PUSH2 0x1ACE JUMP JUMPDEST PUSH1 0x40 MLOAD DUP1 SWAP2 SUB SWAP1 RETURN JUMPDEST PUSH2 0x1AD PUSH1 0x4 DUP1 CALLDATASIZE SUB DUP2 ADD SWAP1 PUSH2 0x1A8 SWAP2 SWAP1 PUSH2 0x1B7F JUMP JUMPDEST PUSH2 0x51F JUMP JUMPDEST PUSH1 0x40 MLOAD PUSH2 0x1BA SWAP2 SWAP1 PUSH2 0x1BD7 JUMP JUMPDEST PUSH1 0x40 MLOAD DUP1 SWAP2 SUB SWAP1 RETURN JUMPDEST PUSH2 0x1CB PUSH2 0x541 JUMP JUMPDEST PUSH1 0x40 MLOAD PUSH2 0x1D8 SWAP2 SWAP1 PUSH2 0x1BFF JUMP JUMPDEST PUSH1 0x40 MLOAD DUP1 SWAP2 SUB SWAP1 RETURN JUMPDEST PUSH2 0x1E9 PUSH2 0x54A JUMP JUMPDEST PUSH1 0x40 MLOAD PUSH2 0x1F6 SWAP2 SWAP1 PUSH2 0x1BFF JUMP JUMPDEST PUSH1 0x40 MLOAD DUP1 SWAP2 SUB SWAP1 RETURN JUMPDEST PUSH2 0x219 PUSH1 0x4 DUP1 CALLDATASIZE SUB DUP2 ADD SWAP1 PUSH2 0x214 SWAP2 SWAP1 PUSH2 0x1C18 JUMP JUMPDEST PUSH2 0x550 JUMP JUMPDEST PUSH1 0x40 MLOAD PUSH2 0x226 SWAP2 SWAP1 PUSH2 0x1BD7 JUMP JUMPDEST PUSH1 0x40 MLOAD DUP1 SWAP2 SUB SWAP1 RETURN JUMPDEST PUSH2 0x237 PUSH2 0x57E JUMP JUMPDEST PUSH1 0x40 MLOAD PUSH2 0x244 SWAP2 SWAP1 PUSH2 0x1C83 JUMP JUMPDEST PUSH1 0x40 MLOAD DUP1 SWAP2 SUB SWAP1 RETURN JUMPDEST PUSH2 0x255 PUSH2 0x586 JUMP JUMPDEST PUSH1 0x40 MLOAD PUSH2 0x262 SWAP2 SWAP1 PUSH2 0x1BFF JUMP JUMPDEST PUSH1 0x40 MLOAD DUP1 SWAP2 SUB SWAP1 RETURN JUMPDEST PUSH2 0x285 PUSH1 0x4 DUP1 CALLDATASIZE SUB DUP2 ADD SWAP1 PUSH2 0x280 SWAP2 SWAP1 PUSH2 0x1B7F JUMP JUMPDEST PUSH2 0x58E JUMP JUMPDEST STOP JUMPDEST PUSH2 0x28F PUSH2 0x5A4 JUMP JUMPDEST PUSH1 0x40 MLOAD PUSH2 0x29C SWAP2 SWAP1 PUSH2 0x1BFF JUMP JUMPDEST PUSH1 0x40 MLOAD DUP1 SWAP2 SUB SWAP1 RETURN JUMPDEST PUSH2 0x2BF PUSH1 0x4 DUP1 CALLDATASIZE SUB DUP2 ADD SWAP1 PUSH2 0x2BA SWAP2 SWAP1 PUSH2 0x1C9C JUMP JUMPDEST PUSH2 0x5AA JUMP JUMPDEST PUSH1 0x40 MLOAD PUSH2 0x2CC SWAP2 SWAP1 PUSH2 0x1BFF JUMP JUMPDEST PUSH1 0x40 MLOAD DUP1 SWAP2 SUB SWAP1 RETURN JUMPDEST PUSH2 0x2DD PUSH2 0x5EF JUMP JUMPDEST STOP JUMPDEST PUSH2 0x2F9 PUSH1 0x4 DUP1 CALLDATASIZE SUB DUP2 ADD SWAP1 PUSH2 0x2F4 SWAP2 SWAP1 PUSH2 0x1CC7 JUMP JUMPDEST PUSH2 0x602 JUMP JUMPDEST STOP JUMPDEST PUSH2 0x303 PUSH2 0xA1C JUMP JUMPDEST STOP JUMPDEST PUSH2 0x30D PUSH2 0xECA JUMP JUMPDEST PUSH1 0x40 MLOAD PUSH2 0x31A SWAP2 SWAP1 PUSH2 0x1D01 JUMP JUMPDEST PUSH1 0x40 MLOAD DUP1 SWAP2 SUB SWAP1 RETURN JUMPDEST PUSH2 0x32B PUSH2 0xEF2 JUMP JUMPDEST PUSH1 0x40 MLOAD PUSH2 0x338 SWAP2 SWAP1 PUSH2 0x1BFF JUMP JUMPDEST PUSH1 0x40 MLOAD DUP1 SWAP2 SUB SWAP1 RETURN JUMPDEST PUSH2 0x349 PUSH2 0xEF9 JUMP JUMPDEST PUSH1 0x40 MLOAD PUSH2 0x356 SWAP2 SWAP1 PUSH2 0x1ACE JUMP JUMPDEST PUSH1 0x40 MLOAD DUP1 SWAP2 SUB SWAP1 RETURN JUMPDEST PUSH2 0x379 PUSH1 0x4 DUP1 CALLDATASIZE SUB DUP2 ADD SWAP1 PUSH2 0x374 SWAP2 SWAP1 PUSH2 0x1B7F JUMP JUMPDEST PUSH2 0xF89 JUMP JUMPDEST PUSH1 0x40 MLOAD PUSH2 0x386 SWAP2 SWAP1 PUSH2 0x1BD7 JUMP JUMPDEST PUSH1 0x40 MLOAD DUP1 SWAP2 SUB SWAP1 RETURN JUMPDEST PUSH2 0x397 PUSH2 0xFAB JUMP JUMPDEST PUSH1 0x40 MLOAD PUSH2 0x3A4 SWAP2 SWAP1 PUSH2 0x1D75 JUMP JUMPDEST PUSH1 0x40 MLOAD DUP1 SWAP2 SUB SWAP1 RETURN JUMPDEST PUSH2 0x3B5 PUSH2 0xFD0 JUMP JUMPDEST PUSH1 0x40 MLOAD PUSH2 0x3C2 SWAP2 SWAP1 PUSH2 0x1BFF JUMP JUMPDEST PUSH1 0x40 MLOAD DUP1 SWAP2 SUB SWAP1 RETURN JUMPDEST PUSH2 0x3D3 PUSH2 0xFD7 JUMP JUMPDEST PUSH1 0x40 MLOAD PUSH2 0x3E0 SWAP2 SWAP1 PUSH2 0x1BFF JUMP JUMPDEST PUSH1 0x40 MLOAD DUP1 SWAP2 SUB SWAP1 RETURN JUMPDEST PUSH2 0x3F1 PUSH2 0xFDD JUMP JUMPDEST PUSH1 0x40 MLOAD PUSH2 0x3FE SWAP2 SWAP1 PUSH2 0x1BFF JUMP JUMPDEST PUSH1 0x40 MLOAD DUP1 SWAP2 SUB SWAP1 RETURN JUMPDEST PUSH2 0x421 PUSH1 0x4 DUP1 CALLDATASIZE SUB DUP2 ADD SWAP1 PUSH2 0x41C SWAP2 SWAP1 PUSH2 0x1D8E JUMP JUMPDEST PUSH2 0xFE5 JUMP JUMPDEST PUSH1 0x40 MLOAD PUSH2 0x42E SWAP2 SWAP1 PUSH2 0x1BFF JUMP JUMPDEST PUSH1 0x40 MLOAD DUP1 SWAP2 SUB SWAP1 RETURN JUMPDEST PUSH2 0x43F PUSH2 0x1067 JUMP JUMPDEST PUSH1 0x40 MLOAD PUSH2 0x44C SWAP2 SWAP1 PUSH2 0x1BFF JUMP JUMPDEST PUSH1 0x40 MLOAD DUP1 SWAP2 SUB SWAP1 RETURN JUMPDEST PUSH2 0x46F PUSH1 0x4 DUP1 CALLDATASIZE SUB DUP2 ADD SWAP1 PUSH2 0x46A SWAP2 SWAP1 PUSH2 0x1C9C JUMP JUMPDEST PUSH2 0x106D JUMP JUMPDEST STOP JUMPDEST PUSH2 0x479 PUSH2 0x10F1 JUMP JUMPDEST PUSH1 0x40 MLOAD PUSH2 0x486 SWAP2 SWAP1 PUSH2 0x1BFF JUMP JUMPDEST PUSH1 0x40 MLOAD DUP1 SWAP2 SUB SWAP1 RETURN JUMPDEST PUSH1 0x60 PUSH1 0x3 DUP1 SLOAD PUSH2 0x49E SWAP1 PUSH2 0x1DF9 JUMP JUMPDEST DUP1 PUSH1 0x1F ADD PUSH1 0x20 DUP1 SWAP2 DIV MUL PUSH1 0x20 ADD PUSH1 0x40 MLOAD SWAP1 DUP2 ADD PUSH1 0x40 MSTORE DUP1 SWAP3 SWAP2 SWAP1 DUP2 DUP2 MSTORE PUSH1 0x20 ADD DUP3 DUP1 SLOAD PUSH2 0x4CA SWAP1 PUSH2 0x1DF9 JUMP JUMPDEST DUP1 ISZERO PUSH2 0x515 JUMPI DUP1 PUSH1 0x1F LT PUSH2 0x4EC JUMPI PUSH2 0x100 DUP1 DUP4 SLOAD DIV MUL DUP4 MSTORE SWAP2 PUSH1 0x20 ADD SWAP2 PUSH2 0x515 JUMP JUMPDEST DUP3 ADD SWAP2 SWAP1 PUSH0 MSTORE PUSH1 0x20 PUSH0 KECCAK256 SWAP1 JUMPDEST DUP2 SLOAD DUP2 MSTORE SWAP1 PUSH1 0x1 ADD SWAP1 PUSH1 0x20 ADD DUP1 DUP4 GT PUSH2 0x4F8 JUMPI DUP3 SWAP1 SUB PUSH1 0x1F AND DUP3 ADD SWAP2 JUMPDEST POP POP POP POP POP SWAP1 POP SWAP1 JUMP JUMPDEST PUSH0 DUP1 PUSH2 0x529 PUSH2 0x10F7 JUMP JUMPDEST SWAP1 POP PUSH2 0x536 DUP2 DUP6 DUP6 PUSH2 0x10FE JUMP JUMPDEST PUSH1 0x1 SWAP2 POP POP SWAP3 SWAP2 POP POP JUMP JUMPDEST PUSH0 PUSH1 0x2 SLOAD SWAP1 POP SWAP1 JUMP JUMPDEST PUSH1 0xA SLOAD DUP2 JUMP JUMPDEST PUSH0 DUP1 PUSH2 0x55A PUSH2 0x10F7 JUMP JUMPDEST SWAP1 POP PUSH2 0x567 DUP6 DUP3 DUP6 PUSH2 0x1110 JUMP JUMPDEST PUSH2 0x572 DUP6 DUP6 DUP6 PUSH2 0x11A2 JUMP JUMPDEST PUSH1 0x1 SWAP2 POP POP SWAP4 SWAP3 POP POP POP JUMP JUMPDEST PUSH0 PUSH1 0x12 SWAP1 POP SWAP1 JUMP JUMPDEST PUSH4 0x1BAF800 DUP2 JUMP JUMPDEST PUSH2 0x596 PUSH2 0x1292 JUMP JUMPDEST PUSH2 0x5A0 DUP3 DUP3 PUSH2 0x1319 JUMP JUMPDEST POP POP JUMP JUMPDEST PUSH1 0x8 SLOAD DUP2 JUMP JUMPDEST PUSH0 DUP1 PUSH0 DUP4 PUSH20 0xFFFFFFFFFFFFFFFFFFFFFFFFFFFFFFFFFFFFFFFF AND PUSH20 0xFFFFFFFFFFFFFFFFFFFFFFFFFFFFFFFFFFFFFFFF AND DUP2 MSTORE PUSH1 0x20 ADD SWAP1 DUP2 MSTORE PUSH1 0x20 ADD PUSH0 KECCAK256 SLOAD SWAP1 POP SWAP2 SWAP1 POP JUMP JUMPDEST PUSH2 0x5F7 PUSH2 0x1292 JUMP JUMPDEST PUSH2 0x600 PUSH0 PUSH2 0x1398 JUMP JUMPDEST JUMP JUMPDEST PUSH3 0x127500 PUSH1 0xA SLOAD PUSH2 0x613 SWAP2 SWAP1 PUSH2 0x1E56 JUMP JUMPDEST TIMESTAMP GT ISZERO PUSH2 0x655 JUMPI PUSH1 0x40 MLOAD PUSH32 0x8C379A000000000000000000000000000000000000000000000000000000000 DUP2 MSTORE PUSH1 0x4 ADD PUSH2 0x64C SWAP1 PUSH2 0x1ED3 JUMP JUMPDEST PUSH1 0x40 MLOAD DUP1 SWAP2 SUB SWAP1 REVERT JUMPDEST DUP1 PUSH1 0x9 SLOAD PUSH2 0x663 SWAP2 SWAP1 PUSH2 0x1E56 JUMP JUMPDEST PUSH1 0x8 SLOAD LT ISZERO PUSH2 0x680 PUSH1 0x9 SLOAD PUSH1 0x8 SLOAD PUSH2 0x67B SWAP2 SWAP1 PUSH2 0x1EF1 JUMP JUMPDEST PUSH2 0x145B JUMP JUMPDEST PUSH1 0x40 MLOAD PUSH1 0x20 ADD PUSH2 0x690 SWAP2 SWAP1 PUSH2 0x1FF2 JUMP JUMPDEST PUSH1 0x40 MLOAD PUSH1 0x20 DUP2 DUP4 SUB SUB DUP2 MSTORE SWAP1 PUSH1 0x40 MSTORE SWAP1 PUSH2 0x6E0 JUMPI PUSH1 0x40 MLOAD PUSH32 0x8C379A000000000000000000000000000000000000000000000000000000000 DUP2 MSTORE PUSH1 0x4 ADD PUSH2 0x6D7 SWAP2 SWAP1 PUSH2 0x1ACE JUMP JUMPDEST PUSH1 0x40 MLOAD DUP1 SWAP2 SUB SWAP1 REVERT JUMPDEST POP PUSH3 0x186A0 DUP2 PUSH1 0xC PUSH0 CALLER PUSH20 0xFFFFFFFFFFFFFFFFFFFFFFFFFFFFFFFFFFFFFFFF AND PUSH20 0xFFFFFFFFFFFFFFFFFFFFFFFFFFFFFFFFFFFFFFFF AND DUP2 MSTORE PUSH1 0x20 ADD SWAP1 DUP2 MSTORE PUSH1 0x20 ADD PUSH0 KECCAK256 SLOAD PUSH2 0x72E SWAP2 SWAP1 PUSH2 0x1E56 JUMP JUMPDEST GT ISZERO PUSH2 0x76F JUMPI PUSH1 0x40 MLOAD PUSH32 0x8C379A000000000000000000000000000000000000000000000000000000000 DUP2 MSTORE PUSH1 0x4 ADD PUSH2 0x766 SWAP1 PUSH2 0x208E JUMP JUMPDEST PUSH1 0x40 MLOAD DUP1 SWAP2 SUB SWAP1 REVERT JUMPDEST PUSH0 PUSH3 0xF4240 PUSH2 0xC350 DUP4 PUSH2 0x782 SWAP2 SWAP1 PUSH2 0x20AC JUMP JUMPDEST PUSH2 0x78C SWAP2 SWAP1 PUSH2 0x211A JUMP JUMPDEST SWAP1 POP DUP1 PUSH1 0x6 PUSH0 SWAP1 SLOAD SWAP1 PUSH2 0x100 EXP SWAP1 DIV PUSH20 0xFFFFFFFFFFFFFFFFFFFFFFFFFFFFFFFFFFFFFFFF AND PUSH20 0xFFFFFFFFFFFFFFFFFFFFFFFFFFFFFFFFFFFFFFFF AND PUSH4 0x70A08231 CALLER PUSH1 0x40 MLOAD DUP3 PUSH4 0xFFFFFFFF AND PUSH1 0xE0 SHL DUP2 MSTORE PUSH1 0x4 ADD PUSH2 0x7E9 SWAP2 SWAP1 PUSH2 0x1D01 JUMP JUMPDEST PUSH1 0x20 PUSH1 0x40 MLOAD DUP1 DUP4 SUB DUP2 DUP7 GAS STATICCALL ISZERO DUP1 ISZERO PUSH2 0x804 JUMPI RETURNDATASIZE PUSH0 DUP1 RETURNDATACOPY RETURNDATASIZE PUSH0 REVERT JUMPDEST POP POP POP POP PUSH1 0x40 MLOAD RETURNDATASIZE PUSH1 0x1F NOT PUSH1 0x1F DUP3 ADD AND DUP3 ADD DUP1 PUSH1 0x40 MSTORE POP DUP2 ADD SWAP1 PUSH2 0x828 SWAP2 SWAP1 PUSH2 0x215E JUMP JUMPDEST LT ISZERO PUSH2 0x869 JUMPI PUSH1 0x40 MLOAD PUSH32 0x8C379A000000000000000000000000000000000000000000000000000000000 DUP2 MSTORE PUSH1 0x4 ADD PUSH2 0x860 SWAP1 PUSH2 0x21D3 JUMP JUMPDEST PUSH1 0x40 MLOAD DUP1 SWAP2 SUB SWAP1 REVERT JUMPDEST PUSH1 0x6 PUSH0 SWAP1 SLOAD SWAP1 PUSH2 0x100 EXP SWAP1 DIV PUSH20 0xFFFFFFFFFFFFFFFFFFFFFFFFFFFFFFFFFFFFFFFF AND PUSH20 0xFFFFFFFFFFFFFFFFFFFFFFFFFFFFFFFFFFFFFFFF AND PUSH4 0x23B872DD CALLER ADDRESS DUP5 PUSH1 0x40 MLOAD DUP5 PUSH4 0xFFFFFFFF AND PUSH1 0xE0 SHL DUP2 MSTORE PUSH1 0x4 ADD PUSH2 0x8C7 SWAP4 SWAP3 SWAP2 SWAP1 PUSH2 0x21F1 JUMP JUMPDEST PUSH1 0x20 PUSH1 0x40 MLOAD DUP1 DUP4 SUB DUP2 PUSH0 DUP8 GAS CALL ISZERO DUP1 ISZERO PUSH2 0x8E3 JUMPI RETURNDATASIZE PUSH0 DUP1 RETURNDATACOPY RETURNDATASIZE PUSH0 REVERT JUMPDEST POP POP POP POP PUSH1 0x40 MLOAD RETURNDATASIZE PUSH1 0x1F NOT PUSH1 0x1F DUP3 ADD AND DUP3 ADD DUP1 PUSH1 0x40 MSTORE POP DUP2 ADD SWAP1 PUSH2 0x907 SWAP2 SWAP1 PUSH2 0x2250 JUMP JUMPDEST POP PUSH0 PUSH1 0xC PUSH0 CALLER PUSH20 0xFFFFFFFFFFFFFFFFFFFFFFFFFFFFFFFFFFFFFFFF AND PUSH20 0xFFFFFFFFFFFFFFFFFFFFFFFFFFFFFFFFFFFFFFFF AND DUP2 MSTORE PUSH1 0x20 ADD SWAP1 DUP2 MSTORE PUSH1 0x20 ADD PUSH0 KECCAK256 SLOAD SUB PUSH2 0x9AD JUMPI PUSH1 0xB CALLER SWAP1 DUP1 PUSH1 0x1 DUP2 SLOAD ADD DUP1 DUP3 SSTORE DUP1 SWAP2 POP POP PUSH1 0x1 SWAP1 SUB SWAP1 PUSH0 MSTORE PUSH1 0x20 PUSH0 KECCAK256 ADD PUSH0 SWAP1 SWAP2 SWAP1 SWAP2 SWAP1 SWAP2 PUSH2 0x100 EXP DUP2 SLOAD DUP2 PUSH20 0xFFFFFFFFFFFFFFFFFFFFFFFFFFFFFFFFFFFFFFFF MUL NOT AND SWAP1 DUP4 PUSH20 0xFFFFFFFFFFFFFFFFFFFFFFFFFFFFFFFFFFFFFFFF AND MUL OR SWAP1 SSTORE POP JUMPDEST DUP2 PUSH1 0xC PUSH0 CALLER PUSH20 0xFFFFFFFFFFFFFFFFFFFFFFFFFFFFFFFFFFFFFFFF AND PUSH20 0xFFFFFFFFFFFFFFFFFFFFFFFFFFFFFFFFFFFFFFFF AND DUP2 MSTORE PUSH1 0x20 ADD SWAP1 DUP2 MSTORE PUSH1 0x20 ADD PUSH0 KECCAK256 PUSH0 DUP3 DUP3 SLOAD PUSH2 0x9F9 SWAP2 SWAP1 PUSH2 0x1E56 JUMP JUMPDEST SWAP3 POP POP DUP2 SWAP1 SSTORE POP DUP2 PUSH1 0x9 PUSH0 DUP3 DUP3 SLOAD PUSH2 0xA11 SWAP2 SWAP1 PUSH2 0x1E56 JUMP JUMPDEST SWAP3 POP POP DUP2 SWAP1 SSTORE POP POP POP JUMP JUMPDEST PUSH2 0xA24 PUSH2 0x1292 JUMP JUMPDEST PUSH0 PUSH3 0x127500 PUSH1 0xA SLOAD PUSH2 0xA36 SWAP2 SWAP1 PUSH2 0x1E56 JUMP JUMPDEST TIMESTAMP PUSH2 0xA41 SWAP2 SWAP1 PUSH2 0x1EF1 JUMP JUMPDEST SWAP1 POP PUSH3 0xDD7C00 DUP2 LT ISZERO PUSH2 0xA89 JUMPI PUSH1 0x40 MLOAD PUSH32 0x8C379A000000000000000000000000000000000000000000000000000000000 DUP2 MSTORE PUSH1 0x4 ADD PUSH2 0xA80 SWAP1 PUSH2 0x22EB JUMP JUMPDEST PUSH1 0x40 MLOAD DUP1 SWAP2 SUB SWAP1 REVERT JUMPDEST PUSH0 JUMPDEST PUSH1 0xB DUP1 SLOAD SWAP1 POP DUP2 LT ISZERO PUSH2 0xEC6 JUMPI PUSH0 PUSH1 0xB DUP3 DUP2 SLOAD DUP2 LT PUSH2 0xAAD JUMPI PUSH2 0xAAC PUSH2 0x2309 JUMP JUMPDEST JUMPDEST SWAP1 PUSH0 MSTORE PUSH1 0x20 PUSH0 KECCAK256 ADD PUSH0 SWAP1 SLOAD SWAP1 PUSH2 0x100 EXP SWAP1 DIV PUSH20 0xFFFFFFFFFFFFFFFFFFFFFFFFFFFFFFFFFFFFFFFF AND SWAP1 POP PUSH4 0x1BAF800 DUP4 LT DUP1 ISZERO PUSH2 0xAFE JUMPI POP PUSH0 PUSH1 0xD PUSH0 PUSH1 0x3 DUP2 LT PUSH2 0xAFA JUMPI PUSH2 0xAF9 PUSH2 0x2309 JUMP JUMPDEST JUMPDEST ADD SLOAD EQ JUMPDEST ISZERO PUSH2 0xC29 JUMPI PUSH2 0xB62 DUP2 PUSH1 0xA PUSH1 0x2 PUSH1 0xC PUSH0 DUP7 PUSH20 0xFFFFFFFFFFFFFFFFFFFFFFFFFFFFFFFFFFFFFFFF AND PUSH20 0xFFFFFFFFFFFFFFFFFFFFFFFFFFFFFFFFFFFFFFFF AND DUP2 MSTORE PUSH1 0x20 ADD SWAP1 DUP2 MSTORE PUSH1 0x20 ADD PUSH0 KECCAK256 SLOAD PUSH2 0xB53 SWAP2 SWAP1 PUSH2 0x20AC JUMP JUMPDEST PUSH2 0xB5D SWAP2 SWAP1 PUSH2 0x211A JUMP JUMPDEST PUSH2 0xF89 JUMP JUMPDEST POP PUSH1 0xA PUSH1 0x2 PUSH1 0xC PUSH0 DUP5 PUSH20 0xFFFFFFFFFFFFFFFFFFFFFFFFFFFFFFFFFFFFFFFF AND PUSH20 0xFFFFFFFFFFFFFFFFFFFFFFFFFFFFFFFFFFFFFFFF AND DUP2 MSTORE PUSH1 0x20 ADD SWAP1 DUP2 MSTORE PUSH1 0x20 ADD PUSH0 KECCAK256 SLOAD PUSH2 0xBAF SWAP2 SWAP1 PUSH2 0x20AC JUMP JUMPDEST PUSH2 0xBB9 SWAP2 SWAP1 PUSH2 0x211A JUMP JUMPDEST PUSH1 0xC PUSH0 DUP4 PUSH20 0xFFFFFFFFFFFFFFFFFFFFFFFFFFFFFFFFFFFFFFFF AND PUSH20 0xFFFFFFFFFFFFFFFFFFFFFFFFFFFFFFFFFFFFFFFF AND DUP2 MSTORE PUSH1 0x20 ADD SWAP1 DUP2 MSTORE PUSH1 0x20 ADD PUSH0 KECCAK256 PUSH0 DUP3 DUP3 SLOAD PUSH2 0xC04 SWAP2 SWAP1 PUSH2 0x1EF1 JUMP JUMPDEST SWAP3 POP POP DUP2 SWAP1 SSTORE POP PUSH1 0x1 PUSH1 0xD PUSH0 PUSH1 0x3 DUP2 LT PUSH2 0xC21 JUMPI PUSH2 0xC20 PUSH2 0x2309 JUMP JUMPDEST JUMPDEST POP POP POP PUSH2 0xEB8 JUMP JUMPDEST PUSH4 0x375F000 DUP4 LT DUP1 ISZERO PUSH2 0xC51 JUMPI POP PUSH0 PUSH1 0xD PUSH1 0x1 PUSH1 0x3 DUP2 LT PUSH2 0xC4D JUMPI PUSH2 0xC4C PUSH2 0x2309 JUMP JUMPDEST JUMPDEST ADD SLOAD EQ JUMPDEST ISZERO PUSH2 0xD7D JUMPI PUSH2 0xCB5 DUP2 PUSH1 0xA PUSH1 0x3 PUSH1 0xC PUSH0 DUP7 PUSH20 0xFFFFFFFFFFFFFFFFFFFFFFFFFFFFFFFFFFFFFFFF AND PUSH20 0xFFFFFFFFFFFFFFFFFFFFFFFFFFFFFFFFFFFFFFFF AND DUP2 MSTORE PUSH1 0x20 ADD SWAP1 DUP2 MSTORE PUSH1 0x20 ADD PUSH0 KECCAK256 SLOAD PUSH2 0xCA6 SWAP2 SWAP1 PUSH2 0x20AC JUMP JUMPDEST PUSH2 0xCB0 SWAP2 SWAP1 PUSH2 0x211A JUMP JUMPDEST PUSH2 0xF89 JUMP JUMPDEST POP PUSH1 0xA PUSH1 0x3 PUSH1 0xC PUSH0 DUP5 PUSH20 0xFFFFFFFFFFFFFFFFFFFFFFFFFFFFFFFFFFFFFFFF AND PUSH20 0xFFFFFFFFFFFFFFFFFFFFFFFFFFFFFFFFFFFFFFFF AND DUP2 MSTORE PUSH1 0x20 ADD SWAP1 DUP2 MSTORE PUSH1 0x20 ADD PUSH0 KECCAK256 SLOAD PUSH2 0xD02 SWAP2 SWAP1 PUSH2 0x20AC JUMP JUMPDEST PUSH2 0xD0C SWAP2 SWAP1 PUSH2 0x211A JUMP JUMPDEST PUSH1 0xC PUSH0 DUP4 PUSH20 0xFFFFFFFFFFFFFFFFFFFFFFFFFFFFFFFFFFFFFFFF AND PUSH20 0xFFFFFFFFFFFFFFFFFFFFFFFFFFFFFFFFFFFFFFFF AND DUP2 MSTORE PUSH1 0x20 ADD SWAP1 DUP2 MSTORE PUSH1 0x20 ADD PUSH0 KECCAK256 PUSH0 DUP3 DUP3 SLOAD PUSH2 0xD57 SWAP2 SWAP1 PUSH2 0x1EF1 JUMP JUMPDEST SWAP3 POP POP DUP2 SWAP1 SSTORE POP PUSH1 0x1 PUSH1 0xD PUSH1 0x1 PUSH1 0x3 DUP2 LT PUSH2 0xD75 JUMPI PUSH2 0xD74 PUSH2 0x2309 JUMP JUMPDEST JUMPDEST POP POP POP PUSH2 0xEB7 JUMP JUMPDEST PUSH4 0x375F000 DUP4 LT ISZERO DUP1 ISZERO PUSH2 0xDA6 JUMPI POP PUSH0 PUSH1 0xD PUSH1 0x2 PUSH1 0x3 DUP2 LT PUSH2 0xDA2 JUMPI PUSH2 0xDA1 PUSH2 0x2309 JUMP JUMPDEST JUMPDEST ADD SLOAD EQ JUMPDEST ISZERO PUSH2 0xEB6 JUMPI PUSH2 0xDFE DUP2 PUSH1 0x2 PUSH1 0xC PUSH0 DUP6 PUSH20 0xFFFFFFFFFFFFFFFFFFFFFFFFFFFFFFFFFFFFFFFF AND PUSH20 0xFFFFFFFFFFFFFFFFFFFFFFFFFFFFFFFFFFFFFFFF AND DUP2 MSTORE PUSH1 0x20 ADD SWAP1 DUP2 MSTORE PUSH1 0x20 ADD PUSH0 KECCAK256 SLOAD PUSH2 0xDF9 SWAP2 SWAP1 PUSH2 0x211A JUMP JUMPDEST PUSH2 0xF89 JUMP JUMPDEST POP PUSH1 0x2 PUSH1 0xC PUSH0 DUP4 PUSH20 0xFFFFFFFFFFFFFFFFFFFFFFFFFFFFFFFFFFFFFFFF AND PUSH20 0xFFFFFFFFFFFFFFFFFFFFFFFFFFFFFFFFFFFFFFFF AND DUP2 MSTORE PUSH1 0x20 ADD SWAP1 DUP2 MSTORE PUSH1 0x20 ADD PUSH0 KECCAK256 SLOAD PUSH2 0xE49 SWAP2 SWAP1 PUSH2 0x211A JUMP JUMPDEST PUSH1 0xC PUSH0 DUP4 PUSH20 0xFFFFFFFFFFFFFFFFFFFFFFFFFFFFFFFFFFFFFFFF AND PUSH20 0xFFFFFFFFFFFFFFFFFFFFFFFFFFFFFFFFFFFFFFFF AND DUP2 MSTORE PUSH1 0x20 ADD SWAP1 DUP2 MSTORE PUSH1 0x20 ADD PUSH0 KECCAK256 PUSH0 DUP3 DUP3 SLOAD PUSH2 0xE94 SWAP2 SWAP1 PUSH2 0x1EF1 JUMP JUMPDEST SWAP3 POP POP DUP2 SWAP1 SSTORE POP PUSH1 0x1 PUSH1 0xD PUSH1 0x2 PUSH1 0x3 DUP2 LT PUSH2 0xEB2 JUMPI PUSH2 0xEB1 PUSH2 0x2309 JUMP JUMPDEST JUMPDEST POP POP POP JUMPDEST JUMPDEST JUMPDEST POP DUP1 DUP1 PUSH1 0x1 ADD SWAP2 POP POP PUSH2 0xA8B JUMP JUMPDEST POP POP JUMP JUMPDEST PUSH0 PUSH1 0x5 PUSH0 SWAP1 SLOAD SWAP1 PUSH2 0x100 EXP SWAP1 DIV PUSH20 0xFFFFFFFFFFFFFFFFFFFFFFFFFFFFFFFFFFFFFFFF AND SWAP1 POP SWAP1 JUMP JUMPDEST PUSH3 0x186A0 DUP2 JUMP JUMPDEST PUSH1 0x60 PUSH1 0x4 DUP1 SLOAD PUSH2 0xF08 SWAP1 PUSH2 0x1DF9 JUMP JUMPDEST DUP1 PUSH1 0x1F ADD PUSH1 0x20 DUP1 SWAP2 DIV MUL PUSH1 0x20 ADD PUSH1 0x40 MLOAD SWAP1 DUP2 ADD PUSH1 0x40 MSTORE DUP1 SWAP3 SWAP2 SWAP1 DUP2 DUP2 MSTORE PUSH1 0x20 ADD DUP3 DUP1 SLOAD PUSH2 0xF34 SWAP1 PUSH2 0x1DF9 JUMP JUMPDEST DUP1 ISZERO PUSH2 0xF7F JUMPI DUP1 PUSH1 0x1F LT PUSH2 0xF56 JUMPI PUSH2 0x100 DUP1 DUP4 SLOAD DIV MUL DUP4 MSTORE SWAP2 PUSH1 0x20 ADD SWAP2 PUSH2 0xF7F JUMP JUMPDEST DUP3 ADD SWAP2 SWAP1 PUSH0 MSTORE PUSH1 0x20 PUSH0 KECCAK256 SWAP1 JUMPDEST DUP2 SLOAD DUP2 MSTORE SWAP1 PUSH1 0x1 ADD SWAP1 PUSH1 0x20 ADD DUP1 DUP4 GT PUSH2 0xF62 JUMPI DUP3 SWAP1 SUB PUSH1 0x1F AND DUP3 ADD SWAP2 JUMPDEST POP POP POP POP POP SWAP1 POP SWAP1 JUMP JUMPDEST PUSH0 DUP1 PUSH2 0xF93 PUSH2 0x10F7 JUMP JUMPDEST SWAP1 POP PUSH2 0xFA0 DUP2 DUP6 DUP6 PUSH2 0x11A2 JUMP JUMPDEST PUSH1 0x1 SWAP2 POP POP SWAP3 SWAP2 POP POP JUMP JUMPDEST PUSH1 0x6 PUSH0 SWAP1 SLOAD SWAP1 PUSH2 0x100 EXP SWAP1 DIV PUSH20 0xFFFFFFFFFFFFFFFFFFFFFFFFFFFFFFFFFFFFFFFF AND DUP2 JUMP JUMPDEST PUSH3 0xDD7C00 DUP2 JUMP JUMPDEST PUSH2 0xC350 DUP2 JUMP JUMPDEST PUSH4 0x375F000 DUP2 JUMP JUMPDEST PUSH0 PUSH1 0x1 PUSH0 DUP5 PUSH20 0xFFFFFFFFFFFFFFFFFFFFFFFFFFFFFFFFFFFFFFFF AND PUSH20 0xFFFFFFFFFFFFFFFFFFFFFFFFFFFFFFFFFFFFFFFF AND DUP2 MSTORE PUSH1 0x20 ADD SWAP1 DUP2 MSTORE PUSH1 0x20 ADD PUSH0 KECCAK256 PUSH0 DUP4 PUSH20 0xFFFFFFFFFFFFFFFFFFFFFFFFFFFFFFFFFFFFFFFF AND PUSH20 0xFFFFFFFFFFFFFFFFFFFFFFFFFFFFFFFFFFFFFFFF AND DUP2 MSTORE PUSH1 0x20 ADD SWAP1 DUP2 MSTORE PUSH1 0x20 ADD PUSH0 KECCAK256 SLOAD SWAP1 POP SWAP3 SWAP2 POP POP JUMP JUMPDEST PUSH1 0x7 SLOAD DUP2 JUMP JUMPDEST PUSH2 0x1075 PUSH2 0x1292 JUMP JUMPDEST PUSH0 PUSH20 0xFFFFFFFFFFFFFFFFFFFFFFFFFFFFFFFFFFFFFFFF AND DUP2 PUSH20 0xFFFFFFFFFFFFFFFFFFFFFFFFFFFFFFFFFFFFFFFF AND SUB PUSH2 0x10E5 JUMPI PUSH0 PUSH1 0x40 MLOAD PUSH32 0x1E4FBDF700000000000000000000000000000000000000000000000000000000 DUP2 MSTORE PUSH1 0x4 ADD PUSH2 0x10DC SWAP2 SWAP1 PUSH2 0x1D01 JUMP JUMPDEST PUSH1 0x40 MLOAD DUP1 SWAP2 SUB SWAP1 REVERT JUMPDEST PUSH2 0x10EE DUP2 PUSH2 0x1398 JUMP JUMPDEST POP JUMP JUMPDEST PUSH1 0x9 SLOAD DUP2 JUMP JUMPDEST PUSH0 CALLER SWAP1 POP SWAP1 JUMP JUMPDEST PUSH2 0x110B DUP4 DUP4 DUP4 PUSH1 0x1 PUSH2 0x1525 JUMP JUMPDEST POP POP POP JUMP JUMPDEST PUSH0 PUSH2 0x111B DUP5 DUP5 PUSH2 0xFE5 JUMP JUMPDEST SWAP1 POP PUSH32 0xFFFFFFFFFFFFFFFFFFFFFFFFFFFFFFFFFFFFFFFFFFFFFFFFFFFFFFFFFFFFFFFF DUP2 EQ PUSH2 0x119C JUMPI DUP2 DUP2 LT ISZERO PUSH2 0x118D JUMPI DUP3 DUP2 DUP4 PUSH1 0x40 MLOAD PUSH32 0xFB8F41B200000000000000000000000000000000000000000000000000000000 DUP2 MSTORE PUSH1 0x4 ADD PUSH2 0x1184 SWAP4 SWAP3 SWAP2 SWAP1 PUSH2 0x2336 JUMP JUMPDEST PUSH1 0x40 MLOAD DUP1 SWAP2 SUB SWAP1 REVERT JUMPDEST PUSH2 0x119B DUP5 DUP5 DUP5 DUP5 SUB PUSH0 PUSH2 0x1525 JUMP JUMPDEST JUMPDEST POP POP POP POP JUMP JUMPDEST PUSH0 PUSH20 0xFFFFFFFFFFFFFFFFFFFFFFFFFFFFFFFFFFFFFFFF AND DUP4 PUSH20 0xFFFFFFFFFFFFFFFFFFFFFFFFFFFFFFFFFFFFFFFF AND SUB PUSH2 0x1212 JUMPI PUSH0 PUSH1 0x40 MLOAD PUSH32 0x96C6FD1E00000000000000000000000000000000000000000000000000000000 DUP2 MSTORE PUSH1 0x4 ADD PUSH2 0x1209 SWAP2 SWAP1 PUSH2 0x1D01 JUMP JUMPDEST PUSH1 0x40 MLOAD DUP1 SWAP2 SUB SWAP1 REVERT JUMPDEST PUSH0 PUSH20 0xFFFFFFFFFFFFFFFFFFFFFFFFFFFFFFFFFFFFFFFF AND DUP3 PUSH20 0xFFFFFFFFFFFFFFFFFFFFFFFFFFFFFFFFFFFFFFFF AND SUB PUSH2 0x1282 JUMPI PUSH0 PUSH1 0x40 MLOAD PUSH32 0xEC442F0500000000000000000000000000000000000000000000000000000000 DUP2 MSTORE PUSH1 0x4 ADD PUSH2 0x1279 SWAP2 SWAP1 PUSH2 0x1D01 JUMP JUMPDEST PUSH1 0x40 MLOAD DUP1 SWAP2 SUB SWAP1 REVERT JUMPDEST PUSH2 0x128D DUP4 DUP4 DUP4 PUSH2 0x16F4 JUMP JUMPDEST POP POP POP JUMP JUMPDEST PUSH2 0x129A PUSH2 0x10F7 JUMP JUMPDEST PUSH20 0xFFFFFFFFFFFFFFFFFFFFFFFFFFFFFFFFFFFFFFFF AND PUSH2 0x12B8 PUSH2 0xECA JUMP JUMPDEST PUSH20 0xFFFFFFFFFFFFFFFFFFFFFFFFFFFFFFFFFFFFFFFF AND EQ PUSH2 0x1317 JUMPI PUSH2 0x12DB PUSH2 0x10F7 JUMP JUMPDEST PUSH1 0x40 MLOAD PUSH32 0x118CDAA700000000000000000000000000000000000000000000000000000000 DUP2 MSTORE PUSH1 0x4 ADD PUSH2 0x130E SWAP2 SWAP1 PUSH2 0x1D01 JUMP JUMPDEST PUSH1 0x40 MLOAD DUP1 SWAP2 SUB SWAP1 REVERT JUMPDEST JUMP JUMPDEST PUSH0 PUSH20 0xFFFFFFFFFFFFFFFFFFFFFFFFFFFFFFFFFFFFFFFF AND DUP3 PUSH20 0xFFFFFFFFFFFFFFFFFFFFFFFFFFFFFFFFFFFFFFFF AND SUB PUSH2 0x1389 JUMPI PUSH0 PUSH1 0x40 MLOAD PUSH32 0xEC442F0500000000000000000000000000000000000000000000000000000000 DUP2 MSTORE PUSH1 0x4 ADD PUSH2 0x1380 SWAP2 SWAP1 PUSH2 0x1D01 JUMP JUMPDEST PUSH1 0x40 MLOAD DUP1 SWAP2 SUB SWAP1 REVERT JUMPDEST PUSH2 0x1394 PUSH0 DUP4 DUP4 PUSH2 0x16F4 JUMP JUMPDEST POP POP JUMP JUMPDEST PUSH0 PUSH1 0x5 PUSH0 SWAP1 SLOAD SWAP1 PUSH2 0x100 EXP SWAP1 DIV PUSH20 0xFFFFFFFFFFFFFFFFFFFFFFFFFFFFFFFFFFFFFFFF AND SWAP1 POP DUP2 PUSH1 0x5 PUSH0 PUSH2 0x100 EXP DUP2 SLOAD DUP2 PUSH20 0xFFFFFFFFFFFFFFFFFFFFFFFFFFFFFFFFFFFFFFFF MUL NOT AND SWAP1 DUP4 PUSH20 0xFFFFFFFFFFFFFFFFFFFFFFFFFFFFFFFFFFFFFFFF AND MUL OR SWAP1 SSTORE POP DUP2 PUSH20 0xFFFFFFFFFFFFFFFFFFFFFFFFFFFFFFFFFFFFFFFF AND DUP2 PUSH20 0xFFFFFFFFFFFFFFFFFFFFFFFFFFFFFFFFFFFFFFFF AND PUSH32 0x8BE0079C531659141344CD1FD0A4F28419497F9722A3DAAFE3B4186F6B6457E0 PUSH1 0x40 MLOAD PUSH1 0x40 MLOAD DUP1 SWAP2 SUB SWAP1 LOG3 POP POP JUMP JUMPDEST PUSH1 0x60 PUSH0 PUSH1 0x1 PUSH2 0x1469 DUP5 PUSH2 0x190D JUMP JUMPDEST ADD SWAP1 POP PUSH0 DUP2 PUSH8 0xFFFFFFFFFFFFFFFF DUP2 GT ISZERO PUSH2 0x1487 JUMPI PUSH2 0x1486 PUSH2 0x236B JUMP JUMPDEST JUMPDEST PUSH1 0x40 MLOAD SWAP1 DUP1 DUP3 MSTORE DUP1 PUSH1 0x1F ADD PUSH1 0x1F NOT AND PUSH1 0x20 ADD DUP3 ADD PUSH1 0x40 MSTORE DUP1 ISZERO PUSH2 0x14B9 JUMPI DUP2 PUSH1 0x20 ADD PUSH1 0x1 DUP3 MUL DUP1 CALLDATASIZE DUP4 CALLDATACOPY DUP1 DUP3 ADD SWAP2 POP POP SWAP1 POP JUMPDEST POP SWAP1 POP PUSH0 DUP3 PUSH1 0x20 ADD DUP3 ADD SWAP1 POP JUMPDEST PUSH1 0x1 ISZERO PUSH2 0x151A JUMPI DUP1 DUP1 PUSH1 0x1 SWAP1 SUB SWAP2 POP POP PUSH32 0x3031323334353637383961626364656600000000000000000000000000000000 PUSH1 0xA DUP7 MOD BYTE DUP2 MSTORE8 PUSH1 0xA DUP6 DUP2 PUSH2 0x150F JUMPI PUSH2 0x150E PUSH2 0x20ED JUMP JUMPDEST JUMPDEST DIV SWAP5 POP PUSH0 DUP6 SUB PUSH2 0x14C6 JUMPI JUMPDEST DUP2 SWAP4 POP POP POP POP SWAP2 SWAP1 POP JUMP JUMPDEST PUSH0 PUSH20 0xFFFFFFFFFFFFFFFFFFFFFFFFFFFFFFFFFFFFFFFF AND DUP5 PUSH20 0xFFFFFFFFFFFFFFFFFFFFFFFFFFFFFFFFFFFFFFFF AND SUB PUSH2 0x1595 JUMPI PUSH0 PUSH1 0x40 MLOAD PUSH32 0xE602DF0500000000000000000000000000000000000000000000000000000000 DUP2 MSTORE PUSH1 0x4 ADD PUSH2 0x158C SWAP2 SWAP1 PUSH2 0x1D01 JUMP JUMPDEST PUSH1 0x40 MLOAD DUP1 SWAP2 SUB SWAP1 REVERT JUMPDEST PUSH0 PUSH20 0xFFFFFFFFFFFFFFFFFFFFFFFFFFFFFFFFFFFFFFFF AND DUP4 PUSH20 0xFFFFFFFFFFFFFFFFFFFFFFFFFFFFFFFFFFFFFFFF AND SUB PUSH2 0x1605 JUMPI PUSH0 PUSH1 0x40 MLOAD PUSH32 0x94280D6200000000000000000000000000000000000000000000000000000000 DUP2 MSTORE PUSH1 0x4 ADD PUSH2 0x15FC SWAP2 SWAP1 PUSH2 0x1D01 JUMP JUMPDEST PUSH1 0x40 MLOAD DUP1 SWAP2 SUB SWAP1 REVERT JUMPDEST DUP2 PUSH1 0x1 PUSH0 DUP7 PUSH20 0xFFFFFFFFFFFFFFFFFFFFFFFFFFFFFFFFFFFFFFFF AND PUSH20 0xFFFFFFFFFFFFFFFFFFFFFFFFFFFFFFFFFFFFFFFF AND DUP2 MSTORE PUSH1 0x20 ADD SWAP1 DUP2 MSTORE PUSH1 0x20 ADD PUSH0 KECCAK256 PUSH0 DUP6 PUSH20 0xFFFFFFFFFFFFFFFFFFFFFFFFFFFFFFFFFFFFFFFF AND PUSH20 0xFFFFFFFFFFFFFFFFFFFFFFFFFFFFFFFFFFFFFFFF AND DUP2 MSTORE PUSH1 0x20 ADD SWAP1 DUP2 MSTORE PUSH1 0x20 ADD PUSH0 KECCAK256 DUP2 SWAP1 SSTORE POP DUP1 ISZERO PUSH2 0x16EE JUMPI DUP3 PUSH20 0xFFFFFFFFFFFFFFFFFFFFFFFFFFFFFFFFFFFFFFFF AND DUP5 PUSH20 0xFFFFFFFFFFFFFFFFFFFFFFFFFFFFFFFFFFFFFFFF AND PUSH32 0x8C5BE1E5EBEC7D5BD14F71427D1E84F3DD0314C0F7B2291E5B200AC8C7C3B925 DUP5 PUSH1 0x40 MLOAD PUSH2 0x16E5 SWAP2 SWAP1 PUSH2 0x1BFF JUMP JUMPDEST PUSH1 0x40 MLOAD DUP1 SWAP2 SUB SWAP1 LOG3 JUMPDEST POP POP POP POP JUMP JUMPDEST PUSH0 PUSH20 0xFFFFFFFFFFFFFFFFFFFFFFFFFFFFFFFFFFFFFFFF AND DUP4 PUSH20 0xFFFFFFFFFFFFFFFFFFFFFFFFFFFFFFFFFFFFFFFF AND SUB PUSH2 0x1744 JUMPI DUP1 PUSH1 0x2 PUSH0 DUP3 DUP3 SLOAD PUSH2 0x1738 SWAP2 SWAP1 PUSH2 0x1E56 JUMP JUMPDEST SWAP3 POP POP DUP2 SWAP1 SSTORE POP PUSH2 0x1812 JUMP JUMPDEST PUSH0 DUP1 PUSH0 DUP6 PUSH20 0xFFFFFFFFFFFFFFFFFFFFFFFFFFFFFFFFFFFFFFFF AND PUSH20 0xFFFFFFFFFFFFFFFFFFFFFFFFFFFFFFFFFFFFFFFF AND DUP2 MSTORE PUSH1 0x20 ADD SWAP1 DUP2 MSTORE PUSH1 0x20 ADD PUSH0 KECCAK256 SLOAD SWAP1 POP DUP2 DUP2 LT ISZERO PUSH2 0x17CD JUMPI DUP4 DUP2 DUP4 PUSH1 0x40 MLOAD PUSH32 0xE450D38C00000000000000000000000000000000000000000000000000000000 DUP2 MSTORE PUSH1 0x4 ADD PUSH2 0x17C4 SWAP4 SWAP3 SWAP2 SWAP1 PUSH2 0x2336 JUMP JUMPDEST PUSH1 0x40 MLOAD DUP1 SWAP2 SUB SWAP1 REVERT JUMPDEST DUP2 DUP2 SUB PUSH0 DUP1 DUP7 PUSH20 0xFFFFFFFFFFFFFFFFFFFFFFFFFFFFFFFFFFFFFFFF AND PUSH20 0xFFFFFFFFFFFFFFFFFFFFFFFFFFFFFFFFFFFFFFFF AND DUP2 MSTORE PUSH1 0x20 ADD SWAP1 DUP2 MSTORE PUSH1 0x20 ADD PUSH0 KECCAK256 DUP2 SWAP1 SSTORE POP POP JUMPDEST PUSH0 PUSH20 0xFFFFFFFFFFFFFFFFFFFFFFFFFFFFFFFFFFFFFFFF AND DUP3 PUSH20 0xFFFFFFFFFFFFFFFFFFFFFFFFFFFFFFFFFFFFFFFF AND SUB PUSH2 0x1859 JUMPI DUP1 PUSH1 0x2 PUSH0 DUP3 DUP3 SLOAD SUB SWAP3 POP POP DUP2 SWAP1 SSTORE POP PUSH2 0x18A3 JUMP JUMPDEST DUP1 PUSH0 DUP1 DUP5 PUSH20 0xFFFFFFFFFFFFFFFFFFFFFFFFFFFFFFFFFFFFFFFF AND PUSH20 0xFFFFFFFFFFFFFFFFFFFFFFFFFFFFFFFFFFFFFFFF AND DUP2 MSTORE PUSH1 0x20 ADD SWAP1 DUP2 MSTORE PUSH1 0x20 ADD PUSH0 KECCAK256 PUSH0 DUP3 DUP3 SLOAD ADD SWAP3 POP POP DUP2 SWAP1 SSTORE POP JUMPDEST DUP2 PUSH20 0xFFFFFFFFFFFFFFFFFFFFFFFFFFFFFFFFFFFFFFFF AND DUP4 PUSH20 0xFFFFFFFFFFFFFFFFFFFFFFFFFFFFFFFFFFFFFFFF AND PUSH32 0xDDF252AD1BE2C89B69C2B068FC378DAA952BA7F163C4A11628F55A4DF523B3EF DUP4 PUSH1 0x40 MLOAD PUSH2 0x1900 SWAP2 SWAP1 PUSH2 0x1BFF JUMP JUMPDEST PUSH1 0x40 MLOAD DUP1 SWAP2 SUB SWAP1 LOG3 POP POP POP JUMP JUMPDEST PUSH0 DUP1 PUSH0 SWAP1 POP PUSH27 0x184F03E93FF9F4DAA797ED6E38ED64BF6A1F010000000000000000 DUP4 LT PUSH2 0x1969 JUMPI PUSH27 0x184F03E93FF9F4DAA797ED6E38ED64BF6A1F010000000000000000 DUP4 DUP2 PUSH2 0x195F JUMPI PUSH2 0x195E PUSH2 0x20ED JUMP JUMPDEST JUMPDEST DIV SWAP3 POP PUSH1 0x40 DUP2 ADD SWAP1 POP JUMPDEST PUSH14 0x4EE2D6D415B85ACEF8100000000 DUP4 LT PUSH2 0x19A6 JUMPI PUSH14 0x4EE2D6D415B85ACEF8100000000 DUP4 DUP2 PUSH2 0x199C JUMPI PUSH2 0x199B PUSH2 0x20ED JUMP JUMPDEST JUMPDEST DIV SWAP3 POP PUSH1 0x20 DUP2 ADD SWAP1 POP JUMPDEST PUSH7 0x2386F26FC10000 DUP4 LT PUSH2 0x19D5 JUMPI PUSH7 0x2386F26FC10000 DUP4 DUP2 PUSH2 0x19CB JUMPI PUSH2 0x19CA PUSH2 0x20ED JUMP JUMPDEST JUMPDEST DIV SWAP3 POP PUSH1 0x10 DUP2 ADD SWAP1 POP JUMPDEST PUSH4 0x5F5E100 DUP4 LT PUSH2 0x19FE JUMPI PUSH4 0x5F5E100 DUP4 DUP2 PUSH2 0x19F4 JUMPI PUSH2 0x19F3 PUSH2 0x20ED JUMP JUMPDEST JUMPDEST DIV SWAP3 POP PUSH1 0x8 DUP2 ADD SWAP1 POP JUMPDEST PUSH2 0x2710 DUP4 LT PUSH2 0x1A23 JUMPI PUSH2 0x2710 DUP4 DUP2 PUSH2 0x1A19 JUMPI PUSH2 0x1A18 PUSH2 0x20ED JUMP JUMPDEST JUMPDEST DIV SWAP3 POP PUSH1 0x4 DUP2 ADD SWAP1 POP JUMPDEST PUSH1 0x64 DUP4 LT PUSH2 0x1A46 JUMPI PUSH1 0x64 DUP4 DUP2 PUSH2 0x1A3C JUMPI PUSH2 0x1A3B PUSH2 0x20ED JUMP JUMPDEST JUMPDEST DIV SWAP3 POP PUSH1 0x2 DUP2 ADD SWAP1 POP JUMPDEST PUSH1 0xA DUP4 LT PUSH2 0x1A55 JUMPI PUSH1 0x1 DUP2 ADD SWAP1 POP JUMPDEST DUP1 SWAP2 POP POP SWAP2 SWAP1 POP JUMP JUMPDEST PUSH0 DUP2 MLOAD SWAP1 POP SWAP2 SWAP1 POP JUMP JUMPDEST PUSH0 DUP3 DUP3 MSTORE PUSH1 0x20 DUP3 ADD SWAP1 POP SWAP3 SWAP2 POP POP JUMP JUMPDEST DUP3 DUP2 DUP4 MCOPY PUSH0 DUP4 DUP4 ADD MSTORE POP POP POP JUMP JUMPDEST PUSH0 PUSH1 0x1F NOT PUSH1 0x1F DUP4 ADD AND SWAP1 POP SWAP2 SWAP1 POP JUMP JUMPDEST PUSH0 PUSH2 0x1AA0 DUP3 PUSH2 0x1A5E JUMP JUMPDEST PUSH2 0x1AAA DUP2 DUP6 PUSH2 0x1A68 JUMP JUMPDEST SWAP4 POP PUSH2 0x1ABA DUP2 DUP6 PUSH1 0x20 DUP7 ADD PUSH2 0x1A78 JUMP JUMPDEST PUSH2 0x1AC3 DUP2 PUSH2 0x1A86 JUMP JUMPDEST DUP5 ADD SWAP2 POP POP SWAP3 SWAP2 POP POP JUMP JUMPDEST PUSH0 PUSH1 0x20 DUP3 ADD SWAP1 POP DUP2 DUP2 SUB PUSH0 DUP4 ADD MSTORE PUSH2 0x1AE6 DUP2 DUP5 PUSH2 0x1A96 JUMP JUMPDEST SWAP1 POP SWAP3 SWAP2 POP POP JUMP JUMPDEST PUSH0 DUP1 REVERT JUMPDEST PUSH0 PUSH20 0xFFFFFFFFFFFFFFFFFFFFFFFFFFFFFFFFFFFFFFFF DUP3 AND SWAP1 POP SWAP2 SWAP1 POP JUMP JUMPDEST PUSH0 PUSH2 0x1B1B DUP3 PUSH2 0x1AF2 JUMP JUMPDEST SWAP1 POP SWAP2 SWAP1 POP JUMP JUMPDEST PUSH2 0x1B2B DUP2 PUSH2 0x1B11 JUMP JUMPDEST DUP2 EQ PUSH2 0x1B35 JUMPI PUSH0 DUP1 REVERT JUMPDEST POP JUMP JUMPDEST PUSH0 DUP2 CALLDATALOAD SWAP1 POP PUSH2 0x1B46 DUP2 PUSH2 0x1B22 JUMP JUMPDEST SWAP3 SWAP2 POP POP JUMP JUMPDEST PUSH0 DUP2 SWAP1 POP SWAP2 SWAP1 POP JUMP JUMPDEST PUSH2 0x1B5E DUP2 PUSH2 0x1B4C JUMP JUMPDEST DUP2 EQ PUSH2 0x1B68 JUMPI PUSH0 DUP1 REVERT JUMPDEST POP JUMP JUMPDEST PUSH0 DUP2 CALLDATALOAD SWAP1 POP PUSH2 0x1B79 DUP2 PUSH2 0x1B55 JUMP JUMPDEST SWAP3 SWAP2 POP POP JUMP JUMPDEST PUSH0 DUP1 PUSH1 0x40 DUP4 DUP6 SUB SLT ISZERO PUSH2 0x1B95 JUMPI PUSH2 0x1B94 PUSH2 0x1AEE JUMP JUMPDEST JUMPDEST PUSH0 PUSH2 0x1BA2 DUP6 DUP3 DUP7 ADD PUSH2 0x1B38 JUMP JUMPDEST SWAP3 POP POP PUSH1 0x20 PUSH2 0x1BB3 DUP6 DUP3 DUP7 ADD PUSH2 0x1B6B JUMP JUMPDEST SWAP2 POP POP SWAP3 POP SWAP3 SWAP1 POP JUMP JUMPDEST PUSH0 DUP2 ISZERO ISZERO SWAP1 POP SWAP2 SWAP1 POP JUMP JUMPDEST PUSH2 0x1BD1 DUP2 PUSH2 0x1BBD JUMP JUMPDEST DUP3 MSTORE POP POP JUMP JUMPDEST PUSH0 PUSH1 0x20 DUP3 ADD SWAP1 POP PUSH2 0x1BEA PUSH0 DUP4 ADD DUP5 PUSH2 0x1BC8 JUMP JUMPDEST SWAP3 SWAP2 POP POP JUMP JUMPDEST PUSH2 0x1BF9 DUP2 PUSH2 0x1B4C JUMP JUMPDEST DUP3 MSTORE POP POP JUMP JUMPDEST PUSH0 PUSH1 0x20 DUP3 ADD SWAP1 POP PUSH2 0x1C12 PUSH0 DUP4 ADD DUP5 PUSH2 0x1BF0 JUMP JUMPDEST SWAP3 SWAP2 POP POP JUMP JUMPDEST PUSH0 DUP1 PUSH0 PUSH1 0x60 DUP5 DUP7 SUB SLT ISZERO PUSH2 0x1C2F JUMPI PUSH2 0x1C2E PUSH2 0x1AEE JUMP JUMPDEST JUMPDEST PUSH0 PUSH2 0x1C3C DUP7 DUP3 DUP8 ADD PUSH2 0x1B38 JUMP JUMPDEST SWAP4 POP POP PUSH1 0x20 PUSH2 0x1C4D DUP7 DUP3 DUP8 ADD PUSH2 0x1B38 JUMP JUMPDEST SWAP3 POP POP PUSH1 0x40 PUSH2 0x1C5E DUP7 DUP3 DUP8 ADD PUSH2 0x1B6B JUMP JUMPDEST SWAP2 POP POP SWAP3 POP SWAP3 POP SWAP3 JUMP JUMPDEST PUSH0 PUSH1 0xFF DUP3 AND SWAP1 POP SWAP2 SWAP1 POP JUMP JUMPDEST PUSH2 0x1C7D DUP2 PUSH2 0x1C68 JUMP JUMPDEST DUP3 MSTORE POP POP JUMP JUMPDEST PUSH0 PUSH1 0x20 DUP3 ADD SWAP1 POP PUSH2 0x1C96 PUSH0 DUP4 ADD DUP5 PUSH2 0x1C74 JUMP JUMPDEST SWAP3 SWAP2 POP POP JUMP JUMPDEST PUSH0 PUSH1 0x20 DUP3 DUP5 SUB SLT ISZERO PUSH2 0x1CB1 JUMPI PUSH2 0x1CB0 PUSH2 0x1AEE JUMP JUMPDEST JUMPDEST PUSH0 PUSH2 0x1CBE DUP5 DUP3 DUP6 ADD PUSH2 0x1B38 JUMP JUMPDEST SWAP2 POP POP SWAP3 SWAP2 POP POP JUMP JUMPDEST PUSH0 PUSH1 0x20 DUP3 DUP5 SUB SLT ISZERO PUSH2 0x1CDC JUMPI PUSH2 0x1CDB PUSH2 0x1AEE JUMP JUMPDEST JUMPDEST PUSH0 PUSH2 0x1CE9 DUP5 DUP3 DUP6 ADD PUSH2 0x1B6B JUMP JUMPDEST SWAP2 POP POP SWAP3 SWAP2 POP POP JUMP JUMPDEST PUSH2 0x1CFB DUP2 PUSH2 0x1B11 JUMP JUMPDEST DUP3 MSTORE POP POP JUMP JUMPDEST PUSH0 PUSH1 0x20 DUP3 ADD SWAP1 POP PUSH2 0x1D14 PUSH0 DUP4 ADD DUP5 PUSH2 0x1CF2 JUMP JUMPDEST SWAP3 SWAP2 POP POP JUMP JUMPDEST PUSH0 DUP2 SWAP1 POP SWAP2 SWAP1 POP JUMP JUMPDEST PUSH0 PUSH2 0x1D3D PUSH2 0x1D38 PUSH2 0x1D33 DUP5 PUSH2 0x1AF2 JUMP JUMPDEST PUSH2 0x1D1A JUMP JUMPDEST PUSH2 0x1AF2 JUMP JUMPDEST SWAP1 POP SWAP2 SWAP1 POP JUMP JUMPDEST PUSH0 PUSH2 0x1D4E DUP3 PUSH2 0x1D23 JUMP JUMPDEST SWAP1 POP SWAP2 SWAP1 POP JUMP JUMPDEST PUSH0 PUSH2 0x1D5F DUP3 PUSH2 0x1D44 JUMP JUMPDEST SWAP1 POP SWAP2 SWAP1 POP JUMP JUMPDEST PUSH2 0x1D6F DUP2 PUSH2 0x1D55 JUMP JUMPDEST DUP3 MSTORE POP POP JUMP JUMPDEST PUSH0 PUSH1 0x20 DUP3 ADD SWAP1 POP PUSH2 0x1D88 PUSH0 DUP4 ADD DUP5 PUSH2 0x1D66 JUMP JUMPDEST SWAP3 SWAP2 POP POP JUMP JUMPDEST PUSH0 DUP1 PUSH1 0x40 DUP4 DUP6 SUB SLT ISZERO PUSH2 0x1DA4 JUMPI PUSH2 0x1DA3 PUSH2 0x1AEE JUMP JUMPDEST JUMPDEST PUSH0 PUSH2 0x1DB1 DUP6 DUP3 DUP7 ADD PUSH2 0x1B38 JUMP JUMPDEST SWAP3 POP POP PUSH1 0x20 PUSH2 0x1DC2 DUP6 DUP3 DUP7 ADD PUSH2 0x1B38 JUMP JUMPDEST SWAP2 POP POP SWAP3 POP SWAP3 SWAP1 POP JUMP JUMPDEST PUSH32 0x4E487B7100000000000000000000000000000000000000000000000000000000 PUSH0 MSTORE PUSH1 0x22 PUSH1 0x4 MSTORE PUSH1 0x24 PUSH0 REVERT JUMPDEST PUSH0 PUSH1 0x2 DUP3 DIV SWAP1 POP PUSH1 0x1 DUP3 AND DUP1 PUSH2 0x1E10 JUMPI PUSH1 0x7F DUP3 AND SWAP2 POP JUMPDEST PUSH1 0x20 DUP3 LT DUP2 SUB PUSH2 0x1E23 JUMPI PUSH2 0x1E22 PUSH2 0x1DCC JUMP JUMPDEST JUMPDEST POP SWAP2 SWAP1 POP JUMP JUMPDEST PUSH32 0x4E487B7100000000000000000000000000000000000000000000000000000000 PUSH0 MSTORE PUSH1 0x11 PUSH1 0x4 MSTORE PUSH1 0x24 PUSH0 REVERT JUMPDEST PUSH0 PUSH2 0x1E60 DUP3 PUSH2 0x1B4C JUMP JUMPDEST SWAP2 POP PUSH2 0x1E6B DUP4 PUSH2 0x1B4C JUMP JUMPDEST SWAP3 POP DUP3 DUP3 ADD SWAP1 POP DUP1 DUP3 GT ISZERO PUSH2 0x1E83 JUMPI PUSH2 0x1E82 PUSH2 0x1E29 JUMP JUMPDEST JUMPDEST SWAP3 SWAP2 POP POP JUMP JUMPDEST PUSH32 0x70726573616C65206973206F7665720000000000000000000000000000000000 PUSH0 DUP3 ADD MSTORE POP JUMP JUMPDEST PUSH0 PUSH2 0x1EBD PUSH1 0xF DUP4 PUSH2 0x1A68 JUMP JUMPDEST SWAP2 POP PUSH2 0x1EC8 DUP3 PUSH2 0x1E89 JUMP JUMPDEST PUSH1 0x20 DUP3 ADD SWAP1 POP SWAP2 SWAP1 POP JUMP JUMPDEST PUSH0 PUSH1 0x20 DUP3 ADD SWAP1 POP DUP2 DUP2 SUB PUSH0 DUP4 ADD MSTORE PUSH2 0x1EEA DUP2 PUSH2 0x1EB1 JUMP JUMPDEST SWAP1 POP SWAP2 SWAP1 POP JUMP JUMPDEST PUSH0 PUSH2 0x1EFB DUP3 PUSH2 0x1B4C JUMP JUMPDEST SWAP2 POP PUSH2 0x1F06 DUP4 PUSH2 0x1B4C JUMP JUMPDEST SWAP3 POP DUP3 DUP3 SUB SWAP1 POP DUP2 DUP2 GT ISZERO PUSH2 0x1F1E JUMPI PUSH2 0x1F1D PUSH2 0x1E29 JUMP JUMPDEST JUMPDEST SWAP3 SWAP2 POP POP JUMP JUMPDEST PUSH0 DUP2 SWAP1 POP SWAP3 SWAP2 POP POP JUMP JUMPDEST PUSH32 0x4F6E6C7920000000000000000000000000000000000000000000000000000000 PUSH0 DUP3 ADD MSTORE POP JUMP JUMPDEST PUSH0 PUSH2 0x1F62 PUSH1 0x5 DUP4 PUSH2 0x1F24 JUMP JUMPDEST SWAP2 POP PUSH2 0x1F6D DUP3 PUSH2 0x1F2E JUMP JUMPDEST PUSH1 0x5 DUP3 ADD SWAP1 POP SWAP2 SWAP1 POP JUMP JUMPDEST PUSH0 PUSH2 0x1F82 DUP3 PUSH2 0x1A5E JUMP JUMPDEST PUSH2 0x1F8C DUP2 DUP6 PUSH2 0x1F24 JUMP JUMPDEST SWAP4 POP PUSH2 0x1F9C DUP2 DUP6 PUSH1 0x20 DUP7 ADD PUSH2 0x1A78 JUMP JUMPDEST DUP1 DUP5 ADD SWAP2 POP POP SWAP3 SWAP2 POP POP JUMP JUMPDEST PUSH32 0x2042534D20417661696C61626C65000000000000000000000000000000000000 PUSH0 DUP3 ADD MSTORE POP JUMP JUMPDEST PUSH0 PUSH2 0x1FDC PUSH1 0xE DUP4 PUSH2 0x1F24 JUMP JUMPDEST SWAP2 POP PUSH2 0x1FE7 DUP3 PUSH2 0x1FA8 JUMP JUMPDEST PUSH1 0xE DUP3 ADD SWAP1 POP SWAP2 SWAP1 POP JUMP JUMPDEST PUSH0 PUSH2 0x1FFC DUP3 PUSH2 0x1F56 JUMP JUMPDEST SWAP2 POP PUSH2 0x2008 DUP3 DUP5 PUSH2 0x1F78 JUMP JUMPDEST SWAP2 POP PUSH2 0x2013 DUP3 PUSH2 0x1FD0 JUMP JUMPDEST SWAP2 POP DUP2 SWAP1 POP SWAP3 SWAP2 POP POP JUMP JUMPDEST PUSH32 0x5072652D53616C657320546F6B656E20616D6F756E742063616E6E6F74206578 PUSH0 DUP3 ADD MSTORE PUSH32 0x6365656420313030303030000000000000000000000000000000000000000000 PUSH1 0x20 DUP3 ADD MSTORE POP JUMP JUMPDEST PUSH0 PUSH2 0x2078 PUSH1 0x2B DUP4 PUSH2 0x1A68 JUMP JUMPDEST SWAP2 POP PUSH2 0x2083 DUP3 PUSH2 0x201E JUMP JUMPDEST PUSH1 0x40 DUP3 ADD SWAP1 POP SWAP2 SWAP1 POP JUMP JUMPDEST PUSH0 PUSH1 0x20 DUP3 ADD SWAP1 POP DUP2 DUP2 SUB PUSH0 DUP4 ADD MSTORE PUSH2 0x20A5 DUP2 PUSH2 0x206C JUMP JUMPDEST SWAP1 POP SWAP2 SWAP1 POP JUMP JUMPDEST PUSH0 PUSH2 0x20B6 DUP3 PUSH2 0x1B4C JUMP JUMPDEST SWAP2 POP PUSH2 0x20C1 DUP4 PUSH2 0x1B4C JUMP JUMPDEST SWAP3 POP DUP3 DUP3 MUL PUSH2 0x20CF DUP2 PUSH2 0x1B4C JUMP JUMPDEST SWAP2 POP DUP3 DUP3 DIV DUP5 EQ DUP4 ISZERO OR PUSH2 0x20E6 JUMPI PUSH2 0x20E5 PUSH2 0x1E29 JUMP JUMPDEST JUMPDEST POP SWAP3 SWAP2 POP POP JUMP JUMPDEST PUSH32 0x4E487B7100000000000000000000000000000000000000000000000000000000 PUSH0 MSTORE PUSH1 0x12 PUSH1 0x4 MSTORE PUSH1 0x24 PUSH0 REVERT JUMPDEST PUSH0 PUSH2 0x2124 DUP3 PUSH2 0x1B4C JUMP JUMPDEST SWAP2 POP PUSH2 0x212F DUP4 PUSH2 0x1B4C JUMP JUMPDEST SWAP3 POP DUP3 PUSH2 0x213F JUMPI PUSH2 0x213E PUSH2 0x20ED JUMP JUMPDEST JUMPDEST DUP3 DUP3 DIV SWAP1 POP SWAP3 SWAP2 POP POP JUMP JUMPDEST PUSH0 DUP2 MLOAD SWAP1 POP PUSH2 0x2158 DUP2 PUSH2 0x1B55 JUMP JUMPDEST SWAP3 SWAP2 POP POP JUMP JUMPDEST PUSH0 PUSH1 0x20 DUP3 DUP5 SUB SLT ISZERO PUSH2 0x2173 JUMPI PUSH2 0x2172 PUSH2 0x1AEE JUMP JUMPDEST JUMPDEST PUSH0 PUSH2 0x2180 DUP5 DUP3 DUP6 ADD PUSH2 0x214A JUMP JUMPDEST SWAP2 POP POP SWAP3 SWAP2 POP POP JUMP JUMPDEST PUSH32 0x6E656564206D6F72652055534454000000000000000000000000000000000000 PUSH0 DUP3 ADD MSTORE POP JUMP JUMPDEST PUSH0 PUSH2 0x21BD PUSH1 0xE DUP4 PUSH2 0x1A68 JUMP JUMPDEST SWAP2 POP PUSH2 0x21C8 DUP3 PUSH2 0x2189 JUMP JUMPDEST PUSH1 0x20 DUP3 ADD SWAP1 POP SWAP2 SWAP1 POP JUMP JUMPDEST PUSH0 PUSH1 0x20 DUP3 ADD SWAP1 POP DUP2 DUP2 SUB PUSH0 DUP4 ADD MSTORE PUSH2 0x21EA DUP2 PUSH2 0x21B1 JUMP JUMPDEST SWAP1 POP SWAP2 SWAP1 POP JUMP JUMPDEST PUSH0 PUSH1 0x60 DUP3 ADD SWAP1 POP PUSH2 0x2204 PUSH0 DUP4 ADD DUP7 PUSH2 0x1CF2 JUMP JUMPDEST PUSH2 0x2211 PUSH1 0x20 DUP4 ADD DUP6 PUSH2 0x1CF2 JUMP JUMPDEST PUSH2 0x221E PUSH1 0x40 DUP4 ADD DUP5 PUSH2 0x1BF0 JUMP JUMPDEST SWAP5 SWAP4 POP POP POP POP JUMP JUMPDEST PUSH2 0x222F DUP2 PUSH2 0x1BBD JUMP JUMPDEST DUP2 EQ PUSH2 0x2239 JUMPI PUSH0 DUP1 REVERT JUMPDEST POP JUMP JUMPDEST PUSH0 DUP2 MLOAD SWAP1 POP PUSH2 0x224A DUP2 PUSH2 0x2226 JUMP JUMPDEST SWAP3 SWAP2 POP POP JUMP JUMPDEST PUSH0 PUSH1 0x20 DUP3 DUP5 SUB SLT ISZERO PUSH2 0x2265 JUMPI PUSH2 0x2264 PUSH2 0x1AEE JUMP JUMPDEST JUMPDEST PUSH0 PUSH2 0x2272 DUP5 DUP3 DUP6 ADD PUSH2 0x223C JUMP JUMPDEST SWAP2 POP POP SWAP3 SWAP2 POP POP JUMP JUMPDEST PUSH32 0x52656C65617365642061667465722036206D6F6E746873206F66207072697661 PUSH0 DUP3 ADD MSTORE PUSH32 0x74652073616C6573000000000000000000000000000000000000000000000000 PUSH1 0x20 DUP3 ADD MSTORE POP JUMP JUMPDEST PUSH0 PUSH2 0x22D5 PUSH1 0x28 DUP4 PUSH2 0x1A68 JUMP JUMPDEST SWAP2 POP PUSH2 0x22E0 DUP3 PUSH2 0x227B JUMP JUMPDEST PUSH1 0x40 DUP3 ADD SWAP1 POP SWAP2 SWAP1 POP JUMP JUMPDEST PUSH0 PUSH1 0x20 DUP3 ADD SWAP1 POP DUP2 DUP2 SUB PUSH0 DUP4 ADD MSTORE PUSH2 0x2302 DUP2 PUSH2 0x22C9 JUMP JUMPDEST SWAP1 POP SWAP2 SWAP1 POP JUMP JUMPDEST PUSH32 0x4E487B7100000000000000000000000000000000000000000000000000000000 PUSH0 MSTORE PUSH1 0x32 PUSH1 0x4 MSTORE PUSH1 0x24 PUSH0 REVERT JUMPDEST PUSH0 PUSH1 0x60 DUP3 ADD SWAP1 POP PUSH2 0x2349 PUSH0 DUP4 ADD DUP7 PUSH2 0x1CF2 JUMP JUMPDEST PUSH2 0x2356 PUSH1 0x20 DUP4 ADD DUP6 PUSH2 0x1BF0 JUMP JUMPDEST PUSH2 0x2363 PUSH1 0x40 DUP4 ADD DUP5 PUSH2 0x1BF0 JUMP JUMPDEST SWAP5 SWAP4 POP POP POP POP JUMP JUMPDEST PUSH32 0x4E487B7100000000000000000000000000000000000000000000000000000000 PUSH0 MSTORE PUSH1 0x41 PUSH1 0x4 MSTORE PUSH1 0x24 PUSH0 REVERT INVALID LOG2 PUSH5 0x6970667358 0x22 SLT KECCAK256 0x2C PUSH13 0xE93E3DAE82879718DF4172423C EXTCODEHASH DUP13 TIMESTAMP 0xDB 0xF9 0xB5 LOG3 0x2D DUP2 LOG0 0xEF CALL 0x4F GASLIMIT SWAP14 TSTORE TIMESTAMP PUSH5 0x736F6C6343 STOP ADDMOD BYTE STOP CALLER "
				},
				"gasEstimates": {
					"creation": {
						"codeDepositCost": "1833200",
						"executionCost": "infinite",
						"totalCost": "infinite"
					},
					"external": {
						"FORTY_EIGHT_WEEKS()": "348",
						"NINETY_SIX_WEEKS()": "414",
						"PRICE_PER_TOKEN_PRESALE()": "392",
						"TWENTY_FOUR_WEEKS()": "370",
						"allowance(address,address)": "infinite",
						"approve(address,uint256)": "infinite",
						"balanceOf(address)": "2918",
						"buyPrivateSale(uint256)": "infinite",
						"decimals()": "472",
						"mint(address,uint256)": "infinite",
						"name()": "infinite",
						"owner()": "2560",
						"preSaleCap()": "2492",
						"preSalesLimitPerBeneficiary()": "392",
						"presaleOn()": "2515",
						"presalePeriod()": "2491",
						"release()": "infinite",
						"renounceOwnership()": "infinite",
						"soldAmount()": "2535",
						"symbol()": "infinite",
						"totalSupply()": "2500",
						"transfer(address,uint256)": "infinite",
						"transferFrom(address,address,uint256)": "infinite",
						"transferOwnership(address)": "infinite",
						"usdtToken()": "infinite"
					}
				},
				"methodIdentifiers": {
					"FORTY_EIGHT_WEEKS()": "33e41e33",
					"NINETY_SIX_WEEKS()": "cc043928",
					"PRICE_PER_TOKEN_PRESALE()": "c4fe8758",
					"TWENTY_FOUR_WEEKS()": "be9aed0e",
					"allowance(address,address)": "dd62ed3e",
					"approve(address,uint256)": "095ea7b3",
					"balanceOf(address)": "70a08231",
					"buyPrivateSale(uint256)": "8603dab3",
					"decimals()": "313ce567",
					"mint(address,uint256)": "40c10f19",
					"name()": "06fdde03",
					"owner()": "8da5cb5b",
					"preSaleCap()": "446303f3",
					"preSalesLimitPerBeneficiary()": "956711e9",
					"presaleOn()": "1ad874b4",
					"presalePeriod()": "e10cc836",
					"release()": "86d1a69f",
					"renounceOwnership()": "715018a6",
					"soldAmount()": "fa1a5f59",
					"symbol()": "95d89b41",
					"totalSupply()": "18160ddd",
					"transfer(address,uint256)": "a9059cbb",
					"transferFrom(address,address,uint256)": "23b872dd",
					"transferOwnership(address)": "f2fde38b",
					"usdtToken()": "a98ad46c"
				}
			},
			"storageLayout": {
				"storage": [
					{
						"astId": 307,
						"contract": "BistroMap/Tokens/bistromap_ERC20.sol:BSM",
						"label": "_balances",
						"offset": 0,
						"slot": "0",
						"type": "t_mapping(t_address,t_uint256)"
					},
					{
						"astId": 313,
						"contract": "BistroMap/Tokens/bistromap_ERC20.sol:BSM",
						"label": "_allowances",
						"offset": 0,
						"slot": "1",
						"type": "t_mapping(t_address,t_mapping(t_address,t_uint256))"
					},
					{
						"astId": 315,
						"contract": "BistroMap/Tokens/bistromap_ERC20.sol:BSM",
						"label": "_totalSupply",
						"offset": 0,
						"slot": "2",
						"type": "t_uint256"
					},
					{
						"astId": 317,
						"contract": "BistroMap/Tokens/bistromap_ERC20.sol:BSM",
						"label": "_name",
						"offset": 0,
						"slot": "3",
						"type": "t_string_storage"
					},
					{
						"astId": 319,
						"contract": "BistroMap/Tokens/bistromap_ERC20.sol:BSM",
						"label": "_symbol",
						"offset": 0,
						"slot": "4",
						"type": "t_string_storage"
					},
					{
						"astId": 8,
						"contract": "BistroMap/Tokens/bistromap_ERC20.sol:BSM",
						"label": "_owner",
						"offset": 0,
						"slot": "5",
						"type": "t_address"
					},
					{
						"astId": 2379,
						"contract": "BistroMap/Tokens/bistromap_ERC20.sol:BSM",
						"label": "usdtToken",
						"offset": 0,
						"slot": "6",
						"type": "t_contract(IERC20)877"
					},
					{
						"astId": 2408,
						"contract": "BistroMap/Tokens/bistromap_ERC20.sol:BSM",
						"label": "presalePeriod",
						"offset": 0,
						"slot": "7",
						"type": "t_uint256"
					},
					{
						"astId": 2410,
						"contract": "BistroMap/Tokens/bistromap_ERC20.sol:BSM",
						"label": "preSaleCap",
						"offset": 0,
						"slot": "8",
						"type": "t_uint256"
					},
					{
						"astId": 2412,
						"contract": "BistroMap/Tokens/bistromap_ERC20.sol:BSM",
						"label": "soldAmount",
						"offset": 0,
						"slot": "9",
						"type": "t_uint256"
					},
					{
						"astId": 2414,
						"contract": "BistroMap/Tokens/bistromap_ERC20.sol:BSM",
						"label": "presaleOn",
						"offset": 0,
						"slot": "10",
						"type": "t_uint256"
					},
					{
						"astId": 2417,
						"contract": "BistroMap/Tokens/bistromap_ERC20.sol:BSM",
						"label": "beneficiaries",
						"offset": 0,
						"slot": "11",
						"type": "t_array(t_address)dyn_storage"
					},
					{
						"astId": 2421,
						"contract": "BistroMap/Tokens/bistromap_ERC20.sol:BSM",
						"label": "balances",
						"offset": 0,
						"slot": "12",
						"type": "t_mapping(t_address,t_uint256)"
					},
					{
						"astId": 2425,
						"contract": "BistroMap/Tokens/bistromap_ERC20.sol:BSM",
						"label": "tokenReleased",
						"offset": 0,
						"slot": "13",
						"type": "t_array(t_uint256)3_storage"
					}
				],
				"types": {
					"t_address": {
						"encoding": "inplace",
						"label": "address",
						"numberOfBytes": "20"
					},
					"t_array(t_address)dyn_storage": {
						"base": "t_address",
						"encoding": "dynamic_array",
						"label": "address[]",
						"numberOfBytes": "32"
					},
					"t_array(t_uint256)3_storage": {
						"base": "t_uint256",
						"encoding": "inplace",
						"label": "uint256[3]",
						"numberOfBytes": "96"
					},
					"t_contract(IERC20)877": {
						"encoding": "inplace",
						"label": "contract IERC20",
						"numberOfBytes": "20"
					},
					"t_mapping(t_address,t_mapping(t_address,t_uint256))": {
						"encoding": "mapping",
						"key": "t_address",
						"label": "mapping(address => mapping(address => uint256))",
						"numberOfBytes": "32",
						"value": "t_mapping(t_address,t_uint256)"
					},
					"t_mapping(t_address,t_uint256)": {
						"encoding": "mapping",
						"key": "t_address",
						"label": "mapping(address => uint256)",
						"numberOfBytes": "32",
						"value": "t_uint256"
					},
					"t_string_storage": {
						"encoding": "bytes",
						"label": "string",
						"numberOfBytes": "32"
					},
					"t_uint256": {
						"encoding": "inplace",
						"label": "uint256",
						"numberOfBytes": "32"
					}
				}
			},
			"userdoc": {
				"kind": "user",
				"methods": {
					"mint(address,uint256)": {
						"notice": "Creates `_amount` token to `_to`. Must only be called by the owner (MasterChef)."
					}
				},
				"version": 1
			}
		}
	}
}